:10000000000081316C290800803121005F189D14A7
:100010005E155E0822000C0624398C062000931120
:100020009D3085002100430820008E1A013884008D
:10003000003F2100C30045082200951801388400C4
:10004000003F2100C5004408220015180138840033
:10005000003F2100C400C31E3A2841353E39203EEE
:100060008400033085002C081A002D081A00C10AEC
:10007000C00AC201481CDE124718DE12451B772851
:10008000B11FD428B00F4528B10AB20F4828B30ACF
:10009000B31BD4284718D4282A3086002B30870079
:1000A0002C0886022D0F8702871F59288609870989
:1000B000860AB43006020030073B031C68282C3047
:1000C00006020130073B031C6828DE16471048145F
:1000D0003208143C031DD428F030B200F030B300D5
:1000E0000F30B0000F30B10047144810D42847102B
:1000F0004810B1012C08AA002D08AB0038080319DC
:10010000AC28FD3EE3000A3EE40037302E0200300A
:100110002F3B031CAC2828082E02B20029082F3BD5
:10012000B300F0300318B2000318B3002808243CD1
:1001300084002908313B850014303202B0000030C1
:10014000333BB100040830020508313B0318AC28EA
:10015000C330B000FE30B100451ED4283714353509
:100160000E39603E8400033085002C081A002D08EB
:100170001A00B50AB40AB6012408A0002508A10097
:100180002608A2002708A3003A08B900A401A50187
:10019000A601A701BA0138080319D428023EE100DC
:1001A000013EE200023EE0002C08AC0FD828AD0A68
:1001B00003390B00DE2812293F2957292300A61FE7
:1001C000A60A24080319F3280C302602031CF3287E
:1001D000A60125081F39A03E840003308500003F9A
:1001E0009A00A50AA4032100C60A5F1C08299D18CD
:1001F000F7281B0984009E30850084350318850A82
:100200001200A4071200A53D0001A63DA73DBA0AB1
:10021000DF01E11FE10B090015309D0020309E0039
:100220005F1409002300A21FA20A2000911E2B299F
:100230002300A2011908850020302002031C2B296D
:1002400023081F39C03E84000330050685060506D5
:10025000803FA30AA00A21005F1C35299D182E2982
:100260001C08803C031C003CBC00DF01E21FE20BC9
:10027000090019309D0020309E005F140900E31F23
:10028000E30B472944084506803A090DBE0D5F1C63
:100290004D299D1849291C08BD00DF01E01FE00B16
:1002A00009000D309D0020309E005F140900E41FFE
:1002B000E40B5F2944084506803A090DBF0D5F1C19
:1002C00065299D1861291C08BB0025309D00A030C0
:1002D0009E005F1409000900880188311828210058
:1002E000B808031D77292000B401B501DE293708BD
:1002F0000319DE2939080319DE2923082000E90043
:10030000210022082000E800210021082000E70049
:10031000210020082000E600E635E70DE80DE90D94
:10032000210039082000E200E301E401E501210099
:10033000B90120006908F3006808F2006708F100BD
:100340006608F000F92181317008E6007108E700C5
:10035000E801E9016308F3006208F200F001F1012D
:10036000F92181317008E2007108E300E401E50140
:100370006508D8006408D7006308D6006208D50075
:100380006908F3006808F2006708F1006608F000E9
:100390000930F701F601F5006230F400C52481311F
:1003A0007308DC007208DB007108DA007008D900FD
:1003B000482281315608B5005508B40003302000AA
:1003C0003502E830031934020318E929AA01AB0108
:1003D0000800AA0A0319AB0A02302B02583003198D
:1003E0002A02031C0800CB08031D08000830CB00BC
:1003F00008001030DA01DB01DC01DD01D601D70194
:10040000D801D901D500DA35DB0DDC0DDD0DD6358F
:10041000D70DD80DD90DF31B5614F035F10DF20D93
:10042000F30DD635D70DD80DD90DF31B5614F03575
:10043000F10DF20DF30D5D08E1005C08E0005B08D2
:10044000DF005A08DE00DE35DF0DE00DE10D5E1441
:1004500061085902031D362A60085802031D362A16
:100460005F085702031D362A5E085602031C412A04
:100470005E08D6025F08D73B6008D83B6108D93BCD
:100480005A14D50B032A5B08F1005A08F000080043
:10049000DD01DE01DF01E001580857045604550470
:1004A00003197E2AE101E10AD81B5B2AD535D60D56
:1004B000D70DD80D532ADD35DE0DDF0DE00D5808C0
:1004C0005C02031D6D2A57085B02031D6D2A560846
:1004D0005A02031D6D2A55085902031C782A550833
:1004E000D9025608DA3B5708DB3B5808DC3B5D1461
:1004F000D836D70CD60CD50CE10B5B2A6008D80097
:100500005F08D7005E08D6005D08D50008004208E5
:10051000031DC203390838040319922A2100B808C0
:10052000031D672B20007A30C1018B132100AE0020
:10053000AF018B1708008B132100AE01AF018B17A1
:10054000290828040319080020003908B3003808D6
:10055000B2005030A200D030A301A001A1012100BF
:10056000C9000730CA003230CB00F430CC01CD00D6
:100570000130CE003C30CF01D001D300D401D101F5
:10058000D2015408D8005308D7005408D6005308A5
:10059000D5002000C830C10AC20008002100370879
:1005A00003190800023020004B0203180800390824
:1005B0003306031DDD2A380832060319F52A3908E7
:1005C0003302031DE52A380832020318E92AC8302D
:1005D000C2003908B3003808B200210058082000D2
:1005E000A300210057082000A20032303902C83091
:1005F00003193802031C042B19304202031C022B7E
:100600001930C2003818C20121002908F100280859
:10061000F0003630F200F301B6238131710820007A
:10062000EC007008EB000630EC36EB0C890B142B59
:100630001030A2070318A30A2308803AE8006C08C8
:10064000803A6802031D262B6B082202031C2D2B07
:1006500020006C08A3006B08A20020003908EA0003
:100660003808E9003608E9023708EA3BC208031DEA
:100670003B2BEA1F402BF4302100C9000130442BF2
:10068000D0302100C9000730CA0020006A08FD00F0
:100690006908FC00C930CB238131381C562B283027
:1006A000F000F1016C08F3006B085C2B2830F000BF
:1006B000F1012308F3002208F200C93071238131CF
:1006C0008B1321005808AF005708AE00992A20006C
:1006D0004108003A03199B2A013A0319CE2A702BCC
:1006E0000800F7007108803AF4007308803A740239
:1006F000031D7C2B720870020318080077080E3E59
:1007000086008701403FF400413FF5007308803ABE
:10071000F6007508803A7602031D902B7408720269
:10072000770803189B2B0E3E860087017208C03F96
:100730007308C13F08000E3E86008701403FF40069
:10074000413FF500803AF6007108803A7602031DB9
:10075000AB2B700874020318080077080E3E860061
:1007600087017008C03F7108C13F0800F401F5011E
:10077000701CBE2B7208F4077308F53DF235F30DBB
:10078000F136F00C71087004031DB82B7508F100E8
:100790007408F0000800E7000C3E86008701403F27
:1007A000D500413FD60067080E3E8600403FD70087
:1007B000413FD800803AD9005608803A5902031DBB
:1007C000E32B550857020318E72BFD1F302C2000A0
:1007D00067080E3E86008701403FD500413FD600A6
:1007E00067080C3E8600403FD700413FD800803A62
:1007F000D9005608803A5902031D002C55085702AB
:100800000318042CFD1B302C20006708023E8600D4
:100810008701403FD500413FD6005508F0005608FB
:10082000F100890D893B8909F200F3007C08F4008E
:100830007D08F500890D893B8909F600F700C5247C
:1008400081316708083E86008701700881074131C1
:100850007108813D41317208813D41317308813D0C
:1008600020006708083E86008701403FD500413FD1
:10087000D600423FD700433FD8006708063E8600B7
:10088000403FD900413FDA005908DB005A08DC003C
:100890000030DC1BFF30DD00DE006708043E860010
:1008A000403FDF00413FE0005F08F0006008F100DA
:1008B000890D893B8909F200F3007C08F4007D086A
:1008C000F500890D893B8909F600F700C5248131BF
:1008D0007008E1007108E2007208E3007308E400A8
:1008E000670886008701403FE500413FE600650854
:1008F000F0006608F100890D893B8909F200F300D8
:100900007C08F4007D08F500890D893B8909F60013
:10091000F700C52481317008E1077108E23D7208D3
:10092000E33D7308E43D5B08E1025C08E23B5D08DF
:10093000E33B5E08E43B6108D5076208D63D6308E7
:10094000D73D6408D83D67080C3E860087015508EE
:10095000C03F5608C13F5708C23F5808C33F670809
:100960000E3E8600403FD500413FD60067080C3E52
:1009700086005508C03F5608C13F6708063E8600FE
:100980007C08C03F7D08C13F0800F801F901FA0169
:10099000FB01701CD32C7408F8077508F93D760824
:1009A000FA3D7708FB3DF435F50DF60DF70DF336FE
:1009B000F20CF10CF00C7308720471047004031D46
:1009C000C92C7B08F3007A08F2007908F100780856
:1009D000F000080020004B0BF02CCC01CC0AF22CCC
:1009E000E6258431CD2684312000270826042504FD
:1009F00024040319DB2D0130F300F401F501F601A5
:100A0000A4027408A53B7508A63B7608A73BDB2D1E
:100A10000130B801B901D001D00AA701A601A50093
:100A2000F430A4000800CB08031D262D2708260457
:100A3000250424040230031D272DCB01CB0AD0004E
:100A40001730A701A601A5007030A40002304B02A8
:100A5000031C382D4B08CE000330D0006430A400B6
:100A6000A501A601A701A736A60CA50CA40C080099
:100A700021003E08FF3A031D08003F08FF3A031D0E
:100A800008002000CD1B08000230D0007530A701FF
:100A9000A601A5003030A4000800CB08031D5E2D80
:100AA0002708260425042404031D5E2D1730CB01DE
:100AB000CB0AA701A601A5007030A4004B0B6D2D39
:100AC0000230CF000830B8000730B9001730A70156
:100AD000A601A5007030A400080002304B02031CE0
:100AE000C52D4B08CE000330D0000530A400A50171
:100AF000A601A7010800CF01B801B9010800023022
:100B0000CF000830B8000730B90008000230CF002D
:100B1000C430B8000930B90008000230CF00883076
:100B2000B8001330B90008000330CF007030B800AF
:100B30001730B90008000430CF004030B8001F3033
:100B4000B90008000530CF001C30B8002530B900CE
:100B500008000630CF000430B8002930B900080082
:100B60000730CF00E030B8002E30B9000800073061
:100B7000CF00BC30B8003430B9000800BD30CF0120
:100B8000CF0AB8003430B90008004C08FF3E031CFF
:100B90007B2D84000A30040203187B2D8831043534
:100BA000003E82002708260425042404031D0800B3
:100BB0000430D000080050088400043004020318F8
:100BC000D22D913104350B3E820008005408E50017
:100BD000143065020318FD2D6508143CE500210062
:100BE0003D0820006507E60021003D082000660260
:100BF00003180A2EFF30E6000A2EEC30E5076508E0
:100C000021003D022000E60021003D0203180A2ECB
:100C10002000E6012100B808031D112E2000CC01A0
:100C200008000C30200066020318192E0A30CC0090
:100C30000800293066020318202ECC01CC0A0800D7
:100C40002B3066020318312E02304C02031C2B2E6F
:100C50000230D5002D2ED501D50AD6015508CC007D
:100C600008005D3066020318382E0230CC00080000
:100C70005F3066020318472E03304C02031C422EDD
:100C80000330432E0230D700D801CC000800743066
:100C9000660203184E2E0330CC0008007630660240
:100CA00003185D2E04304C02031C582E0430592EBC
:100CB0000330D900DA01CC0008008830660203183E
:100CC000642E0430CC0008008A3066020318732EAC
:100CD00005304C02031C6E2E05306F2E0430DB00F5
:100CE000DC01CC0008009D30660203187A2E053026
:100CF000CC0008009F3066020318892E06304C0293
:100D0000031C842E0630852E0530DD00DE01CC006C
:100D10000800B73066020318902E0630CC00080099
:100D2000B930660203189F2E07304C02031C9A2E1E
:100D300007309B2E0630DF00E001CC000800D030E9
:100D400066020318A62E0730CC000800D2306602D7
:100D50000318B52E08304C02031CB02E0830B12EFB
:100D60000730E100E201CC000800EF306602031812
:100D7000BC2E0830CC000800F130660209300318A0
:100D8000CB2E4C02031CC62E0930C72E0830E300C0
:100D9000E401CC000800CC0008003108300403193D
:100DA000382F0130B0020030B13B382F2100380815
:100DB0000319080020000630BF0AB000B101080086
:100DC00031083004031D08004C080A3A031DEC2EBC
:100DD000BF0A22000D130800FF302000BF000800EA
:100DE0004C0B08002C30BF0AB0000130B1000800E5
:100DF0004C0BEC2E00303102643003193002031C1E
:100E00000A2F21003D082000BE0021003D082000DF
:100E1000BD0008003E0821003D020318122F3D08C6
:100E20002000BE0021003D0820003D0203181C2FB9
:100E300021003D082000BD0031083004031D0800DA
:100E40000A303E02031CEC2E1E303D020318EC2E2D
:100E5000BF0A08003E083D07F100F201F20D720DD5
:100E6000F20CF10C71084327843122000D17EC2E8F
:100E70003F0884000530040203180800913104354E
:100E8000013E82000800F0005406031908007008B3
:100E9000D400CA17080032302100C20A4202031CE3
:100EA000582F3230C200C0012000B601B701D02F48
:100EB00003304002031CD02F1E304002031C622F5F
:100EC0001E30C0004008FE3E2000E4002100410822
:100ED000FF3E2000E6000430E50164020318882F7D
:100EE0006408E50066021F390907203E86000330CA
:100EF000870066081F390907203E840003308500FB
:100F0000403F0002E2000131413F003BE300AC2FD3
:100F10000430E402E507650866021F390907203E30
:100F200086000330870066081F390907203E8400C9
:100F300003308500403F0002E2000131413F003BA9
:100F4000E30004306402031CAC2F0630630240301F
:100F500003196202031C882F6208D5006308D600BB
:100F6000D701D8016508F0000930F101F201F30161
:100F7000F701F6002730F500C030F4008431C524B5
:100F800087317308DC007208DB007108DA00700832
:100F9000D9008231482287315608B7005508B6007B
:100FA00021003808FC00FD012F087D02031DDA2F07
:100FB0002E087C020318E82F03302000370220306F
:100FC00003193602031CEC2F210040080319EC2FF3
:100FD0002000AC01AD0108002000AC0A0319AD0AE5
:100FE00001302D022C3003192C02031C0800CB0801
:100FF000031D08000730CB00080054080800080053
:1010000085317F2D8531862D85318D2D8531942D2E
:1010100085319B2D8531A22D8531A92D8531B02DAE
:081020008531B72D8531BE2D8D
:10102E0008002030840000308500353097312A27A3
:10103E008831A0308400003085003E3097312A2759
:10104E008831A030840001308500083097312A277E
:10105E0088310130ED00200034288B135F20883159
:10106E004021883158218831B52288318B17640090
:10107E00643021004602031C3D286430C6020F2155
:10108E0088315D218831DE238431EA2488310A24B7
:10109E00883120005008043A03194A0803195A28C7
:1010AE000530ED003D28ED0B3D28ED01ED0A3D2804
:1010BE00F0308B1321009900980111309700220017
:1010CE009D019E0104302100DE0022008C001B30A9
:1010DE0021008C00113023008C0024008C0127008D
:1010EE008C01E03022008D00303021008D00230075
:1010FE008D0124008D01203027008D0022008E01ED
:10110E00EF3021008E00CF3023008E0024008E01A0
:10111E0027008E0122009701990198010330920059
:10112E008230910001309400A2309300A030210053
:10113E009E0025309D00FF30DF01DF0AE100E20056
:10114E00E0000A30BC01BD01BB01A401A501A6014E
:10115E00A701BA01A001A101A201A301B9012300B7
:10116E009F001F309B0003309C009D0104309E00A9
:10117E009D171D169E16A601A401A701A501A20189
:10118E00A001A301A1012000990130309800313057
:10119E0028009D0005309E002000910192019301D0
:1011AE009401210091019201083093009401FF30C7
:1011BE000B17C601AC01AD01E300E400BE01BF0197
:1011CE00C301C501C401B201B301B001B101AA014D
:1011DE00AB01C701C801F0017035203E8600033017
:1011EE0087008101413120308101F00A7002031C19
:1011FE00F328F0017035603E8600033087008101D0
:10120E00413108308101F00A7002031808000129EB
:10121E0022009D019E011B3021008C001130230005
:10122E008C0024008C0127008C01303021008D00B1
:10123E0023008D0124008D01203027008D00EF301A
:10124E0021008E00CF3023008E0024008E01270057
:10125E008E0122009701980199018230910003308E
:10126E009200A2309300013094002100C701C80102
:10127E0008002100B501B401B601A801A901B80109
:10128E00B701C101C001C201AE01AF012000B8011A
:10129E00B901B601B701B401B501CB01CD01CD0342
:1012AE000800D001CF01CE01CC010800643020002F
:1012BE00C00A4002031C0800C0014C08F700F801E8
:1012CE00CD2188312C30BC21883121003D08F7001A
:1012DE00F801CD2188312C30BC21883121003B080A
:1012EE00F700F801CD2188312C30BC218831200047
:1012FE003908F8003808F700CD2188312C30BC2190
:10130E00883120003708F8003608F700CD218831E3
:10131E002C30BC21883120003508F8003408F70045
:10132E00CD2188312C30BC21883120004D08F700AA
:10133E00F801F71BF803CD2188312C30BC21883100
:10134E00FE30AD228831F700F801CD2188312C30E6
:10135E00BC21883120004B08F700F801CD218831DF
:10136E000D30BC2188310A30BC29F000203023001A
:10137E0024020318080027081F39A03E86000330F8
:10138E00870070088100A70AA40A08002730F90117
:10139E007802103003197702031CF3291030F00085
:1013AE002730F1007808F3007708F20068228831C0
:1013BE007008303EBC2188311030F0002730F1002B
:1013CE007808F3007708F2008D2288317108F80052
:1013DE007008F700F901F90AF908031DFD29033019
:1013EE007802E83003197702031C1B2AE830F0005C
:1013FE000330F1007808F3007708F2006822883194
:10140E007008303EBC218831E830F0000330F10026
:10141E007808F3007708F2008D2288317108F80001
:10142E007008F700F901F90AF908031D252A0030A2
:10143E007802643003197702031C412A6430F000ED
:10144E00F1017808F3007708F200682288317008FD
:10145E00303EBC2188316430F000F1017808F30091
:10146E007708F2008D2288317108F8007008F700B5
:10147E00F901F90AF908031D4B2A003078020A30E7
:10148E0003197702031C652A0A30F000F10178086F
:10149E00F3007708F200682288317008303EBC21D4
:1014AE0088310A30F000F1017808F3007708F20075
:1014BE008D2288317108F8007008F7007708303EE9
:1014CE00BC29F401F501710870040319882AF6018C
:1014DE00F60AF11B752AF035F10D6F2AF435F50D6C
:1014EE0071087302031D7D2A70087202031C842A80
:1014FE007008F2027108F33B7414F136F00CF60B1F
:10150E00752A7508F1007408F0000800710870045F
:10151E000319A82AF401F40AF11B982AF035F10DEB
:10152E00922A71087302031D9E2A70087202031C10
:10153E00A42A7008F2027108F33BF136F00CF40B9A
:10154E00982A7308F1007208F0000800F0002300DA
:10155E009100151395131514130808001E30CA01B7
:10156E002100D9002030DA01DB01DC01DD01F100C0
:10157E000430F2000730F3002330A72388312830DF
:10158E00F1000430F2001530F3003830A723883113
:10159E004030F1000430F2001C30F3008F30A723EE
:1015AE008831A030F1000430F2000730F3002A3009
:1015BE00A7238831A830F1000430F2000730F30081
:1015CE003130A7238831B030F1000430F2000E30F4
:1015DE00F3005430A72388312030F1000530F2009B
:1015EE000730F3001C30A72388312730F100053077
:1015FE00F2000930F3008630A72388313030F10035
:10160E000530F2001C30F3006230A72388315030D1
:10161E00F1000530F2000730F3007E30A723883149
:10162E005730F1000530F2008530F301F30AA7239D
:10163E0088315830F1000530F2000730F3004D309C
:10164E00A7238831A030F1000530F2000430F300FA
:10165E00D730A7238831A430F1000530F2000430D2
:10166E00F300DF30A7238831A830F1000530F200F7
:10167E000430F300D330A72388312030F100063038
:10168E00F2000430F300AB30A72388312430F10090
:10169E000630F2002430F300AF30A72388315030EB
:1016AE00F1000630F2000230F300E530A723883156
:1016BE005430F1000630F2001230F300E730A72369
:1016CE0088315830F1000630F2000430F300DB3080
:1016DE00A72388315C30F1000630F2000230F300AF
:1016EE00E330A72388315430F100FE30F201F301CC
:1016FE00F30AA7238831A830F0000430F100A0309F
:10170E00BC238831F600F61F982B2B002B08A30064
:10171E002A08A2002908A1002808A00020004A16C5
:10172E0008007608803A7F3E031C08002B00230831
:10173E00AB002208AA002108A9002008A800952BBA
:10174E00F500F3037308FF3A031908007508AD227C
:10175E008831F400710886007208870074088100D1
:10176E00F50AF10A0319F20AA82BF400F10803197D
:10177E000034F10371087407F2008600053087000B
:10178E0071087007F300840005308500000801021F
:10179E00031CFF3471087007F2008600710874078D
:1017AE00F300840000080102031C0134BD2B1F2727
:1017BE0081316F21883187314B27883102304B02BE
:1017CE000318EE2B7627823187228831072C3908B1
:1017DE00093AC43003193806031DF82B70308B13E9
:1017EE00032C3908133A8830031938068B13031D5E
:1017FE00022C7530032C7A302100AE00AF018B170E
:10180E002100B7010800973199278831003A031952
:10181E00142CE525973154278831682588314A1CC8
:10182E003F2C2030F2000430F3000730F400233058
:10183E0047258831003A031908002830F200043099
:10184E00F3001530F400383047258831003A03197B
:10185E0008004030F2000430F3001C30F4008F30EA
:10186E0047258831003A0319080020004A10080065
:10187E00CA1C682CA030F2000430F3000730F400CC
:10188E002A3047258831003A03190800A830F200A3
:10189E000430F3000730F400313047258831003A28
:1018AE0003190800B030F2000430F3000E30F400DB
:1018BE00543047258831003A031908002000CA1019
:1018CE0008004A1D912C2030F2000530F30007303D
:1018DE00F4001C3047258831003A031908002730E0
:1018EE00F2000530F3000930F400863047258831C8
:1018FE00003A031908003030F2000530F3001C30B6
:10190E00F400623047258831003A031908002000A0
:10191E004A110800CA1DBA2C5030F2000530F300EF
:10192E000730F4007E3047258831003A031908004D
:10193E005730F2000530F3008530F401F40A4725E4
:10194E008831003A031908005830F2000530F300D0
:10195E000730F4004D3047258831003A031908004E
:10196E002000CA1108004A1EE32CA030F2000530F8
:10197E00F3000430F400D73047258831003A0319BC
:10198E000800A430F2000530F3000430F400DF301C
:10199E0047258831003A03190800A830F2000530B7
:1019AE00F3000430F400D33047258831003A031990
:1019BE00080020004A120800CA1E182D2030F2001E
:1019CE000630F3000430F400AB3047258831003A7E
:1019DE00031908002430F2000630F3002430F4001E
:1019EE00AF3047258831003A031908005030F20015
:1019FE000630F3000230F400E53047258831003A16
:101A0E00031908005430F2000630F3001230F400CF
:101A1E00E73047258831003A031908002000CA1222
:101A2E0008004A1F352D5830F2000630F3000430FE
:101A3E00F400DB3047258831003A031908005C308A
:101A4E00F2000630F3000230F400E330472588310F
:101A5E00003A0319080020004A130800CA1F452D3A
:101A6E005430F200FE30F301F401F40A47258831B8
:101A7E00003A031908002000CA130800CA01080022
:101A8E00F500F4080319642DF40372088600730838
:101A9E0087007508AD2288310106031D5B2DF50AFE
:101AAE00F20A0319F30A482D72088600730887009C
:101ABE000108F00075080F2788317408031D0034E3
:101ACE00013420004E080319702D0A304E02031CFB
:101ADE00722DC301080043084E06031908004E0874
:101AEE00C3002A002508A6002408A5002308A40088
:101AFE002208A3002108A2002008A10020004E0801
:101B0E00E03E2A00A00020004E08263E860005304A
:101B1E0087004830810AF0000530F1004430F200B1
:101B2E000530F3000430F400C62688314430F0004E
:101B3E000530F1004030F2000530F3000430F400BF
:101B4E00C62688314030F0000530F1003C30F200FE
:101B5E000530F3000430F400C62688313C30F00026
:101B6E000530F1003830F2000530F3000430F40097
:101B7E00C62688313830F0000530F1003430F200DE
:101B8E000530F3000430F400C62688313430F000FE
:101B9E000530F1003030F2000530F3000430F4006F
:101BAE00C62688313030F0000530F100DA30F20010
:101BBE000430F301F400C6264A1508005130F00136
:101BCE00F00ADC27883120004F0846060319F32D52
:101BDE004F08C600C4010800023044020318F92D54
:101BEE00C40A08004F0845060319A82E0330F0005A
:101BFE00513097313027883145080319222E08308D
:101C0E0045020318222E2830F0000430F100513026
:101C1E00F2000330F301F400C62688311E30510263
:101C2E0051080318E23EF0004508090709073C3E3B
:101C3E00DE2688314A144F08C5000330D100D20188
:101C4E00D30145080319080008304502031808009F
:101C5E0028002508A6002408A5002308A4002208B1
:101C6E00A3002108A2002008A10020004508F03E94
:101C7E002800A0003A30F0000430F1003730F200B6
:101C8E000430F3000330F400C62688313730F000FC
:101C9E000430F1003430F2000430F3000330F4006D
:101CAE00C62688313430F0000430F1003130F200B5
:101CBE000430F3000330F400C62688313130F000D2
:101CCE000430F1002E30F2000430F3000330F40043
:101CDE00C62688312E30F0000430F1002B30F20091
:101CEE000430F3000330F400C62688312B30F000A8
:101CFE000430F1002830F2000430F3000330F40019
:101D0E00C62688312830F0000430F1005130F20040
:101D1E000330F301F400C62688310330F0002000B2
:101D2E00A12ED208031DC42E51081E3A031DC42E27
:101D3E001B30F0004508090709073C3EDE264A1411
:101D4E00080045080319080008304502031808006A
:101D5E0051080319B62E51081E3A031D08002830EB
:101D6E00F0000430F1005130F2000330F301F400C2
:101D7E00C6268831D3080319982E1E30A02EF403E0
:101D8E007408FF3A0319080072088600730887006A
:101D9E000108F5007008860071088700750881003B
:101DAE00F00A0319F10AF20A0319F30AC62EF1001A
:101DBE0086000430870070088107710886003C3069
:101DCE000102031C0800710886003C308102710874
:101DDE00013E8600810A7108013E86003C300102F8
:101DEE00031C08007108013E86003C308102710818
:101DFE00023E8600810A7108023E86000430810888
:101E0E00031D08007108033E86000430810A080095
:101E1E00F1009100700893005530151395131515A8
:101E2E008B139600AA30960095148B171511080087
:101E3E002100B808031D2A2F2000AE01AF01BC01FE
:101E4E00BB01BA0108003708031908003B0820003F
:101E5E00AE070318AF0A023021003B0203183B2FD6
:101E6E0020007F30BC0ACD00FE3021003B02031C57
:101E7E00432F2000BC0ACD0104302000BA0A3A02DA
:101E8E00031C0800BC08031D672FBB012F08F100BF
:101E9E002E08F000F136F00CF136F00C7008013E11
:101EAE00840090300318013E85000008CD00803A72
:101EBE00133E031C712FCB08031D712F0430702F9E
:101ECE000A30BB0A3B02031C712FCB08031D712F76
:101EDE000330CB00AE01AF01BC01BA0108000530E2
:101EEE002100B60A36020530031C832FB600B4015A
:101EFE00B801A801A901C42F3402031CC42F053058
:101F0E00B4003508FF3EF200FC3E07390907603E7B
:101F1E00860003308700720807390907603E840087
:101F2E0003308500403F0002F3000131413F003B8A
:101F3E00F4000130F436F30CF436F30CF436F30CF3
:101F4E0074022D3003197302031CC42F0130740266
:101F5E00F430031973020318C42F7408A900730810
:101F6E00A8007408F1007308F000F136F00CF13699
:101F7E00F00CF136F00C7008B80038080319CB2FAE
:101F8E002000A801A90108002000A80A0319A90A27
:101F9E00013029022C3003192802031C0800CB083B
:101FAE00031D08000A30CB000800F10086008701EF
:101FBE0070088107710886003C300102031C08007E
:101FCE00710886003C3081027108013E8600810A4C
:101FDE007108013E86003C300102031C08007108A6
:101FEE00013E86003C3081027108023E8600810A65
:101FFE00080000347F347F347F347F347F347F3465
:10200E007F347F347F347F347F347F347F347F342A
:10201E007F347F347F347F347F347F347F347F341A
:10202E007F347F347F347F347F347F347F347F340A
:10203E007F347F347F347F347F347F347F347F34FA
:10204E007F347F347F347F347F347F347F347F34EA
:10205E007F347F347F347F347F347F347F347F34DA
:10206E007F347F347F347F347F347F347F347F34CA
:10207E007F347F347E347D347C347B347A347A34CE
:10208E0079347834773477347634753475347434EF
:10209E007334733472347134713470346F346F340A
:1020AE006E346D346D346C346B346B346A346A3424
:1020BE00693468346834673467346634663465343A
:1020CE00643464346334633462346234613461344E
:1020DE00603460345F345E345E345D345D345C3461
:1020EE005C345B345B345A345A3459345934583472
:1020FE005834573457345634563455345534543482
:10210E005434533453345234523451345134503491
:10211E0050344F344F344E344E344D344D344C34A1
:10212E004C344B344B344A344A34493449344834B1
:10213E0048344734473446344634453445344434C1
:10214E0044344334433442344234413441344034D1
:10215E0040343F343F343E343E343D343D343C34E1
:10216E003C343B343B343A343A34393438343834F2
:10217E003734373436343634353435343434333406
:10218E003334323432343134303430342F342E341C
:10219E002E342D342D342C342B342A342A34293435
:1021AE002834283427342634253425342434233453
:1021BE0022342134213420341F341E341D341C3477
:1021CE001B341A34193418341734153414341334A8
:1021DE00123410340F340D340C340A3408340634EF
:1021EE00043402340034003400340034003400343B
:1021FE00003400348631D62E8631E02E8631F02E14
:10220E008631F82E87312A2F8531082D8531132DF1
:08221E0085314D2D8531D22DD3
:102E5400640080010131890B2B2F0034F1008600BE
:102E6400870170088102710886003C300102031C4E
:102E74000800710886003C3081077108013E860015
:102E840081037108013E86003C300102031C0800E6
:102E94007108013E86003C3081077108023E8600BD
:102EA40081030800CF08031D5B2FC7014D08C8002C
:102EB40008004D08F000F101F01BF1037108803A9D
:102EC400803C031D682F70082A0057020318702FD6
:102ED40020004D082A00D7002000CA152000480809
:102EE400803AF0004D08803AF00203187B2F4D0819
:102EF400C8002100D908031D08002000C708031DCD
:102F0400922FC701C70A2A005D08DE005C08DD00B5
:102F14005B08DC005A08DB005908DA005808D900BD
:102F2400200048082A00D8002000CA150800643090
:102F34002000C90A4902031C00343C30C9012100A5
:102F4400D90A5902031C0134DA30D901F000F10125
:102F5400F201F20AC4279731A030F0000530F100E5
:102F6400F201F20AC427A830F0000530F100A030C5
:102F7400F2000530F3000430F4008E31C626200040
:102F84004A160134700886007108870072088107A8
:102F940070088600710887003C300102031C080099
:102FA40070088600710887003C3081027008013E79
:102FB40086000030713D8700810A7008013E86005A
:102FC4000030713D87008108031D08007008023E2F
:102FD40086000030713D8700810A7008023E860039
:102FE4000030713D87008108031D08007008033E0E
:0C2FF40086000030713D8700810A080053
:103A00000034023404348634003482348434DE34A6
:103A100060340A340C348E3408348A348C348E3456
:103A20000034023404348634003482348434DE3486
:103A300060340A340C348E3408348A348C348E3436
:103A40000034023404348634003482348434DE3466
:103A500060340A340C348E3408348A348C348E3416
:103A60000034023404348634003482348434DE3446
:103A700060340A340C348E3408348A348C348E34F6
:103A80000034023404348634003482348434DE3426
:103A900060340A340C348E3408348A348C348E34D6
:103AA0000034023404348634003482348434DE3406
:103AB00060340A340C348E3408348A348C348E34B6
:103AC0000034023404348634003482348434DE34E6
:103AD00060340A340C348E3408348A348C348E3496
:103AE0000034023404348634003482348434DE34C6
:103AF00060340A340C348E3408348A348C348E3476
:103B00000034023404348634003482348434DE34A5
:103B100060340A340C348E3408348A348C348E3455
:103B20000034023404348634003482348434DE3485
:103B300060340A340C348E3408348A348C348E3435
:103B40000034023404348634003482348434DE3465
:103B500060340A340C348E3408348A348C348E3415
:103B60000034023404348634003482348434DE3445
:103B700060340A340C348E3408348A348C348E34F5
:103B80000034023404348634003482348434DE3425
:103B900060340A340C348E3408348A348C348E34D5
:103BA0000034023404348634003482348434DE3405
:103BB00060340A340C348E3408348A348C348E34B5
:103BC0000034023404348634003482348434DE34E5
:103BD00060340A340C348E3408348A348C348E3495
:103BE0000034023404348634003482348434DE34C5
:103BF00060340A340C348E3408348A348C348E3475
:103C00000034003401340034043400340934003406
:103C10001034003419340034243400343134003486
:103C20004034003451340034643400347934003486
:103C300090340034A9340034C4340034E134003406
:103C40000034013421340134443401346934013402
:103C500090340134B9340134E43401341134023481
:103C60004034023471340234A4340234D93402347E
:103C7000103403344934033484340334C1340334FA
:103C8000003404344134043484340434C9340434F6
:103C90001034053459340534A4340534F134053472
:103CA0004034063491340634E4340634393407346D
:103CB00090340734E934073444340834A1340834E8
:103CC0000034093461340934C434093429340A34E1
:103CD00090340A34F9340A3464340B34D1340B345C
:103CE00040340C34B1340C3424340D3499340D3454
:103CF00010340E3489340E3404340F3481340F34CC
:103D000000341034813410340434113489341134C3
:103D1000103412349934123424341334B13413343B
:103D200040341434D134143464341534F934153433
:103D30009034163429341734C434173461341834A9
:103D400000341934A134193444341A34E9341A349F
:103D500090341B3439341C34E4341C3491341D3415
:103D600040341E34F1341E34A4341F34593420340A
:103D700010342134C934213484342234413423347E
:103D800000342434C1342434843425344934263472
:103D900010342734D9342734A434283471342934E6
:103DA00040342A3411342B34E4342B34B9342C34D9
:103DB00090342D3469342E3444342F34213430344B
:103DC00000343134E1343134C4343234A93433343E
:103DD00090343434793435346434363451343734AF
:103DE000403438343134393424343A3419343B349F
:103DF00010343C3409343D3404343E3401343F340F
:103E000000344034013441340434423409344334FE
:103E1000103444341934453424344634313447346E
:103E2000403448345134493464344A3479344B345E
:103E300090344C34A9344D34C4344E34E1344F34CE
:103E400000345134213452344434533469345434BA
:103E500090345534B9345634E43457341134593429
:103E600040345A3471345B34A4345C34D9345D3416
:103E700010345F344934603484346134C134623482
:103E8000003464344134653484346634C93467346E
:103E90001034693459346A34A4346B34F1346C34DA
:103EA00040346E3491346F34E434703439347234C5
:103EB00090347334E934743444347634A134773430
:103EC0000034793461347A34C4347B3429347D3419
:103ED00090347E34F9347F3464348134D134823484
:103EE00040348434B134853424348734993488346C
:103EF00010348A3489348B3404348D3481348E34D4
:103F000000349034813491340434933489349434BB
:103F1000103496349934973424349934B1349A3423
:103F200040349C34D1349D3464349F34F934A0340B
:103F30009034A2342934A434C434A5346134A73471
:103F40000034A934A134AA344434AC34E934AD3457
:103F50009034AF343934B134E434B2349134B434BD
:103F60004034B634F134B734A434B9345934BB34A2
:103F70001034BD34C934BE348434C0344134C23406
:103F80000034C434C134C5348434C7344934C934EA
:103F90001034CB34D934CC34A434CE347134D0344E
:103FA0004034D2341134D434E434D534B934D73431
:103FB0009034D9346934DB344434DD342134DF3493
:103FC0000034E134E134E234C434E434A934E63476
:103FD0009034E8347934EA346434EC345134EE34D7
:103FE0004034F0343134F2342434F4341934F634B7
:103FF0001034F8340934FA340434FC340134FE3417
:020000040001F9
:04000E009C0FFC3F08
:10E00000570049004E000000DC0000000000010045
:10E01000B4004F008F00FD00000000000100B400BC
:10E020004F008F00FD0000002E0001002E000400B4
:10E0300000000000000000000000000000000000E0
:10E0400000000000000000000000000000000000D0
:10E0500000000000000000000000000000000000C0
:10E0600000000000000000000000000000000000B0
:10E0700000000000000000000000000000000000A0
:10E080000000000000000000000000000000000090
:10E090000000000000000000000000000000000080
:10E0A0000000000000000000000000000000000070
:10E0B0000000000000000000000000000000000060
:10E0C0000000000000000000000000000000000050
:10E0D0000000000000000000000000000000000040
:10E0E0000000000000000000000000000000000030
:10E0F0000000000000000000000000000000000020
:10E10000000000000000000000000000000000000F
:10E1100000000000000000000000000000000000FF
:10E1200000000000000000000000000000000000EF
:10E1300000000000000000000000000000000000DF
:10E1400000000000000000000000000000000000CF
:10E1500000000000000000000000000000000000BF
:10E1600000000000000000000000000000000000AF
:10E17000000000000000000000000000000000009F
:10E18000000000000000000000000000000000008F
:10E19000000000000000000000000000000000007F
:10E1A000000000000000000000000000000000006F
:10E1B000000000000000000000000000000000005F
:10E1C000000000000000000000000000000000004F
:10E1D000000000000000000000000000000000003F
:10E1E000000000000000000000000000000000002F
:10E1F000000000000000000000000000140000000B
:00000001FF
