:1000000081317E2908000134803120007F08F00012
:1000100021008C105C189D145B155B0822000C06F7
:1000200026398C06200093119D308500210045085B
:1000300020008E1A01388400003F2100C5004708C7
:100040002200951801388400003F2100C7004608AF
:100050002200151801388400003F2100C600C51E8B
:100060003E2843353E39203E8400033085002E086B
:100070001A002F081A00C30AC20AC4014A1CDB1264
:100080004918DB12471B812822000C08FD398C001F
:100090002100B31FE328B20F4E28B30AB40F512832
:1000A000B50AB51BE3284918E3282C3086002D300B
:1000B00087002E0886022F082F0F8702871F6328CC
:1000C00086098709860ABE3006020030073B031CFA
:1000D00072282C3006020130073B031C7228DB1605
:1000E00049104A143408143C031DE328F030B400CE
:1000F000F030B5000F30B2000F30B30049144A1091
:10010000E32822000C0802388C00210049104A1014
:10011000B3012E08AC002F08AD003A080319BB2824
:10012000FD3EE0000A3EE100373030020030313B56
:10013000031CBB282A083002B4002B08313BB50051
:10014000F0300318B4000318B5002A08243C8400DA
:100150002B08333B850014303402B2000030353BAD
:10016000B300040832020508333B0318BB28C33030
:10017000B200FE30B300471EE328391437350E397C
:10018000603E8400033085002E081A002F081A00F4
:10019000B70AB60AB8012408A0002508A10026085D
:1001A000A2002708A3003C08BB00A401A501A601EA
:1001B000A701BC013A080319E328023EDE00013E14
:1001C000DF00023EDD002E08AE0FE728AF0A03393C
:1001D0000B00ED2821294E2966292300A61FA60A17
:1001E0002408031902290C302602031C0229A60147
:1001F00025081F39A03E840003308500003F9A0087
:10020000A50AA4032100C80A5C1C17299D18062909
:100210001B0984009E30850084350318850A12006E
:10022000A4071200A53D0001A63DA73DBC0ADC01C4
:10023000DE1FDE0B090015309D0020309E005C148F
:1002400009002300A21FA20A2000911E3A292300C0
:10025000A2011908850020302002031C3A29230836
:100260001F39C03E84000330050685060506803F21
:10027000A30AA00A21005C1C44299D183D291C08E2
:10028000803C031C003CBE00DC01DF1FDF0B0900CB
:1002900019309D0020309E005C140900E01FE00B27
:1002A000562946084706803A090DC00D5C1C5C299A
:1002B0009D1858291C08BF00DC01DD1FDD0B09005B
:1002C0000D309D0020309E005C140900E11FE10B01
:1002D0006E2946084706803A090DC10D5C1C742939
:1002E0009D1870291C08BD0025309D00A0309E007F
:1002F0005C14090070082000FF00090088019C318F
:10030000782C923163228131003A03198829892996
:10031000932985310D25813180310220813194313D
:10032000A524813193298831242081312000481C63
:100330009A299B29D7292030F3000430F400073094
:10034000F9007908F5002330913178218131003AA4
:100350000319AB29AC297A2B2830F3000430F400C0
:100360001530F9007908F500383091317821813164
:10037000003A0319BC29BD297A2B4030F300043020
:10038000F4001C30F9007908F5008F3091317821A4
:100390008131003A0319CD29CE297A2BFE30F9009C
:1003A00079082000C8057A2B7A2B7A2B7A2BC81C67
:1003B000DA29DB29172AA030F3000430F4000730D3
:1003C000F9007908F5002A30913178218131003A1D
:1003D0000319EB29EC297A2BA830F3000430F40040
:1003E0000730F9007908F5003130913178218131F9
:1003F000003A0319FC29FD297A2BB030F3000430B0
:10040000F4000E30F9007908F5005430913178216C
:100410008131003A03190D2A0E2A7A2BFD30F9009A
:1004200079082000C8057A2B7A2B7A2B7A2B481D65
:100430001A2A1B2A572A2030F3000530F40007300F
:10044000F9007908F5001C30913178218131003AAA
:1004500003192B2A2C2A7A2B2730F3000530F400BD
:100460000930F9007908F500863091317821813121
:10047000003A03193C2A3D2A7A2B3030F30005302C
:10048000F4001C30F9007908F500623091317821D0
:100490008131003A03194D2A4E2A7A2BFB30F9009C
:1004A00079082000C8057A2B7A2B7A2B7A2BC81D65
:1004B0005A2A5B2A962A5030F3000530F4000730A0
:1004C000F9007908F5007E30913178218131003AC8
:1004D00003196B2A6C2A7A2B5730F3000530F4008D
:1004E000F5010314F50D8530913178218131003A01
:1004F00003197B2A7C2A7A2B5830F3000530F4004C
:100500000730F9007908F5004D30913178218131BB
:10051000003A03198C2A8D2A7A2BF730F9007908D2
:100520002000C8057A2B7A2B7A2B7A2B481E992A21
:100530009A2AD62AA030F3000530F4000430F900DE
:100540007908F500D730913178218131003A0319CB
:10055000AA2AAB2A7A2BA430F3000530F400043029
:10056000F9007908F500DF30913178218131003AC6
:100570000319BB2ABC2A7A2BA830F3000530F400FB
:100580000430F9007908F500D330913178218131B8
:10059000003A0319CC2ACD2A7A2BEF30F9007908DA
:1005A0002000C8057A2B7A2B7A2B7A2BC81ED92AE1
:1005B000DA2A282B2030F3000630F4000430F9004A
:1005C0007908F500AB30913178218131003A031977
:1005D000EA2AEB2A7A2B2430F3000630F400243088
:1005E000F9007908F500AF30913178218131003A76
:1005F0000319FB2AFC2A7A2B5030F3000630F40052
:100600000230F9007908F500E53091317821813127
:10061000003A03190C2B0D2B7A2B5430F3000630C3
:10062000F4001230F9007908F500E73091317821B3
:100630008131003A03191D2B1E2B7A2BDF30F90074
:1006400079082000C8057A2B7A2B7A2B7A2B7A2B03
:10065000481F2B2B2C2B562B5830F3000630F40060
:100660000430F9007908F500DB30913178218131CF
:10067000003A03193C2B3D2B7A2B5C30F3000630FB
:10068000F4000230F9007908F500E3309131782167
:100690008131003A03194D2B4E2B7A2BBF30F900D4
:1006A00079082000C8057A2B7A2B7A2BC81F592B82
:1006B0005A2B712B5030F3000030F400F501031475
:1006C000F50DFE30913178218131003A0319692B03
:1006D0006A2B7A2B7F30F90079082000C8057A2B25
:1006E0007A2BC8017A2B7A2B7A2B7A2B7A2B7A2BBE
:1006F0007A2B7A2B08009B31DC238331F1007108BF
:100700002000E100143061020318872B882BA32BF3
:100710006103FF3A143EF1007108E10021003F0837
:1007200020006107F1007108E20021003F0820006D
:10073000620203189C2B9D2BBB2BFF30F10071082C
:10074000E200BB2BBB2B6108EC3EF1007108E1001D
:100750006103FF3A21003F07F10071082000E20029
:10076000620821003F020318B62BB72BBB2B2000D9
:10077000E201BB2BBB2B2100BA08031DC02BC12BF0
:10078000C32BFD010C2D0C30200062020318C92B75
:10079000CA2BCF2B0A30F1007108FD000C2D293037
:1007A00062020318D42BD52BD92BFD010314FD0DA8
:1007B0000C2D2B3062020318DE2BDF2BF32B0230C3
:1007C0007D02031CE42BE52BEA2B0230D100003024
:1007D000D200EE2B0130D1000030D2005108F100E0
:1007E0007108FD000C2D5D3062020318F82BF92B07
:1007F000FE2B0230F1007108FD000C2D5F3062020B
:100800000318032C042C182C03307D02031C092C24
:100810000A2C0F2C0330D3000030D400132C0230EC
:10082000D3000030D4005308F1007108FD000C2DF6
:100830007430620203181D2C1E2C232C0330F1008F
:100840007108FD000C2D763062020318282C292C2B
:100850003D2C04307D02031C2E2C2F2C342C043014
:10086000D5000030D600382C0330D5000030D6003B
:100870005508F1007108FD000C2D88306202031844
:10088000422C432C482C0430F1007108FD000C2D43
:100890008A30620203184D2C4E2C622C05307D02EA
:1008A000031C532C542C592C0530D7000030D80091
:1008B0005D2C0430D7000030D8005708F1007108D3
:1008C000FD000C2D9D3062020318672C682C6D2CE6
:1008D0000530F1007108FD000C2D9F3062020318F5
:1008E000722C732C872C06307D02031C782C792CFB
:1008F0007E2C0630D9000030DA00822C0530D90079
:100900000030DA005908F1007108FD000C2DB730F5
:10091000620203188C2C8D2C922C0630F100710889
:10092000FD000C2DB93062020318972C982CAC2CCA
:1009300007307D02031C9D2C9E2CA32C0730DB006E
:100940000030DC00A72C0630DB000030DC005B0848
:10095000F1007108FD000C2DD03062020318B12C9B
:10096000B22CB72C0730F1007108FD000C2DD230ED
:1009700062020318BC2CBD2CD12C08307D02031C54
:10098000C22CC32CC82C0830DD000030DE00CC2C7B
:100990000730DD000030DE005D08F1007108FD0069
:1009A0000C2DEF3062020318D62CD72CDC2C08302B
:1009B000F1007108FD000C2DF13062020318E12CEA
:1009C000E22CF62C09307D02031CE72CE82CED2CE0
:1009D0000930DF000030E000F12C0830DF0000308B
:1009E000E0005F08F1007108FD000C2D0930F100F6
:1009F0007108FD000C2D0C2D0C2D0C2D0C2D0C2D2B
:100A00000C2D0C2D0C2D0C2D0C2D0C2D0C2D0C2D1E
:100A10000C2D0C2D0C2D0C2D0800F1010314F10DE3
:100A20004D309131B021853120004B084406031927
:100A30001A2D1B2D212D4B08F7007708C400C20189
:100A4000972E023042020318262D272D2C2D01301F
:100A5000F7007708C207972E4B0843060319312D7C
:100A6000322D372E0330F7007708F1004D309C31DE
:100A7000C924853120004308031D3F2D842D0830F3
:100A800043020318442D452D842D2830F1000430F5
:100A9000F2004D30F3000030F4000330F700770827
:100AA000F5009C31382485311E3020004D0203189A
:100AB0005A2D5B2D6D2D4D08F7007708F100430886
:100AC000F8000130F835FF3E031D622D7835FC3EFD
:100AD000403E93318A238531812D20004D08E23E2E
:100AE000F7007708F1004308F8000130F835FF3EC1
:100AF000031D762D7835FC3E403E93318A238531A7
:100B0000812D20004814842D4B08F7007708C3007E
:100B10000330F7007708CD00CE01CF014308031D55
:100B2000922D972E083043020318972D982D972E5B
:100B300028002508F7007708A6002408F7007708A2
:100B4000A5002308F7007708A4002208F70077081B
:100B5000A3002108F7007708A2002008F700770813
:100B6000A10020004308F03EF70077082800A0000D
:100B70003A30F1000430F2003730F3000430F40072
:100B80000330F7007708F5009C3138248531373081
:100B9000F1000430F2003430F3000430F40003308C
:100BA000F7007708F5009C31382485313430F100A6
:100BB0000430F2003130F3000430F4000330F70069
:100BC0007708F5009C31382485313130F10004304C
:100BD000F2002E30F3000430F4000330F700770801
:100BE000F5009C31382485312E30F1000430F200BC
:100BF0002B30F3000430F4000330F7007708F500E1
:100C00009C31382485312B30F1000430F20028303B
:100C1000F3000430F4000330F7007708F5009C314E
:100C2000382485312830F1000430F2004D30F300D3
:100C30000030F4000330F7007708F5009C313824C9
:100C400085310330F7007708F10020004308F800F1
:100C50000130F835FF3E031D292E7835FC3E403E1D
:100C600093318A23853120004814972E972E43080C
:100C7000031D3B2E972E083043020318402E412EB1
:100C8000972E4D08031D452E4C2E4D081E3A031D70
:100C90004A2E4B2E972E4C2E2830F1000430F200B5
:100CA0004D30F3000030F4000330F7007708F50012
:100CB0009C31382485312000CF08031D602E612E21
:100CC0007E2ECE08031D652E662E7E2E4D081E3A02
:100CD000031D6B2E6C2E7E2E1B30F7007708F10063
:100CE0004308F8000130F835FF3E031D732E7835B8
:100CF000FC3E403E93318A238531912E1E30F70011
:100D00007708F10020004308F8000130F835FF3E75
:100D1000031D862E7835FC3E403E93318A23853173
:100D2000912E20004814972E972E972E972E08006C
:100D300020004008031D9D2EA02E0130C002A02ED1
:100D4000370836040319A52EA62EAC2E2100BA08AA
:100D5000031DAB2EAC2EE62F2000BF018B13673096
:100D60002100B0000030B1008B17F02FF02FE62FDC
:100D70008B132100B001B1018B17BE2E2B082A0462
:100D80000319C32EC42EF02F20003708B101B1077C
:100D90003608B001B0075030A2000030A300A00117
:100DA000A101D0302100CB000730CC003230CD0083
:100DB0000030CE00F430CF000130D000D101D2019C
:100DC0003C30D5000030D600D301D4015608DA01FA
:100DD000DA075508D901D9075608D801D8075508A8
:100DE000D701D70701302000E6006608BF07C830EA
:100DF000E6006608C000F02FF02F21003908031D1F
:100E0000022FF02F2000C908031D072F082FF02FF5
:100E100037083106031D0E2F360830060319112F2F
:100E2000122F312F37083102031D182F36083002D8
:100E300003181B2F1C2F212FC830E6006608C000A6
:100E4000212F3708B101B1073608B001B0072100E2
:100E50005A082000A301A307210059082000A2017D
:100E6000A20732303702C83003193602031C392F6B
:100E70003A2F4C2F19304002031C3F2F402F452F93
:100E80001930E6006608C000452F361C482F492F50
:100E90004C2FC0014C2F4C2F21002B08F201F207E0
:100EA0002A08F101F1073630F3000030F4008831F0
:100EB0000020863171082000E6007208E700063045
:100EC000E736E60C890B602F6608EA006708EB003E
:100ED0000030A0070030A13D1030A23D0030A33DFE
:100EE0002308803AE6006B08803A6602031D7A2FD9
:100EF0006A082202031C7D2F7E2F852F20006B089D
:100F0000A301A3076A08A201A20720003409E60092
:100F10003509E700E60A0319E70A36086607E8001C
:100F20003708673DE900C008031D972F982F9D2FB4
:100F3000E91F9B2F9C2FA32F9D2FF4302100CB0066
:100F40000130CC00A92FD0302100CB000730CC00DD
:100F5000A92F20006908D201D2076808D101D10762
:100F6000CB308C315C2486312000361CB82FB92F51
:100F7000C82F2830F1000030F2006B08F401F407AC
:100F80006A08F301F307CB30933139238631D92F27
:100F90002830F1000030F20020002308F401F407AB
:100FA0002208F301F307CB30933139238631D92F4F
:100FB000D92F8B1321005A08B101B1075908B0018C
:100FC000B0078B17F02FF02FF02FF02F20003F08E5
:100FD000003A0319B82E013A0319FD2EF02FF02F15
:100FE0000800F2002000500872060319F82FF92FAC
:100FF000FF2F7208F1007108D000C817FF2F0800FA
:10100000F501F6010328711C062807280B28730830
:10101000F5077408F63D0130F335F40D890B0C2803
:101020000130F236F10C890B112872087104031D8E
:101030001A281B2803281C287608F201F2077508D5
:10104000F101F1072328080020004A08031D292880
:101050002F280A304A02031C2E282F283128C101CC
:10106000D32841084A06031936283728D3284A08C6
:10107000F7007708C1002A002508F7007708A600C6
:101080002408F7007708A5002308F7007708A400D4
:101090002208F7007708A3002108F7007708A200CC
:1010A0002008F7007708A10020004A08E03EF7007A
:1010B00077082A00A0000130F70020004A08FF3E10
:1010C000273E860005308700770881074830F10009
:1010D0000530F2004430F3000530F4000430F7002E
:1010E0007708F5009C31382488314430F100053010
:1010F000F2004030F3000530F4000430F7007708C8
:10110000F5009C31382488314030F1000530F20080
:101110003C30F3000530F4000430F7007708F500A8
:101120009C31382488313C30F1000530F2003830F1
:10113000F3000530F4000430F7007708F5009C3127
:10114000382488313830F1000530F2003430F300B3
:101150000530F4000430F7007708F5009C3138249E
:1011600088313430F1000530F2003030F3000530C2
:10117000F4000430F7007708F5009C3138248831FA
:101180003030F1000530F200E330F3000030F400BD
:101190000430F7007708F5009C31382488312000AE
:1011A0004815D328D328080020002F082E0403193F
:1011B000DA28DB288E290130AE020030AF3B8E29C1
:1011C0008E2921003A08031DE62898290130F300F2
:1011D00073082000BD070630AE000030AF0098292C
:1011E00098292F082E04031DF628F72898297D0832
:1011F0000A3A031DFC28FD2802290130F300730878
:10120000BD079829FF30F3007308BD00982998297D
:1012100098297D08013A031D0E290F2998290130CC
:10122000F3007308BD072C30AE000130AF009829E1
:1012300098297D08013A03191E291F292429FF3006
:10124000F3007308BD00982900302F0264300319A1
:101250002E02031C2C292D293A2921003F08F300D6
:1012600073082000BC0021003F08F3007308200031
:10127000BB0098293C0821003F020318402941295E
:1012800046293F08F30073082000BC0021003F08F6
:1012900020003B0203184D294E29552921003F0803
:1012A000F30073082000BB0055292F082E04031DEE
:1012B0005A295B2998290A303C02031C60296129BC
:1012C00068291E303B02031C662967296D2968299D
:1012D000FF30F3007308BD0098290130F300730854
:1012E000BD07982998299829982998293C083B07EF
:1012F000F300F401F40D0130FF00740DF40CF30C55
:10130000FF0B7D2973088731F1278831FF30F30007
:1013100073082000BD009829982998293D08840069
:10132000053004020318982998310435143E8200D0
:1013300008002100BA08031D9E299F29A329200027
:10134000B201B3013F2A21003908031DA8293F2A11
:101350003B08031DAC293F2A20082000DF002100A4
:1013600021082000E000210022082000E1002100E7
:1013700023082000E2000130DF35E00DE10DE20D31
:10138000890BBC296208E6006108E5006008E400FA
:101390005F08E30021003B082000DF00E001E101DD
:1013A000E2016208EA006108E9006008E8005F08FD
:1013B000E7002100BB0120006608F4006508F30087
:1013C0006408F2006308F10096312926893171081A
:1013D0002000E3007208E400E501E6016708DF0091
:1013E0006808E0006908E1006A08E2001030DF35B3
:1013F000E00DE10DE20D890BF7296208F4006108A8
:10140000F3006008F2005F08F10096312926893167
:1014100071082000E7007208E800E901EA016A08A3
:10142000D4006908D3006808D2006708D1006608B4
:10143000F4006508F3006408F2006308F10000306E
:10144000F8000030F7000930F6006230F500913105
:101450000A21893174082000D8007308D700720867
:10146000D6007108D5009331DE238931200052085F
:10147000B301B3075108B201B2073F2A3F2A033034
:1014800020003302E830031932020318482A492A9F
:101490004C2AA801A901672A0130A8070030A93DFC
:1014A00002302902583003192802031C582A592AED
:1014B000672A5A2AC908031D5E2A5F2A672A08304C
:1014C000DF005F08C900672A672A672A672A0800C1
:1014D000FB0127307A02103003197902031C712AAC
:1014E000722A9B2A1030F1002730F2007A08F401AA
:1014F000F4077908F301F3079231A7228A317108C2
:10150000303E9C311A248A311030F1002730F2002D
:101510007A08F401F4077908F301F30792312522E0
:101520008A317208FA01FA077108F901F907FB011B
:101530000314FB0D9B2AFB08031D9F2AA02AAA2A3D
:1015400003307A02E83003197902031CA82AA92A79
:10155000D32AAA2AE830F1000330F2007A08F40115
:10156000F4077908F301F3079231A7228A31710851
:10157000303E9C311A248A31E830F1000330F20009
:101580007A08F401F4077908F301F3079231252270
:101590008A317208FA01FA077108F901F907FB01AB
:1015A0000314FB0DD32AFB08031DD72AD82AE22AED
:1015B00000307A02643003197902031CE02AE12A20
:1015C0000B2BE22A6430F1000030F2007A08F401BB
:1015D000F4077908F301F3079231A7228A317108E1
:1015E000303E9C311A248A316430F1000030F20020
:1015F0007A08F401F4077908F301F3079231252200
:101600008A317208FA01FA077108F901F907FB013A
:101610000314FB0D0B2BFB08031D0F2B102B1A2B98
:1016200000307A020A3003197902031C182B192B97
:10163000402B1A2B0A30F1000030F2007A08F40136
:10164000F4077908F301F3079231A7228A31710870
:10165000303E9C311A248A310A30F1000030F20009
:101660007A08F401F4077908F301F307923125228F
:101670008A317208FA01FA077108F901F907402B5B
:101680007908303E9C311A248A310800013020004C
:10169000DF005F082100C40732304402031C512BD5
:1016A000522B5D2B32302000DF005F082100C40088
:1016B000C2012000B401B501182C03302100420200
:1016C000031C632B642B182C1E304202031C692B55
:1016D0006A2B712B1E302000DF005F082100C20042
:1016E000712B4208FE3E2000DF005F08E50021006C
:1016F0004308FF3E2000DF005F08E700E6010430FA
:1017000065020318842B852BAA2B6508DF005F0870
:10171000E60067081F390907203E8600033087006E
:101720006603FF3A67071F390907203E840003302C
:101730008500003FDF00013FE000DF09E009DF0A2C
:101740000319E00A403F5F07E300413F603DE400CA
:10175000E52BAA2B0430E5020430DF005F08E60722
:1017600067081F390907203E86000330870066039B
:10177000FF3A67071F390907203E840003308500C0
:10178000003FDF00013FE000DF09E009DF0A031945
:10179000E00A403F5F07E300413F603DE400043062
:1017A00065020318D42BD52BD72BE52BE52B063060
:1017B0006402403003196302031CDF2BE02BAA2BC9
:1017C000E52BE52BAA2BAA2BE52B6308D100640897
:1017D000D200D301D4016608DF00E001E101E2019B
:1017E0006208F4006108F3006008F2005F08F1008D
:1017F0000030F8000930F7002730F600C030F5005F
:1018000091310A218B3174082000D8007308D70069
:101810007208D6007108D5009331DE238B31200089
:101820005208B501B5075108B401B407182C182C9B
:1018300021003A082000DF00E001210031082000EB
:101840006002031D272C2100300820005F020318CE
:101850002A2C2B2C3A2C013035022C30031934025F
:10186000031C332C342C3E2C21004208031D392C40
:101870003E2C3A2C2000AA01AB015B2C0130200049
:10188000AA070030AB3D01302B022C3003192A028D
:10189000031C4B2C4C2C5B2C4D2CC908031D512CCC
:1018A000522C5B2C0730C900DF005F08C9005B2C9D
:1018B0005B2C5B2C5B2C08002000E50065080C3ECF
:1018C00086008701403FD300413FD40065080E3EAB
:1018D00086008701403FD500413FD6005608803A38
:1018E000D7005408803A5702031D782C530855023C
:1018F00003187B2C7C2C822C2000D21F802C812C66
:10190000D52C822C200065080E3E86008701403FC2
:10191000D300413FD40065080C3E86008701403F5C
:10192000D500413FD6005608803AD7005408803A87
:101930005702031D9D2C530855020318A02CA12CFF
:10194000A72C2000D21BA52CA62CD52CA72C200020
:101950006508023E86008701403FD300413FD40026
:101960005308F1005408F200890D893B8909F300FE
:10197000F4005108F5005208F600890D893B8909E9
:10198000F700F80091310A218C3120006508083EEB
:10199000860087017108810741317208813D41311C
:1019A0007308813D41317408813D6508083E860019
:1019B0008701403FD300413FD400423FD500433F21
:1019C000D6006508063E86008701403FD700413FAC
:1019D000D8005708D9005808DA000030DA1BFF3069
:1019E000DB00DC00D909DA09DB09DC09D90A0319B3
:1019F000DA0A0319DB0A0319DC0A65088600870185
:101A0000403FDD00413FDE005D08F1005E08F2006E
:101A1000890D893B8909F300F4005108F50052084B
:101A2000F600890D893B8909F700F80091310A21F8
:101A30008C3171082000DF007208E0007308E100BB
:101A40007408E2006508043E86008701403FE30019
:101A5000413FE4006308F1006408F200890D893B0E
:101A60008909F300F4005108F5005208F600890DC9
:101A7000893B8909F700F80091310A218C317108FE
:101A80002000DF077208E03D7308E13D7408E23D85
:101A90005F08D9076008DA3D6108DB3D6208DC3D7C
:101AA0005908D3075A08D43D5B08D53D5C08D63D9C
:101AB00065080C3E860087015308C03F5408C13FAB
:101AC0005508C23F5608C33F65080E3E8600870191
:101AD000403FD300413FD40065080C3E860087019B
:101AE0005308C03F5408C13F6508063E8600870181
:101AF0005108C03F5208C13F7D2D08002000C90891
:101B0000031D832D842D8B2D83317B238D318831D3
:101B1000D4208D318B2D2000270826042504240491
:101B20000319932D942D9F2E0130F5000030F600FF
:101B30000030F7000030F8007508A4027608A53BD5
:101B40007708A63B7808A73B9F2E9F2EB601B701CA
:101B5000CC010314CC0D0030A7000030A6000130EA
:101B6000A500F430A400AA2EB601B701C908031DD0
:101B7000BA2DBB2DC42D2708260425042404031DDB
:101B8000C22DC32DD52DC42D4908F5007508CA00F6
:101B90000330F5007508CC000030A7000030A60027
:101BA0000030A5003230A400AA2E21004008FF3AE0
:101BB000031DDB2DDC2DAA2E4108FF3A031DE12D6C
:101BC000E22DAA2E2000ED1BE62DE72DAA2E0230D5
:101BD000F5007508CC000030A7000030A6001730D3
:101BE000A5007030A400AA2EAA2EAA2EC908031D93
:101BF000FA2DFB2D042E2708260425042404031D9A
:101C0000022E032E812E042E2708260425042404E8
:101C1000031D0B2E0C2E162EC908031D102E112E7F
:101C2000162E0430F5007508C900162E4908F50077
:101C30007508CA000330F5007508CC000030A70015
:101C40000030A6000030A5000530A400AA2E812E89
:101C5000CB01B601B701AA2ECB01B601B701AA2E5E
:101C60000230F5007508CB00C430B6000930B7006B
:101C7000AA2E0230F5007508CB008830B60013306C
:101C8000B700AA2E0330F5007508CB007030B600FF
:101C90001730B700AA2E0430F5007508CB0040308D
:101CA000B6001F30B700AA2E0530F5007508CB002E
:101CB0001C30B6002530B700AA2E0630F500750896
:101CC000CB000430B6002930B700AA2E0730F5004B
:101CD0007508CB00E030B6002E30B700AA2E0730D2
:101CE000F5007508CB00BC30B6003430B700AA2E22
:101CF000CB010314CB0DBD30B6003430B700AA2E93
:101D0000AA2E7D08FF3E031C282E84000A30040200
:101D10000318282E98310435003E8200AA2EAA2EE0
:101D20002708260425042404031D972E982EAA2E86
:101D30000430F5007508CC00AA2EAA2EAA2E4C0855
:101D4000003A0319A62D013A0319B42D033A0319D9
:101D5000F62D902E08002000C8011E30F7007708ED
:101D60002100E200E301E401E501E6012030F20098
:101D70000430F3000730F7007708F40023309C317B
:101D800058248E312830F2000430F3001530F7006B
:101D90007708F40038309C3158248E314030F200FE
:101DA0000430F3001C30F7007708F4008F309C31CA
:101DB00058248E31A030F2000430F3000730F700D1
:101DC0007708F4002A309C3158248E31A830F20074
:101DD0000430F3000730F7007708F40031309C310D
:101DE00058248E31B030F2000430F3000E30F7008A
:101DF0007708F40054309C3158248E312030F200A2
:101E00000530F3000730F7007708F4001C309C31F0
:101E100058248E312730F2000530F3000930F700E6
:101E20007708F40086309C3158248E313030F2002F
:101E30000530F3001C30F7007708F40062309C3165
:101E400058248E315030F2000530F3000730F7008F
:101E50007708F4007E309C3158248E315730F200E0
:101E60000530F300F4010314F40D85309C3158243F
:101E70008E315830F2000530F3000730F700770854
:101E8000F4004D309C3158248E31A030F2000530E2
:101E9000F3000430F7007708F400D7309C31582461
:101EA0008E31A430F2000530F3000430F7007708DB
:101EB000F400DF309C3158248E31A830F200053018
:101EC000F3000430F7007708F400D3309C31582435
:101ED0008E312030F2000630F3000430F70077082E
:101EE000F400AB309C3158248E312430F20006309F
:101EF000F3002430F7007708F400AF309C31582409
:101F00008E315030F2000630F3000230F7007708CF
:101F1000F400E5309C3158248E315430F200063004
:101F2000F3001230F7007708F400E7309C315824B2
:101F30008E315830F2000630F3000430F700770895
:101F4000F400DB309C3158248E315C30F2000630D6
:101F5000F3000230F7007708F400E3309C31582496
:101F60008E315030F2000030F300F4010314F40D10
:101F7000FE309C3158248E31A830F7007708F100EC
:101F80000430F8007808F200A0309131E9218E3158
:101F9000F9007908FA00FA1FCE2FCF2FE32F2B007C
:101FA0002B08F7007708A3002A08F7007708A2009B
:101FB0002908F7007708A1002808F7007708A00093
:101FC00020004816FF2F7A08803A7F3E031CE92F35
:101FD000EA2FFF2F2B002308F7007708AB00220819
:101FE000F7007708AA002108F7007708A900200861
:101FF000F7007708A80020004816FF2FFF2F0800E1
:1020000000347F347F347F347F347F347F347F34B7
:102010007F347F347F347F347F347F347F347F3428
:102020007F347F347F347F347F347F347F347F3418
:102030007F347F347F347F347F347F347F347F3408
:102040007F347F347F347F347F347F347F347F34F8
:102050007F347F347F347F347F347F347F347F34E8
:102060007F347F347F347F347F347F347F347F34D8
:102070007F347F347F347F347F347F347F347F34C8
:102080007F347E347D347C347B347A347A347934D2
:1020900078347734773476347534753474347334F3
:1020A000733472347134713470346F346F346E340D
:1020B0006D346D346C346B346B346A346A34693427
:1020C000683468346734673466346634653464343D
:1020D0006434633463346234623461346134603450
:1020E00060345F345E345E345D345D345C345C3463
:1020F0005B345B345A345A34593459345834583474
:102100005734573456345634553455345434543483
:102110005334533452345234513451345034503493
:102120004F344F344E344E344D344D344C344C34A3
:102130004B344B344A344A344934493448344834B3
:1021400047344734463446344534453444344434C3
:1021500043344334423442344134413440344034D3
:102160003F343F343E343E343D343D343C343C34E3
:102170003B343B343A343A343934383438343734F5
:102180003734363436343534353434343334333408
:10219000323432343134303430342F342E342E341F
:1021A0002D342D342C342B342A342A342934283439
:1021B0002834273426342534253424342334223457
:1021C0002134213420341F341E341D341C341B347C
:1021D0001A341934183417341534143413341234AF
:1021E00010340F340D340C340A34083406340434FB
:1021F000023400340034003400340034003400343D
:022200000034A8
:1022040008000800640080010131890B05290034AD
:102214000030FC000030FB000030FA000030F90010
:102224001329711C1629172920297508F90776081E
:10223400FA3D7708FB3D7808FC3D20290130F5354F
:10224400F60DF70DF80D890B21290130F436F30C46
:10225400F20CF10C890B28297408730472047104BC
:10226400031D35293629132937297C08F4007B08F6
:10227400F3007A08F2007908F1004029080095314A
:10228400972591318931992191318B3146239131AF
:102294002000C908031D4F2950295A299631BC260C
:1022A40091319131032191318631982691317529EB
:1022B400013021002B026C3003192A02031C63290C
:1022C40064296C298B136730B0000030B1008B1780
:1022D400752975298B135D30B0000030B1008B1760
:1022E4007529752975292100B9010800F700A0296D
:1022F4000130F502730886007408870077089B3163
:10230400E62391310106031D882989299229013088
:10231400F6007608F7070130F3070030F43DA029F2
:1023240073088600740887000108F6007608F10037
:1023340077089B31F0239131A629A029F508031DC4
:10234400A429A5297A29A6297508031DAA29AD2936
:102354000030AF29AF290130AF290800F30071081C
:10236400F2007308860087017208810773088600EB
:1023740087013C300102031CC029C129E8297308E4
:10238400860087013C3081020130F2007308013E6F
:1023940086008701720881077308013E8600870161
:1023A4003C300102031CD729D829E8297308013ECF
:1023B400860087013C3081020130F2007308023E3E
:1023C4008600870172088107E829E8290800F500DA
:1023D4001C2A0130F20272087507F30073088600A4
:1023E4000530870072087107F40074088400053012
:1023F4008500000801020318002A012A042AFF307C
:10240400242A242A72087107F30073088600053011
:10241400870072087507F40074088400053085008D
:10242400000801020318172A182A1C2A0130242A3A
:10243400242A1C2AF208031D202A212AEB29222AF5
:102444000030242A08007208710403192A2A2B2A4E
:102454005B2AF6010314F60D392A0130F135F20D29
:10246400890B302A0130F5007508F607392AF21F66
:102474003C2A3D2A2F2A3F2A3F2A72087402031D50
:10248400452A71087302031C482A492A4E2A7108F6
:10249400F3027208F43B4E2A0130F236F10C890B38
:1024A4004F2A0130F602031D582A592A3F2A5B2A73
:1024B4005B2A7408F201F2077308F101F107622A3A
:1024C40008000130F70077082000C707643047028E
:1024D400031C6D2A6E2AA42AC7010130F70077086D
:1024E4002100E2073C306202031C792A7A2AA12ADD
:1024F400E201E330F1000030F200F3010314F30DC4
:10250400943141249231A030F1000530F200F301FE
:102514000314F30D943141249231A830F1000530B5
:10252400F200A030F3000530F4000430F70077081F
:10253400F5009C313824923120004816A12A01303C
:10254400A62AA62A0030A62A0800F601F701720876
:1025540071040319AE2AAF2AE52AF8010314F80D11
:10256400BD2A0130F135F20D890BB42A0130F50092
:102574007508F807BD2AF21FC02AC12AB32AC32A44
:10258400C32A0130F635F70D890BC42A7208740288
:10259400031DCE2A71087302031CD12AD22AD82A19
:1025A4007108F3027208F43B7614D82A0130F2362B
:1025B400F10C890BD92A0130F802031DE22AE32A1F
:1025C400C32AE52AE52A7708F201F2077608F10121
:1025D400F107EC2A08008B1397315327923191317C
:1025E400022192319C31022492319B31E0239231B9
:1025F4008E31AB269231FE2A8B17640064302100A1
:102604004802031C062B072BFE2A6430C8029C31A7
:102614009824923195310E25923191314121923194
:102624008D317E25923181318121923120004C08F7
:10263400043A031D1E2B1F2B242B4808031D232B98
:10264400292B242B0530EC006C08EE00FE2A013007
:10265400EE02031D2E2B2F2BFE2AEE010314EE0D8A
:10266400FE2AFE2AFE2AFE2AFE2A81317E29F8004D
:102674007208803AF5007408803A7502031D442BF1
:10268400730871020318472B482B892B78080E3ED8
:1026940086008701403FF500413FF6007408803A08
:1026A400F7007608803A7702031D5A2B75087302E7
:1026B40003185D2B5E2B672B78080E3E860087017E
:1026C4007308C03F7408C13F892B78080E3E86000A
:1026D4008701403FF500413FF6007608803AF70055
:1026E4007208803A7702031D792B7108750203186A
:1026F4007C2B7D2B892B78080E3E86008701710880
:10270400C03F7208C13F892B892B892B892B080074
:10271400F3007108F2007308860004308700720821
:10272400810773088600043087003C300102031CD3
:102734009C2B9D2BDD2B73088600043087003C30D6
:1027440081020130F2007308013E860004308700E4
:10275400720881077308013E8600043087003C300C
:102764000102031CB62BB72BDD2B7308013E860038
:10277400043087003C3081020130F2007308023ECD
:10278400860004308700720881077308023E8600C1
:10279400043087008108031DD02BD12BDD2B0130A1
:1027A400F2007308033E8600043087007208810734
:1027B400DD2BDD2BDD2B080000302000DD00003098
:1027C400DC000030DB000030DA005408530452040B
:1027D40051040319EE2BEF2B372CDE010314DE0D0D
:1027E400FF2B0130D135D20DD30DD40D890BF42B31
:1027F4000130D9005908DE07FF2BD41F022C032C0B
:10280400F32B052C052C0130DA35DB0DDC0DDD0D49
:10281400890B062C54085802031D1A2C530857021E
:10282400031D1A2C52085602031D1A2C5108550276
:10283400031C1D2C1E2C282C5108D5025208D63BF3
:102844005308D73B5408D83B5A14282C0130D436AB
:10285400D30CD20CD10C890B292C0130DE02031DC0
:10286400342C352C052C372C372C5D08D4005C080F
:10287400D3005B08D2005A08D100402C080073082A
:10288400F4007108860072088700740881077108D3
:102894008600720887003C300102031C522C532C22
:1028A400A42C71088600720887003C308102013034
:1028B400F4007108013EF5000030723DF600750821
:1028C400860076088700740881077108013EF400C9
:1028D4000030723DF5007408860075088700810891
:1028E400031D752C762CA42C0130F4007108023ED3
:1028F400F5000030723DF600750886007608870002
:10290400740881077108023EF4000030723DF5003E
:1029140074088600750887008108031D922C932C87
:10292400A42C0130F4007108033EF5000030723D20
:10293400F600750886007608870074088107A42CC1
:10294400A42CA42C08002000CB08031DAA2CAB2C1B
:10295400B12CC5016D08F1007108C6000D2D6D087C
:10296400F100F201F11BF2037208803A803C031D6E
:10297400BE2C71082A0057020318C12CC22CCA2C81
:1029840020006D08F10071082A00D7002000C81546
:1029940020004608803AF1006D08803AF1020318DD
:1029A400D42CD52CDA2C6D08F1007108C600DA2C71
:1029B4002100E208031DDF2CE02C0D2D2000C508AA
:1029C400031DE52CE62C032DC5010314C50D2A00B7
:1029D4005D08F1007108DE005C08F1007108DD009B
:1029E4005B08F1007108DC005A08F1007108DB0093
:1029F4005908F1007108DA005808F1007108D9008B
:102A0400032D20004608F10071082A00D800200098
:102A1400C8150D2D0D2D080001302000D1005108DE
:102A2400BE0764303E02031C182D192D962DBE01DD
:102A34007D08D100D2015108F9005208FA008A3108
:102A4400682295312C309C311A24953121003F089D
:102A54002000D100D2015108F9005208FA008A314D
:102A6400682295312C309C311A24953121003D087F
:102A74002000D100D2015108F9005208FA008A312D
:102A8400682295312C309C311A2495312000370866
:102A9400FA01FA073608F901F9078A3168229531F3
:102AA4002C309C311A24953120003508FA01FA079C
:102AB4003408F901F9078A31682295312C309C31A8
:102AC4001A24953120003308FA01FA073208F90173
:102AD400F9078A31682295312C309C311A249531BA
:102AE40020006D08F900FA01F91BFA038A31682203
:102AF40095312C309C311A249531FE309B31E623DC
:102B040095312000D100D2015108F9005208FA0091
:102B14008A31682295310D309C311A2495310A305E
:102B24009C311A249531962D08002100BA08031D02
:102B34009C2D9D2DA42D2000AC01AD01BA01B9013D
:102B4400B801282E21003908031DA92D282E3D087F
:102B5400F100F20171082000AC077208AD3D0230AB
:102B640021003D020318B72DB82DC22D0130F1000C
:102B740071082000BA077F30F1007108ED00C22D02
:102B8400FE3021003D02031CC82DC92DCF2D01307C
:102B9400F10071082000BA07ED010130F10071085D
:102BA4002000B80704303802031CD92DDA2D282E52
:102BB400BA08031DDE2DDF2D092EB9012D08F20000
:102BC4002C08F1000230F236F10C890BE52D710866
:102BD400013E840090300318013E85000008F30094
:102BE4007308ED006D08803A183E031CFA2DFB2D86
:102BF400212EFC2DC908031D002E012E212E02308A
:102C0400F1007108C900212E212E212E212E013020
:102C1400F1007108B9070A303902031C122E132E71
:102C2400212E142EC908031D182E192E212E023010
:102C3400F1007108C900212E212E212E212EAC0174
:102C4400AD01BA01B801282E282E282E0800003024
:102C54002000DD000030DC000030DB000030DA0052
:102C64000030D5000030D4000030D3000030D20052
:102C74000030D9000030D8000030D7000030D60032
:102C84001030F5007508D100472E0130DA35DB0D20
:102C9400DC0DDD0D890B482E0130D635D70DD80D4E
:102CA400D90D890B4F2EF41F582E592E5B2E561416
:102CB4005B2E0130F135F20DF30DF40D890B5C2E12
:102CC4000130D635D70DD80DD90D890B632EF41FDD
:102CD4006C2E6D2E6F2E56146F2E0130F135F20DC1
:102CE400F30DF40D890B702E5A08F5005B08F600FD
:102CF4005C08F7005D08F8000130F535F60DF70DB6
:102D0400F80D890B7F2E01307504D2000030760453
:102D1400D30000307704D40000307804D50055087F
:102D24005902031D9F2E54085802031D9F2E530859
:102D34005702031D9F2E52085602031CA22EA32ED7
:102D4400AD2E5208D6025308D73B5408D83B550839
:102D5400D93B5A14AD2E0130D102031DB22EB32E2D
:102D6400472EB42E5B08F201F2075A08F101F1076D
:102D7400BB2E08000130F10071082100B8070530AE
:102D84003802031CC62EC72ED02E0530F100710860
:102D9400B800B601BA01AA01AB012E2F05303602E4
:102DA400031CD52ED62E2E2F0530F1007108B60047
:102DB4003708FF3EF1007108F50075080739090767
:102DC400603E8600033087007508FC3E073909071A
:102DD400603E840003308500003FF100013FF200B3
:102DE400F109F209F10A0319F20A403F7107F300ED
:102DF400413F723DF4000330F436F30C890BFE2E90
:102E04007308F6007408F700013077022D300319B7
:102E14007602031C0E2F0F2F2E2F01307702F43071
:102E2400031976020318172F182F2E2F7708AB01DA
:102E3400AB077608AA01AA077708F2007608F10022
:102E44000330F236F10C890B232F7108F300730859
:102E5400BA002E2F2E2F2E2F3A08031D322F352F76
:102E6400A801A901522F0130A8070030A93D013063
:102E740029022C3003192802031C412F422F522F00
:102E8400432F2000C908031D482F492F522F0A3011
:102E9400C900F1007108C900522F522F522F522F2E
:102EA40008008B13F030210099009801113097002D
:102EB40022009D019E010430F10071082100DB0015
:102EC400043022008C00193021008C0011302300C2
:102ED4008C0024008C0127008C01E03022008D003E
:102EE400303021008D0023008D0124008D0120301D
:102EF40027008D0022008E01EF3021008E00CF309C
:102F040023008E0024008E0127008E0122009701E9
:102F140099019801033092008230910001309400AD
:102F2400A2309300A03021009E0025309D00DC01DA
:102F34000314DC0DFF30F1007108DE00FF30F100F6
:102F44007108DF00FF30F1007108DD00BE01BF0130
:102F5400BD010030A7000030A6000030A5000030FD
:102F6400A400BC010030A3000030A2000030A10086
:102F74000030A000BB010A3023009F001F309B00DB
:102F840003309C009D0104309E009D171D169E1663
:102F9400A601A401A701A501A201A001A301A10109
:102FA4002000990130309800313028009D00053010
:102FB4009E0020009101920193019401210091014E
:102FC40092010830930094010B17C801AE01AF01C0
:102FD400FF30F1007108E000FF30F1007108E100FA
:102FE400C001C101C501C701C601B401B501B201E7
:102FF400B301AC01AD01C901CA0108008E312C2E08
:103004008E31302E8E31392E8E31422E8E314B2E12
:103014008E31542E8E315D2E8E31662E8E316F2E72
:103024008E31782E8831E1288831F12889310929B7
:0830340089311929893176293F
:1037B80020005008DF2B08002000CC01CB01CA01F3
:1037C800FD010800F10071082300910015139513FD
:1037D80015141308EF2B0800F2007208230091005B
:1037E800710893001513951315158B135530960012
:1037F800AA30960095148B17151108002100B701FF
:10380800B601B801AA01AB01BA01B901C301C201ED
:10381800C401B001B1012000B601B701B401B5017E
:10382800B201B301C901ED01ED030800F200203037
:1038380023002402031C212C222C242C372C372C67
:103848007208F10027081F39A03E86000330870060
:10385800710881000130F1007108A7070130F100FB
:103868007108A407372C08004E2C730886007408CA
:1038780087000108F600710886007208870076083C
:1038880081000130F1070030F23D0130F3070030CC
:10389800F43D4E2C0130F5027508FF3A031D552CF6
:1038A800562C392C572C0800F6006E2C76089B31C4
:1038B800E6239C31F50072088600730887007508B6
:1038C80081000130F5007508F6070130F207003075
:1038D800F33D6E2C0130F4027408FF3A031D752C79
:1038E800762C5A2C772C0800FD01203084000030FB
:1038F80085003130913104219C31A03084000030A2
:1039080085003B30913104219C31A0308400013086
:1039180085000830913104219C31803103209C318D
:10392800EE0020009231ED2A22009D019E011930FF
:1039380021008C00113023008C0024008C0127000A
:103948008C01303021008D0023008D0124008D0171
:10395800203027008D00EF3021008E00CF3023006B
:103968008E0024008E0127008E0122009701980105
:1039780099018230910003309200A2309300013007
:1039880094002100C901CA010800F30073088600E9
:103998008701710881027308860087013C300102A3
:1039A800031CD72CD82CFF2C3C30F200730886005F
:1039B8008701720881077308013E8600870101307C
:1039C80081027308013E860087013C300102031C16
:1039D800EE2CEF2CFF2C3C30F2007308013E8600E1
:1039E8008701720881077308023E8600870101304B
:1039F8008102FF2CFF2C0800003402340434863482
:103A0800003482348434DE3460340A340C348E3426
:103A180008348A348C348E340034023404348634C6
:103A2800003482348434DE3460340A340C348E3406
:103A380008348A348C348E340034023404348634A6
:103A4800003482348434DE3460340A340C348E34E6
:103A580008348A348C348E34003402340434863486
:103A6800003482348434DE3460340A340C348E34C6
:103A780008348A348C348E34003402340434863466
:103A8800003482348434DE3460340A340C348E34A6
:103A980008348A348C348E34003402340434863446
:103AA800003482348434DE3460340A340C348E3486
:103AB80008348A348C348E34003402340434863426
:103AC800003482348434DE3460340A340C348E3466
:103AD80008348A348C348E34003402340434863406
:103AE800003482348434DE3460340A340C348E3446
:103AF80008348A348C348E340034023404348634E6
:103B0800003482348434DE3460340A340C348E3425
:103B180008348A348C348E340034023404348634C5
:103B2800003482348434DE3460340A340C348E3405
:103B380008348A348C348E340034023404348634A5
:103B4800003482348434DE3460340A340C348E34E5
:103B580008348A348C348E34003402340434863485
:103B6800003482348434DE3460340A340C348E34C5
:103B780008348A348C348E34003402340434863465
:103B8800003482348434DE3460340A340C348E34A5
:103B980008348A348C348E34003402340434863445
:103BA800003482348434DE3460340A340C348E3485
:103BB80008348A348C348E34003402340434863425
:103BC800003482348434DE3460340A340C348E3465
:103BD80008348A348C348E34003402340434863405
:103BE800003482348434DE3460340A340C348E3445
:103BF80008348A348C348E34003400340134003470
:103C080004340034093400341034003419340034D6
:103C18002434003431340034403400345134003416
:103C2800643400347934003490340034A9340034D6
:103C3800C4340034E1340034003401342134013414
:103C4800443401346934013490340134B9340134D2
:103C5800E43401341134023440340234713402340F
:103C6800A4340234D93402341034033449340334CC
:103C780084340334C1340334003404344134043408
:103C880084340434C93404341034053459340534C4
:103C9800A4340534F1340534403406349134063400
:103CA800E43406343934073490340734E9340734BB
:103CB80044340834A13408340034093461340934F4
:103CC800C434093429340A3490340A34F9340A34AF
:103CD80064340B34D1340B3440340C34B1340C34E8
:103CE80024340D3499340D3410340E3489340E34A0
:103CF80004340F3481340F340034103481341034D8
:103D0800043411348934113410341234993412348F
:103D180024341334B134133440341434D1341434C7
:103D280064341534F934153490341634293417347E
:103D3800C43417346134183400341934A1341934B4
:103D480044341A34E9341A3490341B3439341C346A
:103D5800E4341C3491341D3440341E34F1341E34A0
:103D6800A4341F345934203410342134C934213454
:103D7800843422344134233400342434C134243488
:103D8800843425344934263410342734D93427343C
:103D9800A43428347134293440342A3411342B346F
:103DA800E4342B34B9342C3490342D3469342E3423
:103DB80044342F342134303400343134E134313454
:103DC800C4343234A9343334903434347934353407
:103DD8006434363451343734403438343134393437
:103DE80024343A3419343B3410343C3409343D34E7
:103DF80004343E3401343F34003440340134413417
:103E080004344234093443341034443419344534C6
:103E180024344634313447344034483451344934F6
:103E280064344A3479344B3490344C34A9344D34A6
:103E3800C4344E34E1344F340034513421345234D4
:103E4800443453346934543490345534B934563482
:103E5800E43457341134593440345A3471345B34AF
:103E6800A4345C34D9345D3410345F34493460345C
:103E780084346134C1346234003464344134653488
:103E880084346634C93467341034693459346A3434
:103E9800A4346B34F1346C3440346E3491346F3460
:103EA800E43470343934723490347334E93474340B
:103EB80044347634A13477340034793461347A3434
:103EC800C4347B3429347D3490347E34F9347F34DF
:103ED80064348134D134823440348434B134853408
:103EE800243487349934883410348A3489348B34B0
:103EF80004348D3481348E340034903481349134D8
:103F0800043493348934943410349634993497347F
:103F180024349934B1349A3440349C34D1349D34A7
:103F280064349F34F934A0349034A2342934A4344E
:103F3800C434A5346134A7340034A934A134AA3474
:103F48004434AC34E934AD349034AF343934B1341A
:103F5800E434B2349134B4344034B634F134B73440
:103F6800A434B9345934BB341034BD34C934BE34E4
:103F78008434C0344134C2340034C434C134C53408
:103F88008434C7344934C9341034CB34D934CC34AC
:103F9800A434CE347134D0344034D2341134D434CF
:103FA800E434D534B934D7349034D9346934DB3473
:103FB8004434DD342134DF340034E134E134E23494
:103FC800C434E434A934E6349034E8347934EA3437
:103FD8006434EC345134EE344034F0343134F23457
:103FE8002434F4341934F6341034F8340934FA34F7
:083FF8000434FC340134FE34F2
:020000040001F9
:04000E009C0FFC3F08
:10E00000570049004E000000DC0000000000010045
:10E01000B4004F008F00FD00000000000100B400BC
:10E020004F008F00FD0000002E0000002E000300B6
:10E0300000000000000000000000000000000000E0
:10E0400000000000000000000000000000000000D0
:10E0500000000000000000000000000000000000C0
:10E0600000000000000000000000000000000000B0
:10E0700000000000000000000000000000000000A0
:10E080000000000000000000000000000000000090
:10E090000000000000000000000000000000000080
:10E0A0000000000000000000000000000000000070
:10E0B0000000000000000000000000000000000060
:10E0C0000000000000000000000000000000000050
:10E0D0000000000000000000000000000000000040
:10E0E0000000000000000000000000000000000030
:10E0F0000000000000000000000000000000000020
:10E10000000000000000000000000000000000000F
:10E1100000000000000000000000000000000000FF
:10E1200000000000000000000000000000000000EF
:10E1300000000000000000000000000000000000DF
:10E1400000000000000000000000000000000000CF
:10E1500000000000000000000000000000000000BF
:10E1600000000000000000000000000000000000AF
:10E17000000000000000000000000000000000009F
:10E18000000000000000000000000000000000008F
:10E19000000000000000000000000000000000007F
:10E1A000000000000000000000000000000000006F
:10E1B000000000000000000000000000000000005F
:10E1C000000000000000000000000000000000004F
:10E1D000000000000000000000000000000000003F
:10E1E000000000000000000000000000000000002F
:10E1F000000000000000000000000000140000000B
:00000001FF
