:1000000081315F2908000800803120007F08F0005E
:1000100021008C105D189D145C155C0822000C06F4
:1000200026398C0620009311CB0A9D3085002100D3
:10003000470820008E1A01388400003F2100C700C5
:1000400049082200951801388400003F2100C900AA
:1000500048082200151801388400003F2100C8001C
:10006000C71E3F2845353E39203E840003308500B9
:100070002C081A002D081A00C50AC40AC601DC1291
:10008000491B602822000C08FD398C002100B11F9B
:10009000C428B00F4C28B10AB40F4F28B50AB51BBD
:1000A000C428490803195E282C08A0022D082D0F2A
:1000B000A102273020020130213B0318DC16C4289E
:1000C00022000C0802388C002100B1013C08031901
:1000D0009C28FD3EE1000A3EE20028302E0200305E
:1000E0002F3B031C9C282A082E02B400B6002B08C4
:1000F0002F3BB500B700F0300318B4000318B5006B
:100100002A08243C84002B08313B8500053034024A
:10011000B0000030353BB100040830020508313B27
:1001200003189C280408B000B2000508B100B30011
:100130002C08A0002D08A100491EC4283B14393505
:100140000E39603E8400033085002C081A002D080B
:100150001A00B90AB80ABA012408A0002508A100AB
:100160002608A2002708A3003E08BD00A401A5019F
:10017000A601A701BE013C080319C428023EDF0006
:10018000013EE000023EDE002C08AC0FC828AD0A9C
:1001900003390B00CE2802292F2947292300A61F47
:1001A000A60A24080319E3280C302602031CE328BE
:1001B000A60125081F39A03E840003308500003FBA
:1001C0009A00A50AA4032100CA0A5D1CF8289D18FC
:1001D000E7281B0984009E30850084350318850AB2
:1001E0001200A4071200A53D0001A63DA73DBE0ACE
:1001F000DD01DF1FDF0B090015309D0020309E0060
:100200005D1409002300A21FA20A2000911E1B29D1
:100210002300A2011908850020302002031C1B299D
:1002200023081F39C03E84000330050685060506F5
:10023000803FA30AA00A21005D1C25299D181E29C4
:100240001C08803C031C003CC000DD01E01FE00BEB
:10025000090019309D0020309E005D140900E11F47
:10026000E10B372948084906803A090DC20D5D1C8B
:100270003D299D1839291C08C100DD01DE1FDE0B58
:1002800009000D309D0020309E005D140900E21F22
:10029000E20B4F2948084906803A090DC30D5D1C41
:1002A00055299D1851291C08BF0025309D00A030FC
:1002B0009E005D14090070082000FF0009008801FD
:1002C0008731DE2F9231A9228131003A0319692941
:1002D0006A2974298431EE2481318731FF278131E5
:1002E000953138258131742988312F2081312000C2
:1002F000481C7B297C29B8292030F3000430F40005
:100300000730F9007908F50023309131BE218131A1
:10031000003A03198C298D295B2B2830F300043017
:10032000F4001530F9007908F50038309131BE211C
:100330008131003A03199D299E295B2B4030F3003F
:100340000430F4001C30F9007908F5008F30913149
:10035000BE218131003A0319AE29AF295B2BFE3053
:10036000F90079082000C8055B2B5B2B5B2B5B2B0E
:10037000C81CBB29BC29F829A030F3000430F400C4
:100380000730F9007908F5002A309131BE2181311A
:10039000003A0319CC29CD295B2BA830F300043097
:1003A000F4000730F9007908F50031309131BE21B1
:1003B0008131003A0319DD29DE295B2BB030F300CF
:1003C0000430F4000E30F9007908F5005430913112
:1003D000BE218131003A0319EE29EF295B2BFD3054
:1003E000F90079082000C8055B2B5B2B5B2B5B2B8E
:1003F000481DFB29FC29382A2030F3000530F40081
:100400000730F9007908F5001C309131BE218131A7
:10041000003A03190C2A0D2A5B2B2730F300053014
:10042000F4000930F9007908F50086309131BE21D9
:100430008131003A03191D2A1E2A5B2B3030F3004C
:100440000530F4001C30F9007908F5006230913174
:10045000BE218131003A03192E2A2F2A5B2BFB3053
:10046000F90079082000C8055B2B5B2B5B2B5B2B0D
:10047000C81D3B2A3C2A772A5030F3000530F4008F
:100480000730F9007908F5007E309131BE218131C5
:10049000003A03194C2A4D2A5B2B5730F3000530E4
:1004A000F400F5010314F50D85309131BE21813141
:1004B000003A03195C2A5D2A5B2B5830F3000530A3
:1004C000F4000730F9007908F5004D309131BE2174
:1004D0008131003A03196D2A6E2A5B2BF730F9003F
:1004E00079082000C8055B2B5B2B5B2B5B2B481E20
:1004F0007A2A7B2AB72AA030F3000530F4000430B2
:10050000F9007908F500D7309131BE218131003AE8
:1005100003198B2A8C2A5B2BA430F3000530F400DE
:100520000430F9007908F500DF309131BE218131C6
:10053000003A03199C2A9D2A5B2BA830F300053052
:10054000F4000430F9007908F500D3309131BE2170
:100550008131003A0319AD2AAE2A5B2BEF30F90046
:1005600079082000C8055B2B5B2B5B2B5B2BC81E1F
:10057000BA2ABB2A092B2030F3000630F4000430DD
:10058000F9007908F500AB309131BE218131003A94
:100590000319CB2ACC2A5B2B2430F3000630F4005D
:1005A0002430F9007908F500AF309131BE21813156
:1005B000003A0319DC2ADD2A5B2B5030F3000630A9
:1005C000F4000230F9007908F500E5309131BE21E0
:1005D0008131003A0319ED2AEE2A5B2B5430F300E7
:1005E0000630F4001230F9007908F500E730913157
:1005F000BE218131003A0319FE2AFF2A5B2BDF302E
:10060000F90079082000C8055B2B5B2B5B2B5B2B6B
:100610005B2B481F0C2B0D2B372B5830F30006306B
:10062000F4000430F9007908F500DB309131BE2187
:100630008131003A03191D2B1E2B5B2B5C30F3001C
:100640000630F4000230F9007908F500E33091310A
:10065000BE218131003A03192E2B2F2B5B2BBF308B
:10066000F90079082000C8055B2B5B2B5B2BC81FAA
:100670003A2B3B2B522B5030F3000030F400F501A5
:100680000314F50DFE309131BE218131003A03197A
:100690004A2B4B2B5B2B7F30F90079082000C805D3
:1006A0005B2B5B2BC8015B2B5B2B5B2B5B2B5B2BD7
:1006B0005B2B5B2B5B2B08009C315A248331F100B0
:1006C00071082000E100143061020318682B692BC7
:1006D000842B6103FF3A143EF1007108E100210010
:1006E000410820006107F1007108E2002100410883
:1006F0002000620203187D2B7E2B9C2BFF30F10023
:100700007108E2009C2B9C2B6108EC3EF100710803
:10071000E1006103FF3A21004107F1007108200068
:10072000E2006208210041020318972B982B9C2BB2
:100730002000E2019C2B9C2B2100BC08031DA12B57
:10074000A22BA42BFD01ED2C0C302000620203181B
:10075000AA2BAB2BB02B0A30F1007108FD00ED2C59
:10076000293062020318B52BB62BBA2BFD010314F6
:10077000FD0DED2C2B3062020318BF2BC02BD42BA8
:1007800002307D02031CC52BC62BCB2B0230D100BF
:100790000030D200CF2B0130D1000030D200510800
:1007A000F1007108FD00ED2C5D3062020318D92BB9
:1007B000DA2BDF2B0230F1007108FD00ED2C5F30E9
:1007C00062020318E42BE52BF92B03307D02031C96
:1007D000EA2BEB2BF02B0330D3000030D400F42BAA
:1007E0000230D3000030D4005308F1007108FD003E
:1007F000ED2C743062020318FE2BFF2B042C033007
:10080000F1007108FD00ED2C763062020318092C0E
:100810000A2C1E2C04307D02031C0F2C102C152CCE
:100820000430D5000030D600192C0330D50000303C
:10083000D6005508F1007108FD00ED2C88306202E9
:100840000318232C242C292C0430F1007108FD00FE
:10085000ED2C8A30620203182E2C2F2C432C0530ED
:100860007D02031C342C352C3A2C0530D700003087
:10087000D8003E2C0430D7000030D8005708F100D3
:100880007108FD00ED2C9D3062020318482C492CA4
:100890004E2C0530F1007108FD00ED2C9F306202F6
:1008A0000318532C542C682C06307D02031C592C41
:1008B0005A2C5F2C0630D9000030DA00632C05304A
:1008C000D9000030DA005908F1007108FD00ED2C64
:1008D000B730620203186D2C6E2C732C0630F100B9
:1008E0007108FD00ED2CB93062020318782C792CC8
:1008F0008D2C07307D02031C7E2C7F2C842C07302E
:10090000DB000030DC00882C0630DB000030DC002F
:100910005B08F1007108FD00ED2CD0306202031875
:10092000922C932C982C0730F1007108FD00ED2CCF
:10093000D230620203189D2C9E2CB22C08307D020E
:10094000031CA32CA42CA92C0830DD000030DE00F1
:10095000AD2C0730DD000030DE005D08F1007108CD
:10096000FD00ED2CEF3062020318B72CB82CBD2C23
:100970000830F1007108FD00ED2CF130620203181F
:10098000C22CC32CD72C09307D02031CC82CC92CC7
:10099000CE2C0930DF000030E000D22C0830DF0020
:1009A0000030E0005F08F1007108FD00ED2C093017
:1009B000F1007108FD00ED2CED2CED2CED2CED2C53
:1009C000ED2CED2CED2CED2CED2CED2CED2CED2C5F
:1009D000ED2CED2CED2CED2CED2C0800F101031489
:1009E000F10D4D309131F621843120004B08440641
:1009F0000319FB2CFC2C022D4B08F7007708C400D0
:100A0000C201782E023042020318072D082D0D2D49
:100A10000130F7007708C207782E4B084306031908
:100A2000122D132D182E0330F7007708F1004D30EA
:100A300091315021843120004308031D202D652D64
:100A4000083043020318252D262D652D2830F1008E
:100A50000430F2004D30F3000030F4000330F700B2
:100A60007708F5009C31E02484311E3020004D02CF
:100A700003183B2D3C2D4E2D4D08F7007708F10053
:100A80004308F8000130F835FF3E031D432D78354B
:100A9000FC3E403E94311D248431622D20004D08DF
:100AA000E23EF7007708F1004308F8000130F8351E
:100AB000FF3E031D572D7835FC3E403E94311D24EA
:100AC0008431622D20004814652D4B08F70077080B
:100AD000C3000330F7007708CD00CE01CF014308F3
:100AE000031D732D782E083043020318782D792DBD
:100AF000782E28002508F7007708A6002408F700BC
:100B00007708A5002308F7007708A4002208F7005B
:100B10007708A3002108F7007708A2002008F70053
:100B20007708A10020004308F03EF700770828006E
:100B3000A0003A30F1000430F2003730F300043006
:100B4000F4000330F7007708F5009C31E02484318D
:100B50003730F1000430F2003430F3000430F40098
:100B60000330F7007708F5009C31E02484313430FD
:100B7000F1000430F2003130F3000430F4000330AF
:100B8000F7007708F5009C31E02484313130F10022
:100B90000430F2002E30F3000430F4000330F7008C
:100BA0007708F5009C31E02484312E30F1000430C8
:100BB000F2002B30F3000430F4000330F700770824
:100BC000F5009C31E02484312B30F1000430F20038
:100BD0002830F3000430F4000330F7007708F50004
:100BE0009C31E02484312830F1000430F2004D3093
:100BF000F3000030F4000330F7007708F5009C3173
:100C0000E02484310330F7007708F1002000430826
:100C1000F8000130F835FF3E031D0A2E7835FC3E02
:100C2000403E94311D24843120004814782E782EC3
:100C30004308031D1C2E782E083043020318212E72
:100C4000222E782E4D08031D262E2D2E4D081E3ADD
:100C5000031D2B2E2C2E782E2D2E2830F100043043
:100C6000F2004D30F3000030F4000330F700770855
:100C7000F5009C31E02484312000CF08031D412E73
:100C8000422E5F2ECE08031D462E472E5F2E4D08A6
:100C90001E3A031D4C2E4D2E5F2E1B30F700770899
:100CA000F1004308F8000130F835FF3E031D542ED3
:100CB0007835FC3E403E94311D248431722E1E3026
:100CC000F7007708F10020004308F8000130F835FC
:100CD000FF3E031D672E7835FC3E403E94311D24B7
:100CE0008431722E20004814782E782E782E782E9B
:100CF000080020004008031D7E2E812E0130C00216
:100D0000812E370836040319862E872E8D2E21005A
:100D1000BC08031D8C2E8D2ED32F2000BF018B13FA
:100D20002100AE01AF018B17DD2FDD2FD32F8B13E9
:100D30002100AE01AF018B179D2E2B082A04031949
:100D4000A22EA32EDD2F20003708B101B1073608EF
:100D5000B001B0075030A2000030A300A001A101F3
:100D6000D0302100CC000730CD003230CE00003032
:100D7000CF00F430D0000130D100D201D3013C309B
:100D8000D6000030D700D401D5015708DB01DB07BE
:100D90005608DA01DA075708D901D9075608D801E9
:100DA000D80701302000E6006608BF07C830E6001B
:100DB0006608C000DD2FDD2F21003B08031DE12E5A
:100DC000C32F2000C908031DE62EE72EC32F3708C6
:100DD0003106031DED2E360830060319F02EF12ED4
:100DE000102F37083102031DF72E36083002031882
:100DF000FA2EFB2E002FC830E6006608C000002F38
:100E00003708B101B1073608B001B00721005B080F
:100E10002000A301A30721005A082000A201A20775
:100E200032303702C83003193602031C182F192F2D
:100E30002B2F19304002031C1E2F1F2F242F193077
:100E4000E6006608C000242F361C272F282F2B2FE2
:100E5000C0012B2F2B2F21002B08F201F2072A08AB
:100E6000F101F1073630F3000030F40091312C210C
:100E7000863171082000E6007208E7000630E73688
:100E8000E60C890B3F2F6608EA006708EB0000308C
:100E9000A0070030A13D1030A23D0030A33D230843
:100EA000803AE6006B08803A6602031D592F6A08F3
:100EB0002202031C5C2F5D2F642F20006B08A3010E
:100EC000A3076A08A201A20720003409E600350939
:100ED000E700E60A0319E70A36086607E80037085C
:100EE000673DE900C008031D762F772F7C2FE91F8F
:100EF0007A2F7B2F822F7C2FF4302100CC00013001
:100F0000CD00882FD0302100CC000730CD00882FB5
:100F100020006908D201D2076808D101D107CC307E
:100F20008C31632486312000361C972F982FA72FF1
:100F30002830F1000030F2006B08F401F4076A0871
:100F4000F301F307CC309331CC238631B82F28300E
:100F5000F1000030F20020002308F401F407220819
:100F6000F301F307CC309331CC238631B82FB82F5F
:100F70008B1321005B08AF01AF075A08AE01AE0723
:100F80008B17C32FC32F20004908031DC82FDD2F47
:100F90008B135F302100AE000030AF008B17DD2FC8
:100FA000DD2FDD2FDD2F20003F08003A0319972E9B
:100FB000013A0319DC2EDD2FDD2F0800FD01203062
:100FC00084000030850031309C3164248731A030AA
:100FD0008400003085003C309C3164248731A0308F
:100FE00084000130850008309C31642487318731CA
:100FF000FE278731EE00200093317D2B013408005D
:10100000080022009D019E011B3021008C00113040
:1010100023008C0024008C0127008C01303021003B
:101020008D0023008D0124008D01203027008D00CC
:10103000EF3021008E00CF3023008E0024008E017F
:1010400027008E01220097019801990182309100BA
:1010500003309200A2309300013094000800200079
:101060004A08031D34283A280A304A02031C39284A
:101070003A283C28C101DE2841084A0603194128C4
:101080004228DE284A08F7007708C1002A00250810
:10109000F7007708A6002408F7007708A5002308C2
:1010A000F7007708A4002208F7007708A3002108BA
:1010B000F7007708A2002008F7007708A1002000B9
:1010C0004A08E03EF70077082A00A0000130F70048
:1010D00020004A08FF3E273E86000530870077083B
:1010E00081074830F1000530F2004430F30005304C
:1010F000F4000430F7007708F5009C31E0248831D3
:101100004430F1000530F2004030F3000530F400C7
:101110000430F7007708F5009C31E0248831403036
:10112000F1000530F2003C30F3000530F4000430EB
:10113000F7007708F5009C31E02488313C30F1005D
:101140000530F2003830F3000530F4000430F700C9
:101150007708F5009C31E02488313830F100053003
:10116000F2003430F3000530F4000430F700770863
:10117000F5009C31E02488313430F1000530F20074
:101180003030F3000530F4000430F7007708F50044
:101190009C31E02488313030F1000530F200E43039
:1011A000F3000030F4000430F7007708F5009C31BC
:1011B000E024883120004815DE28DE2808002000C1
:1011C0002F082E040319E528E62899290130AE02DC
:1011D0000030AF3B9929992921003C08031DF128D3
:1011E000A3290130F30073082000BD070630AE00CC
:1011F0000030AF00A329A3292F082E04031D0129C5
:101200000229A3297D080A3A031D072908290D2967
:101210000130F3007308BD07A329FF30F300730802
:10122000BD00A329A329A3297D08013A031D19297B
:101230001A29A3290130F3007308BD072C30AE0032
:101240000130AF00A329A3297D08013A03192929F8
:101250002A292F29FF30F3007308BD00A32900308D
:101260002F02643003192E02031C3729382945291F
:1012700021004108F30073082000BC002100410850
:10128000F30073082000BB00A3293C0821004102A1
:1012900003184B294C2951294108F30073082000F9
:1012A000BC002100410820003B020318582959299D
:1012B000602921004108F30073082000BB00602969
:1012C0002F082E04031D65296629A3290A303C0234
:1012D000031C6B296C2973291E303B02031C7129E6
:1012E000722978297329FF30F3007308BD00A32900
:1012F0000130F3007308BD07A329A329A329A3295B
:10130000A3293C083B07F300F401F40D0130FF0072
:10131000740DF40CF30CFF0B882973089C317424B2
:101320008831FF30F30073082000BD00A329A329F2
:10133000A3293D088400053004020318A329913134
:101340000435013E820008002100BC08031DA929C4
:10135000AA29AE292000B201B3014A2A21003B0884
:10136000031DB3294A2A3D08031DB7294A2A20082C
:101370002000DF00210021082000E00021002208D9
:101380002000E100210023082000E2000130DF35C9
:10139000E00DE10DE20D890BC7296208E600610846
:1013A000E5006008E4005F08E30021003D0820003C
:1013B000DF00E001E101E2016208EA006108E90002
:1013C0006008E8005F08E7002100BD012000660812
:1013D000F4006508F3006408F2006308F100963138
:1013E0002826893171082000E3007208E400E50135
:1013F000E6016708DF006808E0006908E1006A08A4
:10140000E2001030DF35E00DE10DE20D890B022A1C
:101410006208F4006108F3006008F2005F08F10060
:1014200096312826893171082000E7007208E8000B
:10143000E901EA016A08D4006908D3006808D2000B
:101440006708D1006608F4006508F3006408F2003C
:101450006308F1000030F8000030F7000930F600B2
:101460006230F50091318721893174082000D8005D
:101470007308D7007208D6007108D5009431712422
:10148000893120005208B301B3075108B201B207F5
:101490004A2A4A2A033020003302E8300319320274
:1014A0000318532A542A572AA801A901722A013085
:1014B000A8070030A93D023029025830031928023C
:1014C000031C632A642A722A652AC908031D692A33
:1014D0006A2A722A0830DF005F08C900722A722A5D
:1014E000722A722A0800FB0127307A021030031991
:1014F0007902031C7C2A7D2AA62A1030F1002730AD
:10150000F2007A08F401F4077908F301F307923145
:10151000ED228A317108303E9C31C2248A3110306C
:10152000F1002730F2007A08F401F4077908F3019A
:10153000F30792316B228A317208FA01FA077108B7
:10154000F901F907FB010314FB0DA62AFB08031D93
:10155000AA2AAB2AB52A03307A02E83003197902A5
:10156000031CB32AB42ADE2AB52AE830F10003307E
:10157000F2007A08F401F4077908F301F3079231D5
:10158000ED228A317108303E9C31C2248A31E83024
:10159000F1000330F2007A08F401F4077908F3014E
:1015A000F30792316B228A317208FA01FA07710847
:1015B000F901F907FB010314FB0DDE2AFB08031DEB
:1015C000E22AE32AED2A00307A0264300319790214
:1015D000031CEB2AEC2A162BED2A6430F1000030B4
:1015E000F2007A08F401F4077908F301F307923165
:1015F000ED228A317108303E9C31C2248A31643038
:10160000F1000030F2007A08F401F4077908F301E0
:10161000F30792316B228A317208FA01FA077108D6
:10162000F901F907FB010314FB0D162BFB08031D41
:101630001A2B1B2B252B00307A020A300319790252
:10164000031C232B242B4B2B252B0A30F1000030BD
:10165000F2007A08F401F4077908F301F3079231F4
:10166000ED228A317108303E9C31C2248A310A3021
:10167000F1000030F2007A08F401F4077908F30170
:10168000F30792316B228A317208FA01FA07710866
:10169000F901F9074B2B7908303E9C31C2248A317D
:1016A000080001302000DF005F082100C60732304B
:1016B0004602031C5C2B5D2B652B32302000DF00C3
:1016C0005F082100C600C4011F2C03304402031C24
:1016D0006A2B6B2B1F2C1E304402031C702B712BAA
:1016E000782B1E302000DF005F082100C400782B1B
:1016F0004408FE3E2000DF005F08E50021004508A9
:10170000FF3E2000DF005F08E700E60104306502CD
:1017100003188B2B8C2BB12B6508DF005F08E600CC
:1017200067081F390907203E8600033087006603DB
:10173000FF3A67071F390907203E84000330850000
:10174000003FDF00013FE000DF09E009DF0A031985
:10175000E00A403F5F07E300413F603DE400EC2BBF
:10176000B12B0430E5020430DF005F08E6076708AC
:101770001F390907203E8600033087006603FF3AC1
:1017800067071F390907203E840003308500003FAA
:10179000DF00013FE000DF09E009DF0A0319E00A8A
:1017A000403F5F07E300413F603DE40004306502D5
:1017B0000318DB2BDC2BDE2BEC2BEC2B063064022E
:1017C000403003196302031CE62BE72BB12BEC2BF3
:1017D000EC2BB12BB12BEC2B6308D1006408D200A9
:1017E000D301D4016608DF00E001E101E2016208F3
:1017F000F4006108F3006008F2005F08F1000030B7
:10180000F8000930F7002730F600C030F5009131BC
:1018100087218B3174082000D8007308D700720824
:10182000D6007108D500943171248B312000520804
:10183000B501B5075108B401B4071F2C1F2C2100B6
:101840003C082000DF00E00121002F08200060029A
:10185000031D2E2C21002E0820005F020318312CBE
:10186000322C412C013035022C3003193402031C78
:101870003A2C3B2C452C21004408031D402C452CC0
:10188000412C2000AA01AB01622C01302000AA07E4
:101890000030AB3D01302B022C3003192A02031C0F
:1018A000522C532C622C542CC908031D582C592C33
:1018B000622C0730C900DF005F08C900622C622C6F
:1018C000622C622C08002000E50065080C3E8600B2
:1018D0008701403FD300413FD40065080E3E86009B
:1018E0008701403FD500413FD6005608803AD700D7
:1018F0005408803A5702031D7F2C530855020318E1
:10190000822C832C892C2000D21F872C882CDC2C45
:10191000892C200065080E3E86008701403FD300D9
:10192000413FD40065080C3E86008701403FD5004A
:10193000413FD6005608803AD7005408803A5702F3
:10194000031DA42C530855020318A72CA82CAE2C59
:101950002000D21BAC2CAD2CDC2CAE2C200065085A
:10196000023E86008701403FD300413FD400530828
:10197000F1005408F200890D893B8909F300F40055
:101980005108F5005208F600890D893B8909F700D6
:10199000F800913187218C3120006508083E8600CF
:1019A00087017108810741317208813D4131730817
:1019B000813D41317408813D6508083E86008701FC
:1019C000403FD300413FD400423FD500433FD600C3
:1019D0006508063E86008701403FD700413FD8009A
:1019E0005708D9005808DA000030DA1BFF30DB0056
:1019F000DC00D909DA09DB09DC09D90A0319DA0A9A
:101A00000319DB0A0319DC0A650886008701403FD9
:101A1000DD00413FDE005D08F1005E08F200890D47
:101A2000893B8909F300F4005108F5005208F600DB
:101A3000890D893B8909F700F800913187218C31A4
:101A400071082000DF007208E0007308E1007408EC
:101A5000E2006508043E86008701403FE300413F05
:101A6000E4006308F1006408F200890D893B8909EC
:101A7000F300F4005108F5005208F600890D893B87
:101A80008909F700F800913187218C317108200015
:101A9000DF077208E03D7308E13D7408E23D5F082E
:101AA000D9076008DA3D6108DB3D6208DC3D590872
:101AB000D3075A08D43D5B08D53D5C08D63D650880
:101AC0000C3E860087015308C03F5408C13F5508AB
:101AD000C23F5608C33F65080E3E86008701403F5F
:101AE000D300413FD40065080C3E860087015308AF
:101AF000C03F5408C13F6508063E86008701510873
:101B0000C03F5208C13F842D080083315C238D31D2
:101B10008831DF208D312000270826042504240485
:101B20000319932D942D9F2E0130F5000030F600FF
:101B30000030F7000030F8007508A4027608A53BD5
:101B40007708A63B7808A73B9F2E9F2EB601B701CA
:101B5000CC010314CC0D0030A7000030A6000130EA
:101B6000A500F430A400AA2EB601B701C908031DD0
:101B7000BA2DBB2DC42D2708260425042404031DDB
:101B8000C22DC32DD52DC42D4908F5007508CA00F6
:101B90000330F5007508CC000030A7000030A60027
:101BA0000030A5003230A400AA2E21004208FF3ADE
:101BB000031DDB2DDC2DAA2E4308FF3A031DE12D6A
:101BC000E22DAA2E2000ED1BE62DE72DAA2E0230D5
:101BD000F5007508CC000030A7000030A6002E30BC
:101BE000A500E030A400AA2EAA2EAA2EC908031D23
:101BF000FA2DFB2D042E2708260425042404031D9A
:101C0000022E032E812E042E2708260425042404E8
:101C1000031D0B2E0C2E162EC908031D102E112E7F
:101C2000162E0430F5007508C900162E4908F50077
:101C30007508CA000330F5007508CC000030A70015
:101C40000030A6000030A5000530A400AA2E812E89
:101C5000CB01B601B701AA2ECB01B601B701AA2E5E
:101C60000230F5007508CB00C430B6000930B7006B
:101C7000AA2E0230F5007508CB008830B60013306C
:101C8000B700AA2E0330F5007508CB007030B600FF
:101C90001730B700AA2E0430F5007508CB0040308D
:101CA000B6001F30B700AA2E0530F5007508CB002E
:101CB0001C30B6002530B700AA2E0630F500750896
:101CC000CB000430B6002930B700AA2E0730F5004B
:101CD0007508CB00E030B6002E30B700AA2E0730D2
:101CE000F5007508CB00BC30B6003430B700AA2E22
:101CF000CB010314CB0DBD30B6003430B700AA2E93
:101D0000AA2E7D08FF3E031C282E84000A30040200
:101D10000318282E98310435003E8200AA2EAA2EE0
:101D20002708260425042404031D972E982EAA2E86
:101D30000430F5007508CC00AA2EAA2EAA2E4C0855
:101D4000003A0319A62D013A0319B42D033A0319D9
:101D5000F62D902E08002000C8011E30F7007708ED
:101D60002100E300E401E501E601E7012030F20093
:101D70000430F3000730F7007708F4002330913186
:101D80000C218E312830F2000430F3001530F700BA
:101D90007708F400383091310C218E314030F20058
:101DA0000430F3001C30F7007708F4008F309131D5
:101DB0000C218E31A030F2000430F3000730F70020
:101DC0007708F4002A3091310C218E31A830F200CE
:101DD0000430F3000730F7007708F4003130913118
:101DE0000C218E31B030F2000430F3000E30F700D9
:101DF0007708F400543091310C218E312030F200FC
:101E00000530F3000730F7007708F4001C309131FB
:101E10000C218E312730F2000530F3000930F70035
:101E20007708F400863091310C218E313030F20089
:101E30000530F3001C30F7007708F4006230913170
:101E40000C218E315030F2000530F3000730F700DE
:101E50007708F4007E3091310C218E315730F2003A
:101E60000530F300F4010314F40D853091310C2199
:101E70008E315830F2000530F3000730F700770854
:101E8000F4004D3091310C218E31A030F20005303C
:101E9000F3000430F7007708F400D73091310C21BB
:101EA0008E31A430F2000530F3000430F7007708DB
:101EB000F400DF3091310C218E31A830F200053072
:101EC000F3000430F7007708F400D33091310C218F
:101ED0008E312030F2000630F3000430F70077082E
:101EE000F400AB3091310C218E312430F2000630F9
:101EF000F3002430F7007708F400AF3091310C2163
:101F00008E315030F2000630F3000230F7007708CF
:101F1000F400E53091310C218E315430F20006305E
:101F2000F3001230F7007708F400E73091310C210C
:101F30008E315830F2000630F3000430F700770895
:101F4000F400DB3091310C218E315C30F200063030
:101F5000F3000230F7007708F400E33091310C21F0
:101F60008E315030F2000030F300F4010314F40D10
:101F7000FE3091310C218E31A830F7007708F10046
:101F80000430F8007808F200A03092312F228E3110
:101F9000F9007908FA00FA1FCE2FCF2FE32F2B007C
:101FA0002B08F7007708A3002A08F7007708A2009B
:101FB0002908F7007708A1002808F7007708A00093
:101FC00020004816FF2F7A08803A7F3E031CE92F35
:101FD000EA2FFF2F2B002308F7007708AB00220819
:101FE000F7007708AA002108F7007708A900200861
:101FF000F7007708A80020004816FF2FFF2F0800E1
:1020000000347F347F347F347F347F347F347F34B7
:102010007F347F347F347F347F347F347F347F3428
:102020007F347F347F347F347F347F347F347F3418
:102030007F347F347F347F347F347F347F347F3408
:102040007F347F347F347F347F347F347F347F34F8
:102050007F347F347F347F347F347F347F347F34E8
:102060007F347F347F347F347F347F347F347F34D8
:102070007F347F347F347F347F347F347F347F34C8
:102080007F347E347D347C347B347A347A347934D2
:1020900078347734773476347534753474347334F3
:1020A000733472347134713470346F346F346E340D
:1020B0006D346D346C346B346B346A346A34693427
:1020C000683468346734673466346634653464343D
:1020D0006434633463346234623461346134603450
:1020E00060345F345E345E345D345D345C345C3463
:1020F0005B345B345A345A34593459345834583474
:102100005734573456345634553455345434543483
:102110005334533452345234513451345034503493
:102120004F344F344E344E344D344D344C344C34A3
:102130004B344B344A344A344934493448344834B3
:1021400047344734463446344534453444344434C3
:1021500043344334423442344134413440344034D3
:102160003F343F343E343E343D343D343C343C34E3
:102170003B343B343A343A343934383438343734F5
:102180003734363436343534353434343334333408
:10219000323432343134303430342F342E342E341F
:1021A0002D342D342C342B342A342A342934283439
:1021B0002834273426342534253424342334223457
:1021C0002134213420341F341E341D341C341B347C
:1021D0001A341934183417341534143413341234AF
:1021E00010340F340D340C340A34083406340434FB
:1021F000023400340034003400340034003400343D
:1022000000348831EC288831FC288931142989313F
:0622100024298931812917
:10221800F600222976089C316A249131F50072086B
:10222800860073088700750881000130F50075087D
:10223800F6070130F2070030F33D22290130F4029D
:102248007408FF3A031D29292A290E292B29080079
:10225800F501F6012F29711C322933293729730812
:10226800F5077408F63D0130F335F40D890B38296C
:102278000130F236F10C890B3D2972087104031DF7
:10228800462947292F2948297608F201F2077508B7
:10229800F101F1074F290800F30073088600870150
:1022A800710881027308860087013C300102031C13
:1022B8005E295F2986293C30F20073088600870171
:1022C800720881077308013E860087010130810288
:1022D8007308013E860087013C300102031C752902
:1022E800762986293C30F2007308013E8600870172
:1022F800720881077308023E860087010130810257
:102308008629862908000030FC000030FB000030D8
:10231800FA000030F9009029711C932994299D290D
:102328007508F9077608FA3D7708FB3D7808FC3D03
:102338009D290130F535F60DF70DF80D890B9E290D
:102348000130F436F30CF20CF10C890BA529740852
:10235800730472047104031DB229B3299029B429A6
:102368007C08F4007B08F3007A08F2007908F10091
:10237800BD290800F700E6290130F5027308860038
:102388007408870077089C316A2491310106031D7F
:10239800CE29CF29D8290130F6007608F707013071
:1023A800F3070030F43DE6297308860074088700B7
:1023B8000108F6007608F10077089C3183249131F2
:1023C800EC29E629F508031DEA29EB29C029EC299F
:1023D8007508031DF029F3290030F529F529013086
:1023E800F5290800F3007108F200730886008701D8
:1023F800720881077308860087013C300102031CBC
:10240800062A072A2E2A7308860087013C30810293
:102418000130F2007308013E8600870172088107C7
:102428007308013E860087013C300102031C1D2A07
:102438001E2A2E2A7308013E860087013C3081023D
:102448000130F2007308023E860087017208810796
:102458002E2A2E2A0800F500622A0130F20272089C
:102468007507F30073088600053087007208710746
:10247800F400740884000530850000080102031880
:10248800462A472A4A2AFF306A2A6A2A72087107A6
:10249800F300730886000530870072087507F4009A
:1024A80074088400053085000008010203185D2ABD
:1024B8005E2A622A01306A2A6A2A622AF208031D01
:1024C800662A672A312A682A00306A2A08007208B0
:1024D80071040319702A712AA12AF6010314F60D52
:1024E8007F2A0130F135F20D890B762A0130F5008B
:1024F8007508F6077F2AF21F822A832A752A852AF9
:10250800852A72087402031D8B2A71087302031C42
:102518008E2A8F2A942A7108F3027208F43B942AAF
:102528000130F236F10C890B952A0130F602031DB1
:102538009E2A9F2A852AA12AA12A7408F201F20755
:102548007308F101F107A82A08000130F70077089D
:102558002000C70764304702031CB32AB42AEA2ABA
:10256800C7010130F70077082100E3073C30630218
:10257800031CBF2AC02AE72AE301E430F100003037
:10258800F200F3010314F30D9431D4249231A030F6
:10259800F1000530F200F3010314F30D9431D42453
:1025A8009231A830F1000530F200A030F300053078
:1025B800F4000430F7007708F5009C31E0249231EC
:1025C80020004816E72A0130EC2AEC2A0030EC2AD1
:1025D8000800F601F701720871040319F42AF52AB4
:1025E8002B2BF8010314F80D032B0130F135F20DF4
:1025F800890BFA2A0130F5007508F807032BF21F3A
:10260800062B072BF92A092B092B0130F635F70D74
:10261800890B0A2B72087402031D142B71087302AC
:10262800031C172B182B1E2B7108F3027208F43B9E
:1026380076141E2B0130F236F10C890B1F2B01305A
:10264800F802031D282B292B092B2B2B2B2B770862
:10265800F201F2077608F101F107322B0800013088
:102668002000D1005108BE0764303E02031C3D2BF8
:102678003E2B7C2BBE017D08D100D2015108F90008
:102688005208FA008A31732293312C309C31C224CB
:10269800933120003508FA01FA073408F901F907DF
:1026A8008A31732293312C309C31C224933121001A
:1026B8003708FA01FA073608F901F9078A3173224F
:1026C80093312C309C31C224933121003308FA0114
:1026D800FA073208F901F9078A31732293310D306C
:1026E8009C31C22493310A309C31C22493317C2B13
:1026F80008008B139731522793318831002093318A
:102708009C31AA2493319C315E2493318E31AB26BF
:1027180093318E2B8B176400643021004A02031C0E
:10272800962B972B8E2B6430CA0288310120933167
:102738008031022093319331332393319C31952496
:1027480093318D3185259331813162219331200078
:102758004C08043A031DB12BB22BB72B4808031DB4
:10276800B62BBC2BB72B0530EC006C08EE008E2B7B
:102778000130EE02031DC12BC22B8E2BEE01031478
:10278800EE0D8E2B8E2B8E2B8E2B8E2B81315F296F
:10279800F8007208803AF5007408803A7502031D43
:1027A800D72B730871020318DA2BDB2B1C2C780843
:1027B8000E3E86008701403FF500413FF600740851
:1027C800803AF7007608803A7702031DED2B7508EA
:1027D80073020318F02BF12BFA2B78080E3E8600B3
:1027E80087017308C03F7408C13F1C2C78080E3E4F
:1027F80086008701403FF500413FF6007608803AA1
:10280800F7007208803A7702031D0C2C71087502D4
:1028180003180F2C102C1C2C78080E3E86008701FC
:102828007108C03F7208C13F1C2C1C2C1C2C1C2C8E
:102838000800F3007108F20073088600043087006E
:102848007208810773088600043087003C30010253
:10285800031C2F2C302C702C730886000430870042
:102868003C3081020130F2007308013E86000430DA
:102878008700720881077308013E860004308700CC
:102888003C300102031C492C4A2C702C7308013E71
:102898008600043087003C3081020130F200730862
:1028A800023E860004308700720881077308023EE2
:1028B8008600043087008108031D632C642C702C6B
:1028C8000130F2007308033E860004308700720866
:1028D8008107702C702C702C080000302000DD005F
:1028E8000030DC000030DB000030DA00540853040C
:1028F800520451040319812C822CCA2CDE010314C2
:10290800DE0D922C0130D135D20DD30DD40D890BAB
:10291800872C0130D9005908DE07922CD41F952C3A
:10292800962C862C982C982C0130DA35DB0DDC0D92
:10293800DD0D890B992C54085802031DAD2C530842
:102948005702031DAD2C52085602031DAD2C510829
:102958005502031CB02CB12CBB2C5108D5025208CF
:10296800D63B5308D73B5408D83B5A14BB2C0130EC
:10297800D436D30CD20CD10C890BBC2C0130DE021E
:10298800031DC72CC82C982CCA2CCA2C5D08D4004F
:102998005C08D3005B08D2005A08D100D32C080089
:1029A8007308F400710886007208870074088107AC
:1029B80071088600720887003C300102031CE52C70
:1029C800E62C372D71088600720887003C3081029A
:1029D8000130F4007108013EF5000030723DF60048
:1029E8007508860076088700740881077108013E1B
:1029F800F4000030723DF500740886007508870001
:102A08008108031D082D092D372D0130F4007108A8
:102A1800023EF5000030723DF60075088600760823
:102A28008700740881077108023EF4000030723D87
:102A3800F50074088600750887008108031D252D98
:102A4800262D372D0130F4007108033EF5000030C3
:102A5800723DF600750886007608870074088107BD
:102A6800372D372D372D08002000CB08031D3D2DAD
:102A78003E2D442DC5016D08F1007108C600A02D3A
:102A88006D08F100F201F11BF2037208803A803CF4
:102A9800031D512D71082A0057020318542D552D76
:102AA8005D2D20006D08F10071082A00D700200074
:102AB800C81520004608803AF1006D08803AF102F6
:102AC8000318672D682D6D2D6D08F1007108C6007B
:102AD8006D2D2100E308031D722D732DA02D2000FC
:102AE800C508031D782D792D962DC5010314C50D34
:102AF8002A005D08F1007108DE005C08F100710829
:102B0800DD005B08F1007108DC005A08F10071086B
:102B1800DB005908F1007108DA005808F100710863
:102B2800D900962D20004608F10071082A00D80027
:102B38002000C815A02DA02D08002100BC08031DE9
:102B4800A62DA72DAE2D2000AC01AD01BA01B9010B
:102B5800B801272E21003B08031DB32D272E3F085F
:102B6800F100F20171082000AC077208AD3D023097
:102B780021003F02031CC12DC22DC92DFE303F028A
:102B8800031CC72DC82DCE2DC92D0130F1007108A9
:102B98002000BA070130F10071082000B80704309E
:102BA8003802031CD82DD92D272EBA08031DDD2D78
:102BB800DE2D082EB9012D08F2002C08F100023094
:102BC800F236F10C890BE42D7108013E8400903037
:102BD8000318013E85000008F3007308ED006D0836
:102BE800803A183E031CF92DFA2D202EFB2DC9081A
:102BF800031DFF2D002E202E0230F1007108C900A0
:102C0800202E202E202E202E0130F1007108B90729
:102C18000A303902031C112E122E202E132EC90839
:102C2800031D172E182E202E0230F1007108C9003E
:102C3800202E202E202E202EAC01AD01BA01B80185
:102C4800272E272E272E080000302000DD00003018
:102C5800DC000030DB000030DA000030D500003046
:102C6800D4000030D3000030D2000030D90000304A
:102C7800D8000030D7000030D6001030F5007508B5
:102C8800D100462E0130DA35DB0DDC0DDD0D890B68
:102C9800472E0130D635D70DD80DD90D890B4E2EBC
:102CA800F41F572E582E5A2E56145A2E0130F1352D
:102CB800F20DF30DF40D890B5B2E0130D635D70DCF
:102CC800D80DD90D890B622EF41F6B2E6C2E6E2E2B
:102CD80056146E2E0130F135F20DF30DF40D890BFB
:102CE8006F2E5A08F5005B08F6005C08F7005D08CF
:102CF800F8000130F535F60DF70DF80D890B7E2E2D
:102D080001307504D20000307604D3000030770417
:102D1800D40000307804D50055085902031D9E2EB2
:102D280054085802031D9E2E53085702031D9E2E59
:102D380052085602031CA12EA22EAC2E5208D6020F
:102D48005308D73B5408D83B5508D93B5A14AC2EE6
:102D58000130D102031DB12EB22E462EB32E5B08D0
:102D6800F201F2075A08F101F107BA2E0800013002
:102D7800F10071082100BA0705303A02031CC52E7C
:102D8800C62ECF2E0530F1007108BA00B801BC017B
:102D9800AA01AB012D2F05303802031CD42ED52EE5
:102DA8002D2F0530F1007108B8003908FF3EF100F9
:102DB8007108F500750807390907603E8600033079
:102DC80087007508FC3E07390907603E8400033018
:102DD8008500003FF100013FF200F109F209F10A14
:102DE8000319F20A403F7107F300413F723DF400B6
:102DF8000330F436F30C890BFD2E7308F6007408C3
:102E0800F700013077022D3003197602031C0D2FCD
:102E18000E2F2D2F01307702F43003197602031894
:102E2800162F172F2D2F7708AB01AB077608AA01AD
:102E3800AA077708F2007608F1000330F236F10CA1
:102E4800890B222F7108F3007308BC002D2F2D2F3A
:102E58002D2F3C08031D312F342FA801A901512F14
:102E68000130A8070030A93D013029022C30031990
:102E78002802031C402F412F512F422F2000C90840
:102E8800031D472F482F512F0A30C900F100710840
:102E9800C900512F512F512F512F08008B13F0309B
:102EA8002100990098011130970022009D019E0190
:102EB8000430F10071082100DC00043022008C008D
:102EC8001B3021008C00113023008C0024008C0161
:102ED80027008C01E03022008D00303021008D0069
:102EE80023008D0124008D01203027008D00220051
:102EF8008E01EF3021008E00CF3023008E00240099
:102F08008E0127008E012200970199019801033054
:102F180092008230910001309400A2309300A030DA
:102F280021009E0025309D00DD010314DD0DFF30DA
:102F3800F1007108DF00FF30F1007108E000FF3098
:102F4800F1007108DE00C001C101BF010030A70017
:102F58000030A6000030A5000030A400BE010030FB
:102F6800A3000030A2000030A1000030A000BD0185
:102F78000A3023009F001F309B0003309C009D01F6
:102F880004309E009D171D169E16A601A401A701D8
:102F9800A501A201A001A301A101200099013030DF
:102FA8009800313028009D0005309E0020009101D6
:102FB800920193019401210091019201083093003C
:102FC80094010B17CA01AC01AD01FF30F100710883
:102FD800E100FF30F1007108E200C201C301C7013E
:102FE800C901C801B401B501B001B101CB01B601F5
:102FF800B701B201B30108008E312C2E8E31302E6C
:103008008E31392E8E31422E8E314B2E8E31542EEA
:103018008E315D2E8E31662E8E316F2E8E31782E4A
:1038B400200050085D2C08002000CC01CB01CA0177
:1038C400FD010800640080010131890B652C00347E
:1038D400F1007108230091001513951315141308B2
:1038E400732C0800F20020005008720603197B2C88
:1038F4007C2C822C7208F1007108D000C817822C2D
:103904000800F20072082300910071089300151357
:10391400951315158B1355309600AA3096009514FF
:103924008B17151108009531A1259C318931A421EB
:103934009C318B3151239C319631BB269C31803193
:1039440003209C31863179269C312100BB0108007B
:103954002100B901B801BA01AA01AB01BC01BB0144
:10396400C501C401C601AE01AF012000B601B70113
:10397400B401B501B201B301C901ED01ED030800C1
:10398400F200203023002402031CC92CCA2CCC2CA6
:10399400DF2CDF2C7208F10027081F39A03E8600B7
:1039A40003308700710881000130F1007108A70716
:1039B4000130F1007108A407DF2C0800F62C73080D
:1039C4008600740887000108F600710886007208F2
:1039D4008700760881000130F1070030F23D0130A4
:1039E400F3070030F43DF62C0130F5027508FF3A78
:1039F400031DFD2CFE2CE12CFF2C080000340234A6
:103A040004348634003482348434DE3460340A343A
:103A14000C348E3408348A348C348E3400340234BA
:103A240004348634003482348434DE3460340A341A
:103A34000C348E3408348A348C348E34003402349A
:103A440004348634003482348434DE3460340A34FA
:103A54000C348E3408348A348C348E34003402347A
:103A640004348634003482348434DE3460340A34DA
:103A74000C348E3408348A348C348E34003402345A
:103A840004348634003482348434DE3460340A34BA
:103A94000C348E3408348A348C348E34003402343A
:103AA40004348634003482348434DE3460340A349A
:103AB4000C348E3408348A348C348E34003402341A
:103AC40004348634003482348434DE3460340A347A
:103AD4000C348E3408348A348C348E3400340234FA
:103AE40004348634003482348434DE3460340A345A
:103AF4000C348E3408348A348C348E3400340234DA
:103B040004348634003482348434DE3460340A3439
:103B14000C348E3408348A348C348E3400340234B9
:103B240004348634003482348434DE3460340A3419
:103B34000C348E3408348A348C348E340034023499
:103B440004348634003482348434DE3460340A34F9
:103B54000C348E3408348A348C348E340034023479
:103B640004348634003482348434DE3460340A34D9
:103B74000C348E3408348A348C348E340034023459
:103B840004348634003482348434DE3460340A34B9
:103B94000C348E3408348A348C348E340034023439
:103BA40004348634003482348434DE3460340A3499
:103BB4000C348E3408348A348C348E340034023419
:103BC40004348634003482348434DE3460340A3479
:103BD4000C348E3408348A348C348E3400340234F9
:103BE40004348634003482348434DE3460340A3459
:103BF4000C348E3408348A348C348E3400340034DB
:103C040001340034043400340934003410340034F2
:103C14001934003424340034313400344034003452
:103C24005134003464340034793400349034003432
:103C3400A9340034C4340034E13400340034013491
:103C4400213401344434013469340134903401346E
:103C5400B9340134E43401341134023440340234CC
:103C640071340234A4340234D934023410340334A9
:103C74004934033484340334C13403340034043405
:103C84004134043484340434C934043410340534E1
:103C940059340534A4340534F1340534403406343D
:103CA40091340634E4340634393407349034073418
:103CB400E934073444340834A13408340034093472
:103CC40061340934C434093429340A3490340A344C
:103CD400F9340A3464340B34D1340B3440340C34A6
:103CE400B1340C3424340D3499340D3410340E347E
:103CF40089340E3404340F3481340F3400341034D6
:103D040081341034043411348934113410341234AD
:103D14009934123424341334B13413344034143405
:103D2400D134143464341534F934153490341634DD
:103D340029341734C4341734613418340034193432
:103D4400A134193444341A34E9341A3490341B3409
:103D540039341C34E4341C3491341D3440341E345E
:103D6400F1341E34A4341F34593420341034213433
:103D7400C934213484342234413423340034243487
:103D8400C13424348434253449342634103427345B
:103D9400D9342734A43428347134293440342A34AF
:103DA40011342B34E4342B34B9342C3490342D3482
:103DB40069342E3444342F342134303400343134D3
:103DC400E1343134C4343234A934333490343434A7
:103DD40079343534643436345134373440343834F7
:103DE4003134393424343A3419343B3410343C34C7
:103DF40009343D3404343E3401343F340034403417
:103E040001344134043442340934433410344434E6
:103E14001934453424344634313447344034483436
:103E24005134493464344A3479344B3490344C3406
:103E3400A9344D34C4344E34E1344F340034513455
:103E44002134523444345334693454349034553422
:103E5400B9345634E43457341134593440345A3470
:103E640071345B34A4345C34D9345D3410345F343D
:103E74004934603484346134C13462340034643489
:103E84004134653484346634C93467341034693455
:103E940059346A34A4346B34F1346C3440346E34A1
:103EA40091346F34E434703439347234903473346C
:103EB400E934743444347634A134773400347934B6
:103EC40061347A34C4347B3429347D3490347E3480
:103ED400F9347F3464348134D134823440348434CA
:103EE400B1348534243487349934883410348A3492
:103EF40089348B3404348D3481348E3400349034DA
:103F040081349134043493348934943410349634A1
:103F14009934973424349934B1349A3440349C34E9
:103F2400D1349D3464349F34F934A0349034A234B1
:103F34002934A434C434A5346134A7340034A934F6
:103F4400A134AA344434AC34E934AD349034AF34BD
:103F54003934B134E434B2349134B4344034B63402
:103F6400F134B734A434B9345934BB341034BD34C7
:103F7400C934BE348434C0344134C2340034C4340B
:103F8400C134C5348434C7344934C9341034CB34CF
:103F9400D934CC34A434CE347134D0344034D23413
:103FA4001134D434E434D534B934D7349034D934D6
:103FB4006934DB344434DD342134DF340034E13417
:103FC400E134E234C434E434A934E6349034E834DB
:103FD4007934EA346434EC345134EE344034F0341B
:103FE4003134F2342434F4341934F6341034F834DB
:0C3FF4000934FA340434FC340134FE3487
:020000040001F9
:04000E009C0FFC3F08
:10E00000570049004E000000DC0000000000010045
:10E01000B4004F008F00FD00000000000100B400BC
:10E020004F008F00FD0000002E0000002E000100B8
:10E0300000000000000000000000000000000000E0
:10E0400000000000000000000000000000000000D0
:10E0500000000000000000000000000000000000C0
:10E0600000000000000000000000000000000000B0
:10E0700000000000000000000000000000000000A0
:10E080000000000000000000000000000000000090
:10E090000000000000000000000000000000000080
:10E0A0000000000000000000000000000000000070
:10E0B0000000000000000000000000000000000060
:10E0C0000000000000000000000000000000000050
:10E0D0000000000000000000000000000000000040
:10E0E0000000000000000000000000000000000030
:10E0F0000000000000000000000000000000000020
:10E10000000000000000000000000000000000000F
:10E1100000000000000000000000000000000000FF
:10E1200000000000000000000000000000000000EF
:10E1300000000000000000000000000000000000DF
:10E1400000000000000000000000000000000000CF
:10E1500000000000000000000000000000000000BF
:10E1600000000000000000000000000000000000AF
:10E17000000000000000000000000000000000009F
:10E18000000000000000000000000000000000008F
:10E19000000000000000000000000000000000007F
:10E1A000000000000000000000000000000000006F
:10E1B000000000000000000000000000000000005F
:10E1C000000000000000000000000000000000004F
:10E1D000000000000000000000000000000000003F
:10E1E000000000000000000000000000000000002F
:10E1F000000000000000000000000000140000000B
:00000001FF
