:1000000081313E2908000800803120007F08F0007F
:1000100021005A189D145915590822000C0624393C
:100020008C06200093119D3085002100450820009A
:100030008E1A01388400003F2100C50047082200C5
:10004000951801388400003F2100C70046082200AF
:10005000151801388400003F2100C600C51E3D2848
:1000600043353E39203E8400033085002E081A00B7
:100070002F081A00C30AC20AC401D912471B4C2810
:10008000B31FA328B20F4528B30AB40F4828B50AF6
:10009000B51BA328D916A328B3013A0803197B2856
:1000A000FD3EDE000A3EDF00283030020030313BEA
:1000B000031C7B282C083002B4002D08313BB5000E
:1000C000FF300318B4000318B5002C08243C84004A
:1000D0002D08333B850005303402B2000030353B3B
:1000E000B300040832020508333B03187B280408D8
:1000F000B2000508B300471EA328391437350E395E
:10010000603E8400033085002E081A002F081A0074
:10011000B70AB60AB8012408A0002508A1002608DD
:10012000A2002708A3003C08BB00A401A501A6016A
:10013000A701BC013A080319A328023EDC00013ED6
:10014000DD00023EDB002E08AE0FA728AF0A033900
:100150000B00AD28E1280E2926292300B21FB20A80
:1001600030080319C2280C303202031CC228B20125
:1001700031081F39A03E840003308500003F9A00FB
:10018000B10AB0032100C80A5A1CD7289D18C628F6
:100190001B0984009E30850084350318850A1200EF
:1001A000A4071200A53D0001A63DA73DBC0ADA0147
:1001B000DC1FDC0B090015309D0020309E005A1416
:1001C00009002300AE1FAE0A2000911EFA2823006A
:1001D000AE011908850020302C02031CFA282F08D4
:1001E0001F39C03E84000330050685060506803FA2
:1001F000AF0AAC0A21005A1C04299D18FD281C08CE
:10020000803C031C003CBE00DA01DD1FDD0B090051
:1002100019309D0020309E005A140900DE1FDE0BAD
:10022000162946084706803A090DC00D5A1C1C299C
:100230009D1818291C08BF00DA01DB1FDB0B090021
:100240000D309D0020309E005A140900DF1FDF0B87
:100250002E2946084706803A090DC10D5A1C34293B
:100260009D1830291C08BD0025309D00A0309E003F
:100270005A14090070082000FF0009008801873126
:10028000DF2F9131F5218131003A0319482949299D
:1002900053298E317526813180310320813193318C
:1002A000DB238131532996319E2681312000471C62
:1002B0005A295B2997292030F3000430F4000730D5
:1002C000F9007908F50023309C31C8248131003AC7
:1002D00003196B296C293A2B2830F3000430F40001
:1002E0001530F9007908F50038309C31C824813187
:1002F000003A03197C297D293A2B4030F300043061
:10030000F4001C30F9007908F5008F309C31C824C6
:100310008131003A03198D298E293A2BFE30F900DC
:1003200079082000C7053A2B3A2B3A2B3A2BC71CE9
:100330009A299B29D729A030F3000430F400073014
:10034000F9007908F5002A309C31C8248131003A3F
:100350000319AB29AC293A2BA830F3000430F40080
:100360000730F9007908F50031309C31C82481311B
:10037000003A0319BC29BD293A2BB030F3000430F0
:10038000F4000E30F9007908F50054309C31C8248F
:100390008131003A0319CD29CE293A2BFD30F900DD
:1003A00079082000C7053A2B3A2B3A2B3A2B471DE8
:1003B000DA29DB29172A2030F3000530F400073052
:1003C000F9007908F5001C309C31C8248131003ACD
:1003D0000319EB29EC293A2B2730F3000530F40000
:1003E0000930F9007908F50086309C31C824813144
:1003F000003A0319FC29FD293A2B3030F30005306F
:10040000F4001C30F9007908F50062309C31C824F2
:100410008131003A03190D2A0E2A3A2BFB30F900DC
:1004200079082000C7053A2B3A2B3A2B3A2BC71DE7
:100430001A2A1B2A562A5030F3000530F4000730E0
:10044000F9007908F5007E309C31C8248131003AEA
:1004500003192B2A2C2A3A2B5730F3000530F400CD
:10046000F5010314F50D85309C31C8248131003A23
:1004700003193B2A3C2A3A2B5830F3000530F4008C
:100480000730F9007908F5004D309C31C8248131DE
:10049000003A03194C2A4D2A3A2BF730F900790813
:1004A0002000C7053A2B3A2B3A2B3A2B471E592AE4
:1004B0005A2A962AA030F3000530F4000430F900DF
:1004C0007908F500D7309C31C8248131003A0319EE
:1004D0006A2A6B2A3A2BA430F3000530F40004306A
:1004E000F9007908F500DF309C31C8248131003AE9
:1004F00003197B2A7C2A3A2BA830F3000530F4003C
:100500000430F9007908F500D3309C31C8248131DA
:10051000003A03198C2A8D2A3A2BEF30F90079081A
:100520002000C7053A2B3A2B3A2B3A2BC71E992AA3
:100530009A2AE82A2030F3000630F4000430F9004B
:100540007908F500AB309C31C8248131003A031999
:10055000AA2AAB2A3A2B2430F3000630F4002430C8
:10056000F9007908F500AF309C31C8248131003A98
:100570000319BB2ABC2A3A2B5030F3000630F40092
:100580000230F9007908F500E5309C31C82481314A
:10059000003A0319CC2ACD2A3A2B5430F300063006
:1005A000F4001230F9007908F500E7309C31C824D6
:1005B0008131003A0319DD2ADE2A3A2BDF30F900B7
:1005C00079082000C7053A2B3A2B3A2B3A2B3A2BC5
:1005D000471FEB2AEC2A162B5830F3000630F400A4
:1005E0000430F9007908F500DB309C31C8248131F2
:1005F000003A0319FC2AFD2A3A2B5C30F30006303E
:10060000F4000230F9007908F500E3309C31C82489
:100610008131003A03190D2B0E2B3A2BBF30F90014
:1006200079082000C7053A2B3A2B3A2BC71F192B04
:100630001A2B312B4F30F3000030F400F501031476
:10064000F50DFE309C31C8248131003A0319292B65
:100650002A2B3A2B7F30F90079082000C7053A2B66
:100660003A2BC7013A2B3A2B3A2B3A2B3A2B3A2BFF
:100670003A2B3A2B08002000E60066080C3E860064
:100680008701403FD200413FD30066080E3E8600FE
:100690008701403FD400413FD5005508803AD6003D
:1006A0005308803A5602031D572B52085402031870
:1006B0005A2B5B2B612B2000D11F5F2B602BB42B9F
:1006C000612B200066080E3E86008701403FD20065
:1006D000413FD30066080C3E86008701403FD400AE
:1006E000413FD5005508803AD6005308803A56025B
:1006F000031D7C2B5208540203187F2B802B862B62
:100700002000D11B842B852BB42B862B2000660860
:10071000023E86008701403FD200413FD30052088D
:10072000F1005308F200890D893B8909F300F400B8
:100730005008F5005108F600890D893B8909F7003A
:10074000F8009C319124833120006608083E860021
:1007500087017108810741317208813D4131730879
:10076000813D41317408813D660886008701403F24
:10077000D200413FD3005208F1005308F200890D26
:10078000893B8909F300F4005008F5005108F60090
:10079000890D893B8909F700F8009C319124833148
:1007A00074082000DD007308DC007208DB007108AB
:1007B000DA006608083E86008701403FDE00413FC0
:1007C000DF00423FE000433FE1006608063E86004E
:1007D0008701403FD200413FD3005208D400530864
:1007E000D5000030D51BFF30D600D700D409D5097D
:1007F000D609D709D40A0319D50A0319D60A031949
:10080000D70A6608043E86008701403FD800413F72
:10081000D9005808F1005908F200890D893B89096F
:10082000F300F4005008F5005108F600890D893BEB
:100830008909F700F8009C31912483317108200068
:10084000D4077208D53D7308D63D7408D73D5708C4
:10085000E5005608E4005508E3005408E200620889
:10086000D2006308D3006408D4006508D5005A0894
:100870005E07D6005B085F3DD7005C08603DD8008E
:100880005D08613DD9005608D2075708D33D580886
:10089000D43D5908D53D66080C3E860087015208B4
:1008A000C03F5308C13F5408C23F5508C33FDD1F36
:1008B0005A2C5B2C722C5A092300A80020005B09DB
:1008C0002300A90020005C092300AA0020005D0984
:1008D0002300AB00A80A0319A90A0319AA0A0319DD
:1008E000AB0A832C20005D082300AB0020005C08CD
:1008F0002300AA0020005B082300A90020005A085A
:100900002300A800832C2000E11F872C882C9F2C1B
:100910005E092300A40020005F092300A500200039
:1009200060092300A600200061092300A700A40A93
:100930000319A50A0319A60A0319A70AB02C200057
:1009400061082300A700200060082300A600200003
:100950005F082300A50020005E082300A400B02C3F
:100960002000E51FB42CB52CCC2C62092300A0007C
:10097000200063092300A100200064092300A200D5
:10098000200065092300A300A00A0319A10A031986
:10099000A20A0319A30ADD2C200065082300A30086
:1009A000200064082300A200200063082300A100A7
:1009B000200062082300A000DD2C200066080E3E07
:1009C00086008701403FD200413FD30066080C3EBD
:1009D000860087015208C03F5308C13F6608063EA3
:1009E000860087015008C03F5108C13FF72C08001E
:1009F000883100208431F10071082000E0001430BB
:100A000060020318042D052D202D6003FF3A143ECB
:100A1000F1007108E00021003F0820006007F100AC
:100A20007108E10021003F08200061020318192D20
:100A30001A2D382DFF30F1007108E100382D382DC6
:100A40006008EC3EF1007108E0006003FF3A21000D
:100A50003F07F10071082000E100610821003F021A
:100A60000318332D342D382D2000E101382D382D79
:100A70002100BA08031D3D2D3E2D402DFD01892E7C
:100A80000C30200061020318462D472D4C2D0A30F2
:100A9000F1007108FD00892E293061020318512DE3
:100AA000522D562DFD010314FD0D892E2B306102B0
:100AB00003185B2D5C2D702D02307D02031C612D0F
:100AC000622D672D0230D0000030D1006B2D013037
:100AD000D0000030D1005008F1007108FD00892ECF
:100AE0005D3061020318752D762D7B2D0230F100EB
:100AF0007108FD00892E5F3061020318802D812D61
:100B0000952D03307D02031C862D872D8C2D0330FF
:100B1000D2000030D300902D0230D2000030D3003C
:100B20005208F1007108FD00892E7430610203182B
:100B30009A2D9B2DA02D0330F1007108FD00892E08
:100B4000763061020318A52DA62DBA2D04307D0242
:100B5000031CAB2DAC2DB12D0430D4000030D500DA
:100B6000B52D0330D4000030D5005408F1007108D1
:100B7000FD00892E883061020318BF2DC02DC52DC0
:100B80000430F1007108FD00892E8A3061020318DB
:100B9000CA2DCB2DDF2D05307D02031CD02DD12D8C
:100BA000D62D0530D6000030D700DA2D0430D6001F
:100BB0000030D7005608F1007108FD00892E9D30E5
:100BC00061020318E42DE52DEA2D0530F1007108CE
:100BD000FD00892E9F3061020318EF2DF02D042EA9
:100BE00006307D02031CF52DF62DFB2D0630D800B6
:100BF0000030D900FF2D0530D8000030D90058084A
:100C0000F1007108FD00892EB73061020318092E2A
:100C10000A2E0F2E0630F1007108FD00892EB93022
:100C200061020318142E152E292E07307D02031C95
:100C30001A2E1B2E202E0730DA000030DB00242E67
:100C40000630DA000030DB005A08F1007108FD00C0
:100C5000892ED030610203182E2E2F2E342E07300D
:100C6000F1007108FD00892ED23061020318392E7F
:100C70003A2E4E2E08307D02031C3F2E402E452E6C
:100C80000830DC000030DD00492E0730DC00003089
:100C9000DD005C08F1007108FD00892EEF30610273
:100CA0000318532E542E592E0830F1007108FD0000
:100CB000892EF130610203185E2E5F2E732E0930EB
:100CC0007D02031C642E652E6A2E0930DE00003082
:100CD000DF006E2E0830DE000030DF005E08F1001D
:100CE0007108FD00892E0930F1007108FD00892E80
:100CF000892E892E892E892E892E892E892E892E3C
:100D0000892E892E892E892E892E892E892E892E2B
:100D1000892E08002000C7011E30F7007708210047
:100D2000E000E101E201E301E4012030F2000430DF
:100D3000F3000730F7007708F40023309B31C3231A
:100D400086312830F2000430F3001530F7007708C0
:100D5000F40038309B31C32386314030F200043038
:100D6000F3001C30F7007708F4008F309B31C32369
:100D70008631A030F2000430F3000730F700770826
:100D8000F4002A309B31C3238631A830F2000430AE
:100D9000F3000730F7007708F40031309B31C323AC
:100DA0008631B030F2000430F3000E30F7007708DF
:100DB000F40054309B31C32386312030F2000530DB
:100DC000F3000730F7007708F4001C309B31C32391
:100DD00086312730F2000530F3000930F70077083C
:100DE000F40086309B31C32386313030F200053069
:100DF000F3001C30F7007708F40062309B31C32306
:100E000086315030F2000530F3000730F7007708E4
:100E1000F4007E309B31C32386315730F200053019
:100E2000F300F4010314F40D85309B31C3238631A4
:100E30005830F2000530F3000730F7007708F4006F
:100E40004D309B31C3238631A030F2000530F300D2
:100E50000430F7007708F400D7309B31C323863184
:100E6000A430F2000530F3000430F7007708F400F6
:100E7000DF309B31C3238631A830F2000530F30008
:100E80000430F7007708F400D3309B31C323863158
:100E90002030F2000630F3000430F7007708F40049
:100EA000AB309B31C32386312430F2000630F3008F
:100EB0002430F7007708F400AF309B31C32386312C
:100EC0005030F2000630F3000230F7007708F400EB
:100ED000E5309B31C32386315430F2000630F300F5
:100EE0001230F7007708F400E7309B31C3238631D6
:100EF0005830F2000630F3000430F7007708F400B1
:100F0000DB309B31C32386315C30F2000630F300C6
:100F10000230F7007708F400E3309B31C3238631B9
:100F20004F30F2000030F300F4010314F40DFE30F2
:100F30009B31C3238631A830F7007708F1000430D5
:100F4000F8007808F200A03091313B218631F90099
:100F50007908FA00FA1FAD2FAE2FC22F2B002B08F5
:100F6000F7007708A3002A08F7007708A2002908ED
:100F7000F7007708A1002808F7007708A0002000F4
:100F80004716DE2F7A08803A7F3E031CC82FC92FF0
:100F9000DE2F2B002308F7007708AB002208F700AC
:100FA0007708AA002108F7007708A9002008F700B1
:100FB0007708A80020004716DE2FDE2F0800FD016D
:100FC000203084000030850030309B313C23873155
:100FD000A03084000030850039309B313C238731BC
:100FE000A03084000130850014309B313C238731D0
:100FF0008731FF278731EF0020009331242B013404
:1010000020004F08032808007308F40071088600C8
:1010100072088700740881077108860072088700CB
:101020003C300102031C1528162867287108860029
:10103000720887003C3081020130F4007108013EE3
:10104000F5000030723DF6007508860076088700CE
:10105000740881077108013EF4000030723DF5000C
:1010600074088600750887008108031D3828392810
:1010700067280130F4007108023EF5000030723D2F
:10108000F6007508860076088700740881077108E5
:10109000023EF4000030723DF500740886007508C9
:1010A00087008108031D5528562867280130F40061
:1010B0007108033EF5000030723DF60075088600A9
:1010C0007608870074088107672867286728080062
:1010D00020002D082C0403196E286F2822290130C6
:1010E000AC020030AD3B2229222921003A08031D21
:1010F0007A282C290130F30073082000BB07063042
:10110000AC000030AD002C292C292D082C04031D27
:101110008A288B282C297D080A3A031D90289128BB
:1011200096280130F3007308BB072C29FF30F30029
:101130007308BB002C292C292C297D08013A031D9A
:10114000A228A3282C290130F3007308BB072C30F8
:10115000AC000130AD002C292C297D08013A03197F
:10116000B228B328B828FF30F3007308BB002C293D
:1011700000302D02643003192C02031CC028C12842
:10118000CE2821003F08F30073082000BA00210098
:101190003F08F30073082000B9002C293A08210009
:1011A0003F020318D428D528DA283F08F300730833
:1011B0002000BA0021003F08200039020318E1286E
:1011C000E228E92821003F08F30073082000B90055
:1011D000E9282D082C04031DEE28EF282C290A30BD
:1011E0003A02031CF428F528FC281E303902031C9F
:1011F000FA28FB280129FC28FF30F3007308BB0004
:101200002C290130F3007308BB072C292C292C2929
:101210002C292C293A083907F300F401F40D013088
:10122000FF00740DF40CF30CFF0B112973089B31B4
:101230004C238831FF30F30073082000BB002C29B9
:101240002C292C293B0884000530040203182C2982
:1012500098310435143E820008002100BA08031DAD
:101260003229332937292000B001B101D3292100C7
:101270003908031D3C29D3293B08031D4029D329E4
:1012800020082000DE00210021082000DF002100CE
:1012900022082000E000210023082000E1000130A6
:1012A000DE35DF0DE00DE10D890B50296108E50009
:1012B0006008E4005F08E3005E08E20021003B08EC
:1012C0002000DE00DF01E001E1016108E9006008C3
:1012D000E8005F08E7005E08E6002100BB0120008F
:1012E0006508F4006408F3006308F2006208F10086
:1012F0009431CB24893171082000E2007208E300A8
:10130000E401E5016608DE006708DF006808E00028
:101310006908E1001030DE35DF0DE00DE10D890BCD
:101320008B296108F4006008F3005F08F2005E0892
:10133000F1009431CB24893171082000E600720855
:10134000E700E801E9016908D3006808D2006708EE
:10135000D1006608D0006508F4006408F300630853
:10136000F2006208F1000030F8000030F7000930A8
:10137000F6006230F5009C31912489317408200018
:10138000D7007308D6007208D5007108D4009331D5
:101390007823893120005108B101B1075008B0010C
:1013A000B007D329D329033020003102E8300319D4
:1013B00030020318DC29DD29E029A801A901FB2955
:1013C0000130A8070030A93D023029025830031926
:1013D0002802031CEC29ED29FB29EE29C808031D6E
:1013E000F229F329FB290830DE005E08C800FB293A
:1013F000FB29FB29FB290800FB0127307A0210306A
:1014000003197902031C052A062A2F2A1030F1003D
:101410002730F2007A08F401F4077908F301F307A2
:101420009231392289317108303E9B3185238931CF
:101430001030F1002730F2007A08F401F40779083F
:10144000F301F3079131772189317208FA01FA0724
:101450007108F901F907FB010314FB0D2F2AFB08A2
:10146000031D332A342A3E2A03307A02E830031956
:101470007902031C3C2A3D2A672A3E2AE830F10003
:101480000330F2007A08F401F4077908F301F30756
:101490009231392289317108303E9B31852389315F
:1014A000E830F1000330F2007A08F401F40779081B
:1014B000F301F3079131772189317208FA01FA07B4
:1014C0007108F901F907FB010314FB0D672AFB08FA
:1014D000031D6B2A6C2A762A00307A0264300319C5
:1014E0007902031C742A752A9F2A762A6430F10037
:1014F0000030F2007A08F401F4077908F301F307E9
:101500009231392289317108303E9B3185238931EE
:101510006430F1000030F2007A08F401F407790831
:10152000F301F3079131772189317208FA01FA0743
:101530007108F901F907FB010314FB0D9F2AFB0851
:10154000031DA32AA42AAE2A00307A020A30031906
:101550007902031CAC2AAD2AD42AAE2A0A30F10043
:101560000030F2007A08F401F4077908F301F30778
:101570009231392289317108303E9B31852389317E
:101580000A30F1000030F2007A08F401F40779081B
:10159000F301F3079131772189317208FA01FA07D3
:1015A0007108F901F907D42A7908303E9B31852367
:1015B0008931080001302000DE005E082100C407E8
:1015C00032304402031CE52AE62AF22A3230200097
:1015D000DE005E082100C400C2016430B0000030AB
:1015E000B100AC2B03304202031CF72AF82AAC2BC3
:1015F0001E304202031CFD2AFE2A052B1E3020004D
:10160000DE005E082100C200052B4208FE3E2000DD
:10161000DE005E08E40021004308FF3E2000DE00FB
:101620005E08E600E501043064020318182B192B4C
:101630003E2B6408DE005E08E50066081F390907D6
:10164000203E8600033087006503FF3A66071F3996
:101650000907203E840003308500003FDE00013F83
:10166000DF00DE09DF09DE0A0319DF0A403F5E07FB
:10167000E200413F5F3DE300792B3E2B0430E40262
:101680000430DE005E08E50766081F390907203EC2
:101690008600033087006503FF3A66071F39090794
:1016A000203E840003308500003FDE00013FDF0064
:1016B000DE09DF09DE0A0319DF0A403F5E07E200A8
:1016C000413F5F3DE300043064020318682B692B3F
:1016D0006B2B792B792B06306302403003196202A1
:1016E000031C732B742B3E2B792B792B3E2B3E2B1B
:1016F000792B6208D0006308D100D201D3016508BC
:10170000DE00DF01E001E1016108F4006008F300A0
:101710005F08F2005E08F1000030F8000930F700C1
:101720002730F600C030F5009C3191248A317408CE
:101730002000D7007308D6007208D5007108D400C5
:10174000933178238A3120005108B301B307500840
:10175000B201B207AC2BAC2B21003A082000DE000E
:10176000DF012100310820005F02031DBB2B210097
:10177000300820005E020318BE2BBF2BCE2B013099
:1017800033022C3003193202031CC72BC82BD22B77
:1017900021004208031DCD2BD22BCE2B2100AA0104
:1017A000AB01F02B01302100AA070030AB3D013026
:1017B0002B022C3003192A02031CDF2BE02BF02B09
:1017C000E12B2000C808031DE62BE72BF02B073088
:1017D000C800DE005E08C800F02BF02BF02BF02BC9
:1017E00008008431F8248B31883168208B31200047
:1017F00027082604250424040319FF2B002C172D89
:101800000130F5000030F6000030F7000030F8003D
:101810007508A4027608A53B7708A63B7808A73B85
:10182000172D172DB401B501CB010314CB0D0030DA
:10183000A7000030A6000130A500F430A400222D3E
:10184000B401B501C808031D262C272C302C27080D
:10185000260425042404031D2E2C2F2C412C302C6F
:101860004808F5007508C9000330F5007508CB007D
:101870000030A7000030A6000030A5003230A400E0
:10188000222D21004008FF3A031D472C482C222D11
:101890004108FF3A031D4D2C4E2C222D2000EE1B3B
:1018A000522C532C222D0230F5007508CB0000304D
:1018B000A7000030A6007530A5003030A400222D0E
:1018C000222D222DC808031D662C672C702C27089A
:1018D000260425042404031D6E2C6F2CF32C702C7D
:1018E0002708260425042404031D772C782C822C39
:1018F000C808031D7C2C7D2C822C0430F500750853
:10190000C800822C64302100B0000030B1002000FB
:101910004808F5007508C9000330F5007508CB00CC
:101920000030A7000030A6000030A5000130A40060
:10193000222DF32CCA01B401B501222DCA01B40134
:10194000B501222D0230F5007508CA00C430B4007C
:101950000930B500222D0230F5007508CA00883024
:10196000B4001330B500222D0330F5007508CA000D
:101970007030B4001730B500222D0430F500750822
:10198000CA004030B4001F30B500222D0530F500EC
:101990007508CA001C30B4002530B500222D063071
:1019A000F5007508CA000430B4002930B500222DB6
:1019B0000730F5007508CA00E030B4002E30B500DD
:1019C000222D0730F5007508CA00BC30B400343051
:1019D000B500222DCA010314CA0DBD30B400343045
:1019E000B500222D222D7D08FF3E031C9A2C840079
:1019F0000A30040203189A2C98310435003E820004
:101A0000222D222D64302100B0000030B1002000D2
:101A10002708260425042404031D0F2D102D222D34
:101A20000430F5007508CB00222D222D222D4B0805
:101A3000003A0319122C013A0319202C033A031916
:101A4000622C022D080020003F08031D282D2B2D9D
:101A50000130BF022B2D350834040319302D312DF0
:101A6000372D2100BA08031D362D372D6A2E200090
:101A7000BE018B132100B001B1018B17742E742E9F
:101A80006A2E8B132100B001B1018B17472D2D0851
:101A90002C0403194C2D4D2D742E20003508AF0158
:101AA000AF073408AE01AE075030A2000030A300EB
:101AB000A001A101D0302100C9000730CA00323096
:101AC000CB000030CC00F430CD000130CE00CF018F
:101AD000D0013C30D3000030D400D101D2015408F1
:101AE000D801D8075308D701D7075408D601D6071D
:101AF0005308D501D50701302000E7006708BE076D
:101B0000C830E7006708BF00742E742E2100390822
:101B1000031D8B2D742E200035082F06031D922DDA
:101B200034082E060319952D962DB52D35082F0254
:101B3000031D9C2D34082E0203189F2DA02DA52DCA
:101B4000C830E7006708BF00A52D3508AF01AF0713
:101B50003408AE01AE07210058082000A301A307F6
:101B6000210057082000A201A20732303502C830F8
:101B700003193402031CBD2DBE2DD02D19303F0298
:101B8000031CC32DC42DC92D1930E7006708BF0001
:101B9000C92D341CCC2DCD2DD02DBF01D02DD02D55
:101BA00021002D08F201F2072C08F101F10736306F
:101BB000F3000030F4009B31E3238D3171082000E5
:101BC000E7007208E8000630E836E70C890BE42DE0
:101BD0006708EB006808EC000030A0070030A13D6A
:101BE0001030A23D0030A33D2308803AE7006C0886
:101BF000803A6702031DFE2D6B082202031C012E92
:101C0000022E092E20006C08A301A3076B08A20175
:101C1000A20720003209E7003309E800E70A0319A8
:101C2000E80A34086707E9003508683DEA00BF089C
:101C3000031D1B2E1C2E212EEA1F1F2E202E272EA9
:101C4000212EF4302100C9000130CA002D2ED030E1
:101C50002100C9000730CA002D2E20006A08D101DA
:101C6000D1076908D001D007C93083313B238D31BA
:101C70002000341C3C2E3D2E4C2E2830F10000302C
:101C8000F2006C08F401F4076B08F301F307C930A4
:101C900092317F228D315D2E2830F1000030F2002C
:101CA00020002308F401F4072208F301F307C930E8
:101CB00092317F228D315D2E5D2E8B1321005808CD
:101CC000B101B1075708B001B0078B17742E742EFD
:101CD000742E742E20003E08003A0319412D013A5B
:101CE0000319862D742E742E0800F1010314F10DD2
:101CF0004C30913102218E3120004A0843060319ED
:101D0000822E832E892E4A08F7007708C300C1016E
:101D1000FF2F0230410203188E2E8F2E942E013099
:101D2000F7007708C107FF2F4A0842060319992ECA
:101D30009A2E9F2F0330F7007708F1004C309C312A
:101D40005A248E3120004208031DA72EEC2E0830A5
:101D500042020318AC2EAD2EEC2E2830F1000430D8
:101D6000F2004C30F3000030F4000330F700770845
:101D7000F5009B31A3238E311E3020004C02031846
:101D8000C22EC32ED52E4C08F7007708F10042086A
:101D9000F8000130F835FF3E031DCA2E7835FC3EB1
:101DA000403E9231D0228E31E92E20004C08E23E96
:101DB000F7007708F1004208F8000130F835FF3EDF
:101DC000031DDE2E7835FC3E403E9231D0228E310E
:101DD000E92E20004714EC2E4A08F7007708C200CD
:101DE0000330F7007708CC00CD01CE014208031D77
:101DF000FA2EFF2F083042020318FF2E002FFF2F6C
:101E000028002508F7007708A6002408F7007708BF
:101E1000A5002308F7007708A4002208F700770838
:101E2000A3002108F7007708A2002008F700770830
:101E3000A10020004208F03EF70077082800A0002B
:101E40003A30F1000430F2003730F3000430F4008F
:101E50000330F7007708F5009B31A3238E3137302C
:101E6000F1000430F2003430F3000430F4000330A9
:101E7000F7007708F5009B31A3238E313430F10051
:101E80000430F2003130F3000430F4000330F70086
:101E90007708F5009B31A3238E313130F1000430F7
:101EA000F2002E30F3000430F4000330F70077081E
:101EB000F5009B31A3238E312E30F1000430F20067
:101EC0002B30F3000430F4000330F7007708F500FE
:101ED0009B31A3238E312B30F1000430F2002830E7
:101EE000F3000430F4000330F7007708F5009B316D
:101EF000A3238E312830F1000430F2004C30F3007F
:101F00000030F4000330F7007708F5009B31A3237D
:101F10008E310330F7007708F10020004208F80006
:101F20000130F835FF3E031D912F7835FC3E403ED1
:101F30009231D0228E3120004714FF2FFF2F42080C
:101F4000031DA32FFF2F083042020318A82FA92F2B
:101F5000FF2F4C08031DAD2FB42F4C081E3A031D54
:101F6000B22FB32FFF2FB42F2830F1000430F2002E
:101F70004C30F3000030F4000330F7007708F50030
:101F80009B31A3238E312000CE08031DC82FC92FFB
:101F9000E62FCD08031DCD2FCE2FE62F4C081E3A7D
:101FA000031DD32FD42FE62F1B30F7007708F10045
:101FB0004208F8000130F835FF3E031DDB2F78356D
:101FC000FC3E403E9231D0228E31F92F1E30F70078
:101FD0007708F10020004208F8000130F835FF3E94
:101FE000031DEE2F7835FC3E403E9231D0228E31DB
:101FF000F92F20004714FF2FFF2FFF2FFF2F08007E
:1020000000347F347F347F347F347F347F347F34B7
:102010007F347F347F347F347F347F347F347F3428
:102020007F347F347F347F347F347F347F347F3418
:102030007F347F347F347F347F347F347F347F3408
:102040007F347F347F347F347F347F347F347F34F8
:102050007F347F347F347F347F347F347F347F34E8
:102060007F347F347F347F347F347F347F347F34D8
:102070007F347F347F347F347F347F347F347F34C8
:102080007F347E347D347C347B347A347A347934D2
:1020900078347734773476347534753474347334F3
:1020A000733472347134713470346F346F346E340D
:1020B0006D346D346C346B346B346A346A34693427
:1020C000683468346734673466346634653464343D
:1020D0006434633463346234623461346134603450
:1020E00060345F345E345E345D345D345C345C3463
:1020F0005B345B345A345A34593459345834583474
:102100005734573456345634553455345434543483
:102110005334533452345234513451345034503493
:102120004F344F344E344E344D344D344C344C34A3
:102130004B344B344A344A344934493448344834B3
:1021400047344734463446344534453444344434C3
:1021500043344334423442344134413440344034D3
:102160003F343F343E343E343D343D343C343C34E3
:102170003B343B343A343A343934383438343734F5
:102180003734363436343534353434343334333408
:10219000323432343134303430342F342E342E341F
:1021A0002D342D342C342B342A342A342934283439
:1021B0002834273426342534253424342334223457
:1021C0002134213420341F341E341D341C341B347C
:1021D0001A341934183417341534143413341234AF
:1021E00010340F340D340C340A34083406340434FB
:1021F000023400340034003400340034003400343D
:1022000000340800F3007108F200730886008701AB
:10221000720881077308860087013C300102031CA5
:10222000122913293A297308860087013C3081025C
:102230000130F2007308013E8600870172088107B1
:102240007308013E860087013C300102031C2929E6
:102250002A293A297308013E860087013C30810211
:102260000130F2007308023E860087017208810780
:102270003A293A290800F5006E290130F202720865
:102280007507F30073088600053087007208710730
:10229000F40074088400053085000008010203186A
:1022A000522953295629FF30762976297208710759
:1022B000F300730886000530870072087507F40084
:1022C000740884000530850000080102031869299C
:1022D0006A296E290130762976296E29F208031DB4
:1022E000722973293D297429003076290800720863
:1022F000710403197C297D29AD29F6010314F60D1B
:102300008B290130F135F20D890B82290130F5005E
:102310007508F6078B29F21F8E298F2981299129AB
:10232000912972087402031D972971087302031C16
:102330009A299B29A0297108F3027208F43BA0296D
:102340000130F236F10C890BA1290130F602031D90
:10235000AA29AB299129AD29AD297408F201F20708
:102360007308F101F107B429080001302000D00002
:102370005008BD0764303D02031CBF29C029F42961
:10238000BD013308FA01FA073208F901F90789316A
:10239000FC2191312C309B3185239131200048085C
:1023A000D000D1015008F9005108FA008931FC2110
:1023B00091312C309B318523913121003108FA0174
:1023C000FA073008F901F9078931FC2191312C30E5
:1023D0009B31852391310D309B31852391310A301A
:1023E0009B3185239131F42908000130F7007708EB
:1023F0002000C60764304602031CFF29002A362A43
:10240000C6010130F70077082100E0073C30600288
:10241000031C0B2A0C2A332AE001E130F1000030C2
:10242000F200F3010314F30D883104209131A03040
:10243000F1000530F200F3010314F30D883104209C
:102440009131A830F1000530F200A030F3000530E2
:10245000F4000430F7007708F5009B31A323913195
:1024600020004716332A0130382A382A0030382A0B
:102470000800F601F701720871040319402A412A85
:10248000772AF8010314F80D4F2A0130F135F20DC7
:10249000890B462A0130F5007508F8074F2AF21F0C
:1024A000522A532A452A552A552A0130F635F70D66
:1024B000890B562A72087402031D602A7108730280
:1024C000031C632A642A6A2A7108F3027208F43B27
:1024D00076146A2A0130F236F10C890B6B2A01302E
:1024E000F802031D742A752A552A772A772A770855
:1024F000F201F2077608F101F1077E2A0800F800E0
:102500007208803AF5007408803A7502031D8A2A21
:102510007308710203188D2A8E2ACF2A78080E3E7E
:1025200086008701403FF500413FF6007408803A7D
:10253000F7007608803A7702031DA02A7508730217
:102540000318A32AA42AAD2A78080E3E8600870124
:102550007308C03F7408C13FCF2A78080E3E86003A
:102560008701403FF500413FF6007608803AF700CA
:102570007208803A7702031DBF2A7108750203189A
:10258000C22AC32ACF2A78080E3E86008701710826
:10259000C03F7208C13FCF2ACF2ACF2ACF2A0800D6
:1025A000F3007108F2007308860004308700720897
:1025B000810773088600043087003C300102031C49
:1025C000E22AE32A232B73088600043087003C307C
:1025D00081020130F2007308013E8600043087005A
:1025E000720881077308013E8600043087003C3082
:1025F0000102031CFC2AFD2A232B7308013E8600DE
:10260000043087003C3081020130F2007308023E42
:10261000860004308700720881077308023E860036
:10262000043087008108031D162B172B232B013044
:10263000F2007308033E86000430870072088107A9
:10264000232B232B232B08008B139531F525933156
:102650009131012193319B316D2393319B3136238D
:10266000933186318A269331352B8B176400643081
:1026700021004802031C3D2B3E2B352B6430C80241
:102680009C312C24933197314E2793319131B521D0
:1026900093319C31072493318B31F1239331813174
:1026A0004121933120004B08043A031D582B592B2C
:1026B0005E2B4708031D5D2B632B5E2B0530ED0061
:1026C0006D08EF00352B0130EF02031D682B692BDD
:1026D000352BEF010314EF0D64302100B000003002
:1026E000B100352B352B352B352B352B81313E2940
:1026F00000302000DC000030DB000030DA00003069
:10270000D90053085204510450040319882B892B13
:10271000D12BDD010314DD0D992B0130D035D10D06
:10272000D20DD30D890B8E2B0130D8005808DD0750
:10273000992BD31F9C2B9D2B8D2B9F2B9F2B0130D7
:10274000D935DA0DDB0DDC0D890BA02B53085702B0
:10275000031DB42B52085602031DB42B5108550219
:10276000031DB42B50085402031CB72BB82BC22BEB
:102770005008D4025108D53B5208D63B5308D73BEA
:102780005914C22B0130D336D20CD10CD00C890B8A
:10279000C32B0130DD02031DCE2BCF2B9F2BD12B62
:1027A000D12B5C08D3005B08D2005A08D10059082D
:1027B000D000DA2B08002000CA08031DE02BE12B13
:1027C000E72BC4016E08F1007108C500432C6E08A8
:1027D000F100F201F11BF2037208803A803C031D04
:1027E000F42B71082A0057020318F72BF82B002C42
:1027F00020006E08F10071082A00D7002000C715DC
:1028000020004508803AF1006E08803AF102031872
:102810000A2C0B2C102C6E08F1007108C500102C2E
:102820002100E008031D152C162C432C2000C408A1
:10283000031D1B2C1C2C392CC4010314C40D2A00AD
:102840005D08F1007108DE005C08F1007108DD0030
:102850005B08F1007108DC005A08F1007108DB0028
:102860005908F1007108DA005808F1007108D90020
:10287000392C20004508F10071082A00D8002000FA
:10288000C715432C432C08002100BA08031D492C0E
:102890004A2C512C2000AA01AB01B801B701B601A6
:1028A000CA2C21003908031D562CCA2C3D08F10002
:1028B000F20171082000AA077208AB3D0230210026
:1028C0003D02031C642C652C6C2CFE303D02031C65
:1028D0006A2C6B2C712C6C2C0130F10071082000DB
:1028E000B8070130F10071082000B6070430360245
:1028F000031C7B2C7C2CCA2CB808031D802C812C3B
:10290000AB2CB7012B08F2002A08F1000230F23696
:10291000F10C890B872C7108013E8400903003185C
:10292000013E85000008F3007308EE006E08803A4F
:10293000183E031C9C2C9D2CC32C9E2CC808031DE8
:10294000A22CA32CC32C0230F1007108C800C32CA8
:10295000C32CC32CC32C0130F1007108B7070A3017
:102960003702031CB42CB52CC32CB62CC808031D8D
:10297000BA2CBB2CC32C0230F1007108C800C32C48
:10298000C32CC32CC32CAA01AB01B801B601CA2CBD
:10299000CA2CCA2C080000302000DC000030DB000C
:1029A0000030DA000030D9000030D4000030D3000D
:1029B0000030D2000030D1000030D8000030D70005
:1029C0000030D6000030D5001030F5007508D0007A
:1029D000E92C0130D935DA0DDB0DDC0D890BEA2C41
:1029E0000130D535D60DD70DD80D890BF12CF41F3C
:1029F000FA2CFB2CFD2C5514FD2C0130F135F20D79
:102A0000F30DF40D890BFE2C0130D535D60DD70D05
:102A1000D80D890B052DF41F0E2D0F2D112D5514DA
:102A2000112D0130F135F20DF30DF40D890B122D3E
:102A30005908F5005A08F6005B08F7005C08F80032
:102A40000130F535F60DF70DF80D890B212D01300C
:102A50007504D10000307604D20000307704D30032
:102A600000307804D40054085802031D412D530847
:102A70005702031D412D52085602031D412D5108D6
:102A80005502031C442D452D4F2D5108D5025208E7
:102A9000D63B5308D73B5408D83B59144F2D01302F
:102AA000D002031D542D552DE92C562D5A08F20144
:102AB000F2075908F101F1075D2D08000130F1001E
:102AC00071082100B80705303802031C682D692DF4
:102AD000722D0530F1007108B800B601BA01AC01E1
:102AE000AD01D02D05303602031C772D782DD02D69
:102AF0000530F1007108B6003708FF3EF10071089B
:102B0000F500750807390907603E86000330870025
:102B10007508FC3E07390907603E840003308500D4
:102B2000003FF100013FF200F109F209F10A031937
:102B3000F20A403F7107F300413F723DF400033059
:102B4000F436F30C890BA02D7308F6007408F70017
:102B5000013077022D3003197602031CB02DB12D00
:102B6000D02D01307702F430031976020318B92D05
:102B7000BA2DD02D7708AD01AD077608AC01AC07B2
:102B80007708F2007608F1000330F236F10C890B79
:102B9000C52D7108F3007308BA00D02DD02DD02DAB
:102BA0003A08031DD42DD72DA801A901F42D013019
:102BB000A8070030A93D013029022C300319280252
:102BC000031CE32DE42DF42DE52D2000C808031D82
:102BD000EA2DEB2DF42D0A30C800F1007108C80071
:102BE000F42DF42DF42DF42D08008B13F03021007A
:102BF000990098011130970022009D019E01043038
:102C0000F10071082100D900043022008C001B3033
:102C100021008C00113023008C0024008C0127003F
:102C20008C01E03022008D00303021008D00230027
:102C30008D0124008D01203027008D0022008E019F
:102C4000EF3021008E00CF3023008E0024008E0153
:102C500027008E012200970199019801033092000C
:102C60008230910001309400A2309300A030210006
:102C70009E0025309D00DA010314DA0DFF30F100CB
:102C80007108DC00FF30F1007108DD00FF30F10059
:102C90007108DB00BE01BF01BD010030A70000309C
:102CA000A6000030A5000030A400BC010030A30045
:102CB0000030A2000030A1000030A000BB010A30AB
:102CC00023009F001F309B0003309C009D010430B7
:102CD0009E009D171D169E16B201B001B301B101F1
:102CE000AE01AC01AF01AD01200099013030980078
:102CF000313028009D0005309E0020009101920196
:102D000093019401210091019201083093009401F4
:102D10000B17C801AE01AF01FF30F1007108DE00F2
:102D2000FF30F1007108DF00C001C101C501C7011A
:102D3000C601B401B501B201B30108002000490881
:102D4000031DA32EA92E0A304902031CA82EA92E6A
:102D5000AB2EC0014D2F400849060319B02EB12EED
:102D60004D2F4908F7007708C0002A002508F70012
:102D70007708A6002408F7007708A5002308F700C5
:102D80007708A4002208F7007708A3002108F700BD
:102D90007708A2002008F7007708A1002000490862
:102DA000E03EF70077082A00A0000130F70020007D
:102DB0004908FF3E273E86000530870077088107D7
:102DC0004830F1000530F2004430F3000530F400E3
:102DD0000430F7007708F5009B31A3239631443087
:102DE000F1000530F2004030F3000530F40004300B
:102DF000F7007708F5009B31A32396314030F100AE
:102E00000530F2003C30F3000530F4000430F700E8
:102E10007708F5009B31A32396313C30F100053053
:102E2000F2003830F3000530F4000430F700770882
:102E3000F5009B31A32396313830F1000530F200C4
:102E40003430F3000530F4000430F7007708F50063
:102E50009B31A32396313430F1000530F20030303D
:102E6000F3000530F4000430F7007708F5009B31DB
:102E7000A32396313030F1000530F200E130F30049
:102E80000030F4000430F7007708F5009B31A323ED
:102E90009631200047154D2F4D2F0800013020009E
:102EA000D0005008BC0764303C02031C582F592F37
:102EB000FF2FBC017D08D000D1015008F900510856
:102EC000FA008931FC21973150309B3185239731AD
:102ED00023002908FA01FA072808F901F9078931BE
:102EE000FC2197312C309B31852397312300280812
:102EF0002000D000230029082000D10023002A0848
:102F00002000D20023002B082000D3001030D3363D
:102F1000D20CD10CD00C890B872F5108FA01FA077B
:102F20005008F901F9078931FC21973149309B316B
:102F30008523973123002508FA01FA072408F901AF
:102F4000F9078931FC2197312C309B31852397314A
:102F5000230024082000D000230025082000D100F1
:102F6000230026082000D200230027082000D300D9
:102F70001030D336D20CD10CD00C890BB92F51089C
:102F8000FA01FA075008F901F9078931FC21973154
:102F900044309B318523973123002108FA01FA0739
:102FA0002008F901F9078931FC2197312C309B3138
:102FB00085239731230020082000D000230021081A
:102FC0002000D100230022082000D2002300230883
:102FD0002000D3001030D336D20CD10CD00C890B8A
:102FE000EB2F5108FA01FA075008F901F907893166
:102FF000FC2197312C309B3185239731FF2F08001E
:103000008C319E2C8C31A22C8C31AB2C8C31B42C7D
:103010008C31BD2C8C31C62C8C31CF2C8C31D82CE2
:103020008C31E12C8C31EA2C883175288831852847
:0C30300088319D288831AD2889310A299B
:10366C002000CB01CA01C901FD01080064008001E2
:10367C000131890B3D2B0034F100710823009100BE
:10368C0015139513151413084B2B0800F20020008A
:10369C004F0872060319532B542B5A2B7208F10046
:1036AC007108CF00C7175A2B0800F20072082300CC
:1036BC009100710893001513951315158B13553044
:1036CC009600AA30960095148B171511080021004E
:1036DC00B701B601B801AC01AD01BA01B901C30122
:1036EC00C201C401B001B1012000B401B501B201A5
:1036FC00B301B001B101C801EE01EE030800F20004
:10370C00203023003002031C8C2B8D2B8F2BA22BF3
:10371C00A22B7208F10033081F39A03E860003303B
:10372C008700710881000130F1007108B307013086
:10373C00F1007108B007A22B0800B92B73088600A2
:10374C00740887000108F60071088600720887006B
:10375C00760881000130F1070030F23D0130F307AB
:10376C000030F43DB92B0130F5027508FF3A031D0A
:10377C00C02BC12BA42BC22B0800F600D92B76082A
:10378C009B3142239B31F500720886007308870039
:10379C00750881000130F5007508F6070130F20755
:1037AC000030F33DD92B0130F4027408FF3A031DAD
:1037BC00E02BE12BC52BE22B0800F501F601E62BE3
:1037CC00711CE92BEA2BEE2B7308F5077408F63DF8
:1037DC000130F335F40D890BEF2B0130F236F10C7F
:1037EC00890BF42B72087104031DFD2BFE2BE62BA9
:1037FC00FF2B7608F201F2077508F101F107062C90
:10380C000800943144249C3189312D219C318A311A
:10381C00DA229C3195315E259C31803102209C311D
:10382C002000C808031D1B2C1C2C202C8D3123259B
:10383C009C31292C8B1364302100B0000030B10076
:10384C008B17292C292C2100B901080022009D017D
:10385C009E011B3021008C00113023008C002400B1
:10386C008C0127008C01303021008D0023008D014C
:10387C0024008D01203027008D00EF3021008E00B8
:10388C00CF3023008E0024008E0127008E012200F1
:10389C009701980199018230910003309200A23077
:1038AC009300013094000800F30073088600870130
:1038BC00710881027308860087013C300102031CE9
:1038CC00682C692C902C3C30F20073088600870120
:1038DC00720881077308013E86008701013081025E
:1038EC007308013E860087013C300102031C7F2CCB
:1038FC00802C902C3C30F2007308013E860087012E
:10390C00720881077308023E86008701013081022C
:10391C00902C902C08000030FC000030FB00003094
:10392C00FA000030F9009A2C711C9D2C9E2CA72CAF
:10393C007508F9077608FA3D7708FB3D7808FC3DD9
:10394C00A72C0130F535F60DF70DF80D890BA82CC9
:10395C000130F436F30CF20CF10C890BAF2C74081B
:10396C00730472047104031DBC2CBD2C9A2CBE2C48
:10397C007C08F4007B08F3007A08F2007908F10067
:10398C00C72C0800F700F02C0130F50273088600F4
:10399C007408870077089B3142239C310106031D74
:1039AC00D82CD92CE22C0130F6007608F707013020
:1039BC00F3070030F43DF02C730886007408870080
:1039CC000108F6007608F10077089B315B239C31E7
:1039DC00F62CF02CF508031DF42CF52CCA2CF62C27
:1039EC007508031DFA2CFD2C0030FF2CFF2C013028
:1039FC00FF2C080000340234043486340034823442
:103A0C008434DE3460340A340C348E3408348A3412
:103A1C008C348E34003402340434863400348234D2
:103A2C008434DE3460340A340C348E3408348A34F2
:103A3C008C348E34003402340434863400348234B2
:103A4C008434DE3460340A340C348E3408348A34D2
:103A5C008C348E3400340234043486340034823492
:103A6C008434DE3460340A340C348E3408348A34B2
:103A7C008C348E3400340234043486340034823472
:103A8C008434DE3460340A340C348E3408348A3492
:103A9C008C348E3400340234043486340034823452
:103AAC008434DE3460340A340C348E3408348A3472
:103ABC008C348E3400340234043486340034823432
:103ACC008434DE3460340A340C348E3408348A3452
:103ADC008C348E3400340234043486340034823412
:103AEC008434DE3460340A340C348E3408348A3432
:103AFC008C348E34003402340434863400348234F2
:103B0C008434DE3460340A340C348E3408348A3411
:103B1C008C348E34003402340434863400348234D1
:103B2C008434DE3460340A340C348E3408348A34F1
:103B3C008C348E34003402340434863400348234B1
:103B4C008434DE3460340A340C348E3408348A34D1
:103B5C008C348E3400340234043486340034823491
:103B6C008434DE3460340A340C348E3408348A34B1
:103B7C008C348E3400340234043486340034823471
:103B8C008434DE3460340A340C348E3408348A3491
:103B9C008C348E3400340234043486340034823451
:103BAC008434DE3460340A340C348E3408348A3471
:103BBC008C348E3400340234043486340034823431
:103BCC008434DE3460340A340C348E3408348A3451
:103BDC008C348E3400340234043486340034823411
:103BEC008434DE3460340A340C348E3408348A3431
:103BFC008C348E34003400340134003404340034FA
:103C0C0009340034103400341934003424340034B2
:103C1C0031340034403400345134003464340034D2
:103C2C007934003490340034A9340034C434003472
:103C3C00E13400340034013421340134443401348F
:103C4C006934013490340134B9340134E43401342E
:103C5C00113402344034023471340234A43402344A
:103C6C00D9340234103403344934033484340334E7
:103C7C00C134033400340434413404348434043403
:103C8C00C93404341034053459340534A43405349F
:103C9C00F13405344034063491340634E4340634BB
:103CAC003934073490340734E93407344434083455
:103CBC00A13408340034093461340934C43409346F
:103CCC0029340A3490340A34F9340A3464340B3409
:103CDC00D1340B3440340C34B1340C3424340D3422
:103CEC0099340D3410340E3489340E3404340F34BA
:103CFC0081340F34003410348134103404341134D2
:103D0C008934113410341234993412342434133469
:103D1C00B134133440341434D13414346434153481
:103D2C00F93415349034163429341734C434173418
:103D3C006134183400341934A134193444341A342D
:103D4C00E9341A3490341B3439341C34E4341C34C4
:103D5C0091341D3440341E34F1341E34A4341F34D9
:103D6C005934203410342134C9342134843422346D
:103D7C004134233400342434C13424348434253481
:103D8C004934263410342734D9342734A434283415
:103D9C007134293440342A3411342B34E4342B3428
:103DAC00B9342C3490342D3469342E3444342F34BB
:103DBC002134303400343134E1343134C4343234CD
:103DCC00A93433349034343479343534643436345F
:103DDC0051343734403438343134393424343A346F
:103DEC0019343B3410343C3409343D3404343E34FF
:103DFC0001343F340034403401344134043442340F
:103E0C00093443341034443419344534243446349E
:103E1C0031344734403448345134493464344A34AE
:103E2C0079344B3490344C34A9344D34C4344E343E
:103E3C00E1344F340034513421345234443453344B
:103E4C006934543490345534B9345634E4345734DA
:103E5C001134593440345A3471345B34A4345C34E6
:103E6C00D9345D3410345F34493460348434613473
:103E7C00C13462340034643441346534843466347F
:103E8C00C93467341034693459346A34A4346B340B
:103E9C00F1346C3440346E3491346F34E434703417
:103EAC003934723490347334E934743444347634A1
:103EBC00A13477340034793461347A34C4347B34AB
:103ECC0029347D3490347E34F9347F346434813435
:103EDC00D134823440348434B1348534243487343E
:103EEC009934883410348A3489348B3404348D34C6
:103EFC0081348E34003490348134913404349334CE
:103F0C008934943410349634993497342434993455
:103F1C00B1349A3440349C34D1349D3464349F345D
:103F2C00F934A0349034A2342934A434C434A534E4
:103F3C006134A7340034A934A134AA344434AC34E9
:103F4C00E934AD349034AF343934B134E434B23470
:103F5C009134B4344034B634F134B734A434B93475
:103F6C005934BB341034BD34C934BE348434C034F9
:103F7C004134C2340034C434C134C5348434C734FD
:103F8C004934C9341034CB34D934CC34A434CE3481
:103F9C007134D0344034D2341134D434E434D53484
:103FAC00B934D7349034D9346934DB344434DD3407
:103FBC002134DF340034E134E134E234C434E43409
:103FCC00A934E6349034E8347934EA346434EC348B
:103FDC005134EE344034F0343134F2342434F4348B
:103FEC001934F6341034F8340934FA340434FC340B
:043FFC000134FE345A
:020000040001F9
:04000E009C0FFC3F08
:10E000004200410052000000DC000000000001005E
:10E010004900050096002D000000000001004900A5
:10E02000050096002D0000002E0002002E000500C5
:10E0300000000000000000000000000000000000E0
:10E0400000000000000000000000000000000000D0
:10E0500000000000000000000000000000000000C0
:10E0600000000000000000000000000000000000B0
:10E0700000000000000000000000000000000000A0
:10E080000000000000000000000000000000000090
:10E090000000000000000000000000000000000080
:10E0A0000000000000000000000000000000000070
:10E0B0000000000000000000000000000000000060
:10E0C0000000000000000000000000000000000050
:10E0D0000000000000000000000000000000000040
:10E0E0000000000000000000000000000000000030
:10E0F0000000000000000000000000000000000020
:10E10000000000000000000000000000000000000F
:10E1100000000000000000000000000000000000FF
:10E1200000000000000000000000000000000000EF
:10E1300000000000000000000000000000000000DF
:10E1400000000000000000000000000000000000CF
:10E1500000000000000000000000000000000000BF
:10E1600000000000000000000000000000000000AF
:10E17000000000000000000000000000000000009F
:10E18000000000000000000000000000000000008F
:10E19000000000000000000000000000000000007F
:10E1A000000000000000000000000000000000006F
:10E1B000000000000000000000000000000000005F
:10E1C000000000000000000000000000000000004F
:10E1D000000000000000000000000000000000003F
:10E1E000000000000000000000000000000000002F
:10E1F000000000000000000000000000140000000B
:00000001FF
