:1000000081313E2908000800803120007F08F0007F
:10001000210058189D145715570822000C06243942
:100020008C06200093119D3085002100430820009C
:100030008E1A01388400003F2100C30045082200C9
:10004000951801388400003F2100C50044082200B3
:10005000151801388400003F2100C400C31E3D284C
:1000600041353E39203E8400033085002C081A00BB
:100070002D081A00C10AC00AC201D712451B4C281C
:10008000B11FA328B00F4528B10AB20F4828B30A00
:10009000B31BA328D716A328B101380803197B285E
:1000A000FD3EDC000A3EDD0028302E0200302F3BF2
:1000B000031C7B282A082E02B2002B082F3BB3001A
:1000C000FF300318B2000318B3002A08243C840050
:1000D0002B08313B850005303202B0000030333B45
:1000E000B100040830020508313B03187B280408DE
:1000F000B0000508B100451EA328371435350E3968
:10010000603E8400033085002C081A002D081A0078
:10011000B50AB40AB6012408A0002508A1002608E3
:10012000A2002708A3003A08B900A401A501A6016E
:10013000A701BA0138080319A328023EDA00013EDC
:10014000DB00023ED9002C08AC0FA728AD0A03390A
:100150000B00AD28E1280E2926292300A61FA60A98
:1001600024080319C2280C302602031CC228A60149
:1001700025081F39A03E840003308500003F9A0007
:10018000A50AA4032100C60A581CD7289D18C62812
:100190001B0984009E30850084350318850A1200EF
:1001A000A4071200A53D0001A63DA73DBA0AD8014B
:1001B000DA1FDA0B090015309D0020309E0058141C
:1001C00009002300A21FA20A2000911EFA28230082
:1001D000A2011908850020302002031CFA282308F8
:1001E0001F39C03E84000330050685060506803FA2
:1001F000A30AA00A2100581C04299D18FD281C08E8
:10020000803C031C003CBC00D801DB1FDB0B090059
:1002100019309D0020309E0058140900DC1FDC0BB3
:10022000162944084506803A090DBE0D581C1C29A4
:100230009D1818291C08BD00D801D91FD90B090029
:100240000D309D0020309E0058140900DD1FDD0B8D
:100250002E2944084506803A090DBF0D581C342943
:100260009D1830291C08BB0025309D00A0309E0041
:100270005814090070082000FF00090088019C3113
:10028000C62C9231C1228131003A031948294929EB
:1002900053298431CC248131803103208131943140
:1002A000B4248131532988313E2081312000481CFB
:1002B0005A295B2997292030F3000430F4000730D5
:1002C000F9007908F5002330923114228131003A87
:1002D00003196B296C293A2B2830F3000430F40001
:1002E0001530F9007908F500383092311422813147
:1002F000003A03197C297D293A2B4030F300043061
:10030000F4001C30F9007908F5008F309231142286
:100310008131003A03198D298E293A2BFE30F900DC
:1003200079082000C8053A2B3A2B3A2B3A2BC81CE7
:100330009A299B29D729A030F3000430F400073014
:10034000F9007908F5002A30923114228131003AFF
:100350000319AB29AC293A2BA830F3000430F40080
:100360000730F9007908F5003130923114228131DB
:10037000003A0319BC29BD293A2BB030F3000430F0
:10038000F4000E30F9007908F5005430923114224F
:100390008131003A0319CD29CE293A2BFD30F900DD
:1003A00079082000C8053A2B3A2B3A2B3A2B481DE6
:1003B000DA29DB29172A2030F3000530F400073052
:1003C000F9007908F5001C30923114228131003A8D
:1003D0000319EB29EC293A2B2730F3000530F40000
:1003E0000930F9007908F500863092311422813104
:1003F000003A0319FC29FD293A2B3030F30005306F
:10040000F4001C30F9007908F500623092311422B2
:100410008131003A03190D2A0E2A3A2BFB30F900DC
:1004200079082000C8053A2B3A2B3A2B3A2BC81DE5
:100430001A2A1B2A562A5030F3000530F4000730E0
:10044000F9007908F5007E30923114228131003AAA
:1004500003192B2A2C2A3A2B5730F3000530F400CD
:10046000F5010314F50D8530923114228131003AE3
:1004700003193B2A3C2A3A2B5830F3000530F4008C
:100480000730F9007908F5004D309231142281319E
:10049000003A03194C2A4D2A3A2BF730F900790813
:1004A0002000C8053A2B3A2B3A2B3A2B481E592AE2
:1004B0005A2A962AA030F3000530F4000430F900DF
:1004C0007908F500D730923114228131003A0319AE
:1004D0006A2A6B2A3A2BA430F3000530F40004306A
:1004E000F9007908F500DF30923114228131003AA9
:1004F00003197B2A7C2A3A2BA830F3000530F4003C
:100500000430F9007908F500D3309231142281319A
:10051000003A03198C2A8D2A3A2BEF30F90079081A
:100520002000C8053A2B3A2B3A2B3A2BC81E992AA1
:100530009A2AE82A2030F3000630F4000430F9004B
:100540007908F500AB30923114228131003A031959
:10055000AA2AAB2A3A2B2430F3000630F4002430C8
:10056000F9007908F500AF30923114228131003A58
:100570000319BB2ABC2A3A2B5030F3000630F40092
:100580000230F9007908F500E5309231142281310A
:10059000003A0319CC2ACD2A3A2B5430F300063006
:1005A000F4001230F9007908F500E7309231142296
:1005B0008131003A0319DD2ADE2A3A2BDF30F900B7
:1005C00079082000C8053A2B3A2B3A2B3A2B3A2BC4
:1005D000481FEB2AEC2A162B5830F3000630F400A3
:1005E0000430F9007908F500DB30923114228131B2
:1005F000003A0319FC2AFD2A3A2B5C30F30006303E
:10060000F4000230F9007908F500E3309231142249
:100610008131003A03190D2B0E2B3A2BBF30F90014
:1006200079082000C8053A2B3A2B3A2BC81F192B02
:100630001A2B312B5130F3000030F400F501031474
:10064000F50DFE30923114228131003A0319292B25
:100650002A2B3A2B7F30F90079082000C8053A2B65
:100660003A2BC8013A2B3A2B3A2B3A2B3A2B3A2BFE
:100670003A2B3A2B08009C3170248331F100710829
:100680002000E200143062020318472B482B632B32
:100690006203FF3A143EF1007108E20021003D08B8
:1006A00020006207F1007108E30021003D082000EE
:1006B000630203185C2B5D2B7B2BFF30F10071086C
:1006C000E3007B2B7B2B6208EC3EF1007108E2001B
:1006D0006203FF3A21003D07F10071082000E300AA
:1006E000630821003D020318762B772B7B2B20001B
:1006F000E3017B2B7B2B2100B808031D802B812B72
:10070000832BFD01832B0C30200063020318892BFF
:100710008A2B8F2B0A30F1007108FD00CB2C293079
:1007200063020318942B952B992BFD010314FD0DE7
:10073000CB2C2B30630203189E2B9F2BB32B023044
:100740007D02031CA42BA52BAA2B0230D200003063
:10075000D300AE2B0130D2000030D3005208F1009C
:100760007108FD00CB2C5D3063020318B82BB92B48
:10077000BE2B0230F1007108FD00CB2C5F3063020C
:100780000318C32BC42BD82B03307D02031CC92BA9
:10079000CA2BCF2B0330D4000030D500D32B02302E
:1007A000D4000030D5005408F1007108FD00CB2CB6
:1007B000743063020318DD2BDE2BE32B0330F100D2
:1007C0007108FD00CB2C763063020318E82BE92B6F
:1007D000FD2B04307D02031CEE2BEF2BF42B043099
:1007E000D6000030D700F82B0330D6000030D700F9
:1007F0005608F1007108FD00CB2C88306302031805
:10080000022C032C082C0430F1007108FD00CB2CC5
:100810008A30630203180D2C0E2C222C05307D0229
:10082000031C132C142C192C0530D8000030D900CF
:100830001D2C0430D8000030D9005808F100710890
:10084000FD00CB2C9D3063020318272C282C2D2C67
:100850000530F1007108FD00CB2C9F3063020318B6
:10086000322C332C472C06307D02031C382C392CBB
:100870003E2C0630DA000030DB00422C0530DA0076
:100880000030DB005A08F1007108FD00CB2CB730B6
:10089000630203184C2C4D2C522C0630F1007108C9
:1008A000FD00CB2CB93063020318572C582C6C2C4C
:1008B00007307D02031C5D2C5E2C632C0730DC00AE
:1008C0000030DD00672C0630DC000030DD005C0805
:1008D000F1007108FD00CB2CD03063020318712C9D
:1008E000722C772C0730F1007108FD00CB2CD23030
:1008F000630203187C2C7D2C912C08307D02031C94
:10090000822C832C882C0830DE000030DF008C2CF9
:100910000730DE000030DF005E08F1007108FD00E6
:10092000CB2CEF3063020318962C972C9C2C0830AC
:10093000F1007108FD00CB2CF13063020318A12CEB
:10094000A22CB62C09307D02031CA72CA82CAD2CA0
:100950000930E0000030E100B12C0830E000003048
:10096000E1006008F1007108FD00CB2C0930F100B6
:100970007108FD00CB2CCB2CCB2CCB2CCB2CCB2C37
:10098000CB2CCB2CCB2CCB2CCB2CCB2CCB2CCB2CAF
:10099000CB2CCB2CCB2C0800F1010314F10D4E30E5
:1009A00092314C22843120004B0844060319D92C83
:1009B000DA2CE02C4B08F7007708C400C201562E51
:1009C000023042020318E52CE62CEB2C0130F70034
:1009D0007708C207562E4B0843060319F02CF12C5A
:1009E000F62D0330F7007708F1004E309131A62143
:1009F000843120004308031DFE2C432D08304302A0
:100A00000318032D042D432D2830F1000430F2008B
:100A10004E30F3000030F4000330F7007708F500A3
:100A20009131142184311E3020004E020318192DFB
:100A30001A2D2C2D4E08F7007708F1004308F80016
:100A40000130F835FF3E031D212D7835FC3E403E38
:100A50008731AC278431402D20004E08E23EF7005C
:100A60007708F1004308F8000130F835FF3E031D18
:100A7000352D7835FC3E403E8731AC278431402D02
:100A800020004814432D4B08F7007708C3000330BB
:100A9000F7007708CE00CF01D0014308031D512D88
:100AA000562E083043020318562D572D562E280077
:100AB0002508F7007708A6002408F7007708A500A6
:100AC0002308F7007708A4002208F7007708A3009E
:100AD0002108F7007708A2002008F7007708A10096
:100AE00020004308F03EF70077082800A0003A30C5
:100AF000F1000430F2003730F3000430F40003302A
:100B0000F7007708F5009131142184313730F10076
:100B10000430F2003430F3000430F4000330F70006
:100B20007708F5009131142184313430F10004301C
:100B3000F2003130F3000430F4000330F70077089E
:100B4000F5009131142184313130F1000430F2008C
:100B50002E30F3000430F4000330F7007708F5007E
:100B60009131142184312E30F1000430F2002B3009
:100B7000F3000430F4000330F7007708F5009131FA
:100B8000142184312B30F1000430F2002830F300BE
:100B90000430F4000330F7007708F5009131142198
:100BA00084312830F1000430F2004E30F300003080
:100BB000F4000330F7007708F500913114218431F7
:100BC0000330F7007708F10020004308F8000130F7
:100BD000F835FF3E031DE82D7835FC3E403E873159
:100BE000AC27843120004814562E562E4308031D8E
:100BF000FA2D562E083043020318FF2D002E562ED4
:100C00004E08031D042E0B2E4E081E3A031D092EFE
:100C10000A2E562E0B2E2830F1000430F2004E30F2
:100C2000F3000030F4000330F7007708F50091314D
:100C3000142184312000D008031D1F2E202E3D2EAC
:100C4000CF08031D242E252E3D2E4E081E3A031DCF
:100C50002A2E2B2E3D2E1B30F7007708F10043087B
:100C6000F8000130F835FF3E031D322E7835FC3E8A
:100C7000403E8731AC278431502E1E30F700770874
:100C8000F10020004308F8000130F835FF3E031D55
:100C9000452E7835FC3E403E8731AC278431502EBE
:100CA00020004814562E562E562E562E0800200090
:100CB000C8011E30F70077082100DE00DF01E001E7
:100CC000E101E2012030F2000430F3000730F700C8
:100CD0007708F40023309131342186312830F20036
:100CE0000430F3001530F7007708F4003830913104
:100CF000342186314030F2000430F3001C30F7001C
:100D00007708F4008F30913134218631A030F20021
:100D10000430F3000730F7007708F4002A309131EF
:100D200034218631A830F2000430F3000730F70098
:100D30007708F4003130913134218631B030F2003F
:100D40000430F3000E30F7007708F400543091318E
:100D5000342186312030F2000530F3000730F700EF
:100D60007708F4001C309131342186312730F200AD
:100D70000530F3000930F7007708F4008630913130
:100D8000342186313030F2000530F3001C30F7009A
:100D90007708F40062309131342186315030F2000E
:100DA0000530F3000730F7007708F4007E3091310A
:100DB000342186315730F2000530F300F40103147A
:100DC000F40D85309131342186315830F2000530F0
:100DD000F3000730F7007708F4004D3091313421EB
:100DE0008631A030F2000530F3000430F7007708B8
:100DF000F400D730913134218631A430F20005302F
:100E0000F3000430F7007708F400DF30913134212B
:100E10008631A830F2000530F3000430F70077087F
:100E2000F400D3309131342186312030F200063085
:100E3000F3000430F7007708F400AB30913134212F
:100E400086312430F2000630F3002430F7007708B2
:100E5000F400AF309131342186315030F200063049
:100E6000F3000230F7007708F400E53091313421C7
:100E700086315430F2000630F3001230F700770864
:100E8000F400E7309131342186315830F2000630D9
:100E9000F3000430F7007708F400DB30913134219F
:100EA00086315C30F2000630F3000230F70077083C
:100EB000F400E3309131342186315130F2000030BA
:100EC000F300F4010314F40DFE3091313421863126
:100ED000A830F7007708F1000430F8007808F20035
:100EE000A030923185228631F9007908FA00FA1F84
:100EF0007A2F7B2F8F2F2B002B08F7007708A3006A
:100F00002A08F7007708A2002908F7007708A1004F
:100F10002808F7007708A00020004816AB2F7A08B1
:100F2000803A7F3E031C952F962FAB2F2B00230872
:100F3000F7007708AB002208F7007708AA0021081D
:100F4000F7007708A9002008F7007708A80020001C
:100F50004816AB2FAB2F0800F3007108F20073089E
:100F60008600043087007208810773088600043009
:100F700087003C300102031CBE2FBF2FFF2F7308D8
:100F80008600043087003C3081020130F200730893
:100F9000013E860004308700720881077308013E15
:100FA0008600043087003C300102031CD82FD92F63
:100FB000FF2F7308013E8600043087003C30810219
:100FC0000130F2007308023E860004308700720888
:100FD00081077308023E8600043087008108031DE4
:100FE000F22FF32FFF2F0130F2007308033E86002B
:100FF0000430870072088107FF2FFF2FFF2F0800A2
:10100000720871040319052806283628F60103140E
:10101000F60D14280130F135F20D890B0B28013043
:10102000F5007508F6071428F21F172818280A2853
:101030001A281A2872087402031D202871087302E6
:10104000031C2328242829287108F3027208F43B82
:1010500029280130F236F10C890B2A280130F602DA
:10106000031D332834281A28362836287408F2013C
:10107000F2077308F101F1073D28080020004A0833
:10108000031D432849280A304A02031C48284928DE
:101090004B28C101ED2841084A0603195028512860
:1010A000ED284A08F7007708C1002A002508F70054
:1010B0007708A6002408F7007708A5002308F700A2
:1010C0007708A4002208F7007708A3002108F7009A
:1010D0007708A2002008F7007708A10020004A083E
:1010E000E03EF70077082A00A0000130F70020005A
:1010F0004A08FF3E273E86000530870077088107B3
:101100004830F1000530F2004430F3000530F400BF
:101110000430F7007708F50091311421883144300C
:10112000F1000530F2004030F3000530F4000430E7
:10113000F7007708F5009131142188314030F10033
:101140000530F2003C30F3000530F4000430F700C5
:101150007708F5009131142188313C30F1000530D9
:10116000F2003830F3000530F4000430F70077085F
:10117000F5009131142188313830F1000530F2004A
:101180003430F3000530F4000430F7007708F50040
:101190009131142188313430F1000530F2003030C3
:1011A000F3000530F4000430F7007708F5009131C2
:1011B000142188313030F1000530F200DF30F300C7
:1011C0000030F4000430F7007708F5009131142165
:1011D000883120004815ED28ED28080020002F0850
:1011E0002E040319F428F528A8290130AE02003096
:1011F000AF3BA829A82921003808031D0029B229DE
:101200000130F30073082000BD070630AE00003047
:10121000AF00B229B2292F082E04031D102911296D
:10122000B2297D080A3A031D162917291C29013005
:10123000F3007308BD07B229FF30F3007308BD0047
:10124000B229B229B2297D08013A031D282929298A
:10125000B2290130F3007308BD072C30AE00013015
:10126000AF00B229B2297D08013A0319382939297A
:101270003E29FF30F3007308BD00B22900302F0271
:10128000643003192E02031C4629472954292100E2
:101290003D08F30073082000BC0021003D08F30066
:1012A00073082000BB00B2293C0821003D0203184E
:1012B0005A295B2960293D08F30073082000BC000F
:1012C00021003D0820003B020318672968296F2987
:1012D00021003D08F30073082000BB006F292F0890
:1012E0002E04031D74297529B2290A303C02031CFF
:1012F0007A297B2982291E303B02031C80298129FF
:1013000087298229FF30F3007308BD00B22901301C
:10131000F3007308BD07B229B229B229B229B22954
:101320003C083B07F300F401F40D0130FF00740D9D
:10133000F40CF30CFF0B972973089C318A24883135
:10134000FF30F30073082000BD00B229B229B22992
:101350003D088400053004020318B2299831043591
:10136000143E820008002100B808031DB829B929DD
:10137000BD292000B201B301592A21003708031DFD
:10138000C229592A3908031DC629592A20082000D4
:10139000E000210021082000E100210022082000B7
:1013A000E200210023082000E3000130E035E10DD8
:1013B000E20DE30D890BD6296308E7006208E60019
:1013C0006108E5006008E400210039082000E00021
:1013D000E101E201E3016308EB006208EA00610851
:1013E000E9006008E8002100B90120006708F40066
:1013F0006608F3006508F2006408F10096312D26B6
:10140000893171082000E4007208E500E601E70177
:101410006808E0006908E1006A08E2006B08E30080
:101420001030E035E10DE20DE30D890B112A630860
:10143000F4006208F3006108F2006008F1009631E0
:101440002D26893171082000E8007208E900EA01C0
:10145000EB016B08D5006A08D4006908D30068085E
:10146000D2006708F4006608F3006508F20064081B
:10147000F1000030F8000030F7000930F60062306B
:10148000F5009131DD21893174082000D9007308FD
:10149000D8007208D7007108D6009331ED23893146
:1014A00020005308B301B3075208B201B207592A0A
:1014B000592A033020003302E8300319320203189E
:1014C000622A632A662AA801A901812A0130A80795
:1014D0000030A93D02302902583003192802031CAC
:1014E000722A732A812A742AC908031D782A792A44
:1014F000812A0830E0006008C900812A812A812AF7
:10150000812A0800FB0127307A0210300319790282
:10151000031C8B2A8C2AB52A1030F1002730F200E8
:101520007A08F401F4077908F301F30793310523EE
:101530008A317108303E9C31E2248A311030F1004A
:101540002730F2007A08F401F4077908F301F30771
:10155000883100208A317208FA01FA077108F9010E
:10156000F907FB010314FB0DB52AFB08031DB92A7B
:10157000BA2AC42A03307A02E83003197902031C1C
:10158000C22AC32AED2AC42AE830F1000330F2004F
:101590007A08F401F4077908F301F307933105237E
:1015A0008A317108303E9C31E2248A31E830F10002
:1015B0000330F2007A08F401F4077908F301F30725
:1015C000883100208A317208FA01FA077108F9019E
:1015D000F907FB010314FB0DED2AFB08031DF12A9B
:1015E000F22AFC2A00307A02643003197902031CC3
:1015F000FA2AFB2A252BFC2A6430F1000030F20085
:101600007A08F401F4077908F301F307933105230D
:101610008A317108303E9C31E2248A316430F10015
:101620000030F2007A08F401F4077908F301F307B7
:10163000883100208A317208FA01FA077108F9012D
:10164000F907FB010314FB0D252BFB08031D292BB8
:101650002A2B342B00307A020A3003197902031C3A
:10166000322B332B5A2B342B0A30F1000030F2008E
:101670007A08F401F4077908F301F307933105239D
:101680008A317108303E9C31E2248A310A30F100FF
:101690000030F2007A08F401F4077908F301F30747
:1016A000883100208A317208FA01FA077108F901BD
:1016B000F9075A2B7908303E9C31E2248A31080020
:1016C00001302000E00060082100C20732304202F1
:1016D000031C6B2B6C2B772B32302000E000600852
:1016E0002100C200C0012000B401B501322C03303A
:1016F00021004002031C7D2B7E2B322C1E30400229
:10170000031C832B842B8B2B1E302000E0006008F1
:101710002100C0008B2B4008FE3E2000E000600846
:10172000E60021004108FF3E2000E0006008E800DC
:10173000E7010430660203189E2B9F2BC42B66081A
:10174000E0006008E70068081F390907203E8600AE
:10175000033087006703FF3A68071F390907203EF7
:10176000840003308500003FE000013FE100E00914
:10177000E109E00A0319E10A403F6007E400413F44
:10178000613DE500FF2BC42B0430E6020430E0008D
:101790006008E70768081F390907203E8600033004
:1017A00087006703FF3A68071F390907203E840056
:1017B00003308500003FE000013FE100E009E1095E
:1017C000E00A0319E10A403F6007E400413F613D40
:1017D000E500043066020318EE2BEF2BF12BFF2BF4
:1017E000FF2B06306502403003196402031CF92BFD
:1017F000FA2BC42BFF2BFF2BC42BC42BFF2B64080D
:10180000D2006508D300D401D5016708E000E101EA
:10181000E201E3016308F4006208F3006108F200EA
:101820006008F1000030F8000930F7002730F600BA
:10183000C030F5009131DD218B3174082000D900D2
:101840007308D8007208D7007108D6009331ED23D1
:101850008B3120005308B501B5075208B401B40715
:10186000322C322C210038082000E000E101210058
:101870002F0820006102031D412C21002E082000AA
:1018800060020318442C452C4F2C013035022C30BB
:1018900003193402031C4D2C4E2C522C4F2CAA0140
:1018A000AB016E2C0130AA070030AB3D01302B029A
:1018B0002C3003192A02031C5E2C5F2C6E2C602C2A
:1018C000C908031D642C652C6E2C0730C900E0008C
:1018D0006008C9006E2C6E2C6E2C6E2C08008331B3
:1018E0003B238C318831EE208C31200027082604E0
:1018F0002504240403197D2C7E2C802D0130F50055
:101900000030F6000030F7000030F8007508A4023F
:101910007608A53B7708A63B7808A73B802D802D4D
:10192000B601B701CC010314CC0D0030A700003084
:10193000A6000130A500F430A4008B2DB601B7013C
:10194000C908031DA42CA52CAE2C270826042504A9
:101950002404031DAC2CAD2CBF2CAE2C4908F50083
:101960007508CA000330F5007508CC000030A700E8
:101970000030A6000030A5003230A4008B2D2100DD
:101980003E08FF3A031DC52CC62C8B2D3F08FF3A9D
:10199000031DCB2CCC2C8B2D2000EE1BD02CD12C5E
:1019A0008B2D0230F5007508CC000030A700023006
:1019B000A600BF30A5002030A4008B2D8B2D8B2DD1
:1019C000C908031DE42CE52CEE2C27082604250469
:1019D0002404031DEC2CED2C602DEE2CB601B70178
:1019E0004908F5007508CA000330F5007508CC00F9
:1019F0000030A7000030A6000030A5003230A4005F
:101A00008B2D602DCB01B601B7018B2D0230F50077
:101A10007508CB00C430B6000930B7008B2D0230FA
:101A2000F5007508CB00B830B6000B30B7008B2D31
:101A30000230F5007508CB00A030B6000F30B700BB
:101A40008B2D0330F5007508CB007030B6001730D1
:101A5000B7008B2D0430F5007508CB004030B60080
:101A60001F30B7008B2D0530F5007508CB001C30FA
:101A7000B6002530B7008B2D0630F5007508CB0079
:101A80000430B6002930B7008B2D0730F5007508FB
:101A9000CB00E030B6002E30B7008B2D0730F500BC
:101AA0007508CB00BC30B6003430B7008B2DCB01AD
:101AB0000314CB0DBD30B6003430B7008B2D8B2D09
:101AC0007D08FF3E031C022D84000A300402031827
:101AD000022D98310435003E82008B2D8B2DB601EE
:101AE000B7012708260425042404031D782D792D29
:101AF0008B2D0430F5007508CC008B2D8B2D8B2D94
:101B00004C08003A0319902C013A03199E2C033A11
:101B10000319E02C6F2D08002000E60066080C3E3B
:101B200086008701403FD400413FD50066080E3E45
:101B300086008701403FD600413FD7005708803AD2
:101B4000D8005508803A5802031DA82D54085602A3
:101B50000318AB2DAC2DB22D2000D31FB02DB12D0D
:101B6000052EB22D200066080E3E86008701403FFC
:101B7000D400413FD50066080C3E86008701403FF7
:101B8000D600413FD7005708803AD8005508803A20
:101B90005802031DCD2D540856020318D02DD12D07
:101BA000D72D2000D31BD52DD62D052ED72D2000C7
:101BB0006608023E86008701403FD400413FD500C1
:101BC0005408F1005508F200890D893B8909F3009A
:101BD000F4005208F5005308F600890D893B890985
:101BE000F700F8009131DD218D3120006608083EB4
:101BF000860087017108810741317208813D4131BA
:101C00007308813D41317408813D6608083E8600B5
:101C10008701403FD400413FD500423FD600433FBB
:101C2000D7006608063E86008701403FD800413F46
:101C3000D9005808DA005908DB000030DB1BFF3000
:101C4000DC00DD00DA09DB09DC09DD09DA0A031949
:101C5000DB0A0319DC0A0319DD0A6608860087011E
:101C6000403FDE00413FDF005E08F1005F08F20008
:101C7000890D893B8909F300F4005208F5005308E7
:101C8000F600890D893B8909F700F8009131DD21C3
:101C90008D3171082000E0007208E1007308E20055
:101CA0007408E3006608043E86008701403FE400B4
:101CB000413FE5006408F1006508F200890D893BA9
:101CC0008909F300F4005208F5005308F600890D65
:101CD000893B8909F700F8009131DD218D317108C8
:101CE0002000E0077208E13D7308E23D7408E33D1F
:101CF0006008DA076108DB3D6208DC3D6308DD3D12
:101D00005A08D4075B08D53D5C08D63D5D08D73D31
:101D100066080C3E860087015408C03F5508C13F45
:101D20005608C23F5708C33F66080E3E860087012B
:101D3000403FD400413FD50066080C3E8600870135
:101D40005408C03F5508C13F6608063E860087011B
:101D50005208C03F5308C13FAD2E08002000400884
:101D6000031DB32EB62E0130C002B62E370836043E
:101D70000319BB2EBC2EC22E2100B808031DC12E94
:101D8000C22EF52F2000BF018B132100AE01AF0141
:101D90008B17FF2FFF2FF52F8B132100AE01AF0103
:101DA0008B17D22E2B082A040319D72ED82EFF2FDB
:101DB00020003708B101B1073608B001B007503034
:101DC000A2000030A300A001A101D0302100C70073
:101DD0000730C8003230C9000030CA00F430CB00F0
:101DE0000130CC00CD01CE013C30D1000030D2001A
:101DF000CF01D0015208D601D6075108D501D50729
:101E00005208D401D4075108D301D3070130200070
:101E1000E7006708BF07C830E7006708C000FF2F6A
:101E2000FF2F21003708031D162FFF2F2000370832
:101E30003106031D1D2F360830060319202F212FD0
:101E4000402F37083102031D272F360830020318B0
:101E50002A2F2B2F302FC830E7006708C000302F03
:101E60003708B101B1073608B001B00721005608A4
:101E70002000A301A307210055082000A201A2070A
:101E800032303702C83003193602031C482F492F5D
:101E90005B2F19304002031C4E2F4F2F542F193047
:101EA000E7006708C000542F361C572F582F5B2FB0
:101EB000C0015B2F5B2F21002B08F201F2072A08DB
:101EC000F101F1073630F3000030F4009131542174
:101ED0008E3171082000E7007208E8000630E8360D
:101EE000E70C890B6F2F6708EB006808EC000030E7
:101EF000A0070030A13D1030A23D0030A33D2308D3
:101F0000803AE7006C08803A6702031D892F6B084E
:101F10002202031C8C2F8D2F942F20006C08A3010C
:101F2000A3076B08A201A20720003409E7003509C6
:101F3000E800E70A0319E80A36086707E9003708E6
:101F4000683DEA00C008031DA62FA72FAC2FEA1F8B
:101F5000AA2FAB2FB22FAC2FF4302100C7000130D5
:101F6000C800B82FD0302100C7000730C800B82FF4
:101F700020006A08D301D3076908D201D207C7300D
:101F80008D318C258E312000361CC72FC82FD72FBE
:101F90002830F1000030F2006C08F401F4076B08FF
:101FA000F301F307C73093314B238E31E82F2830EC
:101FB000F1000030F20020002308F401F4072208A9
:101FC000F301F307C73093314B238E31E82FE82F0D
:101FD0008B1321005608AF01AF075508AE01AE07BD
:101FE0008B17FF2FFF2FFF2FFF2F20003F08003AF6
:101FF0000319CC2E013A0319112FFF2FFF2F0800D0
:1020000000347F347F347F347F347F347F347F34B7
:102010007F347F347F347F347F347F347F347F3428
:102020007F347F347F347F347F347F347F347F3418
:102030007F347F347F347F347F347F347F347F3408
:102040007F347F347F347F347F347F347F347F34F8
:102050007F347F347F347F347F347F347F347F34E8
:102060007F347F347F347F347F347F347F347F34D8
:102070007F347F347F347F347F347F347F347F34C8
:102080007F347E347D347C347B347A347A347934D2
:1020900078347734773476347534753474347334F3
:1020A000733472347134713470346F346F346E340D
:1020B0006D346D346C346B346B346A346A34693427
:1020C000683468346734673466346634653464343D
:1020D0006434633463346234623461346134603450
:1020E00060345F345E345E345D345D345C345C3463
:1020F0005B345B345A345A34593459345834583474
:102100005734573456345634553455345434543483
:102110005334533452345234513451345034503493
:102120004F344F344E344E344D344D344C344C34A3
:102130004B344B344A344A344934493448344834B3
:1021400047344734463446344534453444344434C3
:1021500043344334423442344134413440344034D3
:102160003F343F343E343E343D343D343C343C34E3
:102170003B343B343A343A343934383438343734F5
:102180003734363436343534353434343334333408
:10219000323432343134303430342F342E342E341F
:1021A0002D342D342C342B342A342A342934283439
:1021B0002834273426342534253424342334223457
:1021C0002134213420341F341E341D341C341B347C
:1021D0001A341934183417341534143413341234AF
:1021E00010340F340D340C340A34083406340434FB
:1021F000023400340034003400340034003400343D
:1022000000340800F2007208230091007108930066
:102210001513951315158B1355309600AA3096009B
:1022200095148B17151108002A2973088600740865
:1022300087000108F600710886007208870076089A
:1022400081000130F1070030F23D0130F30700302A
:10225000F43D2A290130F5027508FF3A031D3129A2
:102260003229152933290800F6004A2976089C31BD
:1022700080249131F5007208860073088700750884
:1022800081000130F5007508F6070130F2070030D3
:10229000F33D4A290130F4027408FF3A031D512925
:1022A0005229362953290800F501F6015729711CD6
:1022B0005A295B295F297308F5077408F63D013038
:1022C000F335F40D890B60290130F236F10C890BDE
:1022D000652972087104031D6E296F295729702919
:1022E0007608F201F2077508F101F1077729080075
:1022F00022009D019E011B3021008C001130230023
:102300008C0024008C0127008C01303021008D00CE
:1023100023008D0124008D01203027008D00EF3037
:1023200021008E00CF3023008E0024008E01270074
:102330008E012200970198019901823091000330AB
:102340009200A2309300013094000800F30073085B
:1023500086008701710881027308860087013C307E
:102360000102031CB429B529DC293C30F2007308B2
:1023700086008701720881077308013E8600870185
:10238000013081027308013E860087013C30010262
:10239000031CCB29CC29DC293C30F2007308013E18
:1023A00086008701720881077308023E8600870154
:1023B00001308102DC29DC2908000030FC000030FB
:1023C000FB000030FA000030F900E629711CE92911
:1023D000EA29F3297508F9077608FA3D7708FB3DE5
:1023E0007808FC3DF3290130F535F60DF70DF80DB1
:1023F000890BF4290130F436F30CF20CF10C890B43
:10240000FB297408730472047104031D082A092A45
:10241000E6290A2A7C08F4007B08F3007A08F20017
:102420007908F100132A0800F7003C2A0130F50270
:10243000730886007408870077089C3180249231E5
:102440000106031D242A252A2E2A0130F6007608CB
:10245000F7070130F3070030F43D3C2A730886008B
:10246000740887000108F6007608F10077089131BA
:1024700002219231422A3C2AF508031D402A412AB2
:10248000162A422A7508031D462A492A00304B2A7B
:102490004B2A01304B2A0800F3007108F200730840
:1024A00086008701720881077308860087013C3027
:1024B0000102031C5C2A5D2A842A730886008701B6
:1024C0003C3081020130F2007308013E8600870132
:1024D000720881077308013E860087013C300102C3
:1024E000031C732A742A842A7308013E860087011C
:1024F0003C3081020130F2007308023E8600870101
:1025000072088107842A842A0800F500B82A01305D
:10251000F20272087507F300730886000530870021
:1025200072087107F4007408840005308500000803
:10253000010203189C2A9D2AA02AFF30C02AC02A23
:1025400072087107F300730886000530870072086F
:102550007507F40074088400053085000008010246
:102560000318B32AB42AB82A0130C02AC02AB82ACC
:10257000F208031DBC2ABD2A872ABE2A0030C02AC1
:1025800008000130F70077082000C70764304702D1
:10259000031CCB2ACC2A022BC7010130F700770895
:1025A0002100DE073C305E02031CD72AD82AFF2A0E
:1025B000DE01DF30F1000030F200F3010314F30D0F
:1025C000943150249231A030F1000530F200F30133
:1025D0000314F30D943150249231A830F1000530EA
:1025E000F200A030F3000530F4000430F700770863
:1025F000F50091311421923120004816FF2A013054
:10260000042B042B0030042B0800F601F70172089C
:10261000710403190C2B0D2B432BF8010314F80D37
:102620001B2B0130F135F20D890B122B0130F50017
:102630007508F8071B2BF21F1E2B1F2B112B212BAC
:10264000212B0130F635F70D890B222B720874020D
:10265000031D2C2B71087302031C2F2B302B362BE0
:102660007108F3027208F43B7614362B0130F2360F
:10267000F10C890B372B0130F802031D402B412B45
:10268000212B432B432B7708F201F2077608F10147
:10269000F1074A2B0800F8007208803AF500740828
:1026A000803A7502031D562B730871020318592BCB
:1026B0005A2B9B2B78080E3E86008701403FF50081
:1026C000413FF6007408803AF7007608803A7702B6
:1026D000031D6C2B7508730203186F2B702B792B5D
:1026E00078080E3E860087017308C03F7408C13F1A
:1026F0009B2B78080E3E86008701403FF500413F46
:10270000F6007608803AF7007208803A7702031DD7
:102710008B2B7108750203188E2B8F2B9B2B78083F
:102720000E3E860087017108C03F7208C13F9B2B97
:102730009B2B9B2B9B2B08008B1397315727933197
:102740009131012193319C31AE2493319C31742419
:102750009331863157269331AD2B8B17640064304B
:1027600021004602031CB52BB62BAD2B6430C602EC
:102770009131782193319531A42593319C3199245D
:1027800093318C316F249331813141219331200079
:102790004C08043A031DCD2BCE2BD32B4808031D28
:1027A000D22BDA2BD32B0530ED006D08CD002200A3
:1027B0000D17AD2B01302000CD02031DE02BE12BC6
:1027C000AD2BCD010314CD0D22000D13AD2BAD2B80
:1027D000AD2BAD2BAD2B81313E2900302000DE002A
:1027E0000030DD000030DC000030DB005508540410
:1027F000530452040319FD2BFE2B462CDF01031456
:10280000DF0D0E2C0130D235D30DD40DD50D890B33
:10281000032C0130DA005A08DF070E2CD51F112CCB
:10282000122C022C142C142C0130DB35DC0DDD0DA8
:10283000DE0D890B152C55085902031D292C54084F
:102840005802031D292C53085702031D292C520836
:102850005602031C2C2C2D2C372C5208D602530860
:10286000D73B5408D83B5508D93B5B14372C013073
:10287000D536D40CD30CD20C890B382C0130DF02A6
:10288000031D432C442C142C462C462C5E08D500EA
:102890005D08D4005C08D3005B08D2004F2C080010
:1028A0007308F400710886007208870074088107B5
:1028B00071088600720887003C300102031C612CFD
:1028C000622CB32C71088600720887003C308102AC
:1028D0000130F4007108013EF5000030723DF60051
:1028E0007508860076088700740881077108013E24
:1028F000F4000030723DF50074088600750887000A
:102900008108031D842C852CB32C0130F400710840
:10291000023EF5000030723DF6007508860076082C
:102920008700740881077108023EF4000030723D90
:10293000F50074088600750887008108031DA12C26
:10294000A22CB32C0130F4007108033EF5000030D6
:10295000723DF600750886007608870074088107C6
:10296000B32CB32CB32C08002000CB08031DB92CCA
:10297000BA2CC02CC5016E08F1007108C6001C2DD0
:102980006E08F100F201F11BF2037208803A803CFC
:10299000031DCD2C71082A0057020318D02CD12C0E
:1029A000D92C20006E08F10071082A00D700200001
:1029B000C81520004608803AF1006E08803AF102FE
:1029C0000318E32CE42CE92C6E08F1007108C60012
:1029D000E92C2100DE08031DEE2CEF2C1C2D20001D
:1029E000C508031DF42CF52C122DC5010314C50DCB
:1029F0002A005D08F1007108DE005C08F100710832
:102A0000DD005B08F1007108DC005A08F100710874
:102A1000DB005908F1007108DA005808F10071086C
:102A2000D900122D20004608F10071082A00D800B4
:102A30002000C8151C2D1C2D08002100B808031DFE
:102A4000222D232D2A2D2000AC01AD01BA01B901A0
:102A5000B801A32D21003708031D2F2DA32D3B08FE
:102A6000F100F20171082000AC077208AD3D0230A0
:102A700021003B02031C3D2D3E2D452DFE303B0227
:102A8000031C432D442D4A2D452D0130F1007108C2
:102A90002000BA070130F10071082000B8070430A7
:102AA0003802031C542D552DA32DBA08031D592D92
:102AB0005A2D842DB9012D08F2002C08F1000230A6
:102AC000F236F10C890B602D7108013E84009030C4
:102AD0000318013E85000008F3007308EE006E083D
:102AE000803A183E031C752D762D9C2D772DC90834
:102AF000031D7B2D7C2D9C2D0230F1007108C90037
:102B00009C2D9C2D9C2D9C2D0130F1007108B90746
:102B10000A303902031C8D2D8E2D9C2D8F2DC90856
:102B2000031D932D942D9C2D0230F1007108C900D6
:102B30009C2D9C2D9C2D9C2DAC01AD01BA01B801A2
:102B4000A32DA32DA32D080001302000D200520890
:102B5000BE0732303E02031CAE2DAF2D2C2EBE011F
:102B60007D08D200D3015208F9005308FA008A31D7
:102B7000822295312C309C31E224953121003D0890
:102B80002000D200D3015208F9005308FA008A311C
:102B9000822295312C309C31E224953121003B0872
:102BA0002000D200D3015208F9005308FA008A31FC
:102BB000822295312C309C31E22495312000370857
:102BC000FA01FA073608F901F9078A3182229531AC
:102BD0002C309C31E224953120003508FA01FA07A7
:102BE0003408F901F9078A31822295312C309C3161
:102BF000E224953120003308FA01FA073208F9017E
:102C0000F9078A31822295312C309C31E2249531AA
:102C100020006E08F900FA01F91BFA038A318222BA
:102C200095312C309C31E2249531FE309C3180244A
:102C300095312000D200D3015208F9005308FA0060
:102C40008A31822295310D309C31E22495310A304F
:102C50009C31E22495312C2E080000302000DE004B
:102C60000030DD000030DC000030DB000030D6003A
:102C70000030D5000030D4000030D3000030DA003E
:102C80000030D9000030D8000030D7001030F500F7
:102C90007508D2004B2E0130DB35DC0DDD0DDE0D6D
:102CA000890B4C2E0130D735D80DD90DDA0D890B93
:102CB000532EF41F5C2E5D2E5F2E57145F2E0130B5
:102CC000F135F20DF30DF40D890B602E0130D7357F
:102CD000D80DD90DDA0D890B672EF41F702E712EC9
:102CE000732E5714732E0130F135F20DF30DF40DE0
:102CF000890B742E5B08F5005C08F6005D08F70090
:102D00005E08F8000130F535F60DF70DF80D890B6A
:102D1000832E01307504D30000307604D4000030D7
:102D20007704D50000307804D60056085A02031DF7
:102D3000A32E55085902031DA32E54085802031D43
:102D4000A32E53085702031CA62EA72EB12E5308FC
:102D5000D7025408D83B5508D93B5608DA3B5B14D8
:102D6000B12E0130D202031DB62EB72E4B2EB82E37
:102D70005C08F201F2075B08F101F107BF2E0800C1
:102D80000130F10071082100B60705303602031C3E
:102D9000CA2ECB2ED42E0530F1007108B600B40136
:102DA000B801AA01AB01322F05303402031CD92E21
:102DB000DA2E322F0530F1007108B4003508FF3EDD
:102DC000F1007108F500750807390907603E8600B3
:102DD000033087007508FC3E07390907603E840010
:102DE00003308500003FF100013FF200F109F209D4
:102DF000F10A0319F20A403F7107F300413F723DA7
:102E0000F4000330F436F30C890B022F7308F6003C
:102E10007408F700013077022D3003197602031C85
:102E2000122F132F322F01307702F430031976025C
:102E300003181B2F1C2F322F7708AB01AB07760826
:102E4000AA01AA077708F2007608F1000330F236EB
:102E5000F10C890B272F7108F3007308B800322F8B
:102E6000322F322F3808031D362F392FA801A90120
:102E7000562F0130A8070030A93D013029022C301F
:102E800003192802031C452F462F562F472F2000D9
:102E9000C908031D4C2F4D2F562F0A30C900F100D1
:102EA0007108C900562F562F562F562F08008B1326
:102EB000F0302100990098011130970022009D0107
:102EC0009E010430F10071082100D7000430220077
:102ED0008C001B3021008C00113023008C0024005A
:102EE0008C0127008C01E03022008D003030210061
:102EF0008D0023008D0124008D01203027008D00DE
:102F000022008E01EF3021008E00CF3023008E0092
:102F100024008E0127008E0122009701990198015B
:102F2000033092008230910001309400A23093006F
:102F3000A03021009E0025309D00D8010314D80D3B
:102F4000FF30F1007108DA00FF30F1007108DB009A
:102F5000FF30F1007108D900BC01BD01BB01003098
:102F6000A7000030A6000030A5000030A400BA0180
:102F70000030A3000030A2000030A1000030A0000B
:102F8000B9010A3023009F001F309B0003309C00D2
:102F90009D0104309E009D171D169E16A601A401DA
:102FA000A701A501A201A001A301A101200099018F
:102FB00030309800313028009D0005309E00200000
:102FC0009101920193019401210091019201083035
:102FD000930094010B17C601AC01AD01FF30F10065
:102FE0007108DC00FF30F1007108DD00BE01BF0197
:102FF000C301C501C401B201B301B001B1010800B0
:103000008D31062D8D310F2D8D31182D8D31212DC6
:103010008D312A2D8D31332D8D313C2D8D31452D26
:103020008D314E2D8D31572D8831FB2889310B295B
:0C30300089312329893133298931902905
:1038E00020005108732C08002000CC01CB01CA0134
:1038F000FD010800640080010131890B7B2C00343C
:10390000F100710823009100151395131514130885
:10391000892C0800F2002000510872060319912C2E
:10392000922C982C7208F1007108D100C817982CBD
:10393000080095311D259C318931B3219C318B3193
:1039400060239C319631C0269C31803102209C310D
:103950008E31AE269C312100B70108002100B5014F
:10396000B401B601AA01AB01B801B701C101C001A0
:10397000C201AE01AF012000B601B701B401B5012B
:10398000B201B301C901EE01EE030800FD012030D0
:1039900084000030850032309C317A249C31A03084
:1039A00084000030850037309C317A249C31A0306F
:1039B00084000130850008309C317A249C3120003D
:1039C00093319C2BF200203023002402031CE92CAD
:1039D000EA2CEC2CFF2CFF2C7208F10027081F3971
:1039E000A03E860003308700710881000130F1009D
:1039F0007108A7070130F1007108A407FF2C080027
:103A00000034023404348634003482348434DE34A6
:103A100060340A340C348E3408348A348C348E3456
:103A20000034023404348634003482348434DE3486
:103A300060340A340C348E3408348A348C348E3436
:103A40000034023404348634003482348434DE3466
:103A500060340A340C348E3408348A348C348E3416
:103A60000034023404348634003482348434DE3446
:103A700060340A340C348E3408348A348C348E34F6
:103A80000034023404348634003482348434DE3426
:103A900060340A340C348E3408348A348C348E34D6
:103AA0000034023404348634003482348434DE3406
:103AB00060340A340C348E3408348A348C348E34B6
:103AC0000034023404348634003482348434DE34E6
:103AD00060340A340C348E3408348A348C348E3496
:103AE0000034023404348634003482348434DE34C6
:103AF00060340A340C348E3408348A348C348E3476
:103B00000034023404348634003482348434DE34A5
:103B100060340A340C348E3408348A348C348E3455
:103B20000034023404348634003482348434DE3485
:103B300060340A340C348E3408348A348C348E3435
:103B40000034023404348634003482348434DE3465
:103B500060340A340C348E3408348A348C348E3415
:103B60000034023404348634003482348434DE3445
:103B700060340A340C348E3408348A348C348E34F5
:103B80000034023404348634003482348434DE3425
:103B900060340A340C348E3408348A348C348E34D5
:103BA0000034023404348634003482348434DE3405
:103BB00060340A340C348E3408348A348C348E34B5
:103BC0000034023404348634003482348434DE34E5
:103BD00060340A340C348E3408348A348C348E3495
:103BE0000034023404348634003482348434DE34C5
:103BF00060340A340C348E3408348A348C348E3475
:103C00000034003401340034043400340934003406
:103C10001034003419340034243400343134003486
:103C20004034003451340034643400347934003486
:103C300090340034A9340034C4340034E134003406
:103C40000034013421340134443401346934013402
:103C500090340134B9340134E43401341134023481
:103C60004034023471340234A4340234D93402347E
:103C7000103403344934033484340334C1340334FA
:103C8000003404344134043484340434C9340434F6
:103C90001034053459340534A4340534F134053472
:103CA0004034063491340634E4340634393407346D
:103CB00090340734E934073444340834A1340834E8
:103CC0000034093461340934C434093429340A34E1
:103CD00090340A34F9340A3464340B34D1340B345C
:103CE00040340C34B1340C3424340D3499340D3454
:103CF00010340E3489340E3404340F3481340F34CC
:103D000000341034813410340434113489341134C3
:103D1000103412349934123424341334B13413343B
:103D200040341434D134143464341534F934153433
:103D30009034163429341734C434173461341834A9
:103D400000341934A134193444341A34E9341A349F
:103D500090341B3439341C34E4341C3491341D3415
:103D600040341E34F1341E34A4341F34593420340A
:103D700010342134C934213484342234413423347E
:103D800000342434C1342434843425344934263472
:103D900010342734D9342734A434283471342934E6
:103DA00040342A3411342B34E4342B34B9342C34D9
:103DB00090342D3469342E3444342F34213430344B
:103DC00000343134E1343134C4343234A93433343E
:103DD00090343434793435346434363451343734AF
:103DE000403438343134393424343A3419343B349F
:103DF00010343C3409343D3404343E3401343F340F
:103E000000344034013441340434423409344334FE
:103E1000103444341934453424344634313447346E
:103E2000403448345134493464344A3479344B345E
:103E300090344C34A9344D34C4344E34E1344F34CE
:103E400000345134213452344434533469345434BA
:103E500090345534B9345634E43457341134593429
:103E600040345A3471345B34A4345C34D9345D3416
:103E700010345F344934603484346134C134623482
:103E8000003464344134653484346634C93467346E
:103E90001034693459346A34A4346B34F1346C34DA
:103EA00040346E3491346F34E434703439347234C5
:103EB00090347334E934743444347634A134773430
:103EC0000034793461347A34C4347B3429347D3419
:103ED00090347E34F9347F3464348134D134823484
:103EE00040348434B134853424348734993488346C
:103EF00010348A3489348B3404348D3481348E34D4
:103F000000349034813491340434933489349434BB
:103F1000103496349934973424349934B1349A3423
:103F200040349C34D1349D3464349F34F934A0340B
:103F30009034A2342934A434C434A5346134A73471
:103F40000034A934A134AA344434AC34E934AD3457
:103F50009034AF343934B134E434B2349134B434BD
:103F60004034B634F134B734A434B9345934BB34A2
:103F70001034BD34C934BE348434C0344134C23406
:103F80000034C434C134C5348434C7344934C934EA
:103F90001034CB34D934CC34A434CE347134D0344E
:103FA0004034D2341134D434E434D534B934D73431
:103FB0009034D9346934DB344434DD342134DF3493
:103FC0000034E134E134E234C434E434A934E63476
:103FD0009034E8347934EA346434EC345134EE34D7
:103FE0004034F0343134F2342434F4341934F634B7
:103FF0001034F8340934FA340434FC340134FE3417
:020000040001F9
:04000E009C0FFC3F08
:10E000004200410052000000DC000000000001005E
:10E010004900050096002D000000000001004900A5
:10E02000050096002D0000002E0002002E000500C5
:10E0300000000000000000000000000000000000E0
:10E0400000000000000000000000000000000000D0
:10E0500000000000000000000000000000000000C0
:10E0600000000000000000000000000000000000B0
:10E0700000000000000000000000000000000000A0
:10E080000000000000000000000000000000000090
:10E090000000000000000000000000000000000080
:10E0A0000000000000000000000000000000000070
:10E0B0000000000000000000000000000000000060
:10E0C0000000000000000000000000000000000050
:10E0D0000000000000000000000000000000000040
:10E0E0000000000000000000000000000000000030
:10E0F0000000000000000000000000000000000020
:10E10000000000000000000000000000000000000F
:10E1100000000000000000000000000000000000FF
:10E1200000000000000000000000000000000000EF
:10E1300000000000000000000000000000000000DF
:10E1400000000000000000000000000000000000CF
:10E1500000000000000000000000000000000000BF
:10E1600000000000000000000000000000000000AF
:10E17000000000000000000000000000000000009F
:10E18000000000000000000000000000000000008F
:10E19000000000000000000000000000000000007F
:10E1A000000000000000000000000000000000006F
:10E1B000000000000000000000000000000000005F
:10E1C000000000000000000000000000000000004F
:10E1D000000000000000000000000000000000003F
:10E1E000000000000000000000000000000000002F
:10E1F000000000000000000000000000140000000B
:00000001FF
