:1000000081313E2908000800803120007F08F0007F
:1000100021005E189D145D155D0822000C06243930
:100020008C06200093119D30850021004908200096
:100030008E1A01388400003F2100C9004B082200BD
:10004000951801388400003F2100CB004A082200A7
:10005000151801388400003F2100CA00C91E3D2840
:1000600047353E39203E84000330850032081A00AF
:1000700033081A00C70AC60AC801DD124B1B4C28F8
:10008000B71FA328B60F4528B70AB80F4828B90AE2
:10009000B91BA328DD16A328B7013E0803197B2846
:1000A000FD3EE2000A3EE300283034020030353BDA
:1000B000031C7B2830083402B8003108353BB900F6
:1000C000FF300318B8000318B9003008243C84003E
:1000D0003108373B850005303802B6000030393B27
:1000E000B700040836020508373B03187B280408CC
:1000F000B6000508B7004B1EA3283D143B350E394A
:10010000603E84000330850032081A0033081A006C
:10011000BB0ABA0ABC012408A0002508A1002608D1
:10012000A2002708A3004008BF00A401A501A60162
:10013000A701C0013E080319A328023EE000013ECA
:10014000E100023EDF003208B20FA728B30A0339EC
:100150000B00AD28E1280E2926292300A61FA60A98
:1001600024080319C2280C302602031CC228A60149
:1001700025081F39A03E840003308500003F9A0007
:10018000A50AA4032100CC0A5E1CD7289D18C62806
:100190001B0984009E30850084350318850A1200EF
:1001A000A4071200A53D0001A63DA73DC00ADE013F
:1001B000E01FE00B090015309D0020309E005E140A
:1001C00009002300A21FA20A2000911EFA28230082
:1001D000A2011908850020302002031CFA282308F8
:1001E0001F39C03E84000330050685060506803FA2
:1001F000A30AA00A21005E1C04299D18FD281C08E2
:10020000803C031C003CC200DE01E11FE10B090041
:1002100019309D0020309E005E140900E21FE20BA1
:1002200016294A084B06803A090DC40D5E1C1C298C
:100230009D1818291C08C300DE01DF1FDF0B090011
:100240000D309D0020309E005E140900E31FE30B7B
:100250002E294A084B06803A090DC50D5E1C34292B
:100260009D1830291C08C10025309D00A0309E003B
:100270005E14090070082000FF00090088019A310F
:10028000232A8E316E2681312000E4006408FC00B0
:10029000963169268131200027082604250424048C
:1002A00003195329542964290130E4000030E50082
:1002B0000030E6000030E7006408A4026508A53BB2
:1002C0006608A63B6708A73B0130AC070030AD3D90
:1002D000C62CB201B3010C304502031870297129F4
:1002E00076294430E4006408C5007629C408031D5B
:1002F0007A297B29C82A68309A313F22813120002F
:100300002D08FA01FA072C08F901F90788314C2069
:10031000813168309A313F22813120004608E40063
:10032000E5016408F9006508FA0088314C20813144
:1003300068309A313F2281317C082000E400E501D9
:100340006408F9006508FA0088314C208131683072
:100350009A313F2281317D082000E400E5016408E4
:10036000F9006508FA0088314C20813168309A31F3
:100370003F2281310D307C02031CBF29C029E729AF
:100380007C0820004502031CC629C729E7297C08F0
:10039000E4006408C5002B309A313F2281312B30B4
:1003A0009A313F22813120004508E400E5016408CC
:1003B000F9006508FA0088314C2081312B309A31E0
:1003C0003F2281312B309A313F228131E7290D3094
:1003D0007C02031CEC29ED29232A44307C020318FB
:1003E000F229F329232A20004608031DF829232A8D
:1003F00003307D020318FD29FE29232A4608023E08
:10040000E400003003180130E5006508803AE6009A
:1004100080306602031D0E2A7C0864020318112A2C
:10042000122AC22A2A309A313F2281312A309A3147
:100430003F2281312000CC010314CC0DC9010314EB
:10044000C90DC22AC22A0D307C02031C282A292A7F
:10045000552A44307C0203182E2A2F2A552A7C085C
:10046000023E2000E400003003180130E50065087A
:10047000803AE60080306602031D402A4608640286
:100480000318432A442A552A63309A313F22813186
:1004900063309A313F2281312000CC010314CC0D0E
:1004A0000230E4006408C900C22A2000C608031D07
:1004B0005A2A5B2A792A7D08013A0319602A612A9F
:1004C000682A7D08023A031D662A672A792A682A63
:1004D00074309A313F22813174309A313F22813118
:1004E0002000CC010314CC0D0430E4006408C900E2
:1004F000C22AC608031D7D2A7E2AA12A03307D0256
:10050000031C832A842AA12A0A307D020318892A1F
:100510008A2AA12A2D082C04031D8F2A902AA12A99
:100520006B309A313F2281316B309A313F228131D9
:100530002000CC010314CC0D0530E4006408C90090
:10054000C22A02307D02031CA62AA72AC22A0A3028
:100550007D020318AC2AAD2AC22A79309A313F2293
:10056000813179309A313F2281312000CC0103144E
:10057000CC0D0630E4006408C900C22AC22AC22A8F
:10058000C22AC22A7C082000E4006408C600D12CDC
:100590004408031DCC2AD12CCC010314CC0D00300F
:1005A000A7000030A6000030A5000A30A400D12C1E
:1005B000D12CD12CB201B301C4010314C40D0D30F0
:1005C0007C02031CE42AE52A0B2B7C084502031C51
:1005D000EA2AEB2A0B2B7C08E4006408C5002B30C8
:1005E0009A313F2281312B309A313F2281312000D4
:1005F0004508E400E5016408F9006508FA0088315F
:100600004C2081312B309A313F2281312B309A316D
:100610003F2281310B2B21004408FF3A031D112B8F
:10062000122B182C4508FF3A031D172B182B182CDA
:100630002000EE1B1C2B1D2B182C4908031D212B01
:10064000002C6A309A313F22813120004508E400B5
:10065000E5016408F9006508FA0088314C20813111
:100660006A309A313F22813120002D08FA01FA07C1
:100670002C08F901F90788314C2081316A309A3110
:100680003F22813120004608E400E5016408F900BA
:100690006508FA0088314C2081316A309A313F2256
:1006A000813120004508443A031D572B582B892BD4
:1006B0004608023EE400003003180130E5006508FA
:1006C000803AE60080306602031D682B7C086402D5
:1006D00003186B2B6C2B892B003020002D02C830A7
:1006E00003192C020318752B762B182C6D309A31B8
:1006F0003F22813102302000E4006408CC00003049
:10070000A7000230A600BF30A5002030A400182C9E
:10071000182C44302000450203188F2B902BB62B49
:100720004608023EE400003003180130E500650889
:10073000803AE60080306602031DA02B7C0864022C
:100740000318A32BA42BB62B3D309A313F228131C5
:1007500002302000E4006408CC000030A700023022
:10076000A600BF30A5002030A400182C7C08023E53
:100770002000E400003003180130E5006508803AED
:10078000E60080306602031DC72B4608640203188A
:10079000CA2BCB2B182C0D307C02031CD02BD12B59
:1007A000DC2B200045087C020318D72BD82BDC2B30
:1007B0007C08E4006408C5004430200045020318AA
:1007C000E22BE32B182C2D309A313F22813120006F
:1007D0004908053A0319ED2BEE2B182C0230E400E2
:1007E0006408CC000030A7000230A600BF30A5008E
:1007F0002030A400182C182C182C182C182C182C6D
:100800000230E4006408CC000030A7000230A600EB
:10081000BF30A5002030A4001430F9000030FA00E9
:1008200088314C2081313B309A313F228131182C64
:100830007C082000E4006408C600D12CC901AC018A
:10084000AD0173309A313F2281312000C808031D69
:100850002A2C2B2C342C2708260425042404031DC1
:10086000322C332CA12C342CB201B3014808E40003
:100870006408CA000330E4006408CC000030A7001C
:100880000030A6000030A5003230A400D12CA12CED
:10089000CB01B201B301D12CCB01B201B301D12CF8
:1008A0000230E4006408CB00B830B2000B30B30073
:1008B000D12C0230E4006408CB00A030B2000F302D
:1008C000B300D12C0330E4006408CB007030B200D8
:1008D0001730B300D12C0430E4006408CB00403062
:1008E000B2001F30B300D12C0530E4006408CB0007
:1008F0001C30B2002530B300D12C0630E40064086F
:10090000CB000430B2002930B300D12C0730E40012
:100910006408CB00E030B2002E30B300D12C073099
:10092000E4006408CB00BC30B2003430B300D12CFA
:10093000CB010314CB0DBD30B2003430B300D12C49
:10094000D12C7D08FF3E031C482C84000A30040291
:100950000318482C98310435003E8200D12CD12C4C
:10096000B201B30171309A313F2281312000270852
:10097000260425042404031DBE2CBF2CD12C0430D6
:10098000E4006408CC00D12CD12CD12C4C08003AC6
:1009900003196929013A0319DA2A033A03191E2CAB
:1009A000B02C08009C311A248431003A0319D92C48
:1009B000DA2CE42C8C31E32484318031032084311F
:1009C00092314D228431E42C9531B92584312000B7
:1009D000471CEB2CEC2C282D2030F3000430F400C5
:1009E0000730F9007908F50023309B312F2384313B
:1009F000003A0319FC2CFD2CCB2E2830F3000430D8
:100A0000F4001530F9007908F50038309B312F23B8
:100A10008431003A03190D2D0E2DCB2E4030F300FA
:100A20000430F4001C30F9007908F5008F309B3158
:100A30002F238431003A03191E2D1F2DCB2EFE309B
:100A4000F90079082000C705CB2ECB2ECB2ECB2E5C
:100A5000C71C2B2D2C2D682DA030F3000430F40082
:100A60000730F9007908F5002A309B312F238431B3
:100A7000003A03193C2D3D2DCB2EA830F300043055
:100A8000F4000730F9007908F50031309B312F234D
:100A90008431003A03194D2D4E2DCB2EB030F3008A
:100AA0000430F4000E30F9007908F50054309B3121
:100AB0002F238431003A03195E2D5F2DCB2EFD309C
:100AC000F90079082000C705CB2ECB2ECB2ECB2EDC
:100AD000471D6B2D6C2DA82D2030F3000530F40040
:100AE0000730F9007908F5001C309B312F23843141
:100AF000003A03197C2D7D2DCB2E2730F3000530D5
:100B0000F4000930F9007908F50086309B312F2375
:100B10008431003A03198D2D8E2DCB2E3030F30009
:100B20000530F4001C30F9007908F50062309B3183
:100B30002F238431003A03199E2D9F2DCB2EFB309D
:100B4000F90079082000C705CB2ECB2ECB2ECB2E5B
:100B5000C71DAB2DAC2DE72D5030F3000530F40050
:100B60000730F9007908F5007E309B312F2384315E
:100B7000003A0319BC2DBD2DCB2E5730F3000530A4
:100B8000F400F5010314F50D85309B312F238431DA
:100B9000003A0319CC2DCD2DCB2E5830F300053063
:100BA000F4000730F9007908F5004D309B312F2310
:100BB0008431003A0319DD2DDE2DCB2EF730F900FC
:100BC00079082000C705CB2ECB2ECB2ECB2E471E6F
:100BD000EA2DEB2D272EA030F3000530F400043071
:100BE000F9007908F500D7309B312F238431003A82
:100BF0000319FB2DFC2DCB2EA430F3000530F4009F
:100C00000430F9007908F500DF309B312F2384315F
:100C1000003A03190C2E0D2ECB2EA830F300053010
:100C2000F4000430F9007908F500D3309B312F230C
:100C30008431003A03191D2E1E2ECB2EEF30F90001
:100C400079082000C705CB2ECB2ECB2ECB2EC71E6E
:100C50002A2E2B2E792E2030F3000630F40004309B
:100C6000F9007908F500AB309B312F238431003A2D
:100C700003193B2E3C2ECB2E2430F3000630F4001B
:100C80002430F9007908F500AF309B312F238431EF
:100C9000003A03194C2E4D2ECB2E5030F300063067
:100CA000F4000230F9007908F500E5309B312F237C
:100CB0008431003A03195D2E5E2ECB2E5430F300A2
:100CC0000630F4001230F9007908F500E7309B3166
:100CD0002F238431003A03196E2E6F2ECB2EDF3076
:100CE000F90079082000C705CB2ECB2ECB2ECB2EBA
:100CF000CB2E471F7C2E7D2EA72E5830F3000630BA
:100D0000F4000430F9007908F500DB309B312F2323
:100D10008431003A03198D2E8E2ECB2E5C30F300D9
:100D20000630F4000230F9007908F500E3309B3119
:100D30002F238431003A03199E2E9F2ECB2EBF30D5
:100D4000F90079082000C705CB2ECB2ECB2EC71F6C
:100D5000AA2EAB2EC22E5130F3000030F400F50164
:100D60000314F50DFE309B312F238431003A031913
:100D7000BA2EBB2ECB2E7F30F90079082000C70594
:100D8000CB2ECB2EC701CB2ECB2ECB2ECB2ECB2ECC
:100D9000CB2ECB2ECB2E08002000E60066080C3EA2
:100DA00086008701403FD400413FD50066080E3ED3
:100DB00086008701403FD600413FD7005708803A60
:100DC000D8005508803A5802031DE82E54085602F0
:100DD0000318EB2EEC2EF22E2000D31FF02EF12E56
:100DE000452FF22E200066080E3E86008701403F08
:100DF000D400413FD50066080C3E86008701403F85
:100E0000D600413FD7005708803AD8005508803AAD
:100E10005802031D0D2F540856020318102F112FCE
:100E2000172F2000D31B152F162F452F172F20000B
:100E30006608023E86008701403FD400413FD5004E
:100E40005408F1005508F200890D893B8909F30027
:100E5000F4005208F5005308F600890D893B890912
:100E6000F700F8009A31F822863120006608083E23
:100E7000860087017108810741317208813D413147
:100E80007308813D41317408813D6608083E860043
:100E90008701403FD400413FD500423FD600433F49
:100EA000D7006608063E86008701403FD800413FD4
:100EB000D9005808DA005908DB000030DB1BFF308E
:100EC000DC00DD00DA09DB09DC09DD09DA0A0319D7
:100ED000DB0A0319DC0A0319DD0A660886008701AC
:100EE000403FDE00413FDF005E08F1005F08F20096
:100EF000890D893B8909F300F4005208F500530875
:100F0000F600890D893B8909F700F8009A31F8222B
:100F1000863171082000E0007208E1007308E200E9
:100F20007408E3006608043E86008701403FE40041
:100F3000413FE5006408F1006508F200890D893B36
:100F40008909F300F4005208F5005308F600890DF2
:100F5000893B8909F700F8009A31F8228631710837
:100F60002000E0077208E13D7308E23D7408E33DAC
:100F70006008DA076108DB3D6208DC3D6308DD3D9F
:100F80005A08D4075B08D53D5C08D63D5D08D73DBF
:100F900066080C3E860087015408C03F5508C13FD3
:100FA0005608C23F5708C33F66080E3E86008701B9
:100FB000403FD400413FD50066080C3E86008701C3
:100FC0005408C03F5508C13F6608063E86008701A9
:100FD0005208C03F5308C13FED2F0800F2007208CD
:100FE00023009100710893001513951315158B13A9
:100FF00055309600AA30960095148B1715110800ED
:10100000640080010131890B01280034F601F701E9
:101010007208710403190D280E284428F8010314DE
:10102000F80D1C280130F135F20D890B1328013021
:10103000F5007508F8071C28F21F1F282028122821
:10104000222822280130F635F70D890B2328720853
:101050007402031D2D2871087302031C30283128E7
:1010600037287108F3027208F43B761437280130F0
:10107000F236F10C890B38280130F802031D4128A3
:1010800042282228442844287708F201F2077608EB
:10109000F101F1074B280800FB0127307A021030DC
:1010A00003197902031C552856287F281030F100B7
:1010B0002730F2007A08F401F4077908F301F30706
:1010C0008831062088317108303E9A313F228831BC
:1010D0001030F1002730F2007A08F401F4077908A3
:1010E000F301F3079B31DC2388317208FA01FA0718
:1010F0007108F901F907FB010314FB0D7F28FB08B8
:10110000031D832884288E2803307A02E8300319CF
:101110007902031C8C288D28B7288E28E830F1002E
:101120000330F2007A08F401F4077908F301F307B9
:101130008831062088317108303E9A313F2288314B
:10114000E830F1000330F2007A08F401F40779087E
:10115000F301F3079B31DC2388317208FA01FA07A7
:101160007108F901F907FB010314FB0DB728FB080F
:10117000031DBB28BC28C62800307A02643003193E
:101180007902031CC428C528EF28C6286430F10062
:101190000030F2007A08F401F4077908F301F3074C
:1011A0008831062088317108303E9A313F228831DB
:1011B0006430F1000030F2007A08F401F407790895
:1011C000F301F3079B31DC2388317208FA01FA0737
:1011D0007108F901F907FB010314FB0DEF28FB0867
:1011E000031DF328F428FE2800307A020A30031980
:1011F0007902031CFC28FD282429FE280A30F1006E
:101200000030F2007A08F401F4077908F301F307DB
:101210008831062088317108303E9A313F2288316A
:101220000A30F1000030F2007A08F401F40779087E
:10123000F301F3079B31DC2388317208FA01FA07C6
:101240007108F901F90724297908303E9A313F22C3
:101250008831080001302000E00060082100C80744
:1012600032304802031C352936294129323020000A
:10127000E00060082100C800C6012000B001B101F3
:10128000FC29033021004602031C47294829FC2978
:101290001E304602031C4D294E2955291E302000C0
:1012A000E00060082100C60055294608FE3E2000E7
:1012B000E0006008E60021004708FF3E2000E00053
:1012C0006008E800E701043066020318682969290C
:1012D0008E296608E0006008E70068081F390907E2
:1012E000203E8600033087006703FF3A68071F39F6
:1012F0000907203E840003308500003FE000013FE5
:10130000E100E009E109E00A0319E10A403F600752
:10131000E400413F613DE500C9298E290430E60221
:101320000430E0006008E70768081F390907203E1D
:101330008600033087006703FF3A68071F390907F3
:10134000203E840003308500003FE000013FE100C3
:10135000E009E109E00A0319E10A403F6007E400FF
:10136000413F613DE500043066020318B829B92900
:10137000BB29C929C9290630650240300319640216
:10138000031CC329C4298E29C929C9298E298E295C
:10139000C9296408D2006508D300D401D5016708C3
:1013A000E000E101E201E3016308F4006208F300F8
:1013B0006108F2006008F1000030F8000930F70021
:1013C0002730F600C030F5009A31F82289317408D0
:1013D0002000D9007308D8007208D7007108D60021
:1013E00091318621893120005308B101B10752089B
:1013F000B001B007FC29FC2921003E082000E000D4
:10140000E1012100350820006102031D0B2A2100A3
:1014100034082000600203180E2A0F2A192A01300E
:1014200031022C3003193002031C172A182A1D2AF6
:10143000192A2100AC01AD013B2A01302100AC0783
:101440000030AD3D01302D022C3003192C02031C5D
:101450002A2A2B2A3B2A2C2A2000C808031D312ABD
:10146000322A3B2A0730C800E0006008C8003B2A47
:101470003B2A3B2A3B2A080020003C08031D412A46
:10148000442A0130BC02442A330832040319492A91
:101490004A2A502A2100BE08031D4F2A502A832BB6
:1014A0002000BB018B132100B401B5018B178D2BDC
:1014B0008D2B832B8B132100B401B5018B17602A70
:1014C000310830040319652A662A8D2B2000330861
:1014D000AB01AB073208AA01AA075030A2000030C6
:1014E000A300A001A101D0302100CD000730CE0023
:1014F0003230CF000030D000F430D1000130D200C3
:10150000D301D4013C30D7000030D800D501D6013A
:101510005808DC01DC075708DB01DB075808DA0153
:10152000DA075708D901D90701302000E70067081A
:10153000BB07C830E7006708BC008D2B8D2B21004E
:101540003D08031DA42A8D2B200033082B06031D04
:10155000AB2A32082A060319AE2AAF2ACE2A33084C
:101560002B02031DB52A32082A020318B82AB92A09
:10157000BE2AC830E7006708BC00BE2A3308AB01AA
:10158000AB073208AA01AA0721005C082000A301CA
:10159000A30721005B082000A201A207323033021A
:1015A000C83003193202031CD62AD72AE92A193077
:1015B0003C02031CDC2ADD2AE22A1930E700670816
:1015C000BC00E22A321CE52AE62AE92ABC01E92A03
:1015D000E92A21003108F201F2073008F101F10790
:1015E0003630F3000030F4009A319D228A317108C0
:1015F0002000E7007208E8000630E836E70C890BA7
:10160000FD2A6708EB006808EC000030A0070030F6
:10161000A13D1030A23D0030A33D2308803AE700F1
:101620006C08803A6702031D172B6B082202031C0B
:101630001A2B1B2B222B20006C08A301A3076B087D
:10164000A201A20720003009E7003109E800E70AFB
:101650000319E80A32086707E9003308683DEA0021
:10166000BC08031D342B352B3A2BEA1F382B392BA2
:10167000402B3A2BF4302100CD000130CE00462B18
:10168000D0302100CD000730CE00462B20006A0864
:10169000D301D3076908D201D207CD308631CC26D9
:1016A0008A312000321C552B562B652B2830F10037
:1016B0000030F2006C08F401F4076B08F301F30743
:1016C000CD309C315E248A31762B2830F1000030F9
:1016D000F20020002308F401F4072208F301F307C5
:1016E000CD309C315E248A31762B762B8B132100F2
:1016F0005C08B501B5075B08B401B4078B178D2BE7
:101700008D2B8D2B8D2B20003B08003A03195A2A74
:10171000013A03199F2A8D2B8D2B08002000C70149
:101720001E30F70077082100E400E501E601E7013B
:10173000E8012030F2000430F3000730F7007708AA
:10174000F40023309A317D228B312830F2000430AE
:10175000F3001530F7007708F40038309A317D2215
:101760008B314030F2000430F3001C30F700770872
:10177000F4008F309A317D228B31A030F20004309A
:10178000F3000730F7007708F4002A309A317D2201
:101790008B31A830F2000430F3000730F7007708EF
:1017A000F40031309A317D228B31B030F2000430B8
:1017B000F3000E30F7007708F40054309A317D22A0
:1017C0008B312030F2000530F3000730F700770846
:1017D000F4001C309A317D228B312730F200053025
:1017E000F3000930F7007708F40086309A317D2243
:1017F0008B313030F2000530F3001C30F7007708F1
:10180000F40062309A317D228B315030F200053085
:10181000F3000730F7007708F4007E309A317D221C
:101820008B315730F2000530F300F4010314F40D4E
:1018300085309A317D228B315830F2000530F3002B
:101840000730F7007708F4004D309A317D228B3154
:10185000A030F2000530F3000430F7007708F40000
:10186000D7309A317D228B31A430F2000530F3005D
:101870000430F7007708F400DF309A317D228B3195
:10188000A830F2000530F3000430F7007708F400C8
:10189000D3309A317D228B312030F2000630F300B4
:1018A0000430F7007708F400AB309A317D228B3199
:1018B0002430F2000630F3002430F7007708F400FB
:1018C000AF309A317D228B315030F2000630F30078
:1018D0000230F7007708F400E5309A317D228B3131
:1018E0005430F2000630F3001230F7007708F400AD
:1018F000E7309A317D228B315830F2000630F30008
:101900000430F7007708F400DB309A317D228B3108
:101910005C30F2000630F3000230F7007708F40084
:10192000E3309A317D228B315130F2000030F300E8
:10193000F4010314F40DFE309A317D228B31A8306E
:10194000F7007708F1000430F8007808F200A030C2
:101950009B31A0238B31F9007908FA00FA1FB12CD2
:10196000B22CC62C2B002B08F7007708A3002A08FE
:10197000F7007708A2002908F7007708A1002808D7
:10198000F7007708A00020004716E22C7A08803A7A
:101990007F3E031CCC2CCD2CE22C2B002308F7001F
:1019A0007708AB002208F7007708AA002108F700A3
:1019B0007708A9002008F7007708A800200047163C
:1019C000E22CE22C0800F1010314F10D4E309B31A2
:1019D00067238C3120004B0840060319F02CF12CB2
:1019E000F72C4B08F7007708C000BE016D2E0230BF
:1019F0003E020318FC2CFD2C022D0130F700770865
:101A0000BE076D2E4B083F060319072D082D0D2E1E
:101A10000330F7007708F1004E309A31C1228C3143
:101A200020003F08031D152D5A2D08303F020318D2
:101A30001A2D1B2D5A2D2830F1000430F2004E30A3
:101A4000F3000030F4000330F7007708F5009A3116
:101A50005D228C311E3020004E020318302D312DB6
:101A6000432D4E08F7007708F1003F08F8000130D9
:101A7000F835FF3E031D382D7835FC3E403E913150
:101A800032218C31572D20004E08E23EF7007708B6
:101A9000F1003F08F8000130F835FF3E031D4C2DE2
:101AA0007835FC3E403E913132218C31572D20005B
:101AB00047145A2D4B08F7007708BF000330F70092
:101AC0007708CE00CF01D0013F08031D682D6D2E91
:101AD00008303F0203186D2D6E2D6D2E280025084D
:101AE000F7007708A6002408F7007708A500230868
:101AF000F7007708A4002208F7007708A300210860
:101B0000F7007708A2002008F7007708A10020005E
:101B10003F08F03EF70077082800A0003A30F100B7
:101B20000430F2003730F3000430F4000330F700E3
:101B30007708F5009A315D228C313730F10004309E
:101B4000F2003430F3000430F4000330F70077087B
:101B5000F5009A315D228C313430F1000430F2000E
:101B60003130F3000430F4000330F7007708F5005B
:101B70009A315D228C313130F1000430F2002E3088
:101B8000F3000430F4000330F7007708F5009A31D1
:101B90005D228C312E30F1000430F2002B30F30046
:101BA0000430F4000330F7007708F5009A315D2225
:101BB0008C312B30F1000430F2002830F300043077
:101BC000F4000330F7007708F5009A315D228C317C
:101BD0002830F1000430F2004E30F3000030F40001
:101BE0000330F7007708F5009A315D228C3103301D
:101BF000F7007708F10020003F08F8000130F835C1
:101C0000FF3E031DFF2D7835FC3E403E91313221D1
:101C10008C31200047146D2E6D2E3F08031D112EB0
:101C20006D2E08303F020318162E172E6D2E4E080B
:101C3000031D1B2E222E4E081E3A031D202E212E80
:101C40006D2E222E2830F1000430F2004E30F300C9
:101C50000030F4000330F7007708F5009A315D2278
:101C60008C312000D008031D362E372E542ECF087D
:101C7000031D3B2E3C2E542E4E081E3A031D412EB2
:101C8000422E542E1B30F7007708F1003F08F80071
:101C90000130F835FF3E031D492E7835FC3E403EAD
:101CA000913132218C31672E1E30F7007708F10018
:101CB00020003F08F8000130F835FF3E031D5C2E80
:101CC0007835FC3E403E913132218C31672E200028
:101CD00047146D2E6D2E6D2E6D2E08009931D32177
:101CE0008E31F10071082000E20014306202031806
:101CF0007A2E7B2E962E6203FF3A143EF100710875
:101D0000E2002100430820006207F1007108E300AF
:101D1000210043082000630203188F2E902EAE2E60
:101D2000FF30F1007108E300AE2EAE2E6208EC3EEB
:101D3000F1007108E2006203FF3A21004307F1005D
:101D400071082000E3006308210043020318A92E54
:101D5000AA2EAE2E2000E301AE2EAE2E2100BE082C
:101D6000031DB32EB42EB62EFD01B62E0C3020006E
:101D700063020318BC2EBD2EC22E0A30F10071087A
:101D8000FD00FD2F293063020318C72EC82ECC2E6C
:101D9000FD010314FD0DFD2F2B3063020318D12E1E
:101DA000D22EE62E02307D02031CD72ED82EDD2E39
:101DB0000230D2000030D300E12E0130D2000030DA
:101DC000D3005208F1007108FD00FD2F5D30630261
:101DD0000318EB2EEC2EF12E0230F1007108FD00FD
:101DE000FD2F5F3063020318F62EF72E0B2F033002
:101DF0007D02031CFC2EFD2E022F0330D400003088
:101E0000D500062F0230D4000030D5005408F10070
:101E10007108FD00FD2F743063020318102F112F7D
:101E2000162F0330F1007108FD00FD2F763063029C
:101E300003181B2F1C2F302F04307D02031C212F71
:101E4000222F272F0430D6000030D7002B2F03304D
:101E5000D6000030D7005608F1007108FD00FD2FB4
:101E6000883063020318352F362F3B2F0430F100E2
:101E70007108FD00FD2F8A3063020318402F412FA7
:101E8000552F05307D02031C462F472F4C2F053060
:101E9000D8000030D900502F0430D8000030D900CD
:101EA0005808F1007108FD00FD2F9D3063020318F2
:101EB0005A2F5B2F602F0530F1007108FD00FD2FB8
:101EC0009F3063020318652F662F7A2F06307D023C
:101ED000031C6B2F6C2F712F0630DA000030DB00F3
:101EE000752F0530DA000030DB005A08F100710868
:101EF000FD00FD2FB730630203187F2F802F852F41
:101F00000630F1007108FD00FD2FB930630203189F
:101F10008A2F8B2F9F2F07307D02031C902F912F2C
:101F2000962F0730DC000030DD009A2F0630DC00F1
:101F30000030DD005C08F1007108FD00FD2FD0309D
:101F400063020318A42FA52FAA2F0730F1007108F0
:101F5000FD00FD2FD23063020318AF2FB02FC42F26
:101F600008307D02031CB52FB62FBB2F0830DE00D2
:101F70000030DF00BF2F0730DE000030DF005E08DA
:101F8000F1007108FD00FD2FEF3063020318C92F27
:101F9000CA2FCF2F0830F1007108FD00FD2FF1305E
:101FA00063020318D42FD52FE92F09307D02031CBB
:101FB000DA2FDB2FE02F0930E0000030E100E42FC2
:101FC0000830E0000030E1006008F1007108FD0019
:101FD000FD2F0930F1007108FD00FD2FFD2FFD2FB1
:101FE000FD2FFD2FFD2FFD2FFD2FFD2FFD2FFD2F91
:101FF000FD2FFD2FFD2FFD2FFD2F6308FF2F080064
:1020000000347F347F347F347F347F347F347F34B7
:102010007F347F347F347F347F347F347F347F3428
:102020007F347F347F347F347F347F347F347F3418
:102030007F347F347F347F347F347F347F347F3408
:102040007F347F347F347F347F347F347F347F34F8
:102050007F347F347F347F347F347F347F347F34E8
:102060007F347F347F347F347F347F347F347F34D8
:102070007F347F347F347F347F347F347F347F34C8
:102080007F347E347D347C347B347A347A347934D2
:1020900078347734773476347534753474347334F3
:1020A000733472347134713470346F346F346E340D
:1020B0006D346D346C346B346B346A346A34693427
:1020C000683468346734673466346634653464343D
:1020D0006434633463346234623461346134603450
:1020E00060345F345E345E345D345D345C345C3463
:1020F0005B345B345A345A34593459345834583474
:102100005734573456345634553455345434543483
:102110005334533452345234513451345034503493
:102120004F344F344E344E344D344D344C344C34A3
:102130004B344B344A344A344934493448344834B3
:1021400047344734463446344534453444344434C3
:1021500043344334423442344134413440344034D3
:102160003F343F343E343E343D343D343C343C34E3
:102170003B343B343A343A343934383438343734F5
:102180003734363436343534353434343334333408
:10219000323432343134303430342F342E342E341F
:1021A0002D342D342C342B342A342A342934283439
:1021B0002834273426342534253424342334223457
:1021C0002134213420341F341E341D341C341B347C
:1021D0001A341934183417341534143413341234AF
:1021E00010340F340D340C340A34083406340434FB
:1021F000023400340034003400340034003400343D
:022200000034A8
:10220600080022009D019E011B3021008C00113028
:1022160023008C0024008C0127008C013030210023
:102226008D0023008D0124008D01203027008D00B4
:10223600EF3021008E00CF3023008E0024008E0167
:1022460027008E01220097019801990182309100A2
:1022560003309200A2309300013094000800F3008E
:102266007108F2007308860004308700720881073F
:1022760073088600043087003C300102031C4429A1
:102286004529852973088600043087003C30810281
:102296000130F2007308013E8600043087007208A0
:1022A60081077308013E8600043087003C30010236
:1022B600031C5E295F2985297308013E86000430C8
:1022C60087003C3081020130F2007308023E86002E
:1022D60004308700720881077308023E86000430C6
:1022E60087008108031D7829792985290130F200A4
:1022F6007308033E8600043087007208810785292B
:1023060085298529080000302000DE000030DD0028
:102316000030DC000030DB0055085404530452043E
:10232600031996299729DF29DF010314DF0DA72951
:102336000130D235D30DD40DD50D890B9C29013032
:10234600DA005A08DF07A729D51FAA29AB299B2936
:10235600AD29AD290130DB35DC0DDD0DDE0D890B38
:10236600AE2955085902031DC22954085802031DF7
:10237600C22953085702031DC22952085602031CDC
:10238600C529C629D0295208D6025308D73B540876
:10239600D83B5508D93B5B14D0290130D536D40C2F
:1023A600D30CD20C890BD1290130DF02031DDC29A5
:1023B600DD29AD29DF29DF295E08D5005D08D400B7
:1023C6005C08D3005B08D200E82908007308F40013
:1023D60071088600720887007408810771088600F4
:1023E600720887003C300102031CFA29FB294C2A9B
:1023F60071088600720887003C3081020130F400C3
:102406007108013EF5000030723DF6007508860041
:1024160076088700740881077108013EF4000030D1
:10242600723DF50074088600750887008108031D53
:102436001D2A1E2A4C2A0130F4007108023EF500BE
:102446000030723DF600750886007608870074082D
:1024560081077108023EF4000030723DF5007408F1
:102466008600750887008108031D3A2A3B2A4C2AF4
:102476000130F4007108033EF5000030723DF600AD
:102486007508860076088700740881074C2A4C2A4E
:102496004C2A08002000CB08031D522A532A592A29
:1024A600C1016E08F1007108C200B52A6E08F1007C
:1024B600F201F11BF2037208803A803C031D662A82
:1024C60071082A0057020318692A6A2A722A20000C
:1024D6006E08F10071082A00D7002000C7152000F9
:1024E6004208803AF1006E08803AF10203187C2A0D
:1024F6007D2A822A6E08F1007108C200822A210014
:10250600E408031D872A882AB52A2000C108031D6E
:102516008D2A8E2AAB2AC1010314C10D2A005D083B
:10252600F1007108DE005C08F1007108DD005B084F
:10253600F1007108DC005A08F1007108DB00590847
:10254600F1007108DA005808F1007108D900AB2AC9
:1025560020004208F10071082A00D8002000C715A3
:10256600B52AB52A08002100BE08031DBB2ABC2ACD
:10257600C32AAE01AF012000B601B501B4013E2B5E
:1025860021003D08031DC82A3E2B4108F100F20137
:102596007108AE077208AF3D02304102031CD42A0F
:1025A600D52ADC2AFE304102031CDA2ADB2AE12A7C
:1025B600DC2A0130F10071082000B6070130F10075
:1025C60071082000B40704303402031CEB2AEC2AFD
:1025D6003E2BB608031DF02AF12A1D2BB50121005A
:1025E6002F08F2002E08F1000230F236F10C890BAA
:1025F600F82A7108013E840090300318013E8500D8
:102606000008F30073082000EE006E08803A183EBA
:10261600031C0E2B0F2B352B102BC808031D142B58
:10262600152B352B0230F1007108C800352B352BE0
:10263600352B352B0130F1007108B5070A3035020C
:10264600031C262B272B352B282BC808031D2C2BC8
:102656002D2B352B0230F1007108C800352B352B98
:10266600352B352B2100AE01AF012000B601B40198
:102676003E2B3E2B3E2B080000302000DE000030B3
:10268600DD000030DC000030DB000030D60000301A
:10269600D5000030D4000030D3000030DA0000301E
:1026A600D9000030D8000030D7001030F50075088A
:1026B600D2005D2B0130DB35DC0DDD0DDE0D890B27
:1026C6005E2B0130D735D80DD90DDA0D890B652B68
:1026D600F41F6E2B6F2B712B5714712B0130F135B4
:1026E600F20DF30DF40D890B722B0130D735D80D91
:1026F600D90DDA0D890B792BF41F822B832B852BB1
:102706005714852B0130F135F20DF30DF40D890BBD
:10271600862B5B08F5005C08F6005D08F7005E088E
:10272600F8000130F535F60DF70DF80D890B952BF0
:1027360001307504D30000307604D40000307704ED
:10274600D50000307804D60056085A02031DB52B72
:1027560055085902031DB52B54085802031DB52B05
:1027660053085702031CB82BB92BC32B5308D702A7
:102776005408D83B5508D93B5608DA3B5B14C32BA3
:102786000130D202031DC82BC92B5D2BCA2B5C0856
:10279600F201F2075B08F101F107D12B08000130C5
:1027A600F10071082100BC0705303C02031CDC2B3C
:1027B600DD2BE62B0530F1007108BC00BA01BE0125
:1027C600B001B101442C05303A02031CEB2BEC2B73
:1027D600442C0530F1007108BA003B08FF3EF100B9
:1027E6007108F500750807390907603E8600033051
:1027F60087007508FC3E07390907603E84000330F0
:102806008500003FF100013FF200F109F209F10AEB
:102816000319F20A403F7107F300413F723DF4008D
:102826000330F436F30C890B142C7308F600740885
:10283600F700013077022D3003197602031C242C91
:10284600252C442C01307702F43003197602031844
:102856002D2C2E2C442C7708B101B1077608B00137
:10286600B0077708F2007608F1000330F236F10C73
:10287600890B392C7108F3007308BE00442C442CD4
:10288600442C3E08031D482C4B2CA801A901682C9A
:102896000130A8070030A93D013029022C30031968
:1028A6002802031C572C582C682C592C2000C808C9
:1028B600031D5E2C5F2C682C0A30C800F1007108DD
:1028C600C800682C682C682C682C08000130200091
:1028D600D2005208BA0732303A02031C732C742C09
:1028E6000F2DBA017D08D200D3015208F900530812
:1028F600FA0088314C2094312C309A313F229431A1
:10290600210043082000D200D3015208F9005308E1
:10291600FA0088314C2094312C309A313F22943180
:10292600210041082000D200D3015208F9005308C3
:10293600FA0088314C2094312C309A313F22943160
:1029460020003308FA01FA073208F901F90788313D
:102956004C2094312C309A313F229431200031089A
:10296600FA01FA073008F901F90788314C20943149
:102976002C309A313F22943120002F08FA01FA07B1
:102986002E08F901F90788314C2094312C309A3100
:102996003F22943120006E08F900FA01F91BFA0370
:1029A60088314C2094312C309A313F229431FE30BC
:1029B6009931DD2194312000D200D3015208F9006B
:1029C6005308FA0088314C2094312C309A313F223A
:1029D600943120004A08D200D3015208F900530866
:1029E600FA0088314C2094312C309A313F229431B0
:1029F60020004C08D200D3015208F9005308FA000F
:102A060088314C2094310D309A313F2294310A306E
:102A16009A313F2294310F2D08008B13F03021009C
:102A2600990098011130970022009D019E01043003
:102A3600F10071082100DD00043022008C001B30FB
:102A460021008C00113023008C0024008C0127000B
:102A56008C01E03022008D00303021008D002300F3
:102A66008D0124008D01203027008D0022008E016B
:102A7600EF3021008E00CF3023008E0024008E011F
:102A860027008E01220097019901980103309200D8
:102A96008230910001309400A2309300A0302100D2
:102AA6009E0025309D00DE010314DE0DFF30F1008F
:102AB6007108E000FF30F1007108E100FF30F1001D
:102AC6007108DF00C201C301C1010030A700003058
:102AD600A6000030A5000030A400C0010030A3000D
:102AE6000030A2000030A1000030A000BF010A3073
:102AF60023009F001F309B0003309C009D01043083
:102B06009E009D171D169E16A601A401A701A501EC
:102B1600A201A001A301A101200099013030980073
:102B2600313028009D0005309E0020009101920161
:102B360093019401210091019201083093009401C0
:102B46000B17CC01B201B301FF30F1007108E200AE
:102B5600FF30F1007108E300C401C501C901CB01D2
:102B6600CA01B801B901B601B701080020004A0838
:102B7600031DBE2DC42D0A304A02031CC32DC42DCD
:102B8600C62DBD01682E3D084A060319CB2DCC2D56
:102B9600682E4A08F7007708BD002A002508F700C6
:102BA6007708A6002408F7007708A5002308F70091
:102BB6007708A4002208F7007708A3002108F70089
:102BC6007708A2002008F7007708A10020004A082D
:102BD600E03EF70077082A00A0000130F700200049
:102BE6004A08FF3E273E86000530870077088107A2
:102BF6004830F1000530F2004430F3000530F400AF
:102C06000430F7007708F5009A315D22953144309B
:102C1600F1000530F2004030F3000530F4000430D6
:102C2600F7007708F5009A315D2295314030F100C2
:102C36000530F2003C30F3000530F4000430F700B4
:102C46007708F5009A315D2295313C30F100053068
:102C5600F2003830F3000530F4000430F70077084E
:102C6600F5009A315D2295313830F1000530F200D9
:102C76003430F3000530F4000430F7007708F5002F
:102C86009A315D2295313430F1000530F200303052
:102C9600F3000530F4000430F7007708F5009A31A8
:102CA6005D2295313030F1000530F200E530F30059
:102CB6000030F4000430F7007708F5009A315D2201
:102CC600953120004715682E682E08002000290837
:102CD600280403196F2E702E232F0130A80200300E
:102CE600A93B232F232F21003E08031D7B2E2D2FCA
:102CF6000130F30073082000B9070630A800003041
:102D0600A9002D2F2D2F29082804031D8B2E8C2E6C
:102D16002D2F7D080A3A031D912E922E972E0130F3
:102D2600F3007308B9072D2FFF30F3007308B900BD
:102D36002D2F2D2F2D2F7D08013A031DA32EA42EF6
:102D46002D2F0130F3007308B9072C30A80001308D
:102D5600A9002D2F2D2F7D08013A0319B32EB42E6D
:102D6600B92EFF30F3007308B9002D2F0030290269
:102D7600643003192802031CC12EC22ECF2E210057
:102D86004308F30073082000B80021004308F3004D
:102D960073082000B7002D2F3808210043020318BE
:102DA600D52ED62EDB2E4308F30073082000B8007C
:102DB60021004308200037020318E22EE32EEA2EF4
:102DC60021004308F30073082000B700EA2E290803
:102DD6002804031DEF2EF02E2D2F0A303802031C77
:102DE600F52EF62EFD2E1E303702031CFB2EFC2E72
:102DF600022FFD2EFF30F3007308B9002D2F01308E
:102E0600F3007308B9072D2F2D2F2D2F2D2F2D2FC2
:102E160038083707F300F401F40D0130FF00740D94
:102E2600F40CF30CFF0B122F73089931E72196313E
:102E3600FF30F30073082000B9002D2F2D2F2D2F02
:102E4600390884000530040203182D2F9831043503
:102E5600143E820008002100BE08031D332F342FC4
:102E6600382F2000AE01AF01D42F21003D08031DED
:102E76003D2FD42F3F08031D412FD42F20082000BB
:102E8600E000210021082000E100210022082000A6
:102E9600E200210023082000E3000130E035E10DC7
:102EA600E20DE30D890B512F6308E7006208E60087
:102EB6006108E5006008E40021003F082000E0000A
:102EC600E101E201E3016308EB006208EA00610840
:102ED600E9006008E8002100BF0120006708F4004F
:102EE6006608F3006508F2006408F10093313F2399
:102EF600973171082000E4007208E500E601E70159
:102F06006808E0006908E1006A08E2006B08E3006F
:102F16001030E035E10DE20DE30D890B8C2F6308CF
:102F2600F4006208F3006108F2006008F1009331D2
:102F36003F23973171082000E8007208E900EA0192
:102F4600EB016B08D5006A08D4006908D30068084D
:102F5600D2006708F4006608F3006508F20064080A
:102F6600F1000030F8000030F7000930F60062305A
:102F7600F5009A31F822973174082000D9007308B9
:102F8600D8007208D7007108D60091318621973192
:102F960020005308AF01AF075208AE01AE07D42F89
:102FA600D42F033020002F02E83003192E02031815
:102FB600DD2FDE2FE22F2100AA01AB01FF2F01300A
:102FC6002100AA070030AB3D02302B02583003190E
:102FD6002A02031CEF2FF02FFF2FF12F2000C80825
:102FE600031DF62FF72FFF2F0830E0006008C800FA
:102FF600FF2FFF2FFF2FFF2F080084314C2C843129
:10300600502C8431592C8431622C84316B2C8431C0
:10301600742C84317D2C8431862C84318F2C843120
:10302600982C9631762E9631862E96319E2E963196
:06303600AE2E97310B2FB6
:1033A60020005108D62908002000CC01CB01CA0113
:1033B600FD010800F1007108230091001513951313
:1033C60015141308E6290800F200200051087206B9
:1033D6000319EE29EF29F5297208F1007108D100C9
:1033E600C717F52908009231B622993197312E2751
:1033F600993189312A2199319331D22399318031FA
:10340600022099318A313C2299312100BD01080000
:103416002100BB01BA01BC01B001B101BE01BD0171
:10342600C701C601C801B401B5012000B201B3014C
:10343600B001B101AE01AF01C801EE01EE03080013
:10344600FD012030840000308500323088310020B4
:103456009A31A0308400003085003D30883100204C
:103466009A31A03084000130850008308831002070
:103476009A3120009C31AF2CF20020302300240228
:10348600031C462A472A492A5C2A5C2A7208F1004C
:1034960027081F39A03E8600033087007108810087
:1034A6000130F1007108A7070130F1007108A40787
:1034B6005C2A0800732A73088600740887000108CE
:1034C600F6007108860072088700760881000130D0
:1034D600F1070030F23D0130F3070030F43D732A66
:1034E6000130F5027508FF3A031D7A2A7B2A5E2A07
:1034F6007C2A0800F600932A76089931DD219A3154
:10350600F50072088600730887007508810001308F
:10351600F5007508F6070130F2070030F33D932AEF
:103526000130F4027408FF3A031D9A2A9B2A7F2A67
:103536009C2A0800F501F601A02A711CA32AA42AD8
:10354600A82A7308F5077408F63D0130F335F40D23
:10355600890BA92A0130F236F10C890BAE2A7208C2
:103566007104031DB72AB82AA02AB92A7608F201DF
:10357600F2077508F101F107C02A0800F300730885
:1035860086008701710881027308860087013C3036
:103596000102031CCF2AD02AF72A3C30F200730816
:1035A60086008701720881077308013E860087013D
:1035B600013081027308013E860087013C3001021A
:1035C600031CE62AE72AF72A3C30F2007308013E7C
:1035D60086008701720881077308023E860087010C
:1035E60001308102F72AF72A08000030FC0000307B
:1035F600FB000030FA000030F900012B711C042B8F
:10360600052B0E2B7508F9077608FA3D7708FB3D62
:103616007808FC3D0E2B0130F535F60DF70DF80D4B
:10362600890B0F2B0130F436F30CF20CF10C890BDD
:10363600162B7408730472047104031D232B242BA8
:10364600012B252B7C08F4007B08F3007A08F20096
:103656007908F1002E2B0800F700572B0130F502F0
:10366600730886007408870077089931DD219B313D
:103676000106031D3F2B402B492B0130F60076082F
:10368600F7070130F3070030F43D572B7308860027
:10369600740887000108F6007608F100770887317C
:1036A600EE279B315D2B572BF508031D5B2B5C2BFF
:1036B600312B5D2B7508031D612B642B0030662BA7
:1036C600662B0130662B0800F3007108F2007308C0
:1036D60086008701720881077308860087013C30DF
:1036E6000102031C772B782B9F2B7308860087011A
:1036F6003C3081020130F2007308013E86008701EA
:10370600720881077308013E860087013C3001027A
:10371600031C8E2B8F2B9F2B7308013E860087017F
:103726003C3081020130F2007308023E86008701B8
:10373600720881079F2B9F2B0800F500D32B0130C1
:10374600F20272087507F3007308860005308700D9
:1037560072087107F40074088400053085000008BB
:1037660001020318B72BB82BBB2BFF30DB2BDB2B4F
:1037760072087107F3007308860005308700720827
:103786007507F400740884000530850000080102FE
:103796000318CE2BCF2BD32B0130DB2BDB2BD32BDC
:1037A600F208031DD72BD82BA22BD92B0030DB2BED
:1037B6000800720871040319E12BE22B122CF601A2
:1037C6000314F60DF02B0130F135F20D890BE72BC2
:1037D6000130F5007508F607F02BF21FF32BF42BDA
:1037E600E62BF62BF62B72087402031DFC2B7108D0
:1037F6007302031CFF2B002C052C7108F3027208C0
:10380600F43B052C0130F236F10C890B062C013005
:10381600F602031D0F2C102CF62B122C122C7408FA
:10382600F201F2077308F101F107192C08000130C3
:10383600F70077082000C30764304302031C242CDA
:10384600252C5B2CC3010130F70077082100E40723
:103856003C306402031C302C312C582CE401E5303A
:10386600F1000030F200F3010314F30D9131E92168
:103876009C31A030F1000530F200F3010314F30D82
:103886009131E9219C31A830F1000530F200A030D9
:10389600F3000530F4000430F7007708F5009A319C
:1038A6005D229C3120004716582C01305D2C5D2C82
:1038B60000305D2C0800F8007208803AF5007408A4
:1038C600803A7502031D692C7308710203186C2C6B
:1038D6006D2CAE2C78080E3E86008701403FF50021
:1038E600413FF6007408803AF7007608803A77027E
:1038F600031D7F2C750873020318822C832C8C2CD5
:1039060078080E3E860087017308C03F7408C13FE1
:10391600AE2C78080E3E86008701403FF500413FF9
:10392600F6007608803AF7007208803A7702031D9F
:103936009E2C710875020318A12CA22CAE2C7808B7
:103946000E3E860087017108C03F7208C13FAE2C4B
:10395600AE2CAE2CAE2C08008B13953110259C3165
:10396600913103219C319A310B229C319931D72117
:103976009C318B318E239C31C02C8B1764006430B4
:1039860021004C02031CC82CC92CC02C6430CC026C
:10399600913104219C31943169249C319931F6216D
:1039A6009C31813141219C318431D2249C312000CB
:1039B6004C08043A031DE02CE12CE62C4708031DB5
:1039C600E52CED2CE62C0530ED006D08CD0022002F
:1039D6000D17C02C01302000CD02031DF32CF42C52
:1039E600C02CCD010314CD0D22000D13C02CC02C0C
:1039F600C02CC02CC02C81313E2900340234043442
:103A06008634003482348434DE3460340A340C3430
:103A16008E3408348A348C348E34003402340434C0
:103A26008634003482348434DE3460340A340C3410
:103A36008E3408348A348C348E34003402340434A0
:103A46008634003482348434DE3460340A340C34F0
:103A56008E3408348A348C348E3400340234043480
:103A66008634003482348434DE3460340A340C34D0
:103A76008E3408348A348C348E3400340234043460
:103A86008634003482348434DE3460340A340C34B0
:103A96008E3408348A348C348E3400340234043440
:103AA6008634003482348434DE3460340A340C3490
:103AB6008E3408348A348C348E3400340234043420
:103AC6008634003482348434DE3460340A340C3470
:103AD6008E3408348A348C348E3400340234043400
:103AE6008634003482348434DE3460340A340C3450
:103AF6008E3408348A348C348E34003402340434E0
:103B06008634003482348434DE3460340A340C342F
:103B16008E3408348A348C348E34003402340434BF
:103B26008634003482348434DE3460340A340C340F
:103B36008E3408348A348C348E340034023404349F
:103B46008634003482348434DE3460340A340C34EF
:103B56008E3408348A348C348E340034023404347F
:103B66008634003482348434DE3460340A340C34CF
:103B76008E3408348A348C348E340034023404345F
:103B86008634003482348434DE3460340A340C34AF
:103B96008E3408348A348C348E340034023404343F
:103BA6008634003482348434DE3460340A340C348F
:103BB6008E3408348A348C348E340034023404341F
:103BC6008634003482348434DE3460340A340C346F
:103BD6008E3408348A348C348E34003402340434FF
:103BE6008634003482348434DE3460340A340C344F
:103BF6008E3408348A348C348E34003400340134E4
:103C060000340434003409340034103400341934D8
:103C16000034243400343134003440340034513418
:103C26000034643400347934003490340034A934D8
:103C36000034C4340034E134003400340134213417
:103C46000134443401346934013490340134B934D4
:103C56000134E43401341134023440340234713412
:103C66000234A4340234D9340234103403344934CF
:103C7600033484340334C13403340034043441340B
:103C8600043484340434C9340434103405345934C7
:103C96000534A4340534F134053440340634913403
:103CA6000634E43406343934073490340734E934BE
:103CB600073444340834A1340834003409346134F8
:103CC6000934C434093429340A3490340A34F934B2
:103CD6000A3464340B34D1340B3440340C34B134EC
:103CE6000C3424340D3499340D3410340E348934A4
:103CF6000E3404340F3481340F34003410348134DC
:103D06001034043411348934113410341234993493
:103D1600123424341334B134133440341434D134CB
:103D2600143464341534F934153490341634293483
:103D36001734C43417346134183400341934A134B8
:103D4600193444341A34E9341A3490341B3439346F
:103D56001C34E4341C3491341D3440341E34F134A4
:103D66001E34A4341F345934203410342134C93459
:103D76002134843422344134233400342434C1348D
:103D86002434843425344934263410342734D93441
:103D96002734A43428347134293440342A34113475
:103DA6002B34E4342B34B9342C3490342D34693428
:103DB6002E3444342F342134303400343134E13459
:103DC6003134C4343234A93433349034343479340D
:103DD600353464343634513437344034383431343D
:103DE600393424343A3419343B3410343C340934ED
:103DF6003D3404343E3401343F340034403401341D
:103E060041340434423409344334103444341934CC
:103E160045342434463431344734403448345134FC
:103E2600493464344A3479344B3490344C34A934AC
:103E36004D34C4344E34E1344F34003451342134DB
:103E46005234443453346934543490345534B93488
:103E56005634E43457341134593440345A347134B6
:103E66005B34A4345C34D9345D3410345F34493463
:103E7600603484346134C13462340034643441348F
:103E8600653484346634C93467341034693459343B
:103E96006A34A4346B34F1346C3440346E34913467
:103EA6006F34E43470343934723490347334E93412
:103EB600743444347634A13477340034793461343C
:103EC6007A34C4347B3429347D3490347E34F934E6
:103ED6007F3464348134D134823440348434B13410
:103EE6008534243487349934883410348A348934B8
:103EF6008B3404348D3481348E34003490348134E0
:103F06009134043493348934943410349634993487
:103F1600973424349934B1349A3440349C34D134AF
:103F26009D3464349F34F934A0349034A234293457
:103F3600A434C434A5346134A7340034A934A1347C
:103F4600AA344434AC34E934AD349034AF34393423
:103F5600B134E434B2349134B4344034B634F13448
:103F6600B734A434B9345934BB341034BD34C934ED
:103F7600BE348434C0344134C2340034C434C13411
:103F8600C5348434C7344934C9341034CB34D934B5
:103F9600CC34A434CE347134D0344034D2341134D9
:103FA600D434E434D534B934D7349034D93469347C
:103FB600DB344434DD342134DF340034E134E1349D
:103FC600E234C434E434A934E6349034E834793441
:103FD600EA346434EC345134EE344034F034313461
:103FE600F2342434F4341934F6341034F834093401
:0A3FF600FA340434FC340134FE34C4
:020000040001F9
:04000E009C0FFC3F08
:10E000004200410052000000DC000000000001005E
:10E010004900050096002D000000000001004900A5
:10E02000050096002D0000002E0002002E000500C5
:10E0300000000000000000000000000000000000E0
:10E0400000000000000000000000000000000000D0
:10E0500000000000000000000000000000000000C0
:10E0600000000000000000000000000000000000B0
:10E0700000000000000000000000000000000000A0
:10E080000000000000000000000000000000000090
:10E090000000000000000000000000000000000080
:10E0A0000000000000000000000000000000000070
:10E0B0000000000000000000000000000000000060
:10E0C0000000000000000000000000000000000050
:10E0D0000000000000000000000000000000000040
:10E0E0000000000000000000000000000000000030
:10E0F0000000000000000000000000000000000020
:10E10000000000000000000000000000000000000F
:10E1100000000000000000000000000000000000FF
:10E1200000000000000000000000000000000000EF
:10E1300000000000000000000000000000000000DF
:10E1400000000000000000000000000000000000CF
:10E1500000000000000000000000000000000000BF
:10E1600000000000000000000000000000000000AF
:10E17000000000000000000000000000000000009F
:10E18000000000000000000000000000000000008F
:10E19000000000000000000000000000000000007F
:10E1A000000000000000000000000000000000006F
:10E1B000000000000000000000000000000000005F
:10E1C000000000000000000000000000000000004F
:10E1D000000000000000000000000000000000003F
:10E1E000000000000000000000000000000000002F
:10E1F000000000000000000000000000140000000B
:00000001FF
