:100000008131752908000134803120007F08F0001B
:1000100021008C105C189D145B155B0822000C06F7
:1000200026398C06200093119D308500210045085B
:1000300020008E1A01388400003F2100C5004708C7
:100040002200951801388400003F2100C7004608AF
:100050002200151801388400003F2100C600C51E8B
:100060003E2843353E39203E8400033085002E086B
:100070001A002F081A00C30AC20AC401491CDB1265
:10008000471B7C282100DB105B0822000C06263968
:100090008C062100B31FDA28B20F4F28B30AB40F21
:1000A0005228B50AB51BDA282C3086002D3087007F
:1000B0002E0886022F082F0F8702871F62288609C5
:1000C0008709860AC83006020030073B031C6A28ED
:1000D000DB1649143408143C031DDA282E08AC0042
:1000E0002F08AD00F030B400F030B500F030B200B1
:1000F000F030B3004910DA28DB145B0822000C064C
:1001000026398C062100B3013A080319B228FD3EB6
:10011000E0000A3EE100373030020030313B031C82
:10012000B2282A083002B4002B08313BB500F03069
:100130000318B4000318B5002A08243C84002B08D7
:10014000333B850014303402B2000030353BB3003D
:10015000040832020508333B0318B2280408B20031
:100160000508B300471EDA28391437350E39603ECA
:100170008400033085002E081A002F081A00B70AE1
:10018000B60AB8012408A0002508A1002608A2008C
:100190002708A3003C08BB00A401A501A601A701F4
:1001A000BC013A080319DA28023EDE00013EDF00F6
:1001B000023EDD002E08AE0FDE28AF0A03390B0029
:1001C000E428182945295D292300A61FA60A24082A
:1001D0000319F9280C302602031CF928A60125086A
:1001E0001F39A03E840003308500003F9A00A50A15
:1001F000A4032100C80A5C1C0E299D18FD281B09B8
:1002000084009E30850084350318850A1200A407F7
:100210001200A53D0001A63DA73DBC0ADC01DE1F82
:10022000DE0B090015309D0020309E005C14090093
:100230002300A21FA20A2000911E31292300A2013F
:100240001908850020302002031C312923081F399A
:10025000C03E84000330050685060506803FA30ADC
:10026000A00A21005C1C3B299D1834291C08803CF5
:10027000031C003CBE00DC01DF1FDF0B090019304E
:100280009D0020309E005C140900E01FE00B4D290A
:1002900046084706803A090DC00D5C1C53299D187D
:1002A0004F291C08BF00DC01DD1FDD0B09000D30EC
:1002B0009D0020309E005C140900E11FE10B6529C0
:1002C00046084706803A090DC10D5C1C6B299D1834
:1002D00067291C08BD0025309D00A0309E005C14DD
:1002E000090070082000FF00090088019C318E2C55
:1002F000923160228131003A03197F2980298A29AD
:100300008531042581318031022081319431A52449
:1003100081318A2988310C2081312000481C9129A3
:100320009229CE292030F3000430F4000730F90080
:100330007908F5002330913175218131003A031994
:10034000A229A329712B2830F3000430F4001530C2
:10035000F9007908F5003830913175218131003A82
:100360000319B329B429712B4030F3000430F40091
:100370001C30F9007908F5008F30913175218131F9
:10038000003A0319C429C529712BFE30F9007908F8
:100390002000C805712B712B712B712BC81CD12922
:1003A000D2290E2AA030F3000430F4000730F900FF
:1003B0007908F5002A30913175218131003A03190D
:1003C000E229E329712BA830F3000430F400073050
:1003D000F9007908F5003130913175218131003A09
:1003E0000319F329F429712BB030F3000430F40021
:1003F0000E30F9007908F5005430913175218131C2
:10040000003A0319042A052A712BFD30F9007908F6
:100410002000C805712B712B712B712B481D112ADF
:10042000122A4E2A2030F3000530F4000730F9007C
:100430007908F5001C30913175218131003A03199A
:10044000222A232A712B2730F3000530F4000930CB
:10045000F9007908F5008630913175218131003A33
:100460000319332A342A712B3030F3000530F4009D
:100470001C30F9007908F500623091317521813125
:10048000003A0319442A452A712BFB30F9007908F8
:100490002000C805712B712B712B712BC81D512A9F
:1004A000522A8D2A5030F3000530F4000730F9004D
:1004B0007908F5007E30913175218131003A0319B8
:1004C000622A632A712B5730F3000530F400F501DE
:1004D0000314F50D8530913175218131003A0319EE
:1004E000722A732A712B5830F3000530F40007305C
:1004F000F9007908F5004D30913175218131003ACC
:100500000319832A842A712BF730F9007908200017
:10051000C805712B712B712B712B481E902A912AC3
:10052000CD2AA030F3000530F4000430F90079083A
:10053000F500D730913175218131003A0319A12A94
:10054000A22A712BA430F3000530F4000430F90026
:100550007908F500DF30913175218131003A0319B6
:10056000B22AB32A712BA830F3000530F40004300E
:10057000F9007908F500D330913175218131003AC5
:100580000319C32AC42A712BEF30F900790820001F
:10059000C805712B712B712B712BC81ED02AD12A43
:1005A0001F2B2030F3000630F4000430F9007908E6
:1005B000F500AB30913175218131003A0319E12A00
:1005C000E22A712B2430F3000630F4002430F900C5
:1005D0007908F500AF30913175218131003A031966
:1005E000F22AF32A712B5030F3000630F400023067
:1005F000F9007908F500E530913175218131003A33
:100600000319032B042B712B5430F3000630F40034
:100610001230F9007908F500E73091317521813108
:10062000003A0319142B152B712BDF30F9007908D0
:100630002000C805712B712B712B712B712B481F5A
:10064000222B232B4D2B5830F3000630F4000430BE
:10065000F9007908F500DB30913175218131003ADC
:100660000319332B342B712B5C30F3000630F4006C
:100670000230F9007908F500E330913175218131BC
:10068000003A0319442B452B712BBF30F900790830
:100690002000C805712B712B712BC81F502B512BBB
:1006A000682B5030F3000030F400F5010314F50D11
:1006B000FE30913175218131003A0319602B612B95
:1006C000712B7F30F90079082000C805712B712B40
:1006D000C801712B712B712B712B712B712B712B0D
:1006E000712B08008731FC278331F100710820004D
:1006F000E1001430610203187E2B7F2B9A2B6103DB
:10070000FF3A143EF1007108E10021003F0820008B
:100710006107F1007108E20021003F082000620239
:100720000318932B942BB22BFF30F1007108E200D9
:10073000B22BB22B6108EC3EF1007108E1006103BD
:10074000FF3A21003F07F10071082000E200620833
:1007500021003F020318AD2BAE2BB22B2000E2018B
:10076000B22BB22B2100BA08031DB72BB82BBA2B22
:10077000FD01032D0C30200062020318C02BC12B99
:10078000C62B0A30F1007108FD00032D29306202EA
:100790000318CB2BCC2BD02BFD010314FD0D032D07
:1007A0002B3062020318D52BD62BEA2B02307D02A8
:1007B000031CDB2BDC2BE12B0230D1000030D200FC
:1007C000E52B0130D1000030D2005108F100710852
:1007D000FD00032D5D3062020318EF2BF02BF52B8B
:1007E0000230F1007108FD00032D5F306202031832
:1007F000FA2BFB2B0F2C03307D02031C002C012C49
:10080000062C0330D3000030D4000A2C0230D30071
:100810000030D4005308F1007108FD00032D74303E
:1008200062020318142C152C1A2C0330F1007108E5
:10083000FD00032D7630620203181F2C202C342C6F
:1008400004307D02031C252C262C2B2C0430D500D3
:100850000030D6002F2C0330D5000030D6005508CC
:10086000F1007108FD00032D883062020318392C55
:100870003A2C3F2C0430F1007108FD00032D8A3022
:1008800062020318442C452C592C05307D02031CB0
:100890004A2C4B2C502C0530D7000030D800542C5B
:1008A0000430D7000030D8005708F1007108FD006F
:1008B000032D9D30620203185E2C5F2C642C0530E2
:1008C000F1007108FD00032D9F3062020318692CAE
:1008D0006A2C7E2C06307D02031C6F2C702C752C2C
:1008E0000630D9000030DA00792C0530D90000300C
:1008F000DA005908F1007108FD00032DB7306202DB
:100900000318832C842C892C0630F1007108FD001B
:10091000032DB930620203188E2C8F2CA32C0730C4
:100920007D02031C942C952C9A2C0730DB000030A0
:10093000DC009E2C0630DB000030DC005B08F100A0
:100940007108FD00032DD03062020318A82CA92CD9
:10095000AE2C0730F1007108FD00032DD230620289
:100960000318B32CB42CC82C08307D02031CB92CFE
:10097000BA2CBF2C0830DD000030DE00C32C07305D
:10098000DD000030DE005D08F1007108FD00032D80
:10099000EF3062020318CD2CCE2CD32C0830F1009E
:1009A0007108FD00032DF13062020318D82CD92CF8
:1009B000ED2C09307D02031CDE2CDF2CE42C0930E9
:1009C000DF000030E000E82C0830DF000030E000FD
:1009D0005F08F1007108FD00032D0930F100710876
:1009E000FD00032D032D032D032D032D032D032DBA
:1009F000032D032D032D032D032D032D032D032D77
:100A0000032D032D032D0800F1010314F10D4D30CA
:100A10009131AD21853120004B0844060319112D79
:100A2000122D182D4B08F7007708C400C2018E2E36
:100A30000230420203181D2D1E2D232D0130F70018
:100A40007708C2078E2E4B0843060319282D292D3F
:100A50002E2E0330F7007708F1004D309131072139
:100A6000853120004308031D362D7B2D08304302BD
:100A700003183B2D3C2D7B2D2830F1000430F20073
:100A80004D30F3000030F4000330F7007708F50034
:100A90009C314E2485311E3020004D020318512D0B
:100AA000522D642D4D08F7007708F1004308F80037
:100AB0000130F835FF3E031D592D7835FC3E403E90
:100AC00093318A238531782D20004D08E23EF700CE
:100AD0007708F1004308F8000130F835FF3E031DA8
:100AE0006D2D7835FC3E403E93318A238531782D3B
:100AF000200048147B2D4B08F7007708C300033013
:100B0000F7007708CD00CE01CF014308031D892DE2
:100B10008E2E0830430203188E2D8F2D8E2E280026
:100B20002508F7007708A6002408F7007708A50035
:100B30002308F7007708A4002208F7007708A3002D
:100B40002108F7007708A2002008F7007708A10025
:100B500020004308F03EF70077082800A0003A3054
:100B6000F1000430F2003730F3000430F4000330B9
:100B7000F7007708F5009C314E2485313730F100BD
:100B80000430F2003430F3000430F4000330F70096
:100B90007708F5009C314E2485313430F100043063
:100BA000F2003130F3000430F4000330F70077082E
:100BB000F5009C314E2485313130F1000430F200D3
:100BC0002E30F3000430F4000330F7007708F5000E
:100BD0009C314E2485312E30F1000430F2002B3050
:100BE000F3000430F4000330F7007708F5009C317F
:100BF0004E2485312B30F1000430F2002830F30010
:100C00000430F4000330F7007708F5009C314E24DF
:100C100085312830F1000430F2004D30F30000300F
:100C2000F4000330F7007708F5009C314E2485313D
:100C30000330F7007708F10020004308F800013086
:100C4000F835FF3E031D202E7835FC3E403E9331A3
:100C50008A238531200048148E2E8E2E4308031DD2
:100C6000322E8E2E083043020318372E382E8E2E49
:100C70004D08031D3C2E432E4D081E3A031D412EE8
:100C8000422E8E2E432E2830F1000430F2004D30DB
:100C9000F3000030F4000330F7007708F5009C31D2
:100CA0004E2485312000CF08031D572E582E752E57
:100CB000CE08031D5C2E5D2E752E4D081E3A031DB9
:100CC000622E632E752E1B30F7007708F100430863
:100CD000F8000130F835FF3E031D6A2E7835FC3EE2
:100CE000403E93318A238531882E1E30F7007708E5
:100CF000F10020004308F8000130F835FF3E031DE5
:100D00007D2E7835FC3E403E93318A238531882EF6
:100D1000200048148E2E8E2E8E2E8E2E080020003F
:100D2000C8011E30F70077082100E200E301E4016A
:100D3000E501E6012030F2000430F3000730F7004F
:100D40007708F40023309C316E2486312830F2007D
:100D50000430F3001530F7007708F40038309C3188
:100D60006E2486314030F2000430F3001C30F7006E
:100D70007708F4008F309C316E248631A030F20069
:100D80000430F3000730F7007708F4002A309C3174
:100D90006E248631A830F2000430F3000730F700EB
:100DA0007708F40031309C316E248631B030F20087
:100DB0000430F3000E30F7007708F40054309C3113
:100DC0006E2486312030F2000530F3000730F70042
:100DD0007708F4001C309C316E2486312730F200F5
:100DE0000530F3000930F7007708F40086309C31B5
:100DF0006E2486313030F2000530F3001C30F700ED
:100E00007708F40062309C316E2486315030F20055
:100E10000530F3000730F7007708F4007E309C318E
:100E20006E2486315730F2000530F300F4010314CC
:100E3000F40D85309C316E2486315830F200053037
:100E4000F3000730F7007708F4004D309C316E2432
:100E50008631A030F2000530F3000430F700770847
:100E6000F400D7309C316E248631A430F200053076
:100E7000F3000430F7007708F400DF309C316E2473
:100E80008631A830F2000530F3000430F70077080F
:100E9000F400D3309C316E2486312030F2000630CD
:100EA000F3000430F7007708F400AB309C316E2477
:100EB00086312430F2000630F3002430F700770842
:100EC000F400AF309C316E2486315030F200063091
:100ED000F3000230F7007708F400E5309C316E240F
:100EE00086315430F2000630F3001230F7007708F4
:100EF000F400E7309C316E2486315830F200063021
:100F0000F3000430F7007708F400DB309C316E24E6
:100F100086315C30F2000630F3000230F7007708CB
:100F2000F400E3309C316E2486315030F200003002
:100F3000F300F4010314F40DFE309C316E2486316D
:100F4000A830F7007708F1000430F8007808F200C4
:100F5000A0309131E6218631F9007908FA00FA1FB4
:100F6000B22FB32FC72F2B002B08F7007708A30051
:100F70002A08F7007708A2002908F7007708A100DF
:100F80002808F7007708A00020004816E32F7A0809
:100F9000803A7F3E031CCD2FCE2FE32F2B0023085A
:100FA000F7007708AB002208F7007708AA002108AD
:100FB000F7007708A9002008F7007708A8002000AC
:100FC0004816E32FE32F08002100B701B601B8014E
:100FD000AA01AB01BA01B901C301C201C401B00148
:100FE000B1012000B601B701B401B501B201B301EE
:100FF000C901ED01ED03080020005008FF2F080093
:101000008831C9288831D9288831F12889310129C6
:1010100089315E290800080020004A08031D1128B4
:1010200017280A304A02031C162817281928C1015C
:10103000BB2841084A0603191E281F28BB284A0856
:10104000F7007708C1002A002508F7007708A600F6
:101050002408F7007708A5002308F7007708A40004
:101060002208F7007708A3002108F7007708A200FC
:101070002008F7007708A10020004A08E03EF700AA
:1010800077082A00A0000130F70020004A08FF3E40
:10109000273E860005308700770881074830F10039
:1010A0000530F2004430F3000530F4000430F7005E
:1010B0007708F5009C314E2488314430F10005302A
:1010C000F2004030F3000530F4000430F7007708F8
:1010D000F5009C314E2488314030F1000530F2009B
:1010E0003C30F3000530F4000430F7007708F500D9
:1010F0009C314E2488313C30F1000530F20038300C
:10110000F3000530F4000430F7007708F5009C3157
:101110004E2488313830F1000530F2003430F300CD
:101120000530F4000430F7007708F5009C314E24B8
:1011300088313430F1000530F2003030F3000530F2
:10114000F4000430F7007708F5009C314E24883114
:101150003030F1000530F200E330F3000030F400ED
:101160000430F7007708F5009C314E2488312000C8
:101170004815BB28BB28080020002F082E0403199F
:10118000C228C32876290130AE020030AF3B762951
:10119000762921003A08031DCE2880290130F3006A
:1011A00073082000BD070630AE000030AF00802974
:1011B00080292F082E04031DDE28DF2880297D08C2
:1011C0000A3A031DE428E528EA280130F3007308F1
:1011D000BD078029FF30F3007308BD0080298029F6
:1011E00080297D08013A031DF628F728802901305F
:1011F000F3007308BD072C30AE000130AF0080292A
:1012000080297D08013A0319062907290C29FF3096
:10121000F3007308BD00802900302F0264300319E9
:101220002E02031C14291529222921003F08F3004E
:1012300073082000BC0021003F08F3007308200061
:10124000BB0080293C0821003F02031828292929D6
:101250002E293F08F30073082000BC0021003F083E
:1012600020003B020318352936293D2921003F087B
:10127000F30073082000BB003D292F082E04031D36
:101280004229432980290A303C02031C4829492964
:1012900050291E303B02031C4E294F295529502945
:1012A000FF30F3007308BD0080290130F30073089C
:1012B000BD07802980298029802980293C083B0797
:1012C000F300F401F40D0130FF00740DF40CF30C85
:1012D000FF0B652973089B31FA238831FF30F30037
:1012E00073082000BD008029802980293D088400E2
:1012F000053004020318802988310435003E82003D
:1013000008002100BA08031D862987298B2920009F
:10131000B201B301272A21003908031D9029272A89
:101320003B08031D9429272A20082000DF00210004
:1013300021082000E000210022082000E100210017
:1013400023082000E2000130DF35E00DE10DE20D61
:10135000890BA4296208E6006108E5006008E40042
:101360005F08E30021003B082000DF00E001E1010D
:10137000E2016208EA006108E9006008E8005F082D
:10138000E7002100BB0120006608F4006508F300B7
:101390006408F2006308F10096312926893171084A
:1013A0002000E3007208E400E501E6016708DF00C1
:1013B0006808E0006908E1006A08E2001030DF35E3
:1013C000E00DE10DE20D890BDF296208F4006108F0
:1013D000F3006008F2005F08F10096312926893198
:1013E00071082000E7007208E800E901EA016A08D4
:1013F000D4006908D3006808D2006708D1006608E5
:10140000F4006508F3006408F2006308F10000309E
:10141000F8000030F7000930F6006230F500913135
:101420003E21893174082000D8007308D700720863
:10143000D6007108D5009331DE238931200052088F
:10144000B301B3075108B201B207272A272A033094
:1014500020003302E830031932020318302A312AFF
:10146000342AA801A9014F2A0130A8070030A93D5C
:1014700002302902583003192802031C402A412A4D
:101480004F2A422AC908031D462A472A4F2A0830F4
:10149000DF005F08C9004F2A4F2A4F2A4F2A080051
:1014A000FB0127307A02103003197902031C592AF4
:1014B0005A2A832A1030F1002730F2007A08F4010A
:1014C000F4077908F301F3079231A4228A317108F5
:1014D000303E9C3130248A311030F1002730F20048
:1014E0007A08F401F4077908F301F3079231222214
:1014F0008A317208FA01FA077108F901F907FB014C
:101500000314FB0D832AFB08031D872A882A922ACD
:1015100003307A02E83003197902031C902A912AD9
:10152000BB2A922AE830F1000330F2007A08F40175
:10153000F4077908F301F3079231A4228A31710884
:10154000303E9C3130248A31E830F1000330F20023
:101550007A08F401F4077908F301F30792312222A3
:101560008A317208FA01FA077108F901F907FB01DB
:101570000314FB0DBB2AFB08031DBF2AC02ACA2A7D
:1015800000307A02643003197902031CC82AC92A80
:10159000F32ACA2A6430F1000030F2007A08F4011C
:1015A000F4077908F301F3079231A4228A31710814
:1015B000303E9C3130248A316430F1000030F2003A
:1015C0007A08F401F4077908F301F3079231222233
:1015D0008A317208FA01FA077108F901F907FB016B
:1015E0000314FB0DF32AFB08031DF72AF82A022B2C
:1015F00000307A020A3003197902031C002B012BF8
:10160000282B022B0A30F1000030F2007A08F40196
:10161000F4077908F301F3079231A4228A317108A3
:10162000303E9C3130248A310A30F1000030F20023
:101630007A08F401F4077908F301F30792312222C2
:101640008A317208FA01FA077108F901F907282BA3
:101650007908303E9C3130248A3108000130200066
:10166000DF005F082100C40732304402031C392B1D
:101670003A2B422B32302000DF005F082100C400EB
:10168000C201FC2B03304202031C472B482BFC2BCE
:101690001E304202031C4D2B4E2B552B1E302000BA
:1016A000DF005F082100C200552B4208FE3E2000EB
:1016B000DF005F08E50021004308FF3E2000DF0057
:1016C0005F08E700E601043065020318682B692B08
:1016D0008E2B6508DF005F08E60067081F390907E1
:1016E000203E8600033087006603FF3A67071F39F4
:1016F0000907203E840003308500003FDF00013FE2
:10170000E000DF09E009DF0A0319E00A403F5F0754
:10171000E300413F603DE400C92B8E2B0430E5021D
:101720000430DF005F08E60767081F390907203E1D
:101730008600033087006603FF3A67071F390907F1
:10174000203E840003308500003FDF00013FE000C1
:10175000DF09E009DF0A0319E00A403F5F07E30001
:10176000413F603DE400043065020318B82BB92BFB
:10177000BB2BC92BC92B063064024030031963020E
:10178000031CC32BC42B8E2BC92BC92B8E2B8E2B4A
:10179000C92B6308D1006408D200D301D4016608C4
:1017A000DF00E001E101E2016208F4006108F300FA
:1017B0006008F2005F08F1000030F8000930F7001F
:1017C0002730F600C030F50091313E218B3174088E
:1017D0002000D8007308D7007208D6007108D50021
:1017E0009331DE238B3120005208B501B507510833
:1017F000B401B407FC2BFC2B21003A082000DF00C9
:10180000E0012100310820006002031D0B2C2100A3
:10181000300820005F0203180E2C0F2C1E2C013004
:1018200035022C3003193402031C172C182C222CDF
:1018300021004208031D1D2C222C1E2C2000AA0171
:10184000AB013F2C01302000AA070030AB3D013036
:101850002B022C3003192A02031C2F2C302C3F2C76
:10186000312CC908031D352C362C3F2C0730C900FC
:10187000DF005F08C9003F2C3F2C3F2C3F2C0800A5
:101880002000E50065080C3E86008701403FD3003C
:10189000413FD40065080E3E86008701403FD500D9
:1018A000413FD6005608803AD7005408803A570284
:1018B000031D5C2C5308550203185F2C602C662C0A
:1018C0002000D21F642C652CB92C662C20006508E2
:1018D0000E3E86008701403FD300413FD40065089B
:1018E0000C3E86008701403FD500413FD600560898
:1018F000803AD7005408803A5702031D812C5308C0
:1019000055020318842C852C8B2C2000D21B892C8B
:101910008A2CB92C8B2C20006508023E860087019A
:10192000403FD300413FD4005308F1005408F20077
:10193000890D893B8909F300F4005108F50052082C
:10194000F600890D893B8909F700F80091313E21A5
:101950008C3120006508083E8600870171088107E8
:1019600041317208813D41317308813D4131740834
:10197000813D6508083E86008701403FD300413F16
:10198000D400423FD500433FD6006508063E86009E
:101990008701403FD700413FD8005708D900580879
:1019A000DA000030DA1BFF30DB00DC00D909DA098D
:1019B000DB09DC09D90A0319DA0A0319DB0A03195E
:1019C000DC0A650886008701403FDD00413FDE00FC
:1019D0005D08F1005E08F200890D893B8909F3007A
:1019E000F4005108F5005208F600890D893B890979
:1019F000F700F80091313E218C3171082000DF00A2
:101A00007208E0007308E1007408E2006508043E13
:101A100086008701403FE300413FE4006308F10096
:101A20006408F200890D893B8909F300F40051082C
:101A3000F5005208F600890D893B8909F700F80086
:101A400091313E218C3171082000DF077208E03DA2
:101A50007308E13D7408E23D5F08D9076008DA3D8C
:101A60006108DB3D6208DC3D5908D3075A08D43DC4
:101A70005B08D53D5C08D63D65080C3E86008701B5
:101A80005308C03F5408C13F5508C23F5608C33FE2
:101A900065080E3E86008701403FD300413FD400D9
:101AA00065080C3E860087015308C03F5408C13FBB
:101AB0006508063E860087015108C03F5208C13FB5
:101AC000612D0800833172238D318831BC208D3126
:101AD000200027082604250424040319702D712DE5
:101AE0007C2E0130F5000030F6000030F7000030A9
:101AF000F8007508A4027608A53B7708A63B78088D
:101B0000A73B7C2E7C2EB601B701CC010314CC0D73
:101B10000030A7000030A6000130A500F430A4007A
:101B2000872EB601B701C908031D972D982DA12D49
:101B30002708260425042404031D9F2DA02DB22D63
:101B4000A12D4908F5007508CA000330F500750895
:101B5000CC000030A7000030A6000030A5003230D5
:101B6000A400872E21004008FF3A031DB82DB92D8F
:101B7000872E4108FF3A031DBE2DBF2D872E200062
:101B8000ED1BC32DC42D872E0230F5007508CC0047
:101B90000030A7000030A6001730A5007030A40068
:101BA000872E872E872EC908031DD72DD82DE12D0E
:101BB0002708260425042404031DDF2DE02D5E2EB6
:101BC000E12D2708260425042404031DE82DE92D12
:101BD000F32DC908031DED2DEE2DF32D0430F50076
:101BE0007508C900F32D4908F5007508CA000330CF
:101BF000F5007508CC000030A7000030A6000030CA
:101C0000A5000530A400872E5E2ECB01B601B701DA
:101C1000872ECB01B601B701872E0230F50075087B
:101C2000CB00C430B6000930B700872E0230F50073
:101C30007508CB008830B6001330B700872E03300C
:101C4000F5007508CB007030B6001730B700872E4E
:101C50000430F5007508CB004030B6001F30B700E7
:101C6000872E0530F5007508CB001C30B6002530F6
:101C7000B700872E0630F5007508CB000430B6009B
:101C80002930B700872E0730F5007508CB00E0300B
:101C9000B6002E30B700872E0730F5007508CB0050
:101CA000BC30B6003430B700872ECB010314CB0D07
:101CB000BD30B6003430B700872E872E7D08FF3E3A
:101CC000031C052E84000A3004020318052E9831E7
:101CD0000435003E8200872E872E2708260425041F
:101CE0002404031D742E752E872E0430F50075080C
:101CF000CC00872E872E872E4C08003A0319832D9F
:101D0000013A0319912D033A0319D32D6D2E0800C2
:101D100020004008031D8D2E902E0130C002902E11
:101D2000370836040319952E962E9C2E2100BA08EA
:101D3000031D9B2E9C2EF52F2000BF018B1321002D
:101D4000B001B1018B17FF2FFF2FF52F8B1321004F
:101D5000B001B1018B17AC2E2B082A040319B12E48
:101D6000B22EFF2F20003708B101B1073608B001AD
:101D7000B0075030A2000030A300A001A101D03074
:101D80002100CB000730CC003230CD000030CE0037
:101D9000F430CF000130D000D101D2013C30D50069
:101DA0000030D600D301D4015608DA01DA0755080D
:101DB000D901D9075608D801D8075508D701D70740
:101DC00001302000E6006608BF07C830E60066085C
:101DD000C000FF2FFF2F21003908031DF02ED22F46
:101DE0002000C908031DF52EF62ED22F3708310624
:101DF000031DFC2E360830060319FF2E002F1F2F5F
:101E000037083102031D062F360830020318092F48
:101E10000A2F0F2FC830E6006608C0000F2F3708C2
:101E2000B101B1073608B001B00721005A082000FF
:101E3000A301A307210059082000A201A207323004
:101E40003702C83003193602031C272F282F3A2FD8
:101E500019304002031C2D2F2E2F332F1930E6008E
:101E60006608C000332F361C362F372F3A2FC0019B
:101E70003A2F3A2F21002B08F201F2072A08F1012C
:101E8000F1073630F3000030F4009C31AE248E317F
:101E900071082000E6007208E7000630E736E60C1D
:101EA000890B4E2F6608EA006708EB000030A00798
:101EB0000030A13D1030A23D0030A33D2308803A00
:101EC000E6006B08803A6602031D682F6A0822024A
:101ED000031C6B2F6C2F732F20006B08A301A3072B
:101EE0006A08A201A20720003409E6003509E700CC
:101EF000E60A0319E70A36086607E8003708673D6F
:101F0000E900C008031D852F862F8B2FE91F892F1D
:101F10008A2F912F8B2FF4302100CB000130CC0081
:101F2000972FD0302100CB000730CC00972F200016
:101F30006908D201D2076808D101D107CB308C31B2
:101F400040248E312000361CA62FA72FB62F283014
:101F5000F1000030F2006B08F401F4076A08F301A5
:101F6000F307CB30933139238E31C72F2830F1005E
:101F70000030F20020002308F401F4072208F301E6
:101F8000F307CB30933139238E31C72FC72F8B13F3
:101F900021005A08B101B1075908B001B0078B17E9
:101FA000FF2FFF2F20004908031DD72FFF2F0130DF
:101FB00021002B026C3003192A02031CE02FE12FB1
:101FC000E92F8B136730B0000030B1008B17FF2F63
:101FD000FF2F8B135D30B0000030B1008B17FF2F47
:101FE000FF2FFF2FFF2FFF2FFF2F20003F08003A6A
:101FF0000319A62E013A0319EB2EFF2FFF2F08001D
:1020000000347F347F347F347F347F347F347F34B7
:102010007F347F347F347F347F347F347F347F3428
:102020007F347F347F347F347F347F347F347F3418
:102030007F347F347F347F347F347F347F347F3408
:102040007F347F347F347F347F347F347F347F34F8
:102050007F347F347F347F347F347F347F347F34E8
:102060007F347F347F347F347F347F347F347F34D8
:102070007F347F347F347F347F347F347F347F34C8
:102080007F347E347D347C347B347A347A347934D2
:1020900078347734773476347534753474347334F3
:1020A000733472347134713470346F346F346E340D
:1020B0006D346D346C346B346B346A346A34693427
:1020C000683468346734673466346634653464343D
:1020D0006434633463346234623461346134603450
:1020E00060345F345E345E345D345D345C345C3463
:1020F0005B345B345A345A34593459345834583474
:102100005734573456345634553455345434543483
:102110005334533452345234513451345034503493
:102120004F344F344E344E344D344D344C344C34A3
:102130004B344B344A344A344934493448344834B3
:1021400047344734463446344534453444344434C3
:1021500043344334423442344134413440344034D3
:102160003F343F343E343E343D343D343C343C34E3
:102170003B343B343A343A343934383438343734F5
:102180003734363436343534353434343334333408
:10219000323432343134303430342F342E342E341F
:1021A0002D342D342C342B342A342A342934283439
:1021B0002834273426342534253424342334223457
:1021C0002134213420341F341E341D341C341B347C
:1021D0001A341934183417341534143413341234AF
:1021E00010340F340D340C340A34083406340434FB
:1021F000023400340034003400340034003400343D
:102200000034640080010131890B02290034F3009D
:1022100073088600870171088102730886008701B0
:102220003C300102031C152916293D293C30F200DF
:10223000730886008701720881077308013E8600D3
:102240008701013081027308013E860087013C301E
:102250000102031C2C292D293D293C30F200730872
:10226000013E86008701720881077308023E8600DE
:102270008701013081023D293D2908000030FC0022
:102280000030FB000030FA000030F9004729711CD3
:102290004A294B2954297508F9077608FA3D770829
:1022A000FB3D7808FC3D54290130F535F60DF70D5E
:1022B000F80D890B55290130F436F30CF20CF10CB2
:1022C000890B5C297408730472047104031D692965
:1022D0006A2947296B297C08F4007B08F3007A08F7
:1022E000F2007908F10074290800F7009D290130F7
:1022F000F502730886007408870077089B31F02385
:1023000091310106031D852986298F290130F600A8
:102310007608F7070130F3070030F43D9D29730874
:102320008600740887000108F6007608F100770837
:102330009C3109249131A3299D29F508031DA12968
:10234000A2297729A3297508031DA729AA290030E6
:10235000AC29AC290130AC290800F3007108F20067
:102360007308860087017208810773088600870159
:102370003C300102031CBD29BE29E52973088600F3
:1023800087013C3081020130F2007308013E860073
:102390008701720881077308013E860087013C307F
:1023A0000102031CD429D529E5297308013E8600C2
:1023B00087013C3081020130F2007308023E860042
:1023C000870172088107E529E5290800F500192A27
:1023D0000130F20272087507F300730886000530B9
:1023E000870072087107F4007408840005308500C6
:1023F000000801020318FD29FE29012AFF30212AC5
:10240000212A72087107F3007308860005308700DF
:1024100072087507F4007408840005308500000810
:1024200001020318142A152A192A0130212A212A07
:10243000192AF208031D1D2A1E2AE8291F2A003026
:10244000212A0800720871040319272A282A582A09
:10245000F6010314F60D362A0130F135F20D890B21
:102460002D2A0130F5007508F607362AF21F392AA1
:102470003A2A2C2A3C2A3C2A72087402031D422A5A
:1024800071087302031C452A462A4B2A7108F3027D
:102490007208F43B4B2A0130F236F10C890B4C2ABE
:1024A0000130F602031D552A562A3C2A582A582A7A
:1024B0007408F201F2077308F101F1075F2A0800BE
:1024C0000130F70077082000C70764304702031C7B
:1024D0006A2A6B2AA12AC7010130F7007708210078
:1024E000E2073C306202031C762A772A9E2AE20128
:1024F000E330F1000030F200F3010314F30D9431E6
:1025000041249231A030F1000530F200F3010314B0
:10251000F30D943141249231A830F1000530F200DE
:10252000A030F3000530F4000430F7007708F50020
:102530009C314E249231200048169E2A0130A32A55
:10254000A32A0030A32A0800F601F70172087104DB
:102550000319AB2AAC2AE22AF8010314F80DBA2AAF
:102560000130F135F20D890BB12A0130F500750803
:10257000F807BA2AF21FBD2ABE2AB02AC02AC02AEA
:102580000130F635F70D890BC12A72087402031D5C
:10259000CB2A71087302031CCE2ACF2AD52A7108D0
:1025A000F3027208F43B7614D52A0130F236F10CAE
:1025B000890BD62A0130F802031DDF2AE02AC02A3F
:1025C000E22AE22A7708F201F2077608F101F10720
:1025D000E92A08008B139731532792319B31E92365
:1025E00092318731E42792319B31EA23923186314F
:1025F0008F269231FB2A8B17640064302100480239
:10260000031C032B042BFB2A6430C8029C31D22408
:10261000923188310A20923195310E2592319C31C8
:102620001B2492318D316225923181317821923192
:1026300020004C08043A031D1E2B1F2B242B480896
:10264000031D232B292B242B0530EC006C08EE00F6
:10265000FB2A0130EE02031D2E2B2F2BFB2AEE014D
:102660000314EE0DFB2AFB2AFB2AFB2AFB2A8131ED
:102670007529F8007208803AF5007408803A7502EE
:10268000031D442B730871020318472B482B892B19
:1026900078080E3E86008701403FF500413FF60076
:1026A0007408803AF7007608803A7702031D5A2BA7
:1026B0007508730203185D2B5E2B672B78080E3E9E
:1026C000860087017308C03F7408C13F892B7808D2
:1026D0000E3E86008701403FF500413FF600760838
:1026E000803AF7007208803A7702031D792B71084F
:1026F000750203187C2B7D2B892B78080E3E8600F3
:1027000087017108C03F7208C13F892B892B892B33
:10271000892B0800F3007108F2007308860004306A
:1027200087007208810773088600043087003C30F8
:102730000102031C9C2B9D2BDD2B730886000430AB
:1027400087003C3081020130F2007308013E8600B0
:1027500004308700720881077308013E8600043048
:1027600087003C300102031CB62BB72BDD2B73080E
:10277000013E8600043087003C3081020130F200C7
:102780007308023E860004308700720881077308D0
:10279000023E8600043087008108031DD02BD12B18
:1027A000DD2B0130F2007308033E86000430870001
:1027B00072088107DD2BDD2BDD2B080000302000A7
:1027C000DD000030DC000030DB000030DA005408AF
:1027D0005304520451040319EE2BEF2B372CDE0166
:1027E0000314DE0DFF2B0130D135D20DD30DD40DE6
:1027F000890BF42B0130D9005908DE07FF2BD41FB9
:10280000022C032CF32B052C052C0130DA35DB0DC3
:10281000DC0DDD0D890B062C54085802031D1A2C03
:1028200053085702031D1A2C52085602031D1A2C76
:1028300051085502031C1D2C1E2C282C5108D502B2
:102840005208D63B5308D73B5408D83B5A14282C7F
:102850000130D436D30CD20CD10C890B292C013089
:10286000DE02031D342C352C052C372C372C5D084B
:10287000D4005C08D3005B08D2005A08D100402C79
:1028800008007308F4007108860072088700740855
:10289000810771088600720887003C300102031C22
:1028A000522C532CA42C71088600720887003C30EF
:1028B00081020130F4007108013EF5000030723DE4
:1028C000F60075088600760887007408810771088D
:1028D000013EF4000030723DF50074088600750872
:1028E00087008108031D752C762CA42C0130F40080
:1028F0007108023EF5000030723DF6007508860052
:1029000076088700740881077108023EF4000030E1
:10291000723DF50074088600750887008108031D64
:10292000922C932CA42C0130F4007108033EF50086
:102930000030723DF600750886007608870074083E
:102940008107A42CA42CA42C08002000CB08031D74
:10295000AA2CAB2CB12CC5016D08F1007108C60082
:102960000D2D6D08F100F201F11BF2037208803A9F
:10297000803C031DBE2C71082A0057020318C12C8D
:10298000C22CCA2C20006D08F10071082A00D70063
:102990002000C81520004608803AF1006D08803AF2
:1029A000F1020318D42CD52CDA2C6D08F100710833
:1029B000C600DA2C2100E208031DDF2CE02C0D2DCF
:1029C0002000C508031DE52CE62C032DC5010314CA
:1029D000C50D2A005D08F1007108DE005C08F100F9
:1029E0007108DD005B08F1007108DC005A08F10095
:1029F0007108DB005908F1007108DA005808F1008D
:102A00007108D900032D20004608F10071082A0042
:102A1000D8002000C8150D2D0D2D08000130200014
:102A2000D1005108BE0764303E02031C182D192D39
:102A3000962DBE017D08D100D2015108F90052083F
:102A4000FA008A31502295312C309C313024953156
:102A500021003F082000D100D2015108F90052089E
:102A6000FA008A31502295312C309C313024953136
:102A700021003D082000D100D2015108F900520880
:102A8000FA008A31502295312C309C313024953116
:102A900020003708FA01FA073608F901F9078A31E8
:102AA000502295312C309C3130249531200035084E
:102AB000FA01FA073408F901F9078A3150229531F1
:102AC0002C309C313024953120003308FA01FA076C
:102AD0003208F901F9078A31502295312C309C31A6
:102AE0003024953120006D08F900FA01F91BFA0332
:102AF0008A31502295312C309C3130249531FE3072
:102B00009B31F02395312000D100D2015108F9000A
:102B10005208FA008A31502295310D309C31302410
:102B200095310A309C3130249531962D08002100D2
:102B3000BA08031D9C2D9D2DA42D2000AC01AD01D4
:102B4000BA01B901B801282E21003908031DA92DA9
:102B5000282E3D08F100F20171082000AC07720830
:102B6000AD3D023021003D020318B72DB82DC22D16
:102B70000130F10071082000BA077F30F1007108C0
:102B8000ED00C22DFE3021003D02031CC82DC92DD1
:102B9000CF2D0130F10071082000BA07ED0101309E
:102BA000F10071082000B80704303802031CD92D49
:102BB000DA2D282EBA08031DDE2DDF2D092EB901CE
:102BC0002D08F2002C08F1000230F236F10C890BCE
:102BD000E52D7108013E840090300318013E850008
:102BE0000008F3007308ED006D08803A183E031CDE
:102BF000FA2DFB2D212EFC2DC908031D002E012EC0
:102C0000212E0230F1007108C900212E212E212E23
:102C1000212E0130F1007108B9070A303902031C76
:102C2000122E132E212E142EC908031D182E192E14
:102C3000212E0230F1007108C900212E212E212EF3
:102C4000212EAC01AD01BA01B801282E282E282E64
:102C5000080000302000DD000030DC000030DB0028
:102C60000030DA000030D5000030D4000030D3004E
:102C70000030D2000030D9000030D8000030D7003A
:102C80000030D6001030F5007508D100472E013015
:102C9000DA35DB0DDC0DDD0D890B482E0130D63524
:102CA000D70DD80DD90D890B4F2EF41F582E592E44
:102CB0005B2E56145B2E0130F135F20DF30DF40D41
:102CC000890B5C2E0130D635D70DD80DD90D890B67
:102CD000632EF41F6C2E6D2E6F2E56146F2E013046
:102CE000F135F20DF30DF40D890B702E5A08F50035
:102CF0005B08F6005C08F7005D08F8000130F53568
:102D0000F60DF70DF80D890B7F2E01307504D200FA
:102D100000307604D30000307704D400003078040B
:102D2000D50055085902031D9F2E54085802031D53
:102D30009F2E53085702031D9F2E52085602031C54
:102D4000A22EA32EAD2E5208D6025308D73B54080C
:102D5000D83B5508D93B5A14AD2E0130D102031D82
:102D6000B22EB32E472EB42E5B08F201F2075A089A
:102D7000F101F107BB2E08000130F10071082100BC
:102D8000B80705303802031CC62EC72ED02E0530DA
:102D9000F1007108B800B601BA01AA01AB012E2FEB
:102DA00005303602031CD52ED62E2E2F0530F1000D
:102DB0007108B6003708FF3EF1007108F50075088C
:102DC00007390907603E8600033087007508FC3E1E
:102DD00007390907603E840003308500003FF10099
:102DE000013FF200F109F209F10A0319F20A403F2A
:102DF0007107F300413F723DF4000330F436F30CE9
:102E0000890BFE2E7308F6007408F7000130770274
:102E10002D3003197602031C0E2F0F2F2E2F013099
:102E20007702F430031976020318172F182F2E2F6C
:102E30007708AB01AB077608AA01AA077708F2006A
:102E40007608F1000330F236F10C890B232F71085C
:102E5000F3007308BA002E2F2E2F2E2F3A08031DD1
:102E6000322F352FA801A901522F0130A8070030B9
:102E7000A93D013029022C3003192802031C412FDF
:102E8000422F522F432F2000C908031D482F492FDE
:102E9000522F0A30C900F1007108C900522F522F79
:102EA000522F522F08008B13F03021009900980107
:102EB0001130970022009D019E010430F10071083D
:102EC0002100DB00043022008C00193021008C002E
:102ED000113023008C0024008C0127008C01E0308D
:102EE00022008D00303021008D0023008D01240050
:102EF0008D01203027008D0022008E01EF3021004F
:102F00008E00CF3023008E0024008E0127008E011A
:102F100022009701990198010330920082309100BC
:102F200001309400A2309300A03021009E00253093
:102F30009D00DC010314DC0DFF30F1007108DE00A0
:102F4000FF30F1007108DF00FF30F1007108DD0093
:102F5000BE01BF01BD010030A7000030A600003057
:102F6000A5000030A400BC010030A3000030A20086
:102F70000030A1000030A000BB010A3023009F00F8
:102F80001F309B0003309C009D0104309E009D1764
:102F90001D169E16A601A401A701A501A201A0016C
:102FA000A301A101200099013030980031302800A0
:102FB0009D0005309E002000910192019301940133
:102FC0002100910192010830930094010B17C80170
:102FD000AE01AF01FF30F1007108E000FF30F100F9
:102FE0007108E100C001C101C501C701C601B401FA
:102FF000B501B201B301AC01AD01C901CA010800BC
:103000008E31092E8E310D2E8E31162E8E311F2EC1
:103010008E31282E8E31312E8E313A2E8E31432E26
:083020008E314C2E8E31552E2D
:1037D20008002000CC01CB01CA01FD010800F10064
:1037E2007108230091001513951315141308F92B72
:1037F2000800F2002000500872060319012C022C66
:10380200082C7208F1007108D000C817082C0800B3
:10381200F2007208230091007108930015139513AA
:1038220015158B1355309600AA30960095148B17F8
:1038320015110800953197259C31893181219C31E0
:103842008B312E239C319631BC269C3188310B2042
:103852009C318E3188269C312100B9010800F2008A
:10386200203023002402031C372C382C3A2C4D2CF8
:103872004D2C7208F10027081F39A03E8600033044
:103882008700710881000130F1007108A70701303B
:10389200F1007108A4074D2C0800642C73088600FF
:1038A200740887000108F600710886007208870014
:1038B200760881000130F1070030F23D0130F30754
:1038C2000030F43D642C0130F5027508FF3A031D07
:1038D2006B2C6C2C4F2C6D2C0800F600842C760877
:1038E2009B31F0239C31F500720886007308870033
:1038F200750881000130F5007508F6070130F207FE
:103902000030F33D842C0130F4027408FF3A031DA9
:103912008B2C8C2C702C8D2C0800FD012030840007
:10392200003085003130913101219C31A03084007A
:10393200003085003B30913101219C31A030840060
:10394200013085000830913101219C318031032002
:103952009C31EE0020009231EA2AF501F601B12CE9
:10396200711CB42CB52CB92C7308F5077408F63DFC
:103972000130F335F40D890BBA2C0130F236F10C1B
:10398200890BBF2C72087104031DC82CC92CB12CE1
:10399200CA2C7608F201F2077508F101F107D12C61
:1039A200080022009D019E01193021008C00113077
:1039B20023008C0024008C0127008C013030210070
:1039C2008D0023008D0124008D01203027008D0001
:1039D200EF3021008E00CF3023008E0024008E01B4
:1039E20027008E01220097019801990182309100EF
:1039F20003309200A230930001309400080000349A
:103A0200023404348634003482348434DE34603444
:103A12000A340C348E3408348A348C348E340034B4
:103A2200023404348634003482348434DE34603424
:103A32000A340C348E3408348A348C348E34003494
:103A4200023404348634003482348434DE34603404
:103A52000A340C348E3408348A348C348E34003474
:103A6200023404348634003482348434DE346034E4
:103A72000A340C348E3408348A348C348E34003454
:103A8200023404348634003482348434DE346034C4
:103A92000A340C348E3408348A348C348E34003434
:103AA200023404348634003482348434DE346034A4
:103AB2000A340C348E3408348A348C348E34003414
:103AC200023404348634003482348434DE34603484
:103AD2000A340C348E3408348A348C348E340034F4
:103AE200023404348634003482348434DE34603464
:103AF2000A340C348E3408348A348C348E340034D4
:103B0200023404348634003482348434DE34603443
:103B12000A340C348E3408348A348C348E340034B3
:103B2200023404348634003482348434DE34603423
:103B32000A340C348E3408348A348C348E34003493
:103B4200023404348634003482348434DE34603403
:103B52000A340C348E3408348A348C348E34003473
:103B6200023404348634003482348434DE346034E3
:103B72000A340C348E3408348A348C348E34003453
:103B8200023404348634003482348434DE346034C3
:103B92000A340C348E3408348A348C348E34003433
:103BA200023404348634003482348434DE346034A3
:103BB2000A340C348E3408348A348C348E34003413
:103BC200023404348634003482348434DE34603483
:103BD2000A340C348E3408348A348C348E340034F3
:103BE200023404348634003482348434DE34603463
:103BF2000A340C348E3408348A348C348E340034D3
:103C020000340134003404340034093400341034F4
:103C12000034193400342434003431340034403454
:103C22000034513400346434003479340034903434
:103C32000034A9340034C4340034E1340034003494
:103C42000134213401344434013469340134903470
:103C52000134B9340134E4340134113402344034CF
:103C6200023471340234A4340234D93402341034AC
:103C720003344934033484340334C1340334003408
:103C820004344134043484340434C93404341034E4
:103C9200053459340534A4340534F1340534403440
:103CA200063491340634E43406343934073490341B
:103CB2000734E934073444340834A1340834003476
:103CC200093461340934C434093429340A3490344F
:103CD2000A34F9340A3464340B34D1340B344034AA
:103CE2000C34B1340C3424340D3499340D34103482
:103CF2000E3489340E3404340F3481340F340034DA
:103D020010348134103404341134893411341034B1
:103D120012349934123424341334B1341334403409
:103D22001434D134143464341534F93415349034E1
:103D3200163429341734C434173461341834003437
:103D42001934A134193444341A34E9341A3490340D
:103D52001B3439341C34E4341C3491341D34403463
:103D62001E34F1341E34A4341F3459342034103438
:103D72002134C9342134843422344134233400348C
:103D82002434C13424348434253449342634103460
:103D92002734D9342734A4342834713429344034B4
:103DA2002A3411342B34E4342B34B9342C34903487
:103DB2002D3469342E3444342F34213430340034D9
:103DC2003134E1343134C4343234A93433349034AC
:103DD20034347934353464343634513437344034FD
:103DE20038343134393424343A3419343B341034CD
:103DF2003C3409343D3404343E3401343F3400341D
:103E020040340134413404344234093443341034EC
:103E1200443419344534243446343134473440343C
:103E220048345134493464344A3479344B3490340C
:103E32004C34A9344D34C4344E34E1344F3400345C
:103E42005134213452344434533469345434903428
:103E52005534B9345634E434573411345934403477
:103E62005A3471345B34A4345C34D9345D34103444
:103E72005F344934603484346134C1346234003490
:103E820064344134653484346634C934673410345C
:103E9200693459346A34A4346B34F1346C344034A8
:103EA2006E3491346F34E434703439347234903473
:103EB2007334E934743444347634A13477340034BE
:103EC200793461347A34C4347B3429347D34903487
:103ED2007E34F9347F3464348134D13482344034D2
:103EE2008434B1348534243487349934883410349A
:103EF2008A3489348B3404348D3481348E340034E2
:103F020090348134913404349334893494341034A9
:103F120096349934973424349934B1349A344034F1
:103F22009C34D1349D3464349F34F934A0349034B9
:103F3200A2342934A434C434A5346134A7340034FF
:103F4200A934A134AA344434AC34E934AD349034C5
:103F5200AF343934B134E434B2349134B43440340B
:103F6200B634F134B734A434B9345934BB341034D0
:103F7200BD34C934BE348434C0344134C234003414
:103F8200C434C134C5348434C7344934C9341034D8
:103F9200CB34D934CC34A434CE347134D03440341C
:103FA200D2341134D434E434D534B934D7349034DF
:103FB200D9346934DB344434DD342134DF34003421
:103FC200E134E134E234C434E434A934E6349034E4
:103FD200E8347934EA346434EC345134EE34403425
:103FE200F0343134F2342434F4341934F6341034E5
:0E3FF200F8340934FA340434FC340134FE345B
:020000040001F9
:04000E009C0FFC3F08
:10E00000570049004E000000DC0000000000010045
:10E01000B4004F008F00FD00000000000100B400BC
:10E020004F008F00FD0000002E0000002E000200B7
:10E0300000000000000000000000000000000000E0
:10E0400000000000000000000000000000000000D0
:10E0500000000000000000000000000000000000C0
:10E0600000000000000000000000000000000000B0
:10E0700000000000000000000000000000000000A0
:10E080000000000000000000000000000000000090
:10E090000000000000000000000000000000000080
:10E0A0000000000000000000000000000000000070
:10E0B0000000000000000000000000000000000060
:10E0C0000000000000000000000000000000000050
:10E0D0000000000000000000000000000000000040
:10E0E0000000000000000000000000000000000030
:10E0F0000000000000000000000000000000000020
:10E10000000000000000000000000000000000000F
:10E1100000000000000000000000000000000000FF
:10E1200000000000000000000000000000000000EF
:10E1300000000000000000000000000000000000DF
:10E1400000000000000000000000000000000000CF
:10E1500000000000000000000000000000000000BF
:10E1600000000000000000000000000000000000AF
:10E17000000000000000000000000000000000009F
:10E18000000000000000000000000000000000008F
:10E19000000000000000000000000000000000007F
:10E1A000000000000000000000000000000000006F
:10E1B000000000000000000000000000000000005F
:10E1C000000000000000000000000000000000004F
:10E1D000000000000000000000000000000000003F
:10E1E000000000000000000000000000000000002F
:10E1F000000000000000000000000000140000000B
:00000001FF
