:1000000081313E2908000800803120007F08F0007F
:1000100021005C189D145B155B0822000C06243936
:100020008C06200093119D30850021004708200098
:100030008E1A01388400003F2100C70049082200C1
:10004000951801388400003F2100C90048082200AB
:10005000151801388400003F2100C800C71E3D2844
:1000600045353E39203E84000330850030081A00B3
:1000700031081A00C50AC40AC601DB12491B4C2804
:10008000B51FA328B40F4528B50AB60F4828B70AEC
:10009000B71BA328DB16A328B5013C0803197B284E
:1000A000FD3EE0000A3EE100283032020030333BE2
:1000B000031C7B282E083202B6002F08333BB70002
:1000C000FF300318B6000318B7002E08243C840044
:1000D0002F08353B850005303602B4000030373B31
:1000E000B500040834020508353B03187B280408D2
:1000F000B4000508B500491EA3283B1439350E3954
:10010000603E84000330850030081A0031081A0070
:10011000B90AB80ABA012408A0002508A1002608D7
:10012000A2002708A3003E08BD00A401A501A60166
:10013000A701BE013C080319A328023EDE00013ED0
:10014000DF00023EDD003008B00FA728B10A0339F6
:100150000B00AD28E1280E2926292300A61FA60A98
:1001600024080319C2280C302602031CC228A60149
:1001700025081F39A03E840003308500003F9A0007
:10018000A50AA4032100CA0A5C1CD7289D18C6280A
:100190001B0984009E30850084350318850A1200EF
:1001A000A4071200A53D0001A63DA73DBE0ADC0143
:1001B000DE1FDE0B090015309D0020309E005C1410
:1001C00009002300A21FA20A2000911EFA28230082
:1001D000A2011908850020302002031CFA282308F8
:1001E0001F39C03E84000330050685060506803FA2
:1001F000A30AA00A21005C1C04299D18FD281C08E4
:10020000803C031C003CC000DC01DF1FDF0B090049
:1002100019309D0020309E005C140900E01FE00BA7
:10022000162948084906803A090DC20D5C1C1C2994
:100230009D1818291C08C100DC01DD1FDD0B090019
:100240000D309D0020309E005C140900E11FE10B81
:100250002E2948084906803A090DC30D5C1C342933
:100260009D1830291C08BF0025309D00A0309E003D
:100270005C14090070082000FF00090088019A3111
:10028000462A8E316C2681312000E4006408FC008F
:10029000963169268131200027082604250424048C
:1002A0000319532954299A2C0130E4000030E50049
:1002B0000030E6000030E7006408A4026508A53BB2
:1002C0006608A63B6708A73B9A2C9A2CB201B3019B
:1002D0000C30450203186D296E2973294430E4005F
:1002E0006408C5007329C408031D772978294B2B9E
:1002F00021003C08031D7D294B2B0D307C02031C83
:10030000822983298F29200045087C020318892926
:100310008A298F297C08E4006408C5008F292B30C6
:100320009A316222813120004508E400E501640829
:10033000F9006508FA0088317D2081312B309A312F
:10034000622281310D307C02031CA729A829022AD0
:1003500044307C020318AD29AE29022A03307D0205
:100360000318B329B429022A2A309A316222813132
:100370006430F9000030FA0088317D20813120009E
:100380004608E400E5016408F9006508FA008831D0
:100390007D2081316330F9000030FA0088317D2002
:1003A00081317C082000E400E5016408F90065085B
:1003B000FA0088317D2081316230F9000030FA0086
:1003C00088317D2081317D082000E400E50164084A
:1003D000F9006508FA0088317D2081312A309A3190
:1003E000622281312000CC010314CC0D0030A70023
:1003F0000030A6000030A5003230A400C90103146B
:10040000C90D452B0B307C02031C072A082A6A2AD7
:100410005E307C0203180D2A0E2A6A2A7C08023EEE
:100420002000E400003003180130E5006508803A40
:10043000E60080306602031D1F2A46086402031886
:10044000222A232A6A2A5A30F9000030FA00883119
:100450007D20813120004608E400E5016408F900B0
:100460006508FA0088317D2081315930F90000306B
:10047000FA0088317D2081317C082000E400E5010C
:100480006408F9006508FA0088317D208131583010
:10049000F9000030FA0088317D2081317D0820008C
:1004A000E400E5016408F9006508FA0088317D2060
:1004B00081312000CC010314CC0D0030A7000030A6
:1004C000A6000030A5003230A4000230E400640829
:1004D000C900452B2C307C02031C6F2A702AD42AB9
:1004E0007C08023E2000E400003003180130E500E3
:1004F0006508803AE60080306602031D812A4608BE
:1005000064020318842A852AD42A61309A3162222F
:1005100081315030F9000030FA0088317D2081317E
:1005200020004608E400E5016408F9006508FA00C7
:1005300088317D2081314F30F9000030FA00883158
:100540007D2081317C082000E400E5016408F90089
:100550006508FA0088317D2081314E30F900003085
:10056000FA0088317D2081317D082000E400E5011A
:100570006408F9006508FA0088317D208131613016
:100580009A31622281312000CC010314CC0D00305D
:10059000A7000030A6000030A5003230A4000330D0
:1005A000E4006408C900452B0D307C02031CD92AE5
:1005B000DA2A452B2B307C020318DF2AE02A452B50
:1005C0002000C608031DE52AE62A452B7D08013ACE
:1005D0000319EB2AEC2AF32A7D08023A031DF12ABB
:1005E000F22A452BF32A28309A3162228131463093
:1005F000F9000030FA0088317D2081312000460862
:10060000E400E5016408F9006508FA0088317D20FE
:1006100081314530F9000030FA0088317D20813188
:100620007C082000E400E5016408F9006508FA0090
:1006300088317D2081314430F9000030FA00883162
:100640007D2081317D082000E400E5016408F90087
:100650006508FA0088317D20813129309A31622283
:1006600081312000CC010314CC0D0030A7000030F4
:10067000A6000030A5003230A4000430E400640875
:10068000C900452B452B452B452B7C082000E40059
:100690006408C600A52C20004408031D502BA52C7F
:1006A000CC010314CC0D0030A7000030A6000030B0
:1006B000A5000A30A400A52CA52CA52CB201B301DD
:1006C000C4010314C40D0D307C02031C682B692B7C
:1006D000742B45087C0203186E2B6F2B742B7C083F
:1006E000E4006408C500742B2B309A3162228131FA
:1006F00020004508E400E5016408F9006508FA00F7
:1007000088317D2081312B309A3162228131210064
:100710004208FF3A031D8D2B8E2BF82B4308FF3A1E
:10072000031D932B942BF82B2000EE1B982B992B59
:10073000F82B4908031D9D2BE02B45304602031C76
:10074000A22BA32BF82B4608023EE400003003182E
:100750000130E5006508803AE60080306602031D3E
:10076000B32B7C0864020318B62BB72BF82B3D3053
:100770009A316222813120004608E400E5016408D4
:10078000F9006508FA0088317D2081317C0820005D
:10079000E400E5016408F9006508FA0088317D206D
:1007A000813102302000E4006408CC000030A70052
:1007B0000230A600BF30A5002030A400F82BF82B93
:1007C0000230E4006408CC000030A7000230A6002C
:1007D000BF30A5002030A4001430F9000030FA002A
:1007E00088317D2081313B309A3162228131F82B72
:1007F0007C082000E4006408C600A52CC901C808D4
:10080000031D032C042C0D2C270826042504240486
:10081000031D0B2C0C2C7A2C0D2CB201B3014808B3
:10082000E4006408CA000330E4006408CC0000302F
:10083000A7000030A6000030A5003230A400A52C8F
:100840007A2CCB01B201B301A52CCB01B201B301CB
:10085000A52C0230E4006408CB00B830B2000B30A5
:10086000B300A52C0230E4006408CB00A030B20035
:100870000F30B300A52C0330E4006408CB007030C7
:10088000B2001730B300A52C0430E4006408CB009C
:100890004030B2001F30B300A52C0530E4006408DE
:1008A000CB001C30B2002530B300A52C0630E4008C
:1008B0006408CB000430B2002930B300A52C073007
:1008C000E4006408CB00E030B2002E30B300A52C69
:1008D0000730E4006408CB00BC30B2003430B30011
:1008E000A52CCB010314CB0DBD30B2003430B300C6
:1008F000A52CA52C7D08FF3E031C212C84000A306A
:1009000004020318212C88310435003E8200A52CF6
:10091000A52CB201B3012708260425042404031DD5
:10092000922C932CA52C0430E4006408CC00A52C58
:10093000A52CA52C4C08003A03196629013A031985
:100940005E2B033A0319FE2B892C08009C316B2483
:100950008431003A0319AD2CAE2CB82C8C31E12433
:1009600084318731FF278431883114208431B82CB9
:100970009531B92584312000471CBF2CC02CFC2C9C
:100980002030F3000430F4000730F9007908F50056
:1009900023309B3180238431003A0319D02CD12C91
:1009A0009F2E2830F3000430F4001530F900790848
:1009B000F50038309B3180238431003A0319E12C53
:1009C000E22C9F2E4030F3000430F4001C30F9007C
:1009D0007908F5008F309B3180238431003A031968
:1009E000F22CF32C9F2EFE30F90079082000C70569
:1009F0009F2E9F2E9F2E9F2EC71CFF2C002D3C2D1F
:100A0000A030F3000430F4000730F9007908F50055
:100A10002A309B3180238431003A0319102D112D87
:100A20009F2EA830F3000430F4000730F900790855
:100A3000F50031309B3180238431003A0319212D98
:100A4000222D9F2EB030F3000430F4000E30F90058
:100A50007908F50054309B3180238431003A031922
:100A6000322D332D9F2EFD30F90079082000C70567
:100A70009F2E9F2E9F2E9F2E471D3F2D402D7C2D5C
:100A80002030F3000530F4000730F9007908F50054
:100A90001C309B3180238431003A0319502D512D95
:100AA0009F2E2730F3000530F4000930F900790853
:100AB000F50086309B3180238431003A0319612D83
:100AC000622D9F2E3030F3000530F4001C30F90009
:100AD0007908F50062309B3180238431003A031994
:100AE000722D732D9F2EFB30F90079082000C70569
:100AF0009F2E9F2E9F2E9F2EC71D7F2D802DBB2D9D
:100B00005030F3000530F4000730F9007908F500A3
:100B10007E309B3180238431003A0319902D912D32
:100B20009F2E5730F3000530F400F5010314F50D46
:100B300085309B3180238431003A0319A02DA12DEB
:100B40009F2E5830F3000530F4000730F900790883
:100B5000F5004D309B3180238431003A0319B12DCB
:100B6000B22D9F2EF730F90079082000C7059F2E7F
:100B70009F2E9F2E9F2E471EBE2DBF2DFB2DA030DA
:100B8000F3000530F4000430F9007908F500D7309F
:100B90009B3180238431003A0319CF2DD02D9F2E15
:100BA000A430F3000530F4000430F9007908F500B2
:100BB000DF309B3180238431003A0319E02DE12D91
:100BC0009F2EA830F3000530F4000430F9007908B6
:100BD000F500D3309B3180238431003A0319F12D85
:100BE000F22D9F2EEF30F90079082000C7059F2EC7
:100BF0009F2E9F2E9F2EC71EFE2DFF2D4D2E203087
:100C0000F3000630F4000430F9007908F500AB3049
:100C10009B3180238431003A03190F2E102E9F2E12
:100C20002430F3000630F4002430F9007908F50090
:100C3000AF309B3180238431003A0319202E212EBE
:100C40009F2E5030F3000630F4000230F90079088E
:100C5000F500E5309B3180238431003A0319312EB1
:100C6000322E9F2E5430F3000630F4001230F9007B
:100C70007908F500E7309B3180238431003A03196D
:100C8000422E432E9F2EDF30F90079082000C70541
:100C90009F2E9F2E9F2E9F2E9F2E471F502E512EF0
:100CA0007B2E5830F3000630F4000430F900790848
:100CB000F500DB309B3180238431003A0319612E2B
:100CC000622E9F2E5C30F3000630F4000230F900F3
:100CD0007908F500E3309B3180238431003A031911
:100CE000722E732E9F2EBF30F90079082000C705A1
:100CF0009F2E9F2E9F2EC71F7E2E7F2E962E513009
:100D0000F3000030F400F5010314F50DFE309B31C3
:100D100080238431003A03198E2E8F2E9F2E7F3030
:100D2000F90079082000C7059F2E9F2EC7019F2E2E
:100D30009F2E9F2E9F2E9F2E9F2E9F2E9F2E080010
:100D40002000C7011E30F70077082100E200E30110
:100D5000E401E501E6012030F2000430F300073041
:100D6000F7007708F40023309A31A022863128302A
:100D7000F2000430F3001530F7007708F400383043
:100D80009A31A02286314030F2000430F3001C304A
:100D9000F7007708F4008F309A31A0228631A03016
:100DA000F2000430F3000730F7007708F4002A302F
:100DB0009A31A0228631A830F2000430F3000730C7
:100DC000F7007708F40031309A31A0228631B03034
:100DD000F2000430F3000E30F7007708F4005430CE
:100DE0009A31A02286312030F2000530F30007301E
:100DF000F7007708F4001C309A31A02286312730A2
:100E0000F2000530F3000930F7007708F40086306F
:100E10009A31A02286313030F2000530F3001C30C8
:100E2000F7007708F40062309A31A0228631503002
:100E3000F2000530F3000730F7007708F4007E3049
:100E40009A31A02286315730F2000530F300F401C8
:100E50000314F40D85309A31A02286315830F20007
:100E60000530F3000730F7007708F4004D309A3171
:100E7000A0228631A030F2000530F3000430F700E4
:100E80007708F400D7309A31A0228631A430F200DE
:100E90000530F3000430F7007708F400DF309A31B2
:100EA000A0228631A830F2000530F3000430F700AC
:100EB0007708F400D3309A31A02286312030F20036
:100EC0000630F3000430F7007708F400AB309A31B5
:100ED000A02286312430F2000630F3002430F700DF
:100EE0007708F400AF309A31A02286315030F200FA
:100EF0000630F3000230F7007708F400E5309A314D
:100F0000A02286315430F2000630F3001230F70090
:100F10007708F400E7309A31A02286315830F20089
:100F20000630F3000430F7007708F400DB309A3124
:100F3000A02286315C30F2000630F3000230F70068
:100F40007708F400E3309A31A02286315130F20064
:100F50000030F300F4010314F40DFE309A31A022A6
:100F60008631A830F7007708F1000430F8007808DF
:100F7000F200A0309B31F1238631F9007908FA00A4
:100F8000FA1FC32FC42FD82F2B002B08F700770888
:100F9000A3002A08F7007708A2002908F7007708BD
:100FA000A1002808F7007708A00020004716F42FBA
:100FB0007A08803A7F3E031CDE2FDF2FF42F2B00B0
:100FC0002308F7007708AB002208F7007708AA008B
:100FD0002108F7007708A9002008F7007708A80083
:100FE00020004716F42FF42F08009631762E963104
:100FF000862E96319E2E9631AE2E97310B2F0800FD
:101000008431252C8431292C8431322C84313B2CA1
:101010008431442C84314D2C8431562C84315F2C06
:101020008431682C8431712C2000CB08031D1928D1
:101030001A282028C1016E08F1007108C2007C281E
:101040006E08F100F201F11BF2037208803A803C55
:10105000031D2D2871082A00570203183028312853
:10106000392820006E08F10071082A00D7002000FE
:10107000C71520004208803AF1006E08803AF1025C
:1010800003184328442849286E08F1007108C2005B
:1010900049282100E208031D4E284F287C28200003
:1010A000C108031D542855287228C1010314C10D1D
:1010B0002A005D08F1007108DE005C08F10071088B
:1010C000DD005B08F1007108DC005A08F1007108CE
:1010D000DB005908F1007108DA005808F1007108C6
:1010E000D900722820004208F10071082A00D800B7
:1010F0002000C7157C287C280800FB0127307A02D5
:10110000103003197902031C86288728B028103074
:10111000F1002730F2007A08F401F4077908F301AE
:10112000F3079131062188317108303E9A316222ED
:1011300088311030F1002730F2007A08F401F4070A
:101140007908F301F3079C312D2488317208FA01E4
:10115000FA077108F901F907FB010314FB0DB02828
:10116000FB08031DB428B528BF2803307A02E830F5
:1011700003197902031CBD28BE28E828BF28E830DF
:10118000F1000330F2007A08F401F4077908F30162
:10119000F3079131062188317108303E9A3162227D
:1011A0008831E830F1000330F2007A08F401F407E6
:1011B0007908F301F3079C312D2488317208FA0174
:1011C000FA077108F901F907FB010314FB0DE82880
:1011D000FB08031DEC28ED28F72800307A02643064
:1011E00003197902031CF528F6282029F728643012
:1011F000F1000030F2007A08F401F4077908F301F5
:10120000F3079131062188317108303E9A3162220C
:1012100088316430F1000030F2007A08F401F407FC
:101220007908F301F3079C312D2488317208FA0103
:10123000FA077108F901F907FB010314FB0D2029D6
:10124000FB08031D242925292F2900307A020A30A2
:1012500003197902031C2D292E2955292F290A301B
:10126000F1000030F2007A08F401F4077908F30184
:10127000F3079131062188317108303E9A3162229C
:1012800088310A30F1000030F2007A08F401F407E6
:101290007908F301F3079C312D2488317208FA0193
:1012A000FA077108F901F90755297908303E9A3192
:1012B00062228831080001302000E000600821002F
:1012C000C60732304602031C66296729722932306C
:1012D0002000E00060082100C600C4012000B00129
:1012E000B1012D2A033021004402031C78297929F9
:1012F0002D2A1E304402031C7E297F2986291E3098
:101300002000E00060082100C40086294408FE3E59
:101310002000E0006008E60021004508FF3E2000B4
:10132000E0006008E800E70104306602031899292C
:101330009A29BF296608E0006008E70068081F399D
:101340000907203E8600033087006703FF3A6807DD
:101350001F390907203E840003308500003FE0006C
:10136000013FE100E009E109E00A0319E10A403F19
:101370006007E400413F613DE500FA29BF290430E0
:10138000E6020430E0006008E70768081F39090733
:10139000203E8600033087006703FF3A68071F3945
:1013A0000907203E840003308500003FE000013F34
:1013B000E100E009E109E00A0319E10A403F6007A2
:1013C000E400413F613DE500043066020318E9296D
:1013D000EA29EC29FA29FA29063065024030031976
:1013E0006402031CF429F529BF29FA29FA29BF2927
:1013F000BF29FA296408D2006508D300D401D501B9
:101400006708E000E101E201E3016308F40062081B
:10141000F3006108F2006008F1000030F8000930C4
:10142000F7002730F600C030F5009B3149238931A1
:1014300074082000D9007308D8007208D70071081A
:10144000D6009131F121893120005308B101B10753
:101450005208B001B0072D2A2D2A21003C08200097
:10146000E000E1012100330820006102031D3C2A55
:10147000210032082000600203183F2A402A4A2A2D
:10148000013031022C3003193002031C482A492A4A
:101490004E2A4A2A2100AC01AD016C2A01302100FC
:1014A000AC070030AD3D01302D022C3003192C0269
:1014B000031C5B2A5C2A6C2A5D2A2000C808031DD5
:1014C000622A632A6C2A0730C800E0006008C8005E
:1014D0006C2A6C2A6C2A6C2A08002000E600660838
:1014E0000C3E86008701403FD400413FD50066088E
:1014F0000E3E86008701403FD600413FD700570887
:10150000803AD8005508803A5802031D892A5408A9
:10151000560203188C2A8D2A932A2000D31F912A61
:10152000922AE62A932A200066080E3E860087014A
:10153000403FD400413FD50066080C3E860087013D
:10154000403FD600413FD7005708803AD8005508A1
:10155000803A5802031DAE2A540856020318B12AD5
:10156000B22AB82A2000D31BB62AB72AE62AB82AFC
:1015700020006608023E86008701403FD400413FBC
:10158000D5005408F1005508F200890D893B8909FE
:10159000F300F4005208F5005308F600890D893B6A
:1015A0008909F700F8009B3149238A312000660839
:1015B000083E860087017108810741317208813D2C
:1015C00041317308813D41317408813D6608083E10
:1015D00086008701403FD400413FD500423FD600FE
:1015E000433FD7006608063E86008701403FD8008B
:1015F000413FD9005808DA005908DB000030DB1BF6
:10160000FF30DC00DD00DA09DB09DC09DD09DA0A7C
:101610000319DB0A0319DC0A0319DD0A66088600D0
:101620008701403FDE00413FDF005E08F1005F08B8
:10163000F200890D893B8909F300F4005208F50096
:101640005308F600890D893B8909F700F8009B31A2
:1016500049238A3171082000E0007208E100730814
:10166000E2007408E3006608043E86008701403FFC
:10167000E400413FE5006408F1006508F200890DCF
:10168000893B8909F300F4005208F5005308F6007D
:10169000890D893B8909F700F8009B3149238A317C
:1016A00071082000E0077208E13D7308E23D74080C
:1016B000E33D6008DA076108DB3D6208DC3D630852
:1016C000DD3D5A08D4075B08D53D5C08D63D5D0872
:1016D000D73D66080C3E860087015408C03F550878
:1016E000C13F5608C23F5708C33F66080E3E8600FA
:1016F0008701403FD400413FD50066080C3E86007C
:1017000087015408C03F5508C13F6608063E860061
:1017100087015208C03F5308C13F8E2B08002000AC
:101720003C08031D942B972B0130BC02972B3308E8
:10173000320403199C2B9D2BA32B2100BC08031DF5
:10174000A22BA32BD62C2000BB018B132100B201AE
:10175000B3018B17E02CE02CD62C8B132100B201A7
:10176000B3018B17B32B2F082E040319B82BB92BF9
:10177000E02C20003308AD01AD073208AC01AC0706
:101780005030A2000030A300A001A101D030210000
:10179000CB000730CC003230CD000030CE00F4302A
:1017A000CF000130D000D101D2013C30D500003053
:1017B000D600D301D4015608DA01DA075508D90159
:1017C000D9075608D801D8075508D701D7070130DF
:1017D0002000E7006708BB07C830E7006708BC00C7
:1017E000E02CE02C21003B08031DF72BE02C20000F
:1017F00033082D06031DFE2B32082C060319012C7D
:10180000022C212C33082D02031D082C32082C0237
:1018100003180B2C0C2C112CC830E7006708BC00F7
:10182000112C3308AD01AD073208AC01AC07210023
:101830005A082000A301A307210059082000A20193
:10184000A20732303302C83003193202031C292C9C
:101850002A2C3C2C19303C02031C2F2C302C352C0C
:101860001930E7006708BC00352C321C382C392CA5
:101870003C2CBC013C2C3C2C21002F08F201F2072F
:101880002E08F101F1073630F3000030F4009A31F0
:10189000C0228B3171082000E7007208E800063092
:1018A000E836E70C890B502C6708EB006808EC0061
:1018B0000030A0070030A13D1030A23D0030A33D14
:1018C0002308803AE7006C08803A6702031D6A2CFF
:1018D0006B082202031C6D2C6E2C752C20006C08EA
:1018E000A301A3076B08A201A20720003009E700AB
:1018F0003109E800E70A0319E80A32086707E90036
:101900003308683DEA00BC08031D872C882C8D2C09
:10191000EA1F8B2C8C2C932C8D2CF4302100CB00C7
:101920000130CC00992CD0302100CB000730CC0006
:10193000992C20006A08D301D3076908D201D20785
:10194000CB308A316D228B312000321CA82CA92C7F
:10195000B82C2830F1000030F2006C08F401F407D4
:101960006B08F301F307CB309C31AF248B31C92CCA
:101970002830F1000030F20020002308F401F407C1
:101980002208F301F307CB309C31AF248B31C92CF3
:10199000C92C8B1321005A08B301B3075908B201AF
:1019A000B2078B17E02CE02CE02CE02C20003B0849
:1019B000003A0319AD2B013A0319F22BE02CE02C6D
:1019C0000800F1010314F10D4E309B31B8238C3126
:1019D00020004B0840060319EE2CEF2CF52C4B0889
:1019E000F7007708C000BE016B2E02303E020318DC
:1019F000FA2CFB2C002D0130F7007708BE076B2E68
:101A00004B083F060319052D062D0B2E0330F7005A
:101A10007708F1004E309B3112238C3120003F08B3
:101A2000031D132D582D08303F020318182D192DB2
:101A3000582D2830F1000430F2004E30F300003011
:101A4000F4000330F7007708F5009A3180228C31DA
:101A50001E3020004E0203182E2D2F2D412D4E0832
:101A6000F7007708F1003F08F8000130F835FF3E35
:101A7000031D362D7835FC3E403E91319D218C3141
:101A8000552D20004E08E23EF7007708F1003F0890
:101A9000F8000130F835FF3E031D4A2D7835FC3E35
:101AA000403E91319D218C31552D20004714582DF9
:101AB0004B08F7007708BF000330F7007708CE0027
:101AC000CF01D0013F08031D662D6B2E08303F0269
:101AD00003186B2D6C2D6B2E28002508F700770856
:101AE000A6002408F7007708A5002308F700770868
:101AF000A4002208F7007708A3002108F700770860
:101B0000A2002008F7007708A10020003F08F03E5F
:101B1000F70077082800A0003A30F1000430F20006
:101B20003730F3000430F4000330F7007708F50095
:101B30009A3180228C313730F1000430F200343099
:101B4000F3000430F4000330F7007708F5009A3111
:101B500080228C313430F1000430F2003130F30057
:101B60000430F4000330F7007708F5009A31802242
:101B70008C313130F1000430F2002E30F3000430AB
:101B8000F4000330F7007708F5009A3180228C3199
:101B90002E30F1000430F2002B30F3000430F4005A
:101BA0000330F7007708F5009A3180228C312B3012
:101BB000F1000430F2002830F3000430F400033068
:101BC000F7007708F5009A3180228C312830F10037
:101BD0000430F2004E30F3000030F4000330F70020
:101BE0007708F5009A3180228C310330F7007708AE
:101BF000F10020003F08F8000130F835FF3E031DDA
:101C0000FD2D7835FC3E403E91319D218C312000E8
:101C100047146B2E6B2E3F08031D0F2E6B2E0830C2
:101C20003F020318142E152E6B2E4E08031D192E7D
:101C3000202E4E081E3A031D1E2E1F2E6B2E202E08
:101C40002830F1000430F2004E30F3000030F40090
:101C50000330F7007708F5009A3180228C3120009C
:101C6000D008031D342E352E522ECF08031D392ED9
:101C70003A2E522E4E081E3A031D3F2E402E522E53
:101C80001B30F7007708F1003F08F8000130F83505
:101C9000FF3E031D472E7835FC3E403E91319D218D
:101CA0008C31652E1E30F7007708F10020003F08C8
:101CB000F8000130F835FF3E031D5A2E7835FC3E02
:101CC000403E91319D218C31652E200047146B2EB2
:101CD0006B2E6B2E6B2E0800913102218E31F1009C
:101CE00071082000E200143062020318782E792E69
:101CF000942E6203FF3A143EF1007108E2002100C5
:101D0000410820006207F1007108E300210041084A
:101D10002000630203188D2E8E2EAC2EFF30F100B2
:101D20007108E300AC2EAC2E6208EC3EF1007108A5
:101D3000E2006203FF3A21004107F1007108200030
:101D4000E3006308210041020318A72EA82EAC2E41
:101D50002000E301AC2EAC2E2100BC08031DB12EE7
:101D6000B22EB42EFD01FC2F0C30200063020318AC
:101D7000BA2EBB2EC02E0A30F1007108FD00FC2FD8
:101D8000293063020318C52EC62ECA2EFD01031486
:101D9000FD0DFC2F2B3063020318CF2ED02EE42E26
:101DA00002307D02031CD52ED62EDB2E0230D2004F
:101DB0000030D300DF2E0130D2000030D3005208B3
:101DC000F1007108FD00FC2F5D3063020318E92E5D
:101DD000EA2EEF2E0230F1007108FD00FC2F5F307B
:101DE00063020318F42EF52E092F03307D02031C25
:101DF000FA2EFB2E002F0330D4000030D500042F24
:101E00000230D4000030D5005408F1007108FD0004
:101E1000FC2F7430630203180E2F0F2F142F033082
:101E2000F1007108FD00FC2F763063020318192FB2
:101E30001A2F2E2F04307D02031C1F2F202F252F39
:101E40000430D6000030D700292F0330D6000030F0
:101E5000D7005608F1007108FD00FC2F883063029E
:101E60000318332F342F392F0430F1007108FD008F
:101E7000FC2F8A30630203183E2F3F2F532F05306B
:101E80007D02031C442F452F4A2F0530D800003017
:101E9000D9004E2F0430D8000030D9005808F10086
:101EA0007108FD00FC2F9D3063020318582F592F35
:101EB0005E2F0530F1007108FD00FC2F9F3063029A
:101EC0000318632F642F782F06307D02031C692FBF
:101ED0006A2F6F2F0630DA000030DB00732F0530D9
:101EE000DA000030DB005A08F1007108FD00FC2F19
:101EF000B730630203187D2F7E2F832F0630F10049
:101F00007108FD00FC2FB93063020318882F892F58
:101F10009D2F07307D02031C8E2F8F2F942F0730AB
:101F2000DC000030DD00982F0630DC000030DD00E2
:101F30005C08F1007108FD00FC2FD030630203182B
:101F4000A22FA32FA82F0730F1007108FD00FC2F4E
:101F5000D23063020318AD2FAE2FC22F08307D029E
:101F6000031CB32FB42FB92F0830DE000030DF0080
:101F7000BD2F0730DE000030DF005E08F100710881
:101F8000FD00FC2FEF3063020318C72FC82FCD2FA1
:101F90000830F1007108FD00FC2FF13063020318D6
:101FA000D22FD32FE72F09307D02031CD82FD92F32
:101FB000DE2F0930E0000030E100E22F0830E000C1
:101FC0000030E1006008F1007108FD00FC2F0930CD
:101FD000F1007108FD00FC2FFC2FFC2FFC2FFC2FC3
:101FE000FC2FFC2FFC2FFC2FFC2FFC2FFC2FFC2F99
:101FF000FC2FFC2FFC2FFC2F20006308FF2F080074
:1020000000347F347F347F347F347F347F347F34B7
:102010007F347F347F347F347F347F347F347F3428
:102020007F347F347F347F347F347F347F347F3418
:102030007F347F347F347F347F347F347F347F3408
:102040007F347F347F347F347F347F347F347F34F8
:102050007F347F347F347F347F347F347F347F34E8
:102060007F347F347F347F347F347F347F347F34D8
:102070007F347F347F347F347F347F347F347F34C8
:102080007F347E347D347C347B347A347A347934D2
:1020900078347734773476347534753474347334F3
:1020A000733472347134713470346F346F346E340D
:1020B0006D346D346C346B346B346A346A34693427
:1020C000683468346734673466346634653464343D
:1020D0006434633463346234623461346134603450
:1020E00060345F345E345E345D345D345C345C3463
:1020F0005B345B345A345A34593459345834583474
:102100005734573456345634553455345434543483
:102110005334533452345234513451345034503493
:102120004F344F344E344E344D344D344C344C34A3
:102130004B344B344A344A344934493448344834B3
:1021400047344734463446344534453444344434C3
:1021500043344334423442344134413440344034D3
:102160003F343F343E343E343D343D343C343C34E3
:102170003B343B343A343A343934383438343734F5
:102180003734363436343534353434343334333408
:10219000323432343134303430342F342E342E341F
:1021A0002D342D342C342B342A342A342934283439
:1021B0002834273426342534253424342334223457
:1021C0002134213420341F341E341D341C341B347C
:1021D0001A341934183417341534143413341234AF
:1021E00010340F340D340C340A34083406340434FB
:1021F000023400340034003400340034003400343D
:022200000034A8
:102204002000510805290800F601F701720871043D
:1022140003190D290E294429F8010314F80D1C296A
:102224000130F135F20D890B13290130F5007508E1
:10223400F8071C29F21F1F292029122922292229E3
:102244000130F635F70D890B232972087402031D3A
:102254002D2971087302031C30293129372971088B
:10226400F3027208F43B761437290130F236F10C8C
:10227400890B38290130F802031D412942292229FA
:10228400442944297708F201F2077608F101F1079D
:102294004B2908008B139531102591318031022090
:1022A40091319A312E2291319931E2219131863145
:1022B400A02691315D298B176400643021004A0205
:1022C400031C652966295D296430CA029A31E42217
:1022D40091319431692491319A31192291318131AA
:1022E400412191318431A624913120004C08043AD3
:1022F400031D7D297E2983294708031D82298A29F4
:1023040083290530ED006D08CD0022000D175D29ED
:1023140001302000CD02031D902991295D29CD01B2
:102324000314CD0D22000D135D295D295D295D295E
:102334005D2981313E29F3007108F200730886009B
:102344000430870072088107730886000430870010
:102354003C300102031CAF29B029F0297308860020
:10236400043087003C3081020130F2007308013EE2
:10237400860004308700720881077308013E8600D6
:10238400043087003C300102031CC929CA29F02902
:102394007308013E8600043087003C30810201301E
:1023A400F2007308023E8600043087007208810739
:1023B4007308023E8600043087008108031DE32968
:1023C400E429F0290130F2007308033E860004304A
:1023D400870072088107F029F029F02908000030ED
:1023E4002000DE000030DD000030DC000030DB00C7
:1023F40055085404530452040319012A022A4A2A90
:10240400DF010314DF0D122A0130D235D30DD40DB0
:10241400D50D890B072A0130DA005A08DF07122A82
:10242400D51F152A162A062A182A182A0130DB3540
:10243400DC0DDD0DDE0D890B192A55085902031D2B
:102444002D2A54085802031D2D2A53085702031D30
:102454002D2A52085602031C302A312A3B2A5208DC
:10246400D6025308D73B5408D83B5508D93B5B14D4
:102474003B2A0130D536D40CD30CD20C890B3C2A20
:102484000130DF02031D472A482A182A4A2A4A2A09
:102494005E08D5005D08D4005C08D3005B08D20058
:1024A400532A08007308F400710886007208870034
:1024B4007408810771088600720887003C300102A5
:1024C400031C652A662AB72A7108860072088700E9
:1024D4003C3081020130F4007108013EF500003007
:1024E400723DF60075088600760887007408810737
:1024F4007108013EF4000030723DF5007408860056
:10250400750887008108031D882A892AB72A0130A3
:10251400F4007108023EF5000030723DF6007508C3
:10252400860076088700740881077108023EF4006B
:102534000030723DF5007408860075088700810834
:10254400031DA52AA62AB72A0130F4007108033E08
:10255400F5000030723DF6007508860076088700A5
:1025640074088107B72AB72AB72A08002100BC08D3
:10257400031DBD2ABE2AC52A2000A801A901B6014F
:10258400B501B4013E2B21003B08031DCA2A3E2B92
:102594003F08F100F20171082000A8077208A93D64
:1025A400023021003F02031CD82AD92AE02AFE3037
:1025B4003F02031CDE2ADF2AE52AE02A0130F1006B
:1025C40071082000B6070130F10071082000B4073B
:1025D40004303402031CEF2AF02A3E2BB608031DF4
:1025E400F42AF52A1F2BB5012908F2002808F10066
:1025F4000230F236F10C890BFB2A7108013E84008B
:1026040090300318013E85000008F3007308EE00C3
:102614006E08803A183E031C102B112B372B122BFB
:10262400C808031D162B172B372B0230F100710835
:10263400C800372B372B372B372B0130F1007108AB
:10264400B5070A303502031C282B292B372B2A2BDC
:10265400C808031D2E2B2F2B372B0230F1007108D5
:10266400C800372B372B372B372BA801A901B6010C
:10267400B4013E2B3E2B3E2B080000302000DE0030
:102684000030DD000030DC000030DB000030D6001C
:102694000030D5000030D4000030D3000030DA0020
:1026A4000030D9000030D8000030D7001030F500D9
:1026B4007508D2005D2B0130DB35DC0DDD0DDE0D40
:1026C400890B5E2B0130D735D80DD90DDA0D890B66
:1026D400652BF41F6E2B6F2B712B5714712B01304C
:1026E400F135F20DF30DF40D890B722B0130D73552
:1026F400D80DD90DDA0D890B792BF41F822B832B7E
:10270400852B5714852B0130F135F20DF30DF40DA3
:10271400890B862B5B08F5005C08F6005D08F70062
:102724005E08F8000130F535F60DF70DF80D890B4C
:10273400952B01307504D30000307604D4000030AA
:102744007704D50000307804D60056085A02031DD9
:10275400B52B55085902031DB52B54085802031D07
:10276400B52B53085702031CB82BB92BC32B5308A2
:10277400D7025408D83B5508D93B5608DA3B5B14BA
:10278400C32B0130D202031DC82BC92B5D2BCA2BCE
:102794005C08F201F2075B08F101F107D12B080094
:1027A4000130F10071082100BA0705303A02031C18
:1027B400DC2BDD2BE62B0530F1007108BA00B801E3
:1027C400BC01AE01AF01442C05303802031CEB2BD5
:1027D400EC2B442C0530F1007108B8003908FF3E99
:1027E400F1007108F500750807390907603E860095
:1027F400033087007508FC3E07390907603E8400F2
:1028040003308500003FF100013FF200F109F209B5
:10281400F10A0319F20A403F7107F300413F723D88
:10282400F4000330F436F30C890B142C7308F6000F
:102834007408F700013077022D3003197602031C67
:10284400242C252C442C01307702F4300319760211
:1028540003182D2C2E2C442C7708AF01AF077608D3
:10286400AE01AE077708F2007608F1000330F236C5
:10287400F10C890B392C7108F3007308BC00442C4B
:10288400442C442C3C08031D482C4B2CA801A901C2
:10289400682C0130A8070030A93D013029022C30F2
:1028A40003192802031C572C582C682C592C20007F
:1028B400C808031D5E2C5F2C682C0A30C800F10088
:1028C4007108C800682C682C682C682C080001303A
:1028D4002000D2005208BA0732303A02031C732C8B
:1028E400742C0F2DBA017D08D200D3015208F900CF
:1028F4005308FA0088317D2094312C309A316222B9
:102904009431210041082000D200D3015208F9007B
:102914005308FA0088317D2094312C309A31622298
:10292400943121003F082000D200D3015208F9005D
:102934005308FA0088317D2094312C309A31622278
:10294400943120003308FA01FA073208F901F90733
:1029540088317D2094312C309A31622294312000C8
:102964003108FA01FA073008F901F90788317D20A6
:1029740094312C309A316222943120002F08FA01CC
:10298400FA072E08F901F90788317D2094312C309B
:102994009A316222943120006E08F900FA01F91B81
:1029A400FA0388317D2094312C309A31622294319B
:1029B400FE309931EE2194312000D200D301520827
:1029C400F9005308FA0088317D2094312C309A3173
:1029D4006222943120004A08D200D3015208F9003F
:1029E4005308FA0088317D2094312C309A316222C8
:1029F400943120004C08D200D3015208F900530846
:102A0400FA0088317D2094310D309A31622294315C
:102A14000A309A31622294310F2D08008B13F03062
:102A24002100990098011130970022009D019E0118
:102A34000430F10071082100DB00043022008C0016
:102A44001B3021008C00113023008C0024008C01E9
:102A540027008C01E03022008D00303021008D00F1
:102A640023008D0124008D01203027008D002200D9
:102A74008E01EF3021008E00CF3023008E00240021
:102A84008E0127008E0122009701990198010330DD
:102A940092008230910001309400A2309300A03063
:102AA40021009E0025309D00DC010314DC0DFF3065
:102AB400F1007108DE00FF30F1007108DF00FF3023
:102AC400F1007108DD00C001C101BF010030A700A1
:102AD4000030A6000030A5000030A400BE01003084
:102AE400A3000030A2000030A1000030A000BD010E
:102AF4000A3023009F001F309B0003309C009D017F
:102B040004309E009D171D169E16A601A401A70160
:102B1400A501A201A001A301A10120009901303067
:102B24009800313028009D0005309E00200091015E
:102B340092019301940121009101920108309300C4
:102B440094010B17CA01B001B101FF30F100710803
:102B5400E000FF30F1007108E100C201C301C701C8
:102B6400C901C801B601B701B401B50108002000CC
:102B74004A08031DBE2DC42D0A304A02031CC32D6E
:102B8400C42DC62DBD01682E3D084A060319CB2D60
:102B9400CC2D682E4A08F7007708BD002A002508C6
:102BA400F7007708A6002408F7007708A500230893
:102BB400F7007708A4002208F7007708A30021088B
:102BC400F7007708A2002008F7007708A10020008A
:102BD4004A08E03EF70077082A00A0000130F70019
:102BE40020004A08FF3E273E86000530870077080C
:102BF40081074830F1000530F2004430F30005301D
:102C0400F4000430F7007708F5009A3180229531FA
:102C14004430F1000530F2004030F3000530F40098
:102C24000430F7007708F5009A318022953140305E
:102C3400F1000530F2003C30F3000530F4000430BC
:102C4400F7007708F5009A31802295313C30F10085
:102C54000530F2003830F3000530F4000430F7009A
:102C64007708F5009A31802295313830F10005302B
:102C7400F2003430F3000530F4000430F700770834
:102C8400F5009A31802295313430F1000530F2009C
:102C94003030F3000530F4000430F7007708F50015
:102CA4009A31802295313030F1000530F200E33062
:102CB400F3000030F4000430F7007708F5009A318F
:102CC4008022953120004715682E682E08002000C8
:102CD4002B082A0403196F2E702E232F0130AA0209
:102CE4000030AB3B232F232F21003C08031D7B2EF8
:102CF4002D2F0130F30073082000B9070630AA0015
:102D04000030AB002D2F2D2F2B082A04031D8B2EF2
:102D14008C2E2D2F7D080A3A031D912E922E972E6C
:102D24000130F3007308B9072D2FFF30F300730847
:102D3400B9002D2F2D2F2D2F7D08013A031DA32E11
:102D4400A42E2D2F0130F3007308B9072C30AA00EC
:102D54000130AB002D2F2D2F7D08013A0319B32E1E
:102D6400B42EB92EFF30F3007308B9002D2F0030B4
:102D74002B02643003192A02031CC12EC22ECF2E4B
:102D840021004108F30073082000B8002100410825
:102D9400F30073082000B7002D2F380821004102EA
:102DA4000318D52ED62EDB2E4108F300730820001D
:102DB400B80021004108200037020318E22EE32E58
:102DC400EA2E21004108F30073082000B700EA2E20
:102DD4002B082A04031DEF2EF02E2D2F0A30380263
:102DE400031CF52EF62EFD2E1E303702031CFB2E7F
:102DF400FC2E022FFD2EFF30F3007308B9002D2F97
:102E04000130F3007308B9072D2F2D2F2D2F2D2FEF
:102E14002D2F38083707F300F401F40D0130FF00BB
:102E2400740DF40CF30CFF0B122F73089931F82175
:102E34009631FF30F30073082000B9002D2F2D2F99
:102E44002D2F390884000530040203182D2F8731F3
:102E54000435F53E820008002100BC08031D332F11
:102E6400342F382F2000AE01AF01D42F21003B08AE
:102E7400031D3D2FD42F3D08031D412FD42F2008BF
:102E84002000E000210021082000E10021002208A8
:102E94002000E200210023082000E3000130E03597
:102EA400E10DE20DE30D890B512F6308E700620881
:102EB400E6006108E5006008E40021003D08200008
:102EC400E000E101E201E3016308EB006208EA00CB
:102ED4006108E9006008E8002100BD0120006708DE
:102EE400F4006608F3006508F2006408F100933109
:102EF4003F23973171082000E4007208E500E601E1
:102F0400E7016808E0006908E1006A08E2006B086C
:102F1400E3001030E035E10DE20DE30D890B8C2F59
:102F24006308F4006208F3006108F2006008F1002D
:102F340093313F23973171082000E8007208E900BB
:102F4400EA01EB016B08D5006A08D4006908D300D4
:102F54006808D2006708F4006608F3006508F20008
:102F64006408F1000030F8000030F7000930F60082
:102F74006230F5009B314923973174082000D90051
:102F84007308D8007208D7007108D6009131F12176
:102F9400973120005308AF01AF075208AE01AE07C6
:102FA400D42FD42F033020002F02E83003192E022F
:102FB4000318DD2FDE2FE22F2100AA01AB01FF2F22
:102FC40001302100AA070030AB3D02302B025830FB
:102FD40003192A02031CEF2FF02FFF2FF12F2000DB
:102FE400C808031DF62FF72FFF2F0830E0006008F4
:0C2FF400C800FF2FFF2FFF2FFF2F080049
:1033C4002000CC01CB01CA01FD010800640080018A
:1033D4000131890BE9290034F100710823009100BF
:1033E4001513951315141308F7290800F20020008B
:1033F400510872060319FF29002A062A7208F100EF
:103404007108D100C717062A0800F20072082300C9
:103414009100710893001513951315158B135530EE
:103424009600AA30960095148B1715110800923156
:10343400B8229A3197312E279A3189315B219A31FA
:103444009331D2239A31803103209A318B318F23E7
:103454009A312100BB0108002100B901B801BA0169
:10346400AE01AF01BC01BB01C501C401C601B2017B
:10347400B3012000B201B301B001B101AE01AF014B
:10348400C801EE01EE030800FD0120308400003085
:10349400850032309931E8219A31A030840000301F
:1034A40085003B309931E8219A31A0308400013005
:1034B400850008309931E8219A31200091314C2956
:1034C400F200203023002402031C692A6A2A6C2A91
:1034D4007F2A7F2A7208F10027081F39A03E860040
:1034E40003308700710881000130F1007108A707DB
:1034F4000130F1007108A4077F2A0800962A730896
:103504008600740887000108F600710886007208B6
:103514008700760881000130F1070030F23D013068
:10352400F3070030F43D962A0130F5027508FF3A9E
:10353400031D9D2A9E2A812A9F2A0800F600B62A86
:1035440076089931EE219A31F500720886007308E5
:103554008700750881000130F5007508F607013011
:10356400F2070030F33DB62A0130F4027408FF3A42
:10357400031DBD2ABE2AA22ABF2A0800F501F601AE
:10358400C32A711CC62AC72ACB2A7308F5077408F4
:10359400F63D0130F335F40D890BCC2A0130F236B7
:1035A400F10C890BD12A72087104031DDA2ADB2A73
:1035B400C32ADC2A7608F201F2077508F101F10743
:1035C400E32A080022009D019E011B3021008C008B
:1035D400113023008C0024008C0127008C01303032
:1035E40021008D0023008D0124008D01203027004F
:1035F4008D00EF3021008E00CF3023008E00240098
:103604008E0127008E0122009701980199018230D2
:10361400910003309200A23093000130940008001E
:10362400F30073088600870171088102730886001D
:1036340087013C300102031C202B212B482B3C30FA
:10364400F200730886008701720881077308013E3F
:1036540086008701013081027308013E86008701DC
:103664003C300102031C372B382B482B3C30F20032
:103674007308013E86008701720881077308023EC1
:103684008600870101308102482B482B0800003056
:10369400FC000030FB000030FA000030F900522B2F
:1036A400711C552B562B5F2B7508F9077608FA3DCC
:1036B4007708FB3D7808FC3D5F2B0130F535F60DAE
:1036C400F70DF80D890B602B0130F436F30CF20C76
:1036D400F10C890B672B7408730472047104031DC5
:1036E400742B752B522B762B7C08F4007B08F3008B
:1036F4007A08F2007908F1007F2B0800F700A82B64
:103704000130F50273088600740887007708993140
:10371400EE219B310106031D902B912B9A2B013036
:10372400F6007608F7070130F3070030F43DA82BC4
:1037340073088600740887000108F6007608F10013
:1037440077089A3107229B31AE2BA82BF508031D6D
:10375400AC2BAD2B822BAE2B7508031DB22BB52BD6
:103764000030B72BB72B0130B72B0800F3007108DA
:10377400F2007308860087017208810773088600C7
:1037840087013C300102031CC82BC92BF02B7308A2
:10379400860087013C3081020130F2007308013E4B
:1037A40086008701720881077308013E860087013D
:1037B4003C300102031CDF2BE02BF02B7308013E8D
:1037C400860087013C3081020130F2007308023E1A
:1037D4008600870172088107F02BF02B0800F500A2
:1037E400242C0130F20272087507F3007308860076
:1037F4000530870072087107F400740884000530EE
:103804008500000801020318082C092C0C2CFF3039
:103814002C2C2C2C72087107F300730886000530D9
:10382400870072087507F400740884000530850069
:103834000008010203181F2C202C242C01302C2CEE
:103844002C2C242CF208031D282C292CF32B2A2C95
:1038540000302C2C0800720871040319322C332C0C
:10386400632CF6010314F60D412C0130F135F20DF1
:10387400890B382C0130F5007508F607412CF21F2E
:10388400442C452C372C472C472C72087402031DFA
:103894004D2C71087302031C502C512C562C7108AA
:1038A400F3027208F43B562C0130F236F10C890B0A
:1038B400572C0130F602031D602C612C472C632C1D
:1038C400632C7408F201F2077308F101F1076A2C02
:1038D40008000130F70077082000C3076430430272
:1038E400031C752C762CAC2CC3010130F70077082F
:1038F4002100E2073C306202031C812C822CA92C9B
:10390400E201E330F1000030F200F3010314F30D9F
:10391400923154229C31A030F1000530F200F301C1
:103924000314F30D923154229C31A830F100053078
:10393400F200A030F3000530F4000430F7007708FB
:10394400F5009A3180229C3120004716A92C0130C1
:10395400AE2CAE2C0030AE2C0800F8007208803A71
:10396400F5007408803A7502031DBA2C73087102BD
:103974000318BD2CBE2CFF2C78080E3E8600870150
:10398400403FF500413FF6007408803AF70076089E
:10399400803A7702031DD02C750873020318D32CC8
:1039A400D42CDD2C78080E3E860087017308C03FB6
:1039B4007408C13FFF2C78080E3E86008701403F03
:1039C400F500413FF6007608803AF7007208803A25
:1039D4007702031DEF2C710875020318F22CF32CE7
:1039E400FF2C78080E3E860087017108C03F7208DC
:1039F400C13FFF2CFF2CFF2CFF2C080000340234A5
:103A040004348634003482348434DE3460340A343A
:103A14000C348E3408348A348C348E3400340234BA
:103A240004348634003482348434DE3460340A341A
:103A34000C348E3408348A348C348E34003402349A
:103A440004348634003482348434DE3460340A34FA
:103A54000C348E3408348A348C348E34003402347A
:103A640004348634003482348434DE3460340A34DA
:103A74000C348E3408348A348C348E34003402345A
:103A840004348634003482348434DE3460340A34BA
:103A94000C348E3408348A348C348E34003402343A
:103AA40004348634003482348434DE3460340A349A
:103AB4000C348E3408348A348C348E34003402341A
:103AC40004348634003482348434DE3460340A347A
:103AD4000C348E3408348A348C348E3400340234FA
:103AE40004348634003482348434DE3460340A345A
:103AF4000C348E3408348A348C348E3400340234DA
:103B040004348634003482348434DE3460340A3439
:103B14000C348E3408348A348C348E3400340234B9
:103B240004348634003482348434DE3460340A3419
:103B34000C348E3408348A348C348E340034023499
:103B440004348634003482348434DE3460340A34F9
:103B54000C348E3408348A348C348E340034023479
:103B640004348634003482348434DE3460340A34D9
:103B74000C348E3408348A348C348E340034023459
:103B840004348634003482348434DE3460340A34B9
:103B94000C348E3408348A348C348E340034023439
:103BA40004348634003482348434DE3460340A3499
:103BB4000C348E3408348A348C348E340034023419
:103BC40004348634003482348434DE3460340A3479
:103BD4000C348E3408348A348C348E3400340234F9
:103BE40004348634003482348434DE3460340A3459
:103BF4000C348E3408348A348C348E3400340034DB
:103C040001340034043400340934003410340034F2
:103C14001934003424340034313400344034003452
:103C24005134003464340034793400349034003432
:103C3400A9340034C4340034E13400340034013491
:103C4400213401344434013469340134903401346E
:103C5400B9340134E43401341134023440340234CC
:103C640071340234A4340234D934023410340334A9
:103C74004934033484340334C13403340034043405
:103C84004134043484340434C934043410340534E1
:103C940059340534A4340534F1340534403406343D
:103CA40091340634E4340634393407349034073418
:103CB400E934073444340834A13408340034093472
:103CC40061340934C434093429340A3490340A344C
:103CD400F9340A3464340B34D1340B3440340C34A6
:103CE400B1340C3424340D3499340D3410340E347E
:103CF40089340E3404340F3481340F3400341034D6
:103D040081341034043411348934113410341234AD
:103D14009934123424341334B13413344034143405
:103D2400D134143464341534F934153490341634DD
:103D340029341734C4341734613418340034193432
:103D4400A134193444341A34E9341A3490341B3409
:103D540039341C34E4341C3491341D3440341E345E
:103D6400F1341E34A4341F34593420341034213433
:103D7400C934213484342234413423340034243487
:103D8400C13424348434253449342634103427345B
:103D9400D9342734A43428347134293440342A34AF
:103DA40011342B34E4342B34B9342C3490342D3482
:103DB40069342E3444342F342134303400343134D3
:103DC400E1343134C4343234A934333490343434A7
:103DD40079343534643436345134373440343834F7
:103DE4003134393424343A3419343B3410343C34C7
:103DF40009343D3404343E3401343F340034403417
:103E040001344134043442340934433410344434E6
:103E14001934453424344634313447344034483436
:103E24005134493464344A3479344B3490344C3406
:103E3400A9344D34C4344E34E1344F340034513455
:103E44002134523444345334693454349034553422
:103E5400B9345634E43457341134593440345A3470
:103E640071345B34A4345C34D9345D3410345F343D
:103E74004934603484346134C13462340034643489
:103E84004134653484346634C93467341034693455
:103E940059346A34A4346B34F1346C3440346E34A1
:103EA40091346F34E434703439347234903473346C
:103EB400E934743444347634A134773400347934B6
:103EC40061347A34C4347B3429347D3490347E3480
:103ED400F9347F3464348134D134823440348434CA
:103EE400B1348534243487349934883410348A3492
:103EF40089348B3404348D3481348E3400349034DA
:103F040081349134043493348934943410349634A1
:103F14009934973424349934B1349A3440349C34E9
:103F2400D1349D3464349F34F934A0349034A234B1
:103F34002934A434C434A5346134A7340034A934F6
:103F4400A134AA344434AC34E934AD349034AF34BD
:103F54003934B134E434B2349134B4344034B63402
:103F6400F134B734A434B9345934BB341034BD34C7
:103F7400C934BE348434C0344134C2340034C4340B
:103F8400C134C5348434C7344934C9341034CB34CF
:103F9400D934CC34A434CE347134D0344034D23413
:103FA4001134D434E434D534B934D7349034D934D6
:103FB4006934DB344434DD342134DF340034E13417
:103FC400E134E234C434E434A934E6349034E834DB
:103FD4007934EA346434EC345134EE344034F0341B
:103FE4003134F2342434F4341934F6341034F834DB
:0C3FF4000934FA340434FC340134FE3487
:020000040001F9
:04000E009C0FFC3F08
:10E000004200410052000000DC000000000001005E
:10E010004900050096002D000000000001004900A5
:10E02000050096002D0000002E0002002E000500C5
:10E0300000000000000000000000000000000000E0
:10E0400000000000000000000000000000000000D0
:10E0500000000000000000000000000000000000C0
:10E0600000000000000000000000000000000000B0
:10E0700000000000000000000000000000000000A0
:10E080000000000000000000000000000000000090
:10E090000000000000000000000000000000000080
:10E0A0000000000000000000000000000000000070
:10E0B0000000000000000000000000000000000060
:10E0C0000000000000000000000000000000000050
:10E0D0000000000000000000000000000000000040
:10E0E0000000000000000000000000000000000030
:10E0F0000000000000000000000000000000000020
:10E10000000000000000000000000000000000000F
:10E1100000000000000000000000000000000000FF
:10E1200000000000000000000000000000000000EF
:10E1300000000000000000000000000000000000DF
:10E1400000000000000000000000000000000000CF
:10E1500000000000000000000000000000000000BF
:10E1600000000000000000000000000000000000AF
:10E17000000000000000000000000000000000009F
:10E18000000000000000000000000000000000008F
:10E19000000000000000000000000000000000007F
:10E1A000000000000000000000000000000000006F
:10E1B000000000000000000000000000000000005F
:10E1C000000000000000000000000000000000004F
:10E1D000000000000000000000000000000000003F
:10E1E000000000000000000000000000000000002F
:10E1F000000000000000000000000000140000000B
:00000001FF
