:10000000000081316C290800803121005F189D14A7
:100010005E155E0822000C0624398C062000931120
:100020009D3085002100430820008E1A013884008D
:10003000003F2100C30045082200951801388400C4
:10004000003F2100C5004408220015180138840033
:10005000003F2100C400C31E3A2841353E39203EEE
:100060008400033085002C081A002D081A00C10AEC
:10007000C00AC201481CDE124718DE12451B772851
:10008000B11FD428B00F4528B10AB20F4828B30ACF
:10009000B31BD4284718D4282A3086002B30870079
:1000A0002C0886022D0F8702871F59288609870989
:1000B000860AB43006020030073B031C68282C3047
:1000C00006020130073B031C6828DE16471048145F
:1000D0003208143C031DD428F030B200F030B300D5
:1000E0000F30B0000F30B10047144810D42847102B
:1000F0004810B1012C08AA002D08AB0038080319DC
:10010000AC28FD3EE3000A3EE40037302E0200300A
:100110002F3B031CAC2828082E02B20029082F3BD5
:10012000B300F0300318B2000318B3002808243CD1
:1001300084002908313B850014303202B0000030C1
:10014000333BB100040830020508313B0318AC28EA
:10015000C330B000FE30B100451ED4283714353509
:100160000E39603E8400033085002C081A002D08EB
:100170001A00B50AB40AB6012408A0002508A10097
:100180002608A2002708A3003A08B900A401A50187
:10019000A601A701BA0138080319D428023EE100DC
:1001A000013EE200023EE0002C08AC0FD828AD0A68
:1001B00003390B00DE2812293F2957292300A61FE7
:1001C000A60A24080319F3280C302602031CF3287E
:1001D000A60125081F39A03E840003308500003F9A
:1001E0009A00A50AA4032100C60A5F1C08299D18CD
:1001F000F7281B0984009E30850084350318850A82
:100200001200A4071200A53D0001A63DA73DBA0AB1
:10021000DF01E11FE10B090015309D0020309E0039
:100220005F1409002300A21FA20A2000911E2B299F
:100230002300A2011908850020302002031C2B296D
:1002400023081F39C03E84000330050685060506D5
:10025000803FA30AA00A21005F1C35299D182E2982
:100260001C08803C031C003CBC00DF01E21FE20BC9
:10027000090019309D0020309E005F140900E31F23
:10028000E30B472944084506803A090DBE0D5F1C63
:100290004D299D1849291C08BD00DF01E01FE00B16
:1002A00009000D309D0020309E005F140900E41FFE
:1002B000E40B5F2944084506803A090DBF0D5F1C19
:1002C00065299D1861291C08BB0025309D00A030C0
:1002D0009E005F140900090088018831152821005B
:1002E000B808031D77292000B401B501DE293708BD
:1002F0000319DE2939080319DE2923082000E90043
:10030000210022082000E800210021082000E70049
:10031000210020082000E600E635E70DE80DE90D94
:10032000210039082000E200E301E401E501210099
:10033000B90120006908F3006808F2006708F100BD
:100340006608F000FA2181317008E6007108E700C4
:10035000E801E9016308F3006208F200F001F1012D
:10036000FA2181317008E2007108E300E401E5013F
:100370006508D8006408D7006308D6006208D50075
:100380006908F3006808F2006708F1006608F000E9
:100390000930F701F601F5006230F400C62481311E
:1003A0007308DC007208DB007108DA007008D900FD
:1003B000492281315608B5005508B40003302000A9
:1003C0003502E830031934020318E929AA01AB0108
:1003D0000800AA0A0319AB0A02302B02583003198D
:1003E0002A02031C080002304B02031808000830E0
:1003F000CB0008001030DA01DB01DC01DD01D601A1
:10040000D701D801D901D500DA35DB0DDC0DDD0DC2
:10041000D635D70DD80DD90DF31B5614F035F10D87
:10042000F20DF30DD635D70DD80DD90DF31B56149B
:10043000F035F10DF20DF30D5D08E1005C08E00010
:100440005B08DF005A08DE00DE35DF0DE00DE10D50
:100450005E1461085902031D372A60085802031D03
:10046000372A5F085702031D372A5E085602031C0D
:10047000422A5E08D6025F08D73B6008D83B610875
:10048000D93B5A14D50B042A5B08F1005A08F00036
:100490000800DD01DE01DF01E001580857045604C1
:1004A000550403197F2AE101E10AD81B5C2AD535DE
:1004B000D60DD70DD80D542ADD35DE0DDF0DE00D3C
:1004C00058085C02031D6E2A57085B02031D6E2A42
:1004D00056085A02031D6E2A55085902031C792A30
:1004E0005508D9025608DA3B5708DB3B5808DC3B75
:1004F0005D14D836D70CD60CD50CE10B5C2A6008FD
:10050000D8005F08D7005E08D6005D08D500080057
:100510004208031DC203390838040319932A210035
:10052000B808031D682B20007A30C1018B1321000D
:10053000AE00AF018B1708008B132100AE01AF0195
:100540008B17290828040319080020003908B30074
:100550003808B2005030A200D030A301A001A101A0
:100560002100C9000730CA003230CB00F430CC0182
:10057000CD000130CE003C30CF01D001D300D401FA
:10058000D101D2015408D8005308D7005408D6002E
:100590005308D5002000C830C10AC200080021005D
:1005A000370803190800023020004B020318080026
:1005B00039083306031DDE2A380832060319F62AE5
:1005C00039083302031DE62A380832020318EA2AE2
:1005D000C830C2003908B3003808B20021005808FA
:1005E0002000A300210057082000A2003230390269
:1005F000C83003193802031C052B19304202031CB2
:10060000032B1930C2003818C20121002908F1005B
:100610002808F0003630F200F301B7238131710869
:100620002000EC007008EB000630EC36EB0C890B78
:10063000152B1030A2070318A30A2308803AE800FC
:100640006C08803A6802031D272B6B082202031CEA
:100650002E2B20006C08A3006B08A2002000390894
:10066000EA003808E9003608E9023708EA3BC20820
:10067000031D3C2BEA1F412BF4302100C90001303F
:10068000452BD0302100C9000730CA0020006A087D
:10069000FD006908FC00C930CC238131381C572B80
:1006A0002830F000F1016C08F3006B085D2B283056
:1006B000F000F1012308F3002208F200C930722390
:1006C00081318B1321005808AF005708AE009A2AD9
:1006D00020004108003A03199C2A013A0319CF2A45
:1006E000712B0800F7007108803AF4007308803A13
:1006F0007402031D7D2B720870020318080077082E
:100700000E3E86008701403FF400413FF50073082C
:10071000803AF6007508803A7602031D912B740822
:100720007202770803189C2B0E3E86008701720820
:10073000C03F7308C13F08000E3E86008701403F5E
:10074000F400413FF500803AF6007108803A7602E5
:10075000031DAC2B700874020318080077080E3EC6
:10076000860087017008C03F7108C13F0800F4018E
:10077000F501701CBF2B7208F4077308F53DF235C4
:10078000F30DF136F00C71087004031DB92B7508D8
:10079000F1007408F0000800E7000C3E86008701B5
:1007A000403FD500413FD60067080E3E8600403FDF
:1007B000D700413FD800803AD9005608803A590204
:1007C000031DE42B550857020318E82BFD1F312C9D
:1007D000200067080E3E86008701403FD500413F5C
:1007E000D60067080C3E8600403FD700413FD80046
:1007F000803AD9005608803A5902031D012C550849
:1008000057020318052CFD1B312C20006708023EFF
:1008100086008701403FD500413FD6005508F000D3
:100820005608F100890D893B8909F200F3007C0824
:10083000F4007D08F500890D893B8909F600F70071
:10084000C62481316708083E860087017008810749
:1008500041317108813D41317208813D4131730858
:10086000813D20006708083E86008701403FD50093
:10087000413FD600423FD700433FD8006708063EBD
:100880008600403FD900413FDA005908DB005A0892
:10089000DC000030DC1BFF30DD00DE006708043EBA
:1008A0008600403FDF00413FE0005F08F000600845
:1008B000F100890D893B8909F200F3007C08F400FE
:1008C0007D08F500890D893B8909F600F700C624EB
:1008D00081317008E1007108E2007208E3007308DA
:1008E000E400670886008701403FE500413FE600DD
:1008F0006508F0006608F100890D893B8909F2005E
:10090000F3007C08F4007D08F500890D893B890916
:10091000F600F700C62481317008E1077108E23D56
:100920007208E33D7308E43D5B08E1025C08E23BCA
:100930005D08E33B5E08E43B6108D5076208D63DED
:100940006308D73D6408D83D67080C3E86008701E0
:100950005508C03F5608C13F5708C23F5808C33F1B
:1009600067080E3E8600403FD500413FD60067082D
:100970000C3E86005508C03F5608C13F6708063E3A
:1009800086007C08C03F7D08C13F0800F801F901DE
:10099000FA01FB01701CD42C7408F8077508F93DA6
:1009A0007608FA3D7708FB3DF435F50DF60DF70DA9
:1009B000F336F20CF10CF00C73087204710470043D
:1009C000031DCA2C7B08F3007A08F2007908F100B5
:1009D0007808F000080020004B0BF12CCC01CC0A69
:1009E000F32CC6258431AD26843120002708260447
:1009F000250424040319BB2D0130F300F401F50193
:100A0000F601A4027408A53B7508A63B7608A73B2F
:100A1000BB2D0130B801B901D001D00AA701A60150
:100A2000A500F430A400080002304B02031C262D60
:100A30004B08CE000330D0006430A400A501A6010D
:100A4000A701A736A60CA50CA40C080021003E089F
:100A5000FF3A031D08003F08FF3A031D080020006D
:100A6000CD1B08000230D0000430A701A6001E30C4
:100A7000A500B030A4000800CB08031D472D2708AF
:100A8000260425042404031D472DCB01CB0A4B0B60
:100A9000562D0230CF000830B8000730B9001730AB
:100AA000A701A601A5007030A400080002304B0287
:100AB0000318182DA52DCF01B801B9010800023087
:100AC000CF000830B8000730B90008000230CF006E
:100AD000C430B8000930B90008000230CF008830B7
:100AE000B8001330B90008000330CF007030B800F0
:100AF0001730B90008000430CF004030B8001F3074
:100B0000B90008000530CF001C30B8002530B9000E
:100B100008000630CF000430B8002930B9000800C2
:100B20000730CF00E030B8002E30B90008000730A1
:100B3000CF00BC30B8003430B9000800BD30CF0160
:100B4000CF0AB8003430B90008004C08FF3E031C3F
:100B50005B2D84000A30040203185B2D87310435B5
:100B6000DE3E82002708260425042404031D080015
:100B70000430D00008005008840004300402031838
:100B8000B22D88310435003E820008005408E5008B
:100B9000143065020318DD2D6508143CE5002100C2
:100BA0003D0820006507E60021003D0820006602A0
:100BB0000318EA2DFF30E600EA2DEC30E507650862
:100BC00021003D022000E60021003D020318EA2D2D
:100BD0002000E6012100B808031DF12D2000CC0102
:100BE00008000C30200066020318F92D0A30CC00F2
:100BF0000800293066020318002ECC01CC0A080038
:100C00002B3066020318112E02304C02031C0B2EEF
:100C10000230D5000D2ED501D50AD6015508CC00DD
:100C200008005D3066020318182E0230CC00080060
:100C30005F3066020318272E03304C02031C222E5D
:100C40000330232E0230D700D801CC0008007430C6
:100C5000660203182E2E0330CC00080076306602A0
:100C600003183D2E04304C02031C382E0430392E5C
:100C70000330D900DA01CC0008008830660203187E
:100C8000442E0430CC0008008A3066020318532E2C
:100C900005304C02031C4E2E05304F2E0430DB0075
:100CA000DC01CC0008009D30660203185A2E053086
:100CB000CC0008009F3066020318692E06304C02F3
:100CC000031C642E0630652E0530DD00DE01CC00ED
:100CD0000800B73066020318702E0630CC000800FA
:100CE000B930660203187F2E07304C02031C7A2E9F
:100CF00007307B2E0630DF00E001CC000800D0304A
:100D000066020318862E0730CC000800D230660237
:100D10000318952E08304C02031C902E0830912E9B
:100D20000730E100E201CC000800EF306602031852
:100D30009C2E0830CC000800F13066020930031800
:100D4000AB2E4C02031CA62E0930A72E0830E30060
:100D5000E401CC000800CC0008003108300403197D
:100D6000182F0130B0020030B13B182F2100380895
:100D70000319080020000630BF0AB000B1010800C6
:100D800031083004031D08004C080A3A031DCC2E1C
:100D9000BF0A22000D130800FF302000BF0008002A
:100DA0004C0B08002C30BF0AB0000130B100080025
:100DB0004C0BCC2E00303102643003193002031C7E
:100DC000EA2E21003D082000BE0021003D08200041
:100DD000BD0008003E0821003D020318F22E3D0828
:100DE0002000BE0021003D0820003D020318FC2E1B
:100DF00021003D082000BD0031083004031D08001B
:100E00000A303E02031CCC2E1E303D020318CC2EAD
:100E1000BF0A08003E083D07F100F201F20D720D15
:100E2000F20CF10C71082327843122000D17CC2E0F
:100E30003F08840005300402031808008731043598
:100E4000F23E82000800F000540603190800700802
:100E5000D400CA17080032302100C20A4202031C23
:100E6000382F3230C200C0012000B601B701B02FC8
:100E700003304002031CB02F1E304002031C422FDF
:100E80001E30C0004008FE3E2000E4002100410862
:100E9000FF3E2000E6000430E50164020318682FDD
:100EA0006408E50066021F390907203E860003300A
:100EB000870066081F390907203E8400033085003B
:100EC000403F0002E2000131413F003BE3008C2F34
:100ED0000430E402E507650866021F390907203E71
:100EE00086000330870066081F390907203E84000A
:100EF00003308500403F0002E2000131413F003BEA
:100F0000E30004306402031C8C2F0630630240307F
:100F100003196202031C682F6208D5006308D6001B
:100F2000D701D8016508F0000930F101F201F301A1
:100F3000F701F6002730F500C030F4008431C624F4
:100F400087317308DC007208DB007108DA00700872
:100F5000D9008231492287315608B7005508B600BA
:100F600021003808FC00FD012F087D02031DBA2F67
:100F70002E087C020318C82F0330200037022030CF
:100F800003193602031CCC2F210040080319CC2F73
:100F90002000AC01AD0108002000AC0A0319AD0A25
:100FA00001302D022C3003192C02031C08000230E2
:100FB0004B02031808000730CB00080085315F2D75
:100FC0008531662D85316D2D8531742D85317B2DD3
:100FD0008531822D8531892D8531902D8531972D53
:100FE00085319E2D8631B62E8631C02E8631D02E8B
:100FF0008631D82E87310A2F5408080008000800CF
:101000008531092D8531142D85313C2D8531B22D49
:10101E00640080010131890B1028003420308400D7
:10102E0000308500353088310F208831A0308400A3
:10103E00003085003E3088310F208831A03084008A
:10104E0001308500083088310F2088310130ED00E5
:10105E00200031288B135C2088313D2188315521A9
:10106E008831B22288318B17640064302100460229
:10107E00031C3A286430C6020C2188315A2188316B
:10108E00DB238431EB24883107248831200050087B
:10109E00043A03194A08031957280530ED003A2877
:1010AE00ED0B3A28ED01ED0A3A28F0308B132100B2
:1010BE00990098011130970022009D019E01043085
:1010CE002100DE0022008C001B3021008C0011302C
:1010DE0023008C0024008C0127008C01E0302200BC
:1010EE008D00303021008D0023008D0124008D01F4
:1010FE00203027008D0022008E01EF3021008E005F
:10110E00CF3023008E0024008E0127008E01220096
:10111E0097019901980103309200823091000130BD
:10112E009400A2309300A03021009E0025309D0037
:10113E00FF30DF01DF0AE100E200E0000A30BC010F
:10114E00BD01BB01A401A501A601A701BA01A00121
:10115E00A101A201A301B90123009F001F309B0032
:10116E0003309C009D0104309E009D171D169E1697
:10117E00A601A401A701A501A201A001A301A1013D
:10118E002000990130309800313028009D00053044
:10119E009E00200091019201930194012100910182
:1011AE009201083093009401FF300B17C601AC0179
:1011BE00AD01E300E400BE01BF01C301C501C401DE
:1011CE00B201B301B001B101AA01AB01C701C8015F
:1011DE00F0017035203E86000330870081014131D9
:1011EE0020308101F00A7002031CF028F0017035E6
:1011FE00603E860003308700810141310830810155
:10120E00F00A700203180800FE2822009D019E01BC
:10121E001B3021008C00113023008C0024008C0127
:10122E0027008C01303021008D0023008D01240019
:10123E008D01203027008D00EF3021008E00CF3041
:10124E0023008E0024008E0127008E0122009701BC
:10125E00980199018230910003309200A2309300E0
:10126E00013094002100C701C80108002100B5011A
:10127E00B401B601A801A901B801B701C101C001AD
:10128E00C201AE01AF012000B801B901B601B7012C
:10129E00B401B501CB01CD01CD030800D001CF01C2
:1012AE00CE01CC01080064302000C00A4002031CAD
:1012BE000800C0014C08F700F801CA2188312C3013
:1012CE00B921883121003D08F700F801CA21883183
:1012DE002C30B921883121003B08F700F801CA21D2
:1012EE0088312C30B921883120003908F8003808AF
:1012FE00F700CA2188312C30B921883120003708F7
:10130E00F8003608F700CA2188312C30B92188310F
:10131E0020003508F8003408F700CA2188312C3037
:10132E00B921883120004D08F700F801F71BF803AA
:10133E00CA2188312C30B9218831FE30AA22883159
:10134E00F700F801CA2188312C30B92188312000EC
:10135E004B08F700F801CA2188310D30B9218831C8
:10136E000A30B929F00020302300240203180800A7
:10137E0027081F39A03E86000330870070088100C1
:10138E00A70AA40A08002730F901780210300319C1
:10139E007702031CF0291030F0002730F100780896
:1013AE00F3007708F200652288317008303EB921CB
:1013BE0088311030F0002730F1007808F3007708FC
:1013CE00F2008A2288317108F8007008F700F901DE
:1013DE00F90AF908031DFA2903307802E8300319D7
:1013EE007702031C182AE830F0000330F100780869
:1013FE00F3007708F200652288317008303EB9217B
:10140E008831E830F0000330F1007808F3007708F7
:10141E00F2008A2288317108F8007008F700F9018D
:10142E00F90AF908031D222A0030780264300319E4
:10143E007702031C3E2A6430F000F1017808F300B5
:10144E007708F200652288317008303EB921883164
:10145E006430F000F1017808F3007708F2008A2278
:10146E0088317108F8007008F700F901F90AF908D7
:10147E00031D482A003078020A3003197702031C34
:10148E00622A0A30F000F1017808F3007708F200C2
:10149E00652288317008303EB92188310A30F0005B
:1014AE00F1017808F3007708F2008A22883171087A
:1014BE00F8007008F7007708303EB929F401F501FD
:1014CE00710870040319852AF601F60AF11B722AB7
:1014DE00F035F10D6C2AF435F50D71087302031D0C
:1014EE007A2A70087202031C812A7008F2027108AF
:1014FE00F33B7414F136F00CF60B722A7508F100FA
:10150E007408F0000800710870040319A52AF4018C
:10151E00F40AF11B952AF035F10D8F2A710873022A
:10152E00031D9B2A70087202031CA12A7008F20286
:10153E007108F33BF136F00CF40B952A7308F100A9
:10154E007208F0000800F0002300910015139513A7
:10155E001514130808001E30CA012100D9002030CE
:10156E00DA01DB01DC01DD01F1000430F2000730AD
:10157E00F3002330A42388312830F1000430F20028
:10158E001530F3003830A42388314030F100043098
:10159E00F2001C30F3008F30A4238831A030F1000C
:1015AE000430F2000730F3002A30A4238831A8302B
:1015BE00F1000430F2000730F3003130A4238831FB
:1015CE00B030F1000430F2000E30F3005430A4239A
:1015DE0088312030F1000530F2000730F3001C3066
:1015EE00A42388312730F1000530F2000930F300D2
:1015FE008630A42388313030F1000530F2001C30E3
:10160E00F3006230A42388315030F1000530F2002F
:10161E000730F3007E30A42388315730F1000530B7
:10162E00F2008530F301F30AA42388315830F1001B
:10163E000530F2000730F3004D30A4238831A0307E
:10164E00F1000530F2000430F300D730A4238831C6
:10165E00A430F1000530F2000430F300DF30A42393
:10166E008831A830F1000530F2000430F300D33099
:10167E00A42388312030F1000630F2000430F3004C
:10168E00AB30A42388312430F1000630F200243030
:10169E00F300AF30A42388315030F1000630F20051
:1016AE000230F300E530A42388315430F1000630C7
:1016BE00F2001230F300E730A42388315830F100E5
:1016CE000630F2000430F300DB30A42388315C30A6
:1016DE00F1000630F2000230F300E330A42388312B
:1016EE005430F100FE30F201F301F30AA4238831E5
:1016FE00A830F0000430F100A030B9238831F60094
:10170E00F61F952B2B002B08A3002A08A2002908F0
:10171E00A1002808A00020004A1608007608803A8A
:10172E007F3E031C08002B002308AB002208AA00F2
:10173E002108A9002008A800922BF500F3037308D6
:10174E00FF3A031908007508AA228831F4007108BF
:10175E0086007208870074088100F50AF10A0319E1
:10176E00F20AA52BF400F10803190034F1037108F5
:10177E007407F20086000530870071087007F300C9
:10178E0084000530850000080102031CFF34710837
:10179E007007F200860071087407F30084000008D9
:1017AE000102031C0134BA2B1C2781316F218831B1
:1017BE0087312B27883102304B020318EB2B75270C
:1017CE00823188228831042C3908093AC430031931
:1017DE003806031DF52B70308B13002C3908133A85
:1017EE008830031938068B13031DFF2B7530002C20
:1017FE007A302100AE00AF018B172100B70108002F
:10180E00973199278831003A0319112CE225973127
:10181E0054278831652588314A1C3C2C2030F20033
:10182E000430F3000730F400233044258831003AA9
:10183E00031908002830F2000430F3001530F400CC
:10184E00383044258831003A031908004030F20040
:10185E000430F3001C30F4008F3044258831003AF8
:10186E000319080020004A100800CA1C652CA0307D
:10187E00F2000430F3000730F4002A30442588319A
:10188E00003A03190800A830F2000430F3000730C4
:10189E00F400313044258831003A03190800B03085
:1018AE00F2000430F3000E30F40054304425883139
:1018BE00003A031908002000CA1008004A1D8E2C99
:1018CE002030F2000530F3000730F4001C304425C0
:1018DE008831003A031908002730F2000530F30072
:1018EE000930F400863044258831003A0319080087
:1018FE003030F2000530F3001C30F4006230442525
:10190E008831003A0319080020004A110800CA1D48
:10191E00B72C5030F2000530F3000730F4007E3063
:10192E0044258831003A031908005730F20005307B
:10193E00F3008530F401F40A44258831003A031986
:10194E0008005830F2000530F3000730F4004D3037
:10195E0044258831003A031908002000CA110800F6
:10196E004A1EE02CA030F2000530F3000430F400E3
:10197E00D73044258831003A03190800A430F2000C
:10198E000530F3000430F400DF3044258831003A8E
:10199E0003190800A830F2000530F3000430F400FB
:1019AE00D33044258831003A0319080020004A122A
:1019BE000800CA1E152D2030F2000630F300043048
:1019CE00F400AB3044258831003A03190800243066
:1019DE00F2000630F3002430F400AF304425883195
:1019EE00003A031908005030F2000630F3000230BE
:1019FE00F400E53044258831003A031908005430CC
:101A0E00F2000630F3001230F400E730442588313E
:101A1E00003A031908002000CA1208004A1F322D8E
:101A2E005830F2000630F3000430F400DB30442569
:101A3E008831003A031908005C30F2000630F300DA
:101A4E000230F400E33044258831003A03190800CF
:101A5E0020004A130800CA1F422D5430F200FE30F7
:101A6E00F301F401F40A44258831003A0319080001
:101A7E002000CA130800CA010800F500F408031973
:101A8E00612DF40372088600730887007508AA2278
:101A9E0088310106031D582DF50AF20A0319F30ABF
:101AAE00452D72088600730887000108F00075083E
:101ABE000C2788317408031D0034013420004E08B1
:101ACE0003196D2D0A304E02031C6F2DC301080041
:101ADE0043084E06031908004E08C3002A002508C5
:101AEE00A6002408A5002308A4002208A3002108AC
:101AFE00A2002008A10020004E08E03E2A00A0000F
:101B0E0020004E08263E8600053087004830810AA8
:101B1E00F0000530F1004430F2000530F3000430DF
:101B2E00F400C32688314430F0000530F100403017
:101B3E00F2000530F3000430F400C3268831403043
:101B4E00F0000530F1003C30F2000530F3000430B7
:101B5E00F400C32688313C30F0000530F1003830F7
:101B6E00F2000530F3000430F400C326883138301B
:101B7E00F0000530F1003430F2000530F30004308F
:101B8E00F400C32688313430F0000530F1003030D7
:101B9E00F2000530F3000430F400C32688313030F3
:101BAE00F0000530F100DA30F2000430F301F400F9
:101BBE00C3264A1508005130F001F00ADC2788319F
:101BCE0020004F0846060319F02D4F08C600C40129
:101BDE000800023044020318F62DC40A08004F080C
:101BEE0045060319A52E0330F000513097313027EA
:101BFE008831450803191F2E0830450203181F2E81
:101C0E002830F0000430F1005130F2000330F301BF
:101C1E00F400C32688311E30510251080318E23EEB
:101C2E00F0004508090709073C3EDB2688314A14B7
:101C3E004F08C5000330D100D201D3014508031966
:101C4E000800083045020318080028002508A600E1
:101C5E002408A5002308A4002208A3002108A2003E
:101C6E002008A10020004508F03E2800A0003A30D0
:101C7E00F0000430F1003730F2000430F30003308E
:101C8E00F400C32688313730F0000430F1003430D0
:101C9E00F2000430F3000330F400C32688313430F0
:101CAE00F0000430F1003130F2000430F300033064
:101CBE00F400C32688313130F0000430F1002E30AC
:101CCE00F2000430F3000330F400C32688312E30C6
:101CDE00F0000430F1002B30F2000430F30003303A
:101CEE00F400C32688312B30F0000430F100283088
:101CFE00F2000430F3000330F400C326883128309C
:101D0E00F0000430F1005130F2000330F301F40022
:101D1E00C32688310330F00020009E2ED208031D0A
:101D2E00C12E51081E3A031DC12E1B30F00045086E
:101D3E00090709073C3EDB264A140800450803192B
:101D4E000800083045020318080051080319B32E85
:101D5E0051081E3A031D08002830F0000430F1002F
:101D6E005130F2000330F301F400C3268831D3085A
:101D7E000319952E1E309D2EF4037408FF3A031995
:101D8E00080072088600730887000108F5007008C5
:101D9E0086007108870075088100F00A0319F10AA0
:101DAE00F20A0319F30AC32EF100860004308700ED
:101DBE0070088107710886003C300102031C080080
:101DCE00710886003C3081027108013E8600810A4E
:101DDE007108013E86003C300102031C08007108A8
:101DEE00013E86003C3081027108023E8600810A67
:101DFE007108023E860004308108031D0800710838
:101E0E00033E86000430810A0800F100910070083C
:101E1E00930055301513951315158B139600AA3094
:101E2E00960095148B17151108002100B808031D94
:101E3E00272F2000AE01AF01BC01BB01BA01080083
:101E4E003708031908003B082000AE070318AF0A35
:101E5E00023021003B020318382F20007F30BC0ACD
:101E6E00CD00FE3021003B02031C402F2000BC0A97
:101E7E00CD0104302000BA0A3A02031C0800BC0847
:101E8E00031D652FBB012F08F1002E08F000F1365F
:101E9E00F00CF136F00C7008013E840090300318FF
:101EAE00013E85000008CD00803A133E031C702FC2
:101EBE0002304B020318702F03306F2F0A30BB0A0B
:101ECE003B02031C702F02304B020318702F04309C
:101EDE00CB00AE01AF01BC01BA01080005302100F4
:101EEE00B60A36020530031C822FB600B401B801C3
:101EFE00A801A901C32F3402031CC32F0530B4005F
:101F0E003508FF3EF200FC3E07390907603E8600A9
:101F1E0003308700720807390907603E84000330DA
:101F2E008500403F0002F3000131413F003BF400C9
:101F3E000130F436F30CF436F30CF436F30C740271
:101F4E002D3003197302031CC32F01307402F430B9
:101F5E00031973020318C32F7408A9007308A8008D
:101F6E007408F1007308F000F136F00CF136F00C45
:101F7E00F136F00C7008B80038080319CA2F20008B
:101F8E00A801A90108002000A80A0319A90A013016
:101F9E0029022C3003192802031C080002304B02C0
:101FAE00031808000A30CB000800F10086008701F4
:101FBE0070088107710886003C300102031C08007E
:101FCE00710886003C3081027108013E8600810A4C
:101FDE007108013E86003C300102031C08007108A6
:101FEE00013E86003C3081027108023E8600810A65
:101FFE00080000347F347F347F347F347F347F3465
:10200E007F347F347F347F347F347F347F347F342A
:10201E007F347F347F347F347F347F347F347F341A
:10202E007F347F347F347F347F347F347F347F340A
:10203E007F347F347F347F347F347F347F347F34FA
:10204E007F347F347F347F347F347F347F347F34EA
:10205E007F347F347F347F347F347F347F347F34DA
:10206E007F347F347F347F347F347F347F347F34CA
:10207E007F347F347E347D347C347B347A347A34CE
:10208E0079347834773477347634753475347434EF
:10209E007334733472347134713470346F346F340A
:1020AE006E346D346D346C346B346B346A346A3424
:1020BE00693468346834673467346634663465343A
:1020CE00643464346334633462346234613461344E
:1020DE00603460345F345E345E345D345D345C3461
:1020EE005C345B345B345A345A3459345934583472
:1020FE005834573457345634563455345534543482
:10210E005434533453345234523451345134503491
:10211E0050344F344F344E344E344D344D344C34A1
:10212E004C344B344B344A344A34493449344834B1
:10213E0048344734473446344634453445344434C1
:10214E0044344334433442344234413441344034D1
:10215E0040343F343F343E343E343D343D343C34E1
:10216E003C343B343B343A343A34393438343834F2
:10217E003734373436343634353435343434333406
:10218E003334323432343134303430342F342E341C
:10219E002E342D342D342C342B342A342A34293435
:1021AE002834283427342634253425342434233453
:1021BE0022342134213420341F341E341D341C3477
:1021CE001B341A34193418341734153414341334A8
:1021DE00123410340F340D340C340A3408340634EF
:1021EE00043402340034003400340034003400343B
:0421FE000034003475
:102E6000F1008600870170088102710886003C30FD
:102E70000102031C0800710886003C3081077108BC
:102E8000013E860081037108013E86003C3001024C
:102E9000031C08007108013E86003C308107710860
:102EA000023E860081030800CF08031D5B2FC70187
:102EB0004D08C80008004D08F000F101F01BF103B7
:102EC0007108803A803C031D682F70082A00570261
:102ED0000318702F20004D082A00D7002000CA15C3
:102EE00020004808803AF0004D08803AF0020318AC
:102EF0007B2F4D08C8002100D908031D08002000C1
:102F0000C708031D922FC701C70A2A005D08DE000B
:102F10005C08DD005B08DC005A08DB005908DA00B9
:102F20005808D900200048082A00D8002000CA15F7
:102F3000080064302000C90A4902031C00343C30F8
:102F4000C9012100D90A5902031C0134DA30D90120
:102F5000F000F101F201F20AC4279731A030F0002D
:102F60000530F100F201F20AC427A830F000053064
:102F7000F100A030F2000530F3000430F4008E318F
:102F8000C32620004A1601347008860071088700A5
:102F90007208810770088600710887003C300102C2
:102FA000031C080070088600710887003C3081020D
:102FB0007008013E86000030713D8700810A70086C
:102FC000013E86000030713D87008108031D080026
:102FD0007008023E86000030713D8700810A70084B
:102FE000023E86000030713D87008108031D080005
:102FF0007008033E86000030713D8700810A08009A
:103A00000034023404348634003482348434DE34A6
:103A100060340A340C348E3408348A348C348E3456
:103A20000034023404348634003482348434DE3486
:103A300060340A340C348E3408348A348C348E3436
:103A40000034023404348634003482348434DE3466
:103A500060340A340C348E3408348A348C348E3416
:103A60000034023404348634003482348434DE3446
:103A700060340A340C348E3408348A348C348E34F6
:103A80000034023404348634003482348434DE3426
:103A900060340A340C348E3408348A348C348E34D6
:103AA0000034023404348634003482348434DE3406
:103AB00060340A340C348E3408348A348C348E34B6
:103AC0000034023404348634003482348434DE34E6
:103AD00060340A340C348E3408348A348C348E3496
:103AE0000034023404348634003482348434DE34C6
:103AF00060340A340C348E3408348A348C348E3476
:103B00000034023404348634003482348434DE34A5
:103B100060340A340C348E3408348A348C348E3455
:103B20000034023404348634003482348434DE3485
:103B300060340A340C348E3408348A348C348E3435
:103B40000034023404348634003482348434DE3465
:103B500060340A340C348E3408348A348C348E3415
:103B60000034023404348634003482348434DE3445
:103B700060340A340C348E3408348A348C348E34F5
:103B80000034023404348634003482348434DE3425
:103B900060340A340C348E3408348A348C348E34D5
:103BA0000034023404348634003482348434DE3405
:103BB00060340A340C348E3408348A348C348E34B5
:103BC0000034023404348634003482348434DE34E5
:103BD00060340A340C348E3408348A348C348E3495
:103BE0000034023404348634003482348434DE34C5
:103BF00060340A340C348E3408348A348C348E3475
:103C00000034003401340034043400340934003406
:103C10001034003419340034243400343134003486
:103C20004034003451340034643400347934003486
:103C300090340034A9340034C4340034E134003406
:103C40000034013421340134443401346934013402
:103C500090340134B9340134E43401341134023481
:103C60004034023471340234A4340234D93402347E
:103C7000103403344934033484340334C1340334FA
:103C8000003404344134043484340434C9340434F6
:103C90001034053459340534A4340534F134053472
:103CA0004034063491340634E4340634393407346D
:103CB00090340734E934073444340834A1340834E8
:103CC0000034093461340934C434093429340A34E1
:103CD00090340A34F9340A3464340B34D1340B345C
:103CE00040340C34B1340C3424340D3499340D3454
:103CF00010340E3489340E3404340F3481340F34CC
:103D000000341034813410340434113489341134C3
:103D1000103412349934123424341334B13413343B
:103D200040341434D134143464341534F934153433
:103D30009034163429341734C434173461341834A9
:103D400000341934A134193444341A34E9341A349F
:103D500090341B3439341C34E4341C3491341D3415
:103D600040341E34F1341E34A4341F34593420340A
:103D700010342134C934213484342234413423347E
:103D800000342434C1342434843425344934263472
:103D900010342734D9342734A434283471342934E6
:103DA00040342A3411342B34E4342B34B9342C34D9
:103DB00090342D3469342E3444342F34213430344B
:103DC00000343134E1343134C4343234A93433343E
:103DD00090343434793435346434363451343734AF
:103DE000403438343134393424343A3419343B349F
:103DF00010343C3409343D3404343E3401343F340F
:103E000000344034013441340434423409344334FE
:103E1000103444341934453424344634313447346E
:103E2000403448345134493464344A3479344B345E
:103E300090344C34A9344D34C4344E34E1344F34CE
:103E400000345134213452344434533469345434BA
:103E500090345534B9345634E43457341134593429
:103E600040345A3471345B34A4345C34D9345D3416
:103E700010345F344934603484346134C134623482
:103E8000003464344134653484346634C93467346E
:103E90001034693459346A34A4346B34F1346C34DA
:103EA00040346E3491346F34E434703439347234C5
:103EB00090347334E934743444347634A134773430
:103EC0000034793461347A34C4347B3429347D3419
:103ED00090347E34F9347F3464348134D134823484
:103EE00040348434B134853424348734993488346C
:103EF00010348A3489348B3404348D3481348E34D4
:103F000000349034813491340434933489349434BB
:103F1000103496349934973424349934B1349A3423
:103F200040349C34D1349D3464349F34F934A0340B
:103F30009034A2342934A434C434A5346134A73471
:103F40000034A934A134AA344434AC34E934AD3457
:103F50009034AF343934B134E434B2349134B434BD
:103F60004034B634F134B734A434B9345934BB34A2
:103F70001034BD34C934BE348434C0344134C23406
:103F80000034C434C134C5348434C7344934C934EA
:103F90001034CB34D934CC34A434CE347134D0344E
:103FA0004034D2341134D434E434D534B934D73431
:103FB0009034D9346934DB344434DD342134DF3493
:103FC0000034E134E134E234C434E434A934E63476
:103FD0009034E8347934EA346434EC345134EE34D7
:103FE0004034F0343134F2342434F4341934F634B7
:103FF0001034F8340934FA340434FC340134FE3417
:020000040001F9
:04000E009C0FFC3F08
:10E00000570049004E000000DC0000000000010045
:10E01000B4004F008F00FD00000000000100B400BC
:10E020004F008F00FD0000002E0001002E000400B4
:10E0300000000000000000000000000000000000E0
:10E0400000000000000000000000000000000000D0
:10E0500000000000000000000000000000000000C0
:10E0600000000000000000000000000000000000B0
:10E0700000000000000000000000000000000000A0
:10E080000000000000000000000000000000000090
:10E090000000000000000000000000000000000080
:10E0A0000000000000000000000000000000000070
:10E0B0000000000000000000000000000000000060
:10E0C0000000000000000000000000000000000050
:10E0D0000000000000000000000000000000000040
:10E0E0000000000000000000000000000000000030
:10E0F0000000000000000000000000000000000020
:10E10000000000000000000000000000000000000F
:10E1100000000000000000000000000000000000FF
:10E1200000000000000000000000000000000000EF
:10E1300000000000000000000000000000000000DF
:10E1400000000000000000000000000000000000CF
:10E1500000000000000000000000000000000000BF
:10E1600000000000000000000000000000000000AF
:10E17000000000000000000000000000000000009F
:10E18000000000000000000000000000000000008F
:10E19000000000000000000000000000000000007F
:10E1A000000000000000000000000000000000006F
:10E1B000000000000000000000000000000000005F
:10E1C000000000000000000000000000000000004F
:10E1D000000000000000000000000000000000003F
:10E1E000000000000000000000000000000000002F
:10E1F000000000000000000000000000140000000B
:00000001FF
