:0400000081313829E9
:100008008031210062189D146115610822000C06D8
:1000180024398C06200093119D30850021004D085D
:1000280020008E1A01388400003F2100CD004F08BF
:100038002200951801388400003F2100CF004E08A7
:100048002200151801388400003F2100CE00CD1E83
:100058003A284B353E39203E840003308500360867
:100068001A0037081A00CB0ACA0ACC01E1124F1B42
:100078004928BB1FA028BA0F4228BB0ABC0F452835
:10008800BD0ABD1BA028E116A028BB014208031920
:100098007828FD3EE6000A3EE700283038020030A6
:1000A800393B031C782834083802BC003508393B32
:1000B800BD00FF300318BC000318BD003408243C01
:1000C800840035083B3B85000A303C02BA0000300A
:1000D8003D3BBB0004083A0205083B3B031878285F
:1000E8000408BA000508BB004F1EA02841143F357C
:1000F8000E39603E84000330850036081A00370840
:100108001A00BF0ABE0AC0012808A4002908A500D1
:100118002A08A6002B08A7004408C300A801A901C3
:10012800AA01AB01C40142080319A028023EE40059
:100138000830E500023EE3003608B60FA428B70AE7
:1001480003390B00AA28DE280B2923292300A61F20
:10015800A60A24080319BF280C302602031CBF284E
:10016800A60125081F39A03E840003308500003F02
:100178009A00A50AA4032100D00A621CD4289D185D
:10018800C3281B0984009E30850084350318850A1E
:100198001200A8071200A93D0001AA3DAB3DC40A00
:1001A800E201E41FE40B090015309D0020309E0099
:1001B800621409002300A21FA20A2000911EF7283A
:1001C8002300A2011908850020302002031CF7280B
:1001D80023081F39C03E840003300506850605063E
:1001E800803FA30AA00A2100621C01299D18FA2851
:1001F8001C08803C031C003CC600E201E51FE50B1F
:10020800090019309D0020309E0062140900E61F85
:10021800E60B13294E084F06803A090DC80D621CDB
:1002280019299D1815291C08C700E201E31FE30BD3
:1002380009000D309D0020309E0062140900E71F60
:10024800E70B2B294E084F06803A090DC90D621C91
:1002580031299D182D291C08C50025309D00A03086
:100268009E0062140900090088018B316A2BA522BF
:100278008131003A031945298831062081318E22BF
:1002880081312000431C63294030F2000130F30023
:10029800FE30F401F40A70228131003A0319080093
:1002A8003F30F2000130F3001B30F401F40A7022F1
:1002B8008131003A03190800200043100800C31CCC
:1002C8001C2A2030F2000430F3000730F4001C3000
:1002D80070228131003A031908002830F2000430F6
:1002E800F3000730F400233070228131003A0319FB
:1002F80008003030F2000430F3000730F4002A30F0
:1003080070228131003A031908003830F2000430B5
:10031800F3000730F400313070228131003A0319BC
:1003280008004030F2000430F3001530F400383093
:1003380070228131003A031908005830F200043065
:10034800F3000730F4004D3070228131003A031970
:100358000800A030F2000430F3000E30F4005430EE
:1003680070228131003A03190800B030F2000430DD
:10037800F3001C30F400623070228131003A031916
:100388000800D030F2000430F3000730F4007E306B
:1003980070228131003A031908002030F20005303C
:1003A800F3008530F401F40A70228131003A031910
:1003B80008002230F2000530F3000930F4008630DE
:1003C80070228131003A031908003030F2000530FC
:1003D800F3001C30F4008F3070228131003A031989
:1003E80008005030F2000530F3000430F400D33038
:1003F80070228131003A031908005430F2000530A8
:10040800F3000430F400D73070228131003A031928
:1004180008005830F2000530F3000430F400DF30F3
:1004280070228131003A031908002000C310080027
:10043800431D512AA030F2000530F3000430F400C7
:10044800AB3070228131003A03190800A630F2005F
:100458000530F3002430F400AF3070228131003AC7
:1004680003190800D030F2000530F3000230F40020
:10047800E53070228131003A03190800D430F200C7
:100488000530F3001230F400E73070228131003A71
:1004980003190800200043110800C31D6E2A2030EC
:1004A800F2000630F3000430F400DB3070228131B2
:1004B800003A031908002630F2000630F300023033
:1004C800F400E33070228131003A0319080020005B
:1004D800C3110800C3010800F500F408031901342A
:1004E800720886007308870075088E31D826813116
:1004F80001060319882A7208860073088700010814
:10050800F0007508C7220034F50AF20A0319F30A45
:10051800F403712A22004108F000F101F01BF103F5
:100528007108803A803C031D9C2A70082A0020022A
:1005380003180800220041082A00A0002000C31464
:10054800080064302000C20A4202031C00343C3018
:10055800C2012200B10A3102031C01343230B10158
:10056800F0000130F100F201F20A8E316B26813180
:100578005430F0000530F100F201F20A8E316B269A
:100588002000C3140134F100910070089300553025
:100598001513951315158B139600AA30960095140C
:1005A8008B1715110800220025082404031DEB2AC7
:1005B8002000B4012100B001B101AE01AF01A001DA
:1005C800A101A201A3012200A901AA01462B210031
:1005D8003808B0073908B13D64302000B40A340245
:1005E800031C462BB40121003508F1003408F00043
:1005F800F136F00C3108F3003008F200612371087D
:10060800F8007008F700EC30F900FA01933115236F
:10061800823178082200A90021009630B001B1018A
:1006280022002902031C1A2B9630A9002908210050
:10063800A00701300318A1070318A2070318A3078E
:10064800AE0A0319AF0A2E082000C90021002F089E
:100658002000CA00CB01CC01210023082000D000D3
:10066800210022082000CF00210021082000CE0010
:10067800210020082000CD009731BB27823149088E
:100688002200AA002200250821003306031D502B52
:100698002200240821003206031908002200250838
:1006A8002100B300220024082100B200A001A1010A
:1006B800A201A301AE01AF010800F401F501710820
:1006C80070040319812BF601F60AF11B6E2BF03525
:1006D800F10D682BF435F50D71087302031D762BA7
:1006E80070087202031C7D2B7008F2027108F33B3C
:1006F8007414F136F00CF60B6E2B7508F1007408C3
:10070800F000080020002F082E040319F12B0130F7
:10071800AE020030AF3BF12B21004208031908005C
:1007280020000A30BB0AAE00AF01080044080A3AAC
:10073800031DA02BBB0A08002F082E04031D080068
:10074800FF30BB000800440BAF2B2C30BB0AAE00B7
:100758000130AF00080044080A3A03190800A42B26
:10076800440BA42B00302F02643003192E02031C03
:10077800C62B210047082000BA00210047082000A6
:10078800B90008003A08210047020318CE2B470891
:100798002000BA0021004708200039020318D82B8E
:1007A800210047082000B9002F082E04031D080067
:1007B8000A303A02031CA42B1E3039020318A42B5A
:1007C8009E2B3A083907F100F201F20D720DF20C76
:1007D800F10C7108FC238331A42B3B0884000530FD
:1007E80004020318080085310435343E82000800ED
:1007F800F0002200BF0A7008C0002000431408005F
:100808002100C208031D0F2C2000AC01AD01B80166
:10081800B601B50108004108031908004508200081
:10082800AC070318AD0A0330210045020318202C39
:100838002000B801B803272CFE304502031C272CE2
:100848002000B801B80A04302000B50A3502031C9C
:100858000800B808031D4D2CB601B7012D08F1009A
:100868002C08F000F136F00CF136F00C7008013E5F
:10087800840098300318013E850000082200C1005A
:10088800803A173E031C652CA808031D652C02300E
:10089800642CB81F5A2C0A30B60A3602031C652C81
:1008A8002200A808031D652C0630642C0A30B70AFC
:1008B8003702031C652C2200A808031D652C05308F
:1008C800A8002000AC01AD01B801B5010800053051
:1008D800C00A40020530031C772CC000BE01C201CB
:1008E800B401B501B82C3E02031CB82C0530BE007B
:1008F8003F08FF3EF200FC3E07390907603E8600CC
:1009080003308700720807390907603E8400033006
:100918008500403F0002F3000131413F003BF400F5
:100928000130F436F30CF436F30CF436F30C74029D
:100938002D3003197302031CB82C01307402F430F3
:10094800031973020318B82C7408B5007308B400AF
:100958007408F1007308F000F136F00CF136F00C71
:10096800F136F00C7008C20042080319BE2CAC0125
:10097800AD010800AC0A0319AD0A01302D022C3074
:1009880003192C02031C08002200A808031D0800F4
:100998000A30A80008002100420803190800390895
:1009A8003804031DF22C220023082204031DF22C14
:1009B8002100C908031DED2C32302000B20A320292
:1009C800031CEF2C2200A808031DEF2C0330A800FD
:1009D800EF2C2000B2012000B301080021003508E7
:1009E800F1003408F000F136F00C70083C3EF200DB
:1009F8000030713DF3003902031D042D72083802DE
:100A0800031C1C2D4908FF3A031D172D3230200006
:100A1800B30A3302031C192D2200A808031D192D3F
:100A28000330A800192D2000B3012000B2010800EE
:100A38002000B201B30108008F31A22F8F31A22FFD
:100A48008F31A22F8F31AA2F8F31B22F8F31BA2F2A
:100A58008F31C22F8F31CA2F8F31CA2F8F31D22FAA
:100A68008331902B83319A2B8331A72B8331B42B7D
:100A78008331E52B640080010131890B3F2D00345F
:020A8800080064
:10100C00F901FA01F8012200300803192E282908E9
:10101C002E02031813282908AE002A0803191D28CC
:10102C002A08AB002E0203181D282E08AB002F082F
:10103C00803AF6004108803AF60203182728410846
:10104C00AF003A30F001F00A0C278831AD0140288E
:10105C003D30F001F00AE0268831BD08031D402820
:10106C005830F0000530F100F201F20A6B2688319D
:10107C002000C31420004508031960280A304502DB
:10108C00031860284508F700400603196128770803
:10109C00C000213E860005308700810AC314F90187
:1010AC002200B008031D5D28FA01FA0A61280430F9
:1010BC00FA006128C0012000C008031DAC280830CC
:1010CC00460203186C284608F9006D28F9014108FE
:1010DC007906031975287908C100BF019A28BF0841
:1010EC00031D7A28BF0A9A282200300879060319B2
:1010FC009A28790803199828B008031D872802300C
:10110C0088280330FA00BE08031D922803303D02E4
:10111C0003189228BD019A280230F0003D30F626C3
:10112C0088319A280430FA00FA08031DAE282200F0
:10113C0030080319AE280F30F0003A082725883103
:10114C000038031DAE280530FA00AE28C101BF01DE
:10115C007A080319922A04307A020318922A28007A
:10116C002508A6002D08AE003508B6003D08BE00C7
:10117C005D08DE0029005508D6005230F00004301E
:10118C00F1004F30F2000430F3000330F40052232E
:10119C008831AC30F0000430F100AA30F200043099
:1011AC00F3000230F40052238831C830F0000430D0
:1011BC00F100C430F2000430F300F4005223883103
:1011CC0028002408A5002C08AD003408B5003C0804
:1011DC00BD005C08DD0029005408D5004F30F0003C
:1011EC000430F1004C30F2000430F3000330F40012
:1011FC0052238831AA30F0000430F100A830F200FC
:10120C000430F3000230F40052238831C430F00073
:10121C000430F100C030F2000430F300F40052232B
:10122C00883128002308A4002B08AC003308B40034
:10123C003B08BC005B08DC0029005308D4004C3090
:10124C00F0000430F1004930F2000430F3000330B8
:10125C00F40052238831A830F0000430F100A6309D
:10126C00F2000430F3000230F40052238831C03015
:10127C00F0000430F100BC30F2000430F300F40054
:10128C005223883128002208A3002A08AB00320818
:10129C00B3003A08BB005A08DB0029005208D300FF
:1012AC004930F0000430F1004630F2000430F30015
:1012BC000330F40052238831A630F0000430F100E2
:1012CC00A430F2000430F3000230F40052238831D1
:1012DC00BC30F0000430F100B830F2000430F30000
:1012EC00F4005223883128002108A2002908AA0002
:1012FC003108B2003908BA005908DA00290051083F
:10130C00D2004630F0000430F1004330F2000430DB
:10131C00F3000330F40052238831A430F000043081
:10132C00F100A230F2000430F3000230F40052233A
:10133C008831B830F0000430F100B430F2000430E1
:10134C00F300F4005223883103307A020318DF29AA
:10135C0028002008A1002808A9003008B10038088E
:10136C00B9005808D90029005008D1005008D10004
:10137C004330F0000430F1004030F2000430F30050
:10138C000330F40052238831A230F0000430F10015
:10139C00A030F2000430F3000230F4005223883104
:1013AC00B430F0000430F100B030F2000430F3003F
:1013BC00212A2800A101220030082800A9002200BF
:1013CC002E082800B10022002B082800B9002200AA
:1013DC002F082800D90022002D082900D100280050
:1013EC0021080319FB29E030A10729080319002A59
:1013FC00F030A9074330F0000430F1003A30F2002D
:10140C000130F3000330F40052238831A230F00095
:10141C000430F1003D30F2000130F3000230F400F2
:10142C0052238831B430F0000430F1003630F20031
:10143C000130F3000430F400522388317A0B2E2A49
:10144C00200040082200AC00B001AE01AB01362AEE
:10145C002200AC017908B0002908AE002908AB00C5
:10146C004108AF000330AD01F0003A305E26883100
:10147C003630F0000130F1005030F2000530F3004E
:10148C000430F400522388312C082800A0002200DC
:10149C0030082800A80022002E082800B0002200E6
:1014AC002B082800B80022002F082800D8002200A2
:1014BC002D082900D000280020080319672AE030E5
:1014CC00A007280803196C2AF030A8074030F00058
:1014DC000430F1003A30F2000130F3000330F40034
:1014EC0052238831A030F0000430F1003D30F2007E
:1014FC000130F3000230F40052238831B030F00098
:10150C000430F1003630F2000130F3000430F40006
:10151C0052232000C31408007A08043A031D0A2B36
:10152C000F30F00022003A0827258831F800F8081F
:10153C00031DA22A0F30F8007808F00030080907C4
:10154C0009072C3EA7268831BA08031DB52A50304E
:10155C00F0000530F100F201F20A6B268831200010
:10156C00C31440082200AC002800A0002200300860
:10157C002800A80022002E082800B00022002B080A
:10158C002800B80022002F082800D80022002D08BF
:10159C002900D000280020080319D62AE030A00723
:1015AC0028080319DB2AF030A8074030F00004307B
:1015BC00F1003A30F2000130F3000330F400522312
:1015CC008831B030F0000430F1005030F2000530BA
:1015DC00F3000430F400522388312000C31422009D
:1015EC000330AC01B001AE01AB01AF01AD01F000B5
:1015FC003A305E2688310230F0003D305E2688316C
:10160C000430F00036305E2E7A08053A031D0800CF
:10161C000F30F00022003008090709072C3EA726DE
:10162C008831BA08031D222B5030F0000530F10030
:10163C00F201F20A6B2688312000C3144008220004
:10164C00AC002800A000220030082800A8002200CE
:10165C002E082800B00022002B082800B800220019
:10166C002F082800D80022002D082900D0002800BF
:10167C0020080319432BE030A00728080319482B36
:10168C00F030A8074030F0000430F1003A30F2009E
:10169C000130F3000330812AF4037408FF3A031974
:1016AC00080072088600730887000108F5007008AE
:1016BC0086007108870075088100F00A0319F10A89
:1016CC00F20A0319F30A522B2030840000308500F3
:1016DC00293085313E258831A030840000308500CA
:1016EC00413085313E258831203084000130850021
:1016FC00213085313E258831A030840001308500B1
:10170C00083085313E25883120008C2B8B13BB2370
:10171C00883179248831912488315F2588318B1761
:10172C006400643021005002031C952B6430D002FD
:10173C004B248831972490312420883132278131F1
:10174C003B21883120004708043A03194308031948
:10175C00B42B0530C80022000D17952BC80B952B08
:10176C00C801C80A22000D13952BF0308B132100F1
:10177C00990098011130970022009D019E010430C0
:10178C002100E10022008C001B3021008C00113064
:10179C0023008C0024008C0127008C01E0302200F7
:1017AC008D00303021008D0023008D0124008D012F
:1017BC00203027008D0022008E01EF3021008E009A
:1017CC00CF3023008E0024008E0127008E012200D2
:1017DC0097019901980103309200823091000130F9
:1017EC009400A2309300A03021009E0025309D0073
:1017FC00FF30E201E20AE400E500E3000A30C60132
:10180C00C701C501A801A901AA01AB01C401A4012A
:10181C00A501A601A701C30123009F001F309B0057
:10182C0003309C009D0104309E009D171D169E16D2
:10183C00A601A401A701A501A201A001A301A10178
:10184C002000990130309800313028009D0005307F
:10185C009E002000910192019301940121009101BD
:10186C009201083093009401FF300B17D001B601A0
:10187C00B701E600E700C801C901CD01CF01CE01D7
:10188C00BC01BD01BA01BB01080022009D019E01F3
:10189C001B3021008C00113023008C0024008C01A3
:1018AC0027008C01303021008D0023008D01240095
:1018BC008D01203027008D00EF3021008E00CF30BD
:1018CC0023008E0024008E0127008E012200970138
:1018DC00980199018230910003309200A23093005C
:1018EC00013094000800BF01BE01C001B401B50174
:1018FC00C201C101CB01CA01CC01B801B90122005E
:10190C00A401A501A201A301A001A101A801A901A3
:10191C00C101C10308002000C701C601C501C401F3
:10192C00080032302000BC0A3C02031C0800BC0139
:10193C004408E12488312C30D02488312100470818
:10194C00E12488312C30D024883121004508E12451
:10195C0088312C30D024883122002908E1248831A8
:10196C002C30D024883122004108E12488312C30DD
:10197C00D0248831210048083F2588312C30D024D0
:10198C008831210049083F2588310D30D024883119
:10199C000A30D02CF0002030230024020318080059
:1019AC0027081F39A03E860003308700700881008D
:1019BC00A70AA40A0800F6006430F5017602031C9D
:1019CC00F72C6430F00076080F258831303ED02497
:1019DC0088316430F000760827258831F600F5014F
:1019EC00F50A0A30F508031DFF2C7602031C0C2D9A
:1019FC000A30F00076080F258831303ED02488312B
:101A0C000A30F000760827258831F6007608303E3B
:101A1C00D02CF100F30170080319252DF201F20A04
:101A2C00F01B1A2DF035152DF33570087102031CBF
:101A3C00222D7008F1027314F036F20B1A2D730874
:101A4C000800F2000830F300F4017208F1000730CE
:101A5C00F136890B2E2D74357104F400F2357008B3
:101A6C007402031C3B2D7008F402F30B2B2D74082D
:101A7C000800F100710E0F39F2000A3072020318DF
:101A8C00492D30304A2D3730F2077208D024883176
:101A9C007108F2000F30F2050A3072020318582D4B
:101AAC003030592D3730F2077208D0248831483045
:101ABC00D02C4030C301F1000130F200FE30F301B4
:101ACC00F30A492688313F30F1000130F2001B3017
:101ADC00F301F30A492688312030F1000430F2007A
:101AEC000730F3001C30492688312830F1000430CF
:101AFC00F2000730F3002330492688313030F100F2
:101B0C000430F2000730F3002A304926883138308F
:101B1C00F1000430F2000730F300313049268831EF
:101B2C004030F1000430F2001530F3003830492613
:101B3C0088315830F1000430F2000730F3004D309A
:101B4C0049268831A030F1000430F2000E30F30049
:101B5C00543049268831B030F1000430F2001C308A
:101B6C00F300623049268831D030F1000430F200A5
:101B7C000730F3007E30492688312030F1000530E3
:101B8C00F2008530F301F30A492688312230F10046
:101B9C000530F2000930F3008630492688313030A8
:101BAC00F1000530F2001C30F3008F3049268831EB
:101BBC005030F1000530F2000430F300D3304926E8
:101BCC0088315430F1000530F2000430F300D73086
:101BDC00492688315830F1000530F2000430F3000A
:101BEC00DF304926883122000330AC01B001AE0150
:101BFC00AB01AF01AD01F0003A305E268831023006
:101C0C00F0003D305E2688310430F00036305E2620
:101C1C0088310530F00031305E268831A030F1007B
:101C2C000530F2000430F300AB3049268831A63081
:101C3C00F1000530F2002430F300AF304926883132
:101C4C00D030F1000530F2000230F300E5304926C7
:101C5C008831D430F1000530F2001230F300E73057
:101C6C00492688312030F1000630F2000430F300B0
:101C7C00DB30492688312630F1000630F200023084
:101C8C00F300E330492EF500F3037308FF3A031910
:101C9C0008007508D8268831F4007108860072088F
:101CAC00870074088100F50AF10A0319F20A4A2E1A
:101CBC00F100F0037008FF3A031908007108860060
:101CCC00013087008101F10A5F2E700886007108CF
:101CDC0087007208810770088600710887003C3005
:101CEC000102031C080070088600710887003C3054
:101CFC0081027008013E86000030713D8700810A28
:101D0C007008013E86000030713D87008108031D7C
:101D1C0008007008023E86000030713D8700810A81
:101D2C007008023E86000030713D87008108031D5B
:101D3C0008007008033E86000030713D8700810A60
:101D4C000800F100860005308700700881077108D3
:101D5C0086003C300102031C0800710886003C30F0
:101D6C0081027108013E8600810A7108013E8600DD
:101D7C003C300102031C08007108013E86003C3017
:101D8C0081027108023E8600810A7108023E8600BB
:101D9C0005308108031D08007108033E86000530DC
:101DAC00810A0800F00023009100151395131514F7
:101DBC0013080800F10086000130870070088107C5
:101DCC00710886003C300102031C08007108860073
:101DDC003C3081027108013E86000130810A080006
:101DEC00F1008600013087007008810271088600BE
:101DFC003C300102031C0800710886003C3081074E
:101E0C007108013E8600013081030800F100860054
:101E1C000130870070088107710886003C30010290
:101E2C00031C0800710886003C3081027108013ED9
:101E3C008600810A7108013E86003C300102031CB9
:101E4C0008007108013E86003C3081027108023E98
:101E5C0086000130810A08009431112488318331C5
:101E6C00862388312000270826042504240403191E
:101E7C00F42F0130EC00ED01EE01EF01A4026D082E
:101E8C00A53B6E08A63B6F08A73BF42F2200A401CC
:101E9C00A5012000C701C70A0130A701A601A500B2
:101EAC00F430A40008002200A401A501A808031D19
:101EBC00662F20002708260425042404031D732FF5
:101ECC00220028082000C5000330C7000130A701FC
:101EDC00A601A500F430A400080021004808FF3A30
:101EEC00031D08004908FF3A031D08002200C11B0E
:101EFC00080002302000C700A701A600BF30A500D3
:101F0C002030A40008002200A808031D942F2000F4
:101F1C002708260425042404031DDA2F2200A4011B
:101F2C00A50128082000C5000330C700522FC601A8
:101F3C002200A401A50108000230C60022002708D7
:101F4C00A5002608A40008000330C60022002708BC
:101F5C00A5002608A40008000430C60022002708AB
:101F6C00A5002608A40008000530C600220027089A
:101F7C00A5002608A40008000630C6002200270889
:101F8C00A5002608A40008000730C6002200270878
:101F9C00A5002608A4000800BD30C601C60A220010
:101FAC00A4003430A50008004408FF3E031C9D2FFC
:101FBC0084000A30040203189D2F85310435203E1D
:101FCC0082002200A401A501200027082604250474
:101FDC002404031D08000430C70008004708003A19
:101FEC0003194C2F013A0319592F033A0319892F5E
:041FFC00E72F0800C3
:10204800843104249031E720903137208231D7221F
:10205800903184316B2490318431CF249031C62162
:102068002100C101080032302100CC0A4C02031CB7
:1020780044283230CC00CA012200A201A301BD28A5
:1020880003304A02031CBD281E304A02031C4E2896
:102098001E30CA004A08FE3E2000D80021004B0826
:1020A800FF3E2000DA000430D901580203187428D2
:1020B8005808D9005A021F390907203E8600033004
:1020C80087005A081F390907203E8400033085001D
:1020D800403F0002D6000131413F003BD70098281D
:1020E8000430D802D90759085A021F390907203E77
:1020F8008600033087005A081F390907203E8400EC
:1021080003308500403F0002D6000131413F003BCB
:10211800D70004305802031C982806305702403074
:1021280003195602031C74285608C9005708CA0028
:10213800CB01CC015908F0000930F101F201F3019B
:10214800F701F6002730F500C030F40096279031EB
:102158007308D0007208CF007108CE007008CD0057
:10216800BB2790314A082200A3002000490822001A
:10217800A20021004208FC00FD0139087D02031D70
:10218800C72838087C020318D1280130220023020E
:102198002C3003192202031CD5282000AA01AB0108
:1021A80008002000AA0A0319AB0A01302B022C30C0
:1021B80003192A02031C08002200A808031D0800AE
:1021C8000130A80008002100C208031DEF282200E2
:1021D800A001A101592941080319592943080319E4
:1021E800592927082000DD00210026082000DC00EE
:1021F800210025082000DB00210024082000DA0047
:10220800DA35DB0DDC0DDD0D210043082000D6009A
:10221800D701D801D9012100C30120005D08F300CE
:102228005C08F2005B08F1005A08F0007721903151
:102238007008DA007108DB00DC01DD015708F300E3
:102248005608F200F001F101772190317008D600AC
:102258007108D700D801D9015908CC005808CB001B
:102268005708CA005608C9005D08F3005C08F20068
:102278005B08F1005A08F0000930F701F601F50093
:102288006230F400962790317308D0007208CF00AE
:102298007108CE007008CD00BB2790314A08220093
:1022A800A100200049082200A000053022002102D8
:1022B800DC3003192002031865292000A801A901B0
:1022C80008002000A80A0319A90A02302902583078
:1022D80003192802031C08002200A808031D08008F
:1022E8000730A80008001030CE01CF01D001D1017D
:1022F800CA01CB01CC01CD01C900CE35CF0DD00D1F
:10230800D10DCA35CB0DCC0DCD0DF31B4A14F035CC
:10231800F10DF20DF30DCA35CB0DCC0DCD0DF31B20
:102328004A14F035F10DF20DF30D5108D50050089F
:10233800D4004F08D3004E08D200D235D30DD40DA7
:10234800D50D521455084D02031DB42954084C02EA
:10235800031DB42953084B02031DB42952084A022D
:10236800031CBF295208CA025308CB3B5408CC3B74
:102378005508CD3B4E14C90B81294F08F1004E0872
:10238800F000080020003E08031DBE0322002508B7
:1023980024040319D3292100C208031DC62A2000DA
:1023A800BD018B132100B801B9018B1708008B13ED
:1023B8002100B801B9018B17350834040319080046
:1023C800220025082000B100220024082000B000C7
:1023D8005030A200B830A301A001A1012100D10012
:1023E8000B30D2005030D3002030D401D500033058
:1023F800D6003C30D701D801DB00DC01D901DA0175
:102408005C08E0005B08DF005C08DE005B08DD00BC
:102418002000C830BD0ABE00080021004108031989
:1024280008002200250820003106031D1F2A22006B
:1024380024082000300603193F2A2200250820001E
:102448003102031D2B2A2200240820003002031821
:102458002F2AC830BE00220025082000B100220023
:1024680024082000B000210060082000A3002100FB
:102478005F082000A200323022002502C83003196C
:102488002402031C532A193020003E02031C4E2A42
:102498001930BE002200241C532A2000BE0121004E
:1024A8003508F8003408F7003430F900FA0115232C
:1024B800903178082000DA007708D9000630DA363B
:1024C800D90C890B632A1030A2070318A30A230822
:1024D800803AD6005A08803A5602031D752A5908D0
:1024E8002202031C7C2A20005A08A3005908A200D3
:1024F800220025082000D800220024082000D70048
:10250800220022082000D702220023082000D83BFE
:10251800BE08031D912AD81F972A20302100D10018
:102528000330D200A12AB8302100D1000B30D200EC
:1025380020005A08A3005908A20020005808FD00EE
:102548005708FC00D1302A2390312200241CB42AD9
:102558002830F000F10120005A08F3005908BB2A7E
:102568002830F000F10120002308F3002208F200CF
:10257800D130D02290318B1321006008B9005F0858
:10258800B800D92920003D08003A0319DB29013A8F
:102598000319112ACF2A0800F7007108803AF400BD
:1025A8007308803A7402031DDB2A7208700203184C
:1025B800080077080E3E86008701403FF400413F3F
:1025C800F5007308803AF6007508803A7602031D14
:1025D800EF2A7408720277080318FA2A0E3E86005A
:1025E80087017208C03F7308C13F08000E3E86008D
:1025F8008701403FF400413FF500803AF60071083A
:10260800803A7602031D0A2B70087402031808002A
:1026180077080E3E860087017008C03F7108C13FE9
:102628000800FB01FC01771C1D2B7908FB077A08C1
:10263800FC3DF935FA0DF836F70C78087704031DD8
:10264800172B7C08F8007B08F7000800D5000C3E23
:1026580086008701403FC900413FCA0055080E3E29
:102668008600403FCB00413FCC00803ACD004A086D
:10267800803A4D02031D422B49084B020318462B92
:10268800FD1F8F2B200055080E3E86008701403F16
:10269800C900413FCA0055080C3E8600403FCB00A8
:1026A800413FCC00803ACD004A08803A4D02031DD4
:1026B8005F2B49084B020318632BFD1B8F2B20004F
:1026C8005508023E86008701403FC900413FCA00C5
:1026D8004908F0004A08F100890D893B8909F20090
:1026E800F3007C08F4007D08F500890D893B890911
:1026F800F600F700962790315508083E86008701B6
:102708007008810741317108813D41317208813D6E
:1027180041317308813D20005508083E8600870135
:10272800403FC900413FCA00423FCB00433FCC0075
:102738005508043E8600403FCD00413FCE004D087D
:10274800F0004E08F100890D893B8909F200F30079
:102758005508063E8600403F7C02F400413F7D3B21
:10276800F500F601F51BF6037608F7009627903179
:102778007008CF007108D0007208D1007308D20029
:10278800550886008701403FD300413FD4005308D5
:10279800F0005408F100890D893B8909F200F30023
:1027A8007C08F4007D08F500890D893B8909F6004D
:1027B800F700962790317008CF077108D03D72084E
:1027C800D13D7308D23D4F08C9075008CA3D51088A
:1027D800CB3D5208CC3D55080C3E86008701490880
:1027E800C03F4A08C13F4B08C23F4C08C33F550889
:1027F8000E3E8600403FC900413FCA0055080C3EC6
:1028080086004908C03F4A08C13F5508063E860071
:102818007C08C03F7D08C13F0800FA27903120009E
:10282800EA0014306A0203182A2C6A08143CEA00E9
:102838002100470820006A07EB0021004708200014
:102848006B020318372CFF30EB00372CEC30EA070B
:102858006A08210047022000EB0021004702031804
:10286800372C2000EB012100C208031D3E2C20005C
:10287800C401E82C0C3020006B020318452C0A30E8
:10288800E72C29306B0203184C2CC401C40AE82C2D
:102898002B306B0203185C2C02304402031C572CAB
:1028A8000230DA00592CDA01DA0ADB015A08E72C7F
:1028B8005D306B020318622C0230E72C5F306B022C
:1028C8000318702C03304402031C6C2C03306D2C4D
:1028D8000230DC00DD01E72C74306B020318762C23
:1028E8000330E72C76306B020318842C0430440242
:1028F800031C802C0430812C0330DE00DF01E72C20
:1029080088306B0203188A2C0430E72C8A306B025B
:102918000318982C05304402031C942C0530952C80
:102928000430E000E101E72C9D306B0203189E2C77
:102938000530E72C9F306B020318AC2C063044029C
:10294800031CA82C0630A92C0530E200E301E72C73
:10295800B7306B020318B22C0630E72CB9306B0283
:102968000318C02C07304402031CBC2C0730BD2CB4
:102978000630E400E501E72CD0306B020318C62CC2
:102988000730E72CD2306B020318D42C08304402ED
:10299800031CD02C0830D12C0730E600E701E72CC7
:1029A800EF306B020318DA2C0830E72CF1306B0299
:1029B80009300318E72C4402031CE42C0930E52CE9
:1029C8000830E800E901C4000C306B020318F62C4B
:1029D8001530840099308500003F2200A600013F91
:1029E800A700080020306B020318042D0330840070
:1029F80099308500003F2200A600013FA70008008B
:102A080044306B020318552D2430C9000330CA0125
:102A1800CB01CC01840099308500003FD600013FEE
:102A2800D7000530840099308500003FD800013F69
:102A3800D90056085802F0005708593BF100F20136
:102A4800F3016B08E03EF400FF3003180030F50096
:102A5800F601F51BF6037608F70096279031730800
:102A6800D0007208CF007108CE007008CD00BB27D7
:102A780090314A082200A700200049082200A60039
:102A88000330840099308500003F2000D600013FC4
:102A9800D70056082200A607200057082200A73DA5
:102AA80008006A306B020318A62D2630C9000530CD
:102AB800CA01CB01CC01840099308500003FD600C3
:102AC800013FD7000730840099308500003FD800C7
:102AD800013FD90056085802F0005708593BF10049
:102AE800F201F3016B08BC3EF400FF30031800301C
:102AF800F500F601F51BF6037608F70096279031E6
:102B08007308D0007208CF007108CE007008CD009D
:102B1800BB2790314A082200A7002000490822005C
:102B2800A6000530840099308500003F2000D600BB
:102B3800013FD70056082200A607200057082200A8
:102B4800A73D08007F306B020318F72D1530C90028
:102B58000730CA01CB01CC01840099308500003FC1
:102B6800D600013FD7000930840099308500003F26
:102B7800D800013FD90056085802F0005708593BC1
:102B8800F100F201F3016B08963EF400FF300318E0
:102B98000030F500F601F51BF6037608F7009627D6
:102BA80090317308D0007208CF007108CE00700809
:102BB800CD00BB2790314A082200A7002000490811
:102BC8002200A6000730840099308500003F2000CD
:102BD800D600013FD70056082200A6072000570854
:102BE8002200A73D080094306B020318482E1530C8
:102BF800C9000930CA01CB01CC0184009930850095
:102C0800003FD600013FD7000B3084009930850083
:102C1800003FD800013FD90056085802F000570875
:102C2800593BF100F201F3016B08813EF400FF30DB
:102C380003180030F500F601F51BF6037608F700D7
:102C4800962790317308D0007208CF007108CE0023
:102C58007008CD00BB2790314A082200A700200049
:102C680049082200A6000930840099308500003FF9
:102C78002000D600013FD70056082200A6072000F2
:102C880057082200A73D0800AB306B020318992EA5
:102C98001730C9000B30CA01CB01CC018400993030
:102CA8008500003FD600013FD7000D3084009930E1
:102CB8008500003FD800013FD90056085802F000AF
:102CC8005708593BF100F201F3016B086C3EF40020
:102CD800FF3003180030F500F601F51BF6037608FF
:102CE800F700962790317308D0007208CF0071085A
:102CF800CE007008CD00BB2790314A082200A700FB
:102D0800200049082200A6000B3084009930850075
:102D1800003F2000D600013FD70056082200A60732
:102D2800200057082200A73D0800C5306B02031891
:102D3800EA2E1A30C9000D30CA01CB01CC0184003B
:102D480099308500003FD600013FD7000F3084003E
:102D580099308500003FD800013FD9005608580235
:102D6800F0005708593BF100F201F3016B08553E9A
:102D7800F400FF3003180030F500F601F51BF603E8
:102D88007608F700962790317308D0007208CF00B4
:102D98007108CE007008CD00BB2790314A08220088
:102DA800A700200049082200A6000D3084009930B1
:102DB8008500003F2000D600013FD70056082200BA
:102DC800A607200057082200A73D0800E1306B0243
:102DD80003183B2F1C30C9000F30CA01CB01CC01AE
:102DE800840099308500003FD600013FD70011309C
:102DF800840099308500003FD800013FD90056086B
:102E08005802F0005708593BF100F201F3016B0832
:102E18003B3EF400FF3003180030F500F601F51BC7
:102E2800F6037608F700962790317308D0007208E9
:102E3800CF007108CE007008CD00BB2790314A083A
:102E48002200A700200049082200A6000F308400B5
:102E580099308500003F2000D600013FD700560872
:102E68002200A607200057082200A73D0800F030DE
:102E78006B0203188C2F0F30C9001130CA01CB0127
:102E8800CC01840099308500003FD600013FD7006F
:102E98001330840099308500003FD800013FD900E5
:102EA80056085802F0005708593BF100F201F301A7
:102EB8006B081F3EF400FF3003180030F500F601E0
:102EC800F51BF6037608F700962790317308D000B3
:102ED8007208CF007108CE007008CD00BB27903172
:102EE8004A082200A700200049082200A600113045
:102EF800840099308500003F2000D600013FD700AC
:102F080056082200A607200057082200A73D0800FF
:102F18001330840099308500003F2200A600013F4D
:102F2800A7000800F801F901FA01FB01701CA42FA1
:102F38007408F8077508F93D7608FA3D7708FB3DEF
:102F4800F435F50DF60DF70DF336F20CF10CF00C27
:102F58007308720471047004031D9A2F7B08F30030
:102F68007A08F2007908F1007808F0000800D10129
:102F7800D201D301D4014C084B044A044904031973
:102F8800F12FD501D50ACC1BCE2FC935CA0DCB0DD3
:102F9800CC0DC62FD135D20DD30DD40D4C0850020F
:102FA800031DE02F4B084F02031DE02F4A084E0275
:102FB800031DE02F49084D02031CEB2F4908CD02E1
:102FC8004A08CE3B4B08CF3B4C08D03B5114CC367B
:102FD800CB0CCA0CC90CD50BCE2F5408CC00530807
:102FE800CB005208CA005108C90008002200C008D6
:102FF800031914344008080000347F347F347F34C8
:103008007F347F347F347F347F347F347F347F3420
:103018007F347F347F347F347F347F347F347F3410
:103028007F347F347F347F347F347F347F347F3400
:103038007F347F347F347F347F347F347F347F34F0
:103048007F347F347F347F347F347F347F347F34E0
:103058007F347F347F347F347F347F347F347F34D0
:103068007F347F347F347F347F347F347F347F34C0
:103078007F347F347F347F347F347E347D347C34B6
:103088007B347A347A3479347834773477347634D4
:1030980075347534743473347334723471347134F0
:1030A80070346F346F346E346D346D346C346B340B
:1030B8006B346A346A346934683468346734673422
:1030C8006634663465346434643463346334623437
:1030D800623461346134603460345F345E345E3449
:1030E8005D345D345C345C345B345B345A345A345C
:1030F800593459345834583457345734563456346C
:10310800553455345434543453345334523452347B
:1031180051345134503450344F344F344E344E348B
:103128004D344D344C344C344B344B344A344A349B
:1031380049344934483448344734473446344634AB
:1031480045344534443444344334433442344234BB
:1031580041344134403440343F343F343E343E34CB
:103168003D343D343C343C343B343B343A343A34DB
:1031780039343834383437343734363436343534EF
:103188003534343433343334323432343134303403
:1031980030342F342E342E342D342D342C342B341B
:1031A8002A342A3429342834283427342634253438
:1031B80025342434233422342134213420341F3458
:1031C8001E341D341C341B341A3419341834173483
:1031D800153414341334123410340F340D340C34C1
:1031E8000A34083406340434023400340034003419
:1031F8000034003400340034003400340034C43463
:103208000934B8340B34A0340F34703417344034D4
:103218001F341C34253404342934E0342E34BC34AF
:063228003434BD343434DF
:103A00000034023404348634003482348434DE34A6
:103A100060340A340C348E3408348A348C348E3456
:103A20000034023404348634003482348434DE3486
:103A300060340A340C348E3408348A348C348E3436
:103A40000034023404348634003482348434DE3466
:103A500060340A340C348E3408348A348C348E3416
:103A60000034023404348634003482348434DE3446
:103A700060340A340C348E3408348A348C348E34F6
:103A80000034023404348634003482348434DE3426
:103A900060340A340C348E3408348A348C348E34D6
:103AA0000034023404348634003482348434DE3406
:103AB00060340A340C348E3408348A348C348E34B6
:103AC0000034023404348634003482348434DE34E6
:103AD00060340A340C348E3408348A348C348E3496
:103AE0000034023404348634003482348434DE34C6
:103AF00060340A340C348E3408348A348C348E3476
:103B00000034023404348634003482348434DE34A5
:103B100060340A340C348E3408348A348C348E3455
:103B20000034023404348634003482348434DE3485
:103B300060340A340C348E3408348A348C348E3435
:103B40000034023404348634003482348434DE3465
:103B500060340A340C348E3408348A348C348E3415
:103B60000034023404348634003482348434DE3445
:103B700060340A340C348E3408348A348C348E34F5
:103B80000034023404348634003482348434DE3425
:103B900060340A340C348E3408348A348C348E34D5
:103BA0000034023404348634003482348434DE3405
:103BB00060340A340C348E3408348A348C348E34B5
:103BC0000034023404348634003482348434DE34E5
:103BD00060340A340C348E3408348A348C348E3495
:103BE0000034023404348634003482348434DE34C5
:103BF00060340A340C348E3408348A348C348E3475
:103C00000034003401340034043400340934003406
:103C10001034003419340034243400343134003486
:103C20004034003451340034643400347934003486
:103C300090340034A9340034C4340034E134003406
:103C40000034013421340134443401346934013402
:103C500090340134B9340134E43401341134023481
:103C60004034023471340234A4340234D93402347E
:103C7000103403344934033484340334C1340334FA
:103C8000003404344134043484340434C9340434F6
:103C90001034053459340534A4340534F134053472
:103CA0004034063491340634E4340634393407346D
:103CB00090340734E934073444340834A1340834E8
:103CC0000034093461340934C434093429340A34E1
:103CD00090340A34F9340A3464340B34D1340B345C
:103CE00040340C34B1340C3424340D3499340D3454
:103CF00010340E3489340E3404340F3481340F34CC
:103D000000341034813410340434113489341134C3
:103D1000103412349934123424341334B13413343B
:103D200040341434D134143464341534F934153433
:103D30009034163429341734C434173461341834A9
:103D400000341934A134193444341A34E9341A349F
:103D500090341B3439341C34E4341C3491341D3415
:103D600040341E34F1341E34A4341F34593420340A
:103D700010342134C934213484342234413423347E
:103D800000342434C1342434843425344934263472
:103D900010342734D9342734A434283471342934E6
:103DA00040342A3411342B34E4342B34B9342C34D9
:103DB00090342D3469342E3444342F34213430344B
:103DC00000343134E1343134C4343234A93433343E
:103DD00090343434793435346434363451343734AF
:103DE000403438343134393424343A3419343B349F
:103DF00010343C3409343D3404343E3401343F340F
:103E000000344034013441340434423409344334FE
:103E1000103444341934453424344634313447346E
:103E2000403448345134493464344A3479344B345E
:103E300090344C34A9344D34C4344E34E1344F34CE
:103E400000345134213452344434533469345434BA
:103E500090345534B9345634E43457341134593429
:103E600040345A3471345B34A4345C34D9345D3416
:103E700010345F344934603484346134C134623482
:103E8000003464344134653484346634C93467346E
:103E90001034693459346A34A4346B34F1346C34DA
:103EA00040346E3491346F34E434703439347234C5
:103EB00090347334E934743444347634A134773430
:103EC0000034793461347A34C4347B3429347D3419
:103ED00090347E34F9347F3464348134D134823484
:103EE00040348434B134853424348734993488346C
:103EF00010348A3489348B3404348D3481348E34D4
:103F000000349034813491340434933489349434BB
:103F1000103496349934973424349934B1349A3423
:103F200040349C34D1349D3464349F34F934A0340B
:103F30009034A2342934A434C434A5346134A73471
:103F40000034A934A134AA344434AC34E934AD3457
:103F50009034AF343934B134E434B2349134B434BD
:103F60004034B634F134B734A434B9345934BB34A2
:103F70001034BD34C934BE348434C0344134C23406
:103F80000034C434C134C5348434C7344934C934EA
:103F90001034CB34D934CC34A434CE347134D0344E
:103FA0004034D2341134D434E434D534B934D73431
:103FB0009034D9346934DB344434DD342134DF3493
:103FC0000034E134E134E234C434E434A934E63476
:103FD0009034E8347934EA346434EC345134EE34D7
:103FE0004034F0343134F2342434F4341934F634B7
:103FF0001034F8340934FA340434FC340134FE3417
:020000040001F9
:04000E009C0FFC3F08
:10E000004B0050004C005A00000000000000370098
:10E010001400070002000900000000000E001400B8
:10E02000000003002B0001002E0002002E00000063
:10E0300000000000000000000000000000000000E0
:10E0400000000000000000000000000000000000D0
:10E0500000000000000000000000000000000000C0
:10E0600000000000000000000000000000000000B0
:10E0700000000000000000000000000000000000A0
:10E080000000000000000000000000000000000090
:10E090000000000000000000000000000000000080
:10E0A0000000000000000000000000000000000070
:10E0B0000000000000000000000000000000000060
:10E0C0000000000000000000000000000000000050
:10E0D0000000000000000000000000000000000040
:10E0E0000000000000000000000000000000000030
:10E0F0000000000000000000000000000000000020
:10E10000000000000000000000000000000000000F
:10E1100000000000000000000000000000000000FF
:10E1200000000000000000000000000000000000EF
:10E1300000000000000000000000000000000000DF
:10E1400000000000000000000000000000000000CF
:10E1500000000000000000000000000000000000BF
:10E1600000000000000000000000000000000000AF
:10E17000000000000000000000000000000000009F
:10E18000000000000000000000000000000000008F
:10E19000000000000000000000000000000000007F
:10E1A000000000000000000000000000000000006F
:10E1B000000000000000000000000000000000005F
:10E1C000000000000000000000000000000000004F
:10E1D000000000000000000000000000000000003F
:10E1E000000000000000000000000000000000002F
:10E1F000000000000000000000000000000000001F
:00000001FF
