:0400000081313829E9
:100008008031210046189D144515450822000C062C
:1000180024398C06200093119D3085002100410869
:1000280020008E1A01388400003F2100C1004308D7
:100038002200951801388400003F2100C3004208BF
:100048002200151801388400003F2100C200C11E9B
:100058003A283F353E39203E8400013085002A0881
:100068001A002B081A00BF0ABE0AC001C512431B9A
:100078004928AF1FA028AE0F4228AF0AB00F452865
:10008800B10AB11BA028C516A028AF01360803196C
:100098007828FD3ECA000A3ECB0028302C020030EA
:1000A8002D3B031C782828082C02B00029082D3B7A
:1000B800B100FF300318B0000318B1002808243C31
:1000C800840029082F3B850005303002AE0000303F
:1000D800313BAF0004082E0205082F3B031878288F
:1000E8000408AE000508AF00431EA02835143335B8
:1000F8000E39603E8400013085002A081A002B085A
:100108001A00B30AB20AB4012408A0002508A10005
:100118002608A2002708A3003808B700A401A501F3
:10012800A601A701B80136080319A028013EC90095
:10013800013EC800013EC7002A08AA0FA428AB0A3E
:1001480003390B00AA28DE280B2923292300E61FE0
:10015800E60A64080319BF280C306602031CBF288E
:10016800E60165081F39C03E840001308500003F64
:100178009A00E50AE4032100C40A461CD4289D1805
:10018800C3281B0984009E30850084350318850A1E
:100198001200A4071200A53D0001A63DA73DB80A1C
:1001A800C601C81FC80B090015309D0020309E00ED
:1001B800461409002300E21FE20A2000911EF728D6
:1001C8002300E2011908850020306002031CF7288B
:1001D80063081F39A03E8400013005068506050620
:1001E800803FE30AE00A2100461C01299D18FA28ED
:1001F8001C08803C031C003CBA00C601C91FC90B7F
:10020800090019309D0020309E0046140900CA1FBD
:10021800CA0B132942084306803A090DBC0D461C37
:1002280019299D1815291C08BB00C601C71FC70B33
:1002380009000D309D0020309E0046140900CB1F98
:10024800CB0B2B2942084306803A090DBD0D461CED
:1002580031299D182D291C08B90025309D00A03092
:100268009E0046140900090088018831CE288A3189
:10027800A22A8A31A72A8A31AC2A8A31B12A8A313C
:10028800B62A8A31BB2A8A31C02A8A31C52A8A31DC
:10029800CA2A8A31CC2A640080010131890B50298D
:0402A8000034080016
:10119C0020308400003085002A3081314F21883185
:1011AC00A030840000308500253081314F218831FA
:1011BC002030840001308500503081314F2188313E
:1011CC00A030840001308500483081314F218831B6
:1011DC002000F0288B130921883180218831892146
:1011EC0088318B176400643021004402031CF728FB
:1011FC006430C4026D218831CE228831DB238831E2
:10120C008C218831F728F0308B132100990098013C
:10121C001130970022009D019E0104302100C50071
:10122C0022008C00AD278831E03022008D00B827D9
:10123C00883122008E018E27883199019801033064
:10124C0092008230910001309400A2309300A030C3
:10125C0021009E0025309D00FF30C601C60AC80043
:10126C00C900C7000A3023009F001F309B000330C9
:10127C009C009D0104309E009D171D169E1620009B
:10128C00990130309800313028009D0005309E00C7
:10129C00200091019201930194012100910192018E
:1012AC000830930094010B17C401AA01AB01230071
:1012BC00FF30E601E401E701E501E201E001E301B1
:1012CC00E1012100CA00CB00BC01BD0108002200D5
:1012DC009D019E01AD278831B82788318E27980152
:1012EC0099018230910003309200A23093000130BA
:1012FC00940008002000A801A901A601A701A401DF
:10130C00A501AF010800B101B001080020002E08B2
:10131C000319912AAE03912AB10122000D17200066
:10132C00C830B001B101B10AD22922000D1720003A
:10133C00B00121003C08FF3A031DB3293D08FF3AD8
:10134C00031DB329FE3039020318B32902303902C8
:10135C00031CB32902302000B8292000AE08031D5D
:10136C00B9290330B10020003008FF3E031C9F2A2E
:10137C0084000A30040203189F2A813104353B3E55
:10138C008200080022000D1720002F080319D42911
:10139C000330B001B1001430AE00B9290A3021007D
:1013AC003B020318DB290A30872A27303B0203183B
:1013BC00E3292000B001B00AB92929303B020318F7
:1013CC00F429023020003002031CEF290230CA003D
:1013DC00F129CA01CA0ACB014A08882A5B303B02B0
:1013EC000318FA290230872A5D303B020318092AB8
:1013FC00033020003002031C052A0330062A023079
:10140C00CC00CD01882A74303B0203180F2A03301C
:10141C00872A76303B0203181E2A04302000300243
:10142C00031C1A2A04301B2A0330CE00CF01882A51
:10143C008A303B020318242A0430872A8C303B0262
:10144C000318332A053020003002031C2F2A0530E4
:10145C00302A0430D000D101882AA1303B02031875
:10146C00392A0530872AA3303B020318482A063054
:10147C0020003002031C442A0630452A0530D200D5
:10148C00D301882ABA303B0203184E2A0630872A29
:10149C00BC303B0203185D2A073020003002031CCD
:1014AC00592A07305A2A0630D400D501882AD5305B
:1014BC003B020318632A0730872AD7303B020318F4
:1014CC00722A083020003002031C6E2A08306F2A62
:1014DC000730D600D701882AF0303B020318782A4F
:1014EC000830872AF2303B0209300318872A200083
:1014FC003002031C832A0930842A0830D800D90111
:10150C00882A2000B000B929B001AE08031DB92902
:10151C0022000D13B9293108003A03199329013A15
:10152C0003199B29033A0319C829013A03198A2A7A
:10153C009229A801A9010800C430A8000930A9000B
:10154C000800B830A8000B30A90008008830A800AB
:10155C001330A90008006430A8001930A900080055
:10156C004030A8001F30A90008001C30A80025300E
:10157C00A90008000430A8002930A9000800E030B8
:10158C00A8002E30A9000800BC30FC2FBD30FC2F69
:10159C0032302000AC0A2C02031C0800AC012100E4
:1015AC003908F700F801212388312C3010238831B9
:1015BC0021003B08F700F801212388312C3010233F
:1015CC00883120003008F700F801212388312C30B5
:1015DC001023883120002908F8002808F70021235F
:1015EC0088312C301023883120002708F800260879
:1015FC00F700212388312C30102388312000250856
:10160C00F8002408F700212388310D30102388318D
:10161C000A30102BF000203023006402031808005D
:10162C0067081F39C03E86000130870070088100B2
:10163C00E70AE40A08002730F90178021030031990
:10164C007702031C3E2B1030F0002730F627883130
:10165C00962388317008303E102388311030F0000A
:10166C002730F100F1278831BB238831C32788311B
:10167C00F908031D482B03307802E8300319770270
:10168C00031C5D2BE830F0000330F62788319623DD
:10169C0088317008303E10238831E830F000033078
:1016AC00F100F1278831BB238831C3278831F90831
:1016BC00031D672B00307802643003197702031C7A
:1016CC00772B6430EA278831962388317008303EB6
:1016DC00102388316430E3278831BB238831C3273A
:1016EC008831F908031D812B003078020A30031968
:1016FC007702031C932B0A30EA2788319623883112
:10170C007008303E102388310A30E3278831BB2320
:10171C0088317108F8007008F7007708303E102BFC
:10172C00F401F501710870040319B62BF601F60AE1
:10173C00F11BA32BF035F10D9D2BF435F50D710834
:10174C007302031DAB2B70087202031CB22B7008C2
:10175C00F2027108F33B7414F136F00CF60BA32B68
:10176C007508F1007408F000080071087004031982
:10177C00D62BF401F40AF11BC62BF035F10DC02B5E
:10178C0071087302031DCC2B70087202031CD22B40
:10179C007008F2027108F33BF136F00CF40BC62B17
:1017AC007308F1007208F0000800E7238831C426A2
:1017BC0088313624883170268831DF242100B50128
:1017CC00080005302100B40A34020530031CF42B48
:1017DC00B400B201B601A801A90108003202031C31
:1017EC0008000530B2003308FF3EF200FC3E07391A
:1017FC000907603E86000130870072080739090727
:10180C00603E840001308500403F0002F30001314E
:10181C00413F003BF4000130F436F30CF436F30C8A
:10182C00F436F30C74022D3003197302031C0800F8
:10183C0001307402F43003197302031808007408A1
:10184C00A9007308A8007408F1007308F000F136C1
:10185C00F00CF136F00CF136F00C7008B600080004
:10186C0005302100320203183F2C2000A401A501F1
:10187C000800350803190800370803190800230865
:10188C002000DE00210022082000DD0021002108BC
:10189C002000DC00210020082000DB00DB35DC0D03
:1018AC00DD0DDE0D210037082000D700D801D9014D
:1018BC00DA012100B70120005E08F3005D08F20098
:1018CC005C08F1005B08F000A02488317008DB0094
:1018DC007108DC00DD01DE015808F3005708F20046
:1018EC00F001F101A02488317008D7007108D800EC
:1018FC00D901DA015A08CD005908CC005808CB00A0
:10190C005708CA005E08F3005D08F2005C08F1009D
:10191C005B08F0000930F701F601F5006230F400C5
:10192C0036268831CA2788311A274B08A5004A0861
:10193C00A40008001030CF01D001D101D201CB019D
:10194C00CC01CD01CE01CA00CF35D00DD10DD20DB9
:10195C00A2278831A22788315208D6005108D50019
:10196C005008D4004F08D300D335D40DD50DD60D67
:10197C00531456084E02031DCD2C55084D02031D61
:10198C00CD2C54084C02031DCD2C53084B02031CC8
:10199C00D82C5308CB025408CC3B5508CD3B5608E9
:1019AC00CE3B4F14CA0BAA2C5008F1004F08F00084
:1019BC000800290828040319E72C2100B608031D88
:1019CC00842D2000AD018B132100AC01AD018B17D0
:1019DC0008008B132100AC01AD018B1729082804DA
:1019EC0003190800E8302000BE000330BF0032307D
:1019FC00C0002830C101C400C501C201C301C80028
:101A0C00C901C6004030C701B2001F30B300D0304E
:101A1C00B4000730B500210029082000D2002100B5
:101A2C0028082000D100D236D10C5108B800520839
:101A3C00B900B601B7014508BD004408BC00450813
:101A4C00BB004408BA00AD0A080021003508031990
:101A5C0008002908F1002808F0003830F200F301E2
:101A6C005B26883171082000D4007008D300063042
:101A7C00D436D30C890B3E2D2908FD002808FC0018
:101A8C002608FC022708FD3B3E30C9258831D327A8
:101A9C0088313E308E2588312030FC000330FD002B
:101AAC0020002408FC022508FD3B3230C925883172
:101ABC00D327883132308E25883120004908803A6E
:101ACC00D1003D08803A5102031D6E2D3C0848029E
:101ADC000318762D20004908BD004808BC007B2D5A
:101AEC0020003D08C9003C08C8008B1349082100A0
:101AFC00AD00200048082100AC00ED2C20002D0882
:101B0C00003A0319EF2C013A03192B2D8D2D0800E7
:101B1C00F7007108803AF4007308803A7402031DD0
:101B2C00992D72087002031808007708DB2788319A
:101B3C007308803AF6007508803A7602031DA82DCA
:101B4C007408720277080318B32D0A3E86008701C9
:101B5C007208C03F7308C13F0800DB278831803A08
:101B6C00F6007108803A7602031DBE2D70087402CF
:101B7C000318080077080A3E860087017008C03FEA
:101B8C007108C13F0800D000083E9B2788315008DF
:101B9C000A3E7F2788310318D52DFD1FFD2D20000F
:101BAC0050080A3E9B2788315008083E7F27883111
:101BBC000318E22DFD1BFD2D20005008023E9B2733
:101BCC0088314A08F0004B086F2788313626883157
:101BDC005008043E86008701700881074131710866
:101BEC00813D41317208813D41317308813D2000B6
:101BFC005008043E9B278831423FCC00433FCD0028
:101C0C0050088600403FCE00413FCF004E08F00008
:101C1C004F086F278831362688317008CA0771083B
:101C2C00CB3D7208CC3D7308CD3D5008083E860074
:101C3C0087014A08C03F4B08C13F4C08C23F4D08C2
:101C4C00C33F50080A3E8600403FCA00413FCB00CC
:101C5C005008083E86004A08C03F4B08C13F0800A8
:101C6C00F801F901FA01FB01701C442E7408F80705
:101C7C007508F93D7608FA3D7708FB3DF435F50D0E
:101C8C00F60DF70DF336F20CF10CF00C7308720430
:101C9C0071047004031D3A2E7B08F3007A08F200DD
:101CAC007908F1007808F0000800F401F501701CC7
:101CBC00632E7208F4077308F53DF235F30DF13617
:101CCC00F00C71087004031D5D2E7508F10074088A
:101CDC00F0000800210036080319772E2000AA0115
:101CEC007F2E64302000AA0A2A02031C7F2EAF012B
:101CFC00AF0A2908280403198A2E01302702F43070
:101D0C0003192602031C8D2EA001A101992EA00AF5
:101D1C000319A10A01302102F43003192002023008
:101D2C00031C9A2EAF0002302502F830031924024E
:101D3C000318A32EA201A301AF2EA20A0319A30A12
:101D4C0005302302DC3003192202031CAF2E0330B2
:101D5C00AF005F3021003902031CBB2EFE3039026C
:101D6C000318BB2E2000AB010800C8302000AB0AC2
:101D7C002B02031C08000430AF0008003230C00AEC
:101D8C004002031CD02E3230C000BE012000A60140
:101D9C00A701080003303E02031C08001E303E025F
:101DAC00031CDA2E1E30BE003E08FE3E2000D90079
:101DBC0021003F08FF3E2000DB000430DA0159020D
:101DCC000318ED2E5908DA0059278831FE2E0430FD
:101DDC00D902DA075A085927883104305902031CF2
:101DEC00FE2E06305802403003195702031CED2E0C
:101DFC005708CA005808CB00CC01CD015A08F00096
:101E0C000930F101F201F301F701F6002730F5007A
:101E1C00C030F40036268831CA2788311A274B087F
:101E2C00A7004A08A6000800D201D301D401D501AD
:101E3C004D084C044B044A040319502FD601D60A02
:101E4C00CD1B2D2FCA35CB0DCC0DCD0D252FD2355D
:101E5C00D30DD40DD50D4D085102031D3F2F4C0849
:101E6C005002031D3F2F4B084F02031D3F2F4A0802
:101E7C004E02031C4A2F4A08CE024B08CF3B4C089B
:101E8C00D03B4D08D13B5214CD36CC0CCB0CCA0CEC
:101E9C00D60B2D2F5508CD005408CC005308CB0081
:101EAC005208CA0008005B021F390907203E860051
:101EBC00013087005B081F390907203E8400013080
:101ECC008500403F0002D7000131413F003BD80064
:101EDC000800F100890D893B8909F200F3007C08A8
:101EEC00F4007D08F500890D893B8909F600F7009F
:101EFC0008008600403FCC00413FCD00803ACE0028
:101F0C004B08803A4E02031D08004A084C02080098
:101F1C00EF3021008E00CF3023008E0024008E0184
:101F2C0027008E0122009701080086008701403FA0
:101F3C00CA00413FCB000800CB35CC0DCD0DCE0DEA
:101F4C00F31B4B14F035F10DF20DF30D08001B30A3
:101F5C0021008C00113023008C0024008C01270000
:101F6C008C010800303021008D0023008D012400ED
:101F7C008D01203027008D0008007108F8007008D2
:101F8C00F700F901F90A08007308D1007208D000B3
:101F9C007108CF007008CE0008002830F000F10165
:101FAC005408F3005308F20008000A3E860087012B
:101FBC00403FF400413FF5000800F000F1017808C3
:101FCC00F3007708F2000800F000F1017808F30044
:101FDC007708F20008007808F3007708F200080090
:101FEC00F1007808F3007708F2000800A8003430FC
:041FFC00A900080030
:103A00000034023404348634003482348434DE34A6
:103A100060340A340C348E3408348A348C348E3456
:103A20000034023404348634003482348434DE3486
:103A300060340A340C348E3408348A348C348E3436
:103A40000034023404348634003482348434DE3466
:103A500060340A340C348E3408348A348C348E3416
:103A60000034023404348634003482348434DE3446
:103A700060340A340C348E3408348A348C348E34F6
:103A80000034023404348634003482348434DE3426
:103A900060340A340C348E3408348A348C348E34D6
:103AA0000034023404348634003482348434DE3406
:103AB00060340A340C348E3408348A348C348E34B6
:103AC0000034023404348634003482348434DE34E6
:103AD00060340A340C348E3408348A348C348E3496
:103AE0000034023404348634003482348434DE34C6
:103AF00060340A340C348E3408348A348C348E3476
:103B00000034023404348634003482348434DE34A5
:103B100060340A340C348E3408348A348C348E3455
:103B20000034023404348634003482348434DE3485
:103B300060340A340C348E3408348A348C348E3435
:103B40000034023404348634003482348434DE3465
:103B500060340A340C348E3408348A348C348E3415
:103B60000034023404348634003482348434DE3445
:103B700060340A340C348E3408348A348C348E34F5
:103B80000034023404348634003482348434DE3425
:103B900060340A340C348E3408348A348C348E34D5
:103BA0000034023404348634003482348434DE3405
:103BB00060340A340C348E3408348A348C348E34B5
:103BC0000034023404348634003482348434DE34E5
:103BD00060340A340C348E3408348A348C348E3495
:103BE0000034023404348634003482348434DE34C5
:103BF00060340A340C348E3408348A348C348E3475
:103C00000034003401340034043400340934003406
:103C10001034003419340034243400343134003486
:103C20004034003451340034643400347934003486
:103C300090340034A9340034C4340034E134003406
:103C40000034013421340134443401346934013402
:103C500090340134B9340134E43401341134023481
:103C60004034023471340234A4340234D93402347E
:103C7000103403344934033484340334C1340334FA
:103C8000003404344134043484340434C9340434F6
:103C90001034053459340534A4340534F134053472
:103CA0004034063491340634E4340634393407346D
:103CB00090340734E934073444340834A1340834E8
:103CC0000034093461340934C434093429340A34E1
:103CD00090340A34F9340A3464340B34D1340B345C
:103CE00040340C34B1340C3424340D3499340D3454
:103CF00010340E3489340E3404340F3481340F34CC
:103D000000341034813410340434113489341134C3
:103D1000103412349934123424341334B13413343B
:103D200040341434D134143464341534F934153433
:103D30009034163429341734C434173461341834A9
:103D400000341934A134193444341A34E9341A349F
:103D500090341B3439341C34E4341C3491341D3415
:103D600040341E34F1341E34A4341F34593420340A
:103D700010342134C934213484342234413423347E
:103D800000342434C1342434843425344934263472
:103D900010342734D9342734A434283471342934E6
:103DA00040342A3411342B34E4342B34B9342C34D9
:103DB00090342D3469342E3444342F34213430344B
:103DC00000343134E1343134C4343234A93433343E
:103DD00090343434793435346434363451343734AF
:103DE000403438343134393424343A3419343B349F
:103DF00010343C3409343D3404343E3401343F340F
:103E000000344034013441340434423409344334FE
:103E1000103444341934453424344634313447346E
:103E2000403448345134493464344A3479344B345E
:103E300090344C34A9344D34C4344E34E1344F34CE
:103E400000345134213452344434533469345434BA
:103E500090345534B9345634E43457341134593429
:103E600040345A3471345B34A4345C34D9345D3416
:103E700010345F344934603484346134C134623482
:103E8000003464344134653484346634C93467346E
:103E90001034693459346A34A4346B34F1346C34DA
:103EA00040346E3491346F34E434703439347234C5
:103EB00090347334E934743444347634A134773430
:103EC0000034793461347A34C4347B3429347D3419
:103ED00090347E34F9347F3464348134D134823484
:103EE00040348434B134853424348734993488346C
:103EF00010348A3489348B3404348D3481348E34D4
:103F000000349034813491340434933489349434BB
:103F1000103496349934973424349934B1349A3423
:103F200040349C34D1349D3464349F34F934A0340B
:103F30009034A2342934A434C434A5346134A73471
:103F40000034A934A134AA344434AC34E934AD3457
:103F50009034AF343934B134E434B2349134B434BD
:103F60004034B634F134B734A434B9345934BB34A2
:103F70001034BD34C934BE348434C0344134C23406
:103F80000034C434C134C5348434C7344934C934EA
:103F90001034CB34D934CC34A434CE347134D0344E
:103FA0004034D2341134D434E434D534B934D73431
:103FB0009034D9346934DB344434DD342134DF3493
:103FC0000034E134E134E234C434E434A934E63476
:103FD0009034E8347934EA346434EC345134EE34D7
:103FE0004034F0343134F2342434F4341934F634B7
:103FF0001034F8340934FA340434FC340134FE3417
:020000040001F9
:04000E009C0EFF3B0A
:00000001FF
