:0400000081313829E9
:100008008031210056189D145515550822000C06FC
:1000180024398C06200093119D3085002100410869
:1000280020008E1A01388400003F2100C1004308D7
:100038002200951801388400003F2100C3004208BF
:100048002200151801388400003F2100C200C11E9B
:100058003A283F353E39203E8400033085002A087F
:100068001A002B081A00BF0ABE0AC001D512431B8A
:100078004928AF1FA028AE0F4228AF0AB00F452865
:10008800B10AB11BA028D516A028AF01360803195C
:100098007828FD3EDA000A3EDB0028302C020030CA
:1000A8002D3B031C782828082C02B00029082D3B7A
:1000B800B100FF300318B0000318B1002808243C31
:1000C800840029082F3B850005303002AE0000303F
:1000D800313BAF0004082E0205082F3B031878288F
:1000E8000408AE000508AF00431EA02835143335B8
:1000F8000E39603E8400033085002A081A002B0858
:100108001A00B30AB20AB4012408A0002508A10005
:100118002608A2002708A3003808B700A401A501F3
:10012800A601A701B80136080319A028023ED80085
:10013800013ED900023ED7002A08AA0FA428AB0A1C
:1001480003390B00AA28DE280B2923292300A61F20
:10015800A60A24080319BF280C302602031CBF284E
:10016800A60125081F39A03E840003308500003F02
:100178009A00A50AA4032100C40A561CD4289D1875
:10018800C3281B0984009E30850084350318850A1E
:100198001200A4071200A53D0001A63DA73DB80A1C
:1001A800D601D81FD80B090015309D0020309E00BD
:1001B800561409002300A21FA20A2000911EF72846
:1001C8002300A2011908850020302002031CF7280B
:1001D80023081F39C03E840003300506850605063E
:1001E800803FA30AA00A2100561C01299D18FA285D
:1001F8001C08803C031C003CBA00D601D91FD90B4F
:10020800090019309D0020309E0056140900DA1F9D
:10021800DA0B132942084306803A090DBC0D561C17
:1002280019299D1815291C08BB00D601D71FD70B03
:1002380009000D309D0020309E0056140900DB1F78
:10024800DB0B2B2942084306803A090DBD0D561CCD
:1002580031299D182D291C08B90025309D00A03092
:100268009E005614090009008801883101282100E0
:10027800B608031D43292000B401B501AA29350891
:100288000319AA2937080319AA2923082000E90015
:10029800210022082000E800210021082000E700B2
:1002A800210020082000E600E635E70DE80DE90DFD
:1002B800210037082000E200E301E401E501210004
:1002C800B70120006908F3006808F2006708F10028
:1002D8006608F000C52181317008E6007108E70062
:1002E800E801E9016308F3006208F200F001F10196
:1002F800C52181317008E2007108E300E401E501DD
:100308006508D8006408D7006308D6006208D500DD
:100318006908F3006808F2006708F1006608F00051
:100328000930F701F601F5006230F4008C248131C0
:100338007308DC007208DB007108DA007008D90065
:10034800142281315608B5005508B4000330200046
:100358003502E830031934020318B529AA01AB01A4
:100368000800AA0A0319AB0A02302B0258300319F5
:100378002A02031C0800CB08031D08000830CB0024
:1003880008001030DA01DB01DC01DD01D601D701FC
:10039800D801D901D500DA35DB0DDC0DDD0DD635F8
:1003A800D70DD80DD90DF31B5614F035F10DF20DFC
:1003B800F30DD635D70DD80DD90DF31B5614F035DE
:1003C800F10DF20DF30D5D08E1005C08E0005B083B
:1003D800DF005A08DE00DE35DF0DE00DE10D5E14AA
:1003E80061085902031D022A60085802031D022AE7
:1003F8005F085702031D022A5E085602031C0D2AD5
:100408005E08D6025F08D73B6008D83B6108D93B35
:100418005A14D50BCF295B08F1005A08F0000800E0
:10042800DD01DE01DF01E0015808570456045504D8
:1004380003194A2AE101E10AD81B272AD535D60D26
:10044800D70DD80D1F2ADD35DE0DDF0DE00D58085C
:100458005C02031D392A57085B02031D392A560816
:100468005A02031D392A55085902031C442A550803
:10047800D9025608DA3B5708DB3B5808DC3B5D14C9
:10048800D836D70CD60CD50CE10B272A6008D80033
:100498005F08D7005E08D6005D08D500080042084E
:1004A800031DC2033908380403195E2A2100B6085F
:1004B800031D2E2B2000C1018B132100AC01AD01BF
:1004C8008B1708008B132100AC01AD018B1729088D
:1004D80028040319080020003908B3003808B200BE
:1004E8005030A200D030A301A001A1012100C50015
:1004F8000730C6003230C700F430C801C9000130E7
:10050800CA003C30CB01CC01CF00D001CD01CE01D7
:100518005008D4004F08D3005008D2004F08D1002B
:100528002000C830C10AC20008002100350803199C
:100538000800200039083306031DA42A38083206AB
:100548000319BC2A39083302031DAC2A38083202C1
:100558000318B02AC830C2003908B3003808B200FE
:10056800210054082000A300210053082000A20005
:1005780032303902C83003193802031CCB2A19302B
:100588004202031CC92A1930C2003818C2012100CE
:100598002908F1002808F0003630F200F3017D2325
:1005A800813171082000EC007008EB000630EC3651
:1005B800EB0C890BDB2A1030A2070318A30A2308C7
:1005C800803AE8006C08803A6802031DED2A6B083F
:1005D8002202031CF42A20006C08A3006B08A20066
:1005E80020003908EA003808E9003608E902370827
:1005F800EA3BC208031D022BEA1F072BF430210037
:10060800C50001300B2BD0302100C5000730C600D3
:1006180020006A08FD006908FC00C530922381317A
:10062800381C1D2B2830F000F1016C08F3006B0812
:10063800232B2830F000F1012308F3002208F200F0
:10064800C530382381318B1321005408AD0053087D
:10065800AC00642A20004108003A0319662A013ACE
:100668000319992A372B0800F7007108803AF4001B
:100678007308803A7402031D432B72087002031832
:10068800080077080E3E86008701403FF400413F8E
:10069800F5007308803AF6007508803A7602031D63
:1006A800572B7408720277080318622B0E3E8600D7
:1006B80087017208C03F7308C13F08000E3E8600DC
:1006C8008701403FF400413FF500803AF600710889
:1006D800803A7602031D722B700874020318080012
:1006E80077080E3E860087017008C03F7108C13F39
:1006F8000800F401F501701C852B7208F4077308D3
:10070800F53DF235F30DF136F00C71087004031D58
:100718007F2B7508F1007408F0000800E7000C3E14
:1007280086008701403FD500413FD60067080E3E4E
:100738008600403FD700413FD800803AD90056088C
:10074800803A5902031DAA2B550857020318AE2BED
:10075800FD1FF72B200067080E3E86008701403FEB
:10076800D500413FD60067080C3E8600403FD700C1
:10077800413FD800803AD9005608803A5902031DF3
:10078800C72B550857020318CB2BFD1BF72B20004E
:100798006708023E86008701403FD500413FD600EA
:1007A8005508F0005608F100890D893B8909F200C7
:1007B800F3007C08F4007D08F500890D893B890960
:1007C800F600F7008C2481316708083E860087010F
:1007D8007008810741317108813D41317208813DBE
:1007E80041317308813D20006708083E8600870173
:1007F800403FD500413FD600423FD700433FD80095
:100808006708063E8600403FD900413FDA00590894
:10081800DB005A08DC000030DC1BFF30DD00DE00A6
:100828006708043E8600403FDF00413FE0005F0864
:10083800F0006008F100890D893B8909F200F30096
:100848007C08F4007D08F500890D893B8909F600CC
:10085800F7008C2481317008E1007108E200720809
:10086800E3007308E400670886008701403FE5005D
:10087800413FE6006508F0006608F100890D893BF4
:100888008909F200F3007C08F4007D08F500890D61
:10089800893B8909F600F7008C2481317008E1074B
:1008A8007108E23D7208E33D7308E43D5B08E1022C
:1008B8005C08E23B5D08E33B5E08E43B6108D50762
:1008C8006208D63D6308D73D6408D83D67080C3EEA
:1008D800860087015508C03F5608C13F5708C23FE8
:1008E8005808C33F67080E3E8600403FD500413F89
:1008F800D60067080C3E86005508C03F5608C13F21
:100908006708063E86007C08C03F7D08C13F080096
:10091800F801F901FA01FB01701C9A2C7408F80718
:100928007508F93D7608FA3D7708FB3DF435F50D75
:10093800F60DF70DF336F20CF10CF00C7308720497
:1009480071047004031D902C7B08F3007A08F200F0
:100958007908F1007808F00008007C2584316726C2
:100968008431200027082604250424040319702D47
:100978000130F300F401F501F601A4027408A53B67
:100988007508A63B7608A73B702D0130B801B90160
:10099800CF01CF0AA701A601A500F430A4000800E2
:1009A800B801B901CB08031DDF2C2708260425044C
:1009B8002404031DED2C4B08CD000330CF00643018
:1009C800A400A501A601A701A736A60CA50CA40C96
:1009D800080021003C08FF3A031D08003D08FF3AC3
:1009E800031D08002000ED1B08000230CF00A701FE
:1009F800A600BF30A5002030A4000800CB08031DC6
:100A08000B2D2708260425042404031D582DB8019E
:100A1800B901DF2CCE01B801B90108000230CE00BF
:100A2800C430B8000930B90008000230CE00B83030
:100A3800B8000B30B90008000230CE00A030B80072
:100A48000F30B90008000330CE007030B8001730FE
:100A5800B90008000430CE004030B8001F30B9009B
:100A680008000530CE001C30B8002530B900080059
:100A78000630CE000430B8002930B900080007302D
:100A8800CE00E030B8002E30B90008000730CE00A4
:100A9800BC30B8003430B9000800BD30CE01CE0AF1
:100AA800B8003430B90008004C08FF3E031C0E2D76
:100AB80084000A30040203180E2D91310435013EDA
:100AC8008200B801B9012708260425042404031D5F
:100AD80008000430CF0008004F08003A0319C92C59
:100AE800013A0319D42C033A0319022D652D080085
:100AF80064268431E500143065020318942D6508D6
:100B0800143CE50021003B0820006507E6002100B1
:100B18003B08200066020318A12DFF30E600A12D36
:100B2800EC30E507650821003B022000E6002100C3
:100B38003B020318A12D2000E6012100B608031D81
:100B4800A82D2000CC0108000C30200066020318F4
:100B5800B02D0A30CC000800293066020318B72DE2
:100B6800CC01CC0A08002B3066020318C82D0230CD
:100B78004C02031CC22D0230D500C42DD501D50A64
:100B8800D6015508CC0008005D3066020318CF2D49
:100B98000230CC0008005F3066020318DE2D0330F7
:100BA8004C02031CD92D0330DA2D0230D700D801AE
:100BB800CC000800743066020318E52D0330CC0021
:100BC8000800763066020318F42D04304C02031C2A
:100BD800EF2D0430F02D0330D900DA01CC000800E5
:100BE800883066020318FB2D0430CC0008008A30D8
:100BF800660203180A2E05304C02031C052E053028
:100C0800062E0430DB00DC01CC0008009D306602B3
:100C18000318112E0530CC0008009F306602031817
:100C2800202E06304C02031C1B2E06301C2E0530CD
:100C3800DD00DE01CC000800B73066020318272E5D
:100C48000630CC000800B93066020318362E07308B
:100C58004C02031C312E0730322E0630DF00E00133
:100C6800CC000800D030660203183D2E0730CC00B7
:100C78000800D230660203184C2E08304C02031CC0
:100C8800472E0830482E0730E100E201CC0008006A
:100C9800EF3066020318532E0830CC000800F130FC
:100CA800660209300318622E4C02031C5D2E0930BF
:100CB8005E2E0830E300E401CC000800CC000800F8
:100CC800200054080800310830040319CC2E0130E4
:100CD800B0020030B13BCC2E2100360803190800C1
:100CE80020000630BF0AB000B10108003108300406
:100CF800031D08004C080A3A031D842EBF0A080089
:100D0800FF30BF0008004C0B08002C30BF0AB000B1
:100D18000130B10008004C0B842E003031026430E1
:100D280003193002031CA12E21003B082000BE003D
:100D380021003B082000BD0008003E0821003B02BE
:100D48000318A92E3B082000BE0021003B08200004
:100D58003D020318B32E21003B082000BD003108D6
:100D68003004031D08000A303E02031C842E1E3086
:100D78003D020318842E822E3E083D07F100F20141
:100D8800F20D720DF20CF10C7108D7268431842E05
:100D98003F08840005300402031808008731043531
:100DA800F33E82000800F00054060319080070089A
:100DB800D400CA17080032302100C00A4002031CC0
:100DC800EC2E3230C000BE012000B601B701642FFE
:100DD80003303E02031C642F1E303E02031CF62E15
:100DE8001E30BE003E08FE3E2000E40021003F0801
:100DF800FF3E2000E6000430E501640203181C2FC2
:100E08006408E50066021F390907203E86000330A2
:100E1800870066081F390907203E840003308500D3
:100E2800403F0002E2000131413F003BE300402F18
:100E38000430E402E507650866021F390907203E09
:100E480086000330870066081F390907203E8400A2
:100E580003308500403F0002E2000131413F003B82
:100E6800E30004306402031C402F06306302403064
:100E780003196202031C1C2F6208D5006308D60000
:100E8800D701D8016508F0000930F101F201F3013A
:100E9800F701F6002730F500C030F40084318C24C7
:100EA80086317308DC007208DB007108DA0070080C
:100EB800D9008231142286315608B7005508B60089
:100EC80021003608FC00FD012D087D02031D6E2F50
:100ED8002C087C020318782F0130200037022C30B0
:100EE80003193602031C7C2F2000AC01AD01080059
:100EF800AC0A0319AD0A01302D022C3003192C025B
:100F0800031C0800CB08031D08000730CB000800AD
:100F180064302000C90A4902031C00343C30C9016E
:100F28002100DC0A5C02031C0134DD30DC01F00026
:100F3800F101F201F20AB7278731A030F00005303D
:100F4800F100F201F20AB727A830F0000530F100ED
:100F5800A030F2000530F3000430F4008E31B426DE
:100F680020004A160134700886007108870072084C
:100F7800810770088600710887003C300102031C55
:100F8800080070088600710887003C3081027008EC
:100F9800013E86000030713D8700810A7008013EDD
:100FA80086000030713D87008108031D0800700825
:100FB800023E86000030713D8700810A7008023EBB
:100FC80086000030713D87008108031D0800700805
:100FD800033E86000030713D8700810A0800863193
:100FE800702E86317A2E8631872E86318F2E863165
:080FF800C02E080008000800EB
:10100200203084000030850035309731FA2788314E
:10101200A03084000030850035309731FA278831BE
:10102200A03084000130850008309731FA278831DA
:1010320020001B288B134A208831082188311F2168
:101042008831732288318B17640064302100440296
:10105200031C24286430C402DA2088312421883118
:101062009C238431B1248831F923883120004F0830
:10107200043A03194A08031943280530D000220014
:101082000D172428D00B2428D001D00A22000D13DA
:101092002428F0308B132100990098011130970019
:1010A20022009D019E0104302100D50022008C0007
:1010B2001B3021008C00113023008C0024008C0195
:1010C20027008C01E03022008D00303021008D009D
:1010D20023008D0124008D01203027008D00220085
:1010E2008E01EF3021008E00CF3023008E002400CD
:1010F2008E0127008E012200970199019801033089
:1011020092008230910001309400A2309300A0300E
:1011120021009E0025309D00FF30D601D60AD8005E
:10112200D900D7000A30BA01BB01B901A401A50157
:10113200A601A701B801A001A101A201A301B70163
:1011420023009F001F309B0003309C009D01043050
:101152009E009D171D169E16A601A401A701A501BA
:10116200A201A001A301A101200099013030980041
:10117200313028009D0005309E002000910192012F
:10118200930194012100910192010830930094018E
:10119200FF300B17C401AA01AB01DA00DB00BC016E
:1011A200BD01C101C301C201B001B101AE01AF0174
:1011B200080022009D019E011B3021008C0011308D
:1011C20023008C0024008C0127008C013030210088
:1011D2008D0023008D0124008D01203027008D0019
:1011E200EF3021008E00CF3023008E0024008E01CC
:1011F20027008E0122009701980199018230910007
:1012020003309200A2309300013094000800B30131
:10121200B201B401A801A901B601B501BF01BE0125
:10122200C001AC01AD012000B801B901B601B7019E
:10123200B401B501CB01ED01ED030800CF01CE01F0
:10124200CD01CC01080032302000C00A4002031C4C
:101252000800C0014C08F700F8018B2188312C30BE
:101262007A21883121003B08F700F8018B2188316F
:101272002C307A21883121003908F700F8018B21BE
:1012820088312C307A21883120003908F80038085A
:10129200F7008B2188312C307A21883120003708E1
:1012A200F8003608F7008B2188312C307A218831FA
:1012B20020003508F8003408F7008B2188312C30E3
:1012C2007A21883120006D08F700F801F71BF80336
:1012D2008B2188312C307A218831FE306B22883183
:1012E200F700F8018B2188310D307A2188310A30DC
:1012F2007A29F0002030230024020318080027086E
:101302001F39A03E86000330870070088100A70ABB
:10131200A40A08002730F901780210300319770275
:10132200031CB1291030F0002730F1007808F300D7
:101332007708F200262288317008303E7A218831FF
:101342001030F0002730F1007808F3007708F2003F
:101352004B2288317108F8007008F700F901F90A88
:10136200F908031DBB2903307802E830031977021C
:10137200031CD929E830F0000330F1007808F300AB
:101382007708F200262288317008303E7A218831AF
:10139200E830F0000330F1007808F3007708F2003B
:1013A2004B2288317108F8007008F700F901F90A38
:1013B200F908031DE329003078026430031977022B
:1013C200031CFF296430F000F1017808F30077086C
:1013D200F200262288317008303E7A21883164304A
:1013E200F000F1017808F3007708F2004B2288310F
:1013F2007108F8007008F700F901F90AF908031DED
:10140200092A003078020A3003197702031C232AC2
:101412000A30F000F1017808F3007708F200262282
:1014220088317008303E7A2188310A30F000F101AB
:101432007808F3007708F2004B2288317108F8002F
:101442007008F7007708303E7A29F401F501710837
:1014520070040319462AF601F60AF11B332AF03505
:10146200F10D2D2AF435F50D71087302031D3B2A87
:1014720070087202031C422A7008F2027108F33BE0
:101482007414F136F00CF60B332A7508F100740867
:10149200F0000800710870040319662AF401F40AC6
:1014A200F11B562AF035F10D502A71087302031D03
:1014B2005C2A70087202031C622A7008F202710828
:1014C200F33BF136F00CF40B562A7308F100720864
:1014D200F0000800F0002300910015139513151475
:1014E200130808001E30CA012100DC002030DD0193
:1014F200DE01DF01E001F1000430F2000730F30009
:101502002330652388312830F1000430F200153091
:10151200F3003830652388314030F1000430F200A6
:101522001C30F3008F3065238831A030F100043085
:10153200F2000730F3002A3065238831A830F10029
:101542000430F2000730F300313065238831B030C7
:10155200F1000430F2000E30F3005430652388317C
:101562002030F1000530F2000730F3001C30652313
:1015720088312730F1000530F2000930F30086305F
:10158200652388313030F1000530F2001C30F30061
:101592006230652388315030F1000530F2000730A7
:1015A200F3007E30652388315730F1000530F200B8
:1015B2008530F301F30A652388315830F100053094
:1015C200F2000730F3004D3065238831A030F1007E
:1015D2000530F2000430F300D73065238831A4309F
:1015E200F1000530F2000430F300DF30652388316A
:1015F200A830F1000530F2000430F300D330652347
:1016020088312030F1000630F2000430F300AB30B4
:10161200652388312430F1000630F2002430F300D3
:10162200AF30652388315030F1000630F2000230CD
:10163200F300E530652388315430F1000630F200C2
:101642001230F300E730652388315830F10006305C
:10165200F2000430F300DB30652388315C30F100A6
:101662000630F2000230F300E33065238831543053
:10167200F100FE30F201F301F30A65238831A8304C
:10168200F0000430F100A0307A238831F600F61F12
:10169200562B2B002B08A3002A08A2002908A10020
:1016A2002808A00020004A1608007608803A7F3EEB
:1016B200031C08002B002308AB002208AA00210803
:1016C200A9002008A800532BF500F3037308FF3A82
:1016D2000319080075086B228831F400710886002E
:1016E2007208870074088100F50AF10A0319F20AE8
:1016F200662BF400F10803190034F1037108740732
:10170200F20086000530870071087007F30084003C
:101712000530850000080102031CFF3471087007C0
:10172200F200860071087407F300840000080102C9
:10173200031C01347B2BA92381313B218831863163
:10174200DF2688310D27823153222100B50108009E
:101752002100B608031DB42B2000AE01AF01BC016D
:10176200BB01BA0108003508031908003908200036
:10177200AE070318AF0A023021003902031CC52B41
:10178200FE303902031CC72B2000BC0A04302000A3
:10179200BA0A3A02031C0800BC08031DEC2BBB0169
:1017A2002F08F1002E08F000F136F00CF136F00CA3
:1017B2007008013E840090300318013E8500000845
:1017C200ED00803A183E031CF42BCB08031DF42BCA
:1017D2000230CB00F42B0A30BB0A3B02031CF42B71
:1017E200CB080319E92BAE01AF01BC01BA01080015
:1017F20087318C278831003A0319032CD42588318C
:10180200BB278831572588314A1C2E2C2030F20004
:101812000430F3000730F400233036258831003AD3
:10182200031908002830F2000430F3001530F400E8
:10183200383036258831003A031908004030F2006A
:101842000430F3001C30F4008F3036258831003A22
:101852000319080020004A100800CA1C572CA030A7
:10186200F2000430F3000730F4002A3036258831C4
:10187200003A03190800A830F2000430F3000730E0
:10188200F400313036258831003A03190800B030AF
:10189200F2000430F3000E30F40054303625883163
:1018A200003A031908002000CA1008004A1D802CC3
:1018B2002030F2000530F3000730F4001C303625EA
:1018C2008831003A031908002730F2000530F3008E
:1018D2000930F400863036258831003A03190800B1
:1018E2003030F2000530F3001C30F400623036254F
:1018F2008831003A0319080020004A110800CA1D65
:10190200A92C5030F2000530F3000730F4007E308D
:1019120036258831003A031908005730F2000530A5
:10192200F3008530F401F40A36258831003A0319B0
:1019320008005830F2000530F3000730F4004D3053
:1019420036258831003A031908002000CA11080020
:101952004A1ED22CA030F2000530F3000430F4000D
:10196200D73036258831003A03190800A430F20036
:101972000530F3000430F400DF3036258831003AB8
:1019820003190800A830F2000530F3000430F40017
:10199200D33036258831003A0319080020004A1254
:1019A2000800CA1E072D2030F2000630F300043072
:1019B200F400AB3036258831003A03190800243090
:1019C200F2000630F3002430F400AF3036258831BF
:1019D200003A031908005030F2000630F3000230DA
:1019E200F400E53036258831003A031908005430F6
:1019F200F2000630F3001230F400E7303625883169
:101A0200003A031908002000CA1208004A1F242DB8
:101A12005830F2000630F3000430F400DB30362593
:101A22008831003A031908005C30F2000630F300F6
:101A32000230F400E33036258831003A03190800F9
:101A420020004A130800CA1F342D5430F200FE3021
:101A5200F301F401F40A36258831003A031908002B
:101A62002000CA130800CA010800F500F40803198F
:101A7200532DF403720886007308870075086B22E1
:101A820088310106031D4A2DF50AF20A0319F30AE9
:101A9200372D72088600730887000108F000750868
:101AA200FD2688317408031D0034013420004D08DE
:101AB20003195F2D0A304D02031C612DC30108007A
:101AC20043084D06031908004D08C3002A002508E3
:101AD200A6002408A5002308A4002208A3002108C8
:101AE200A2002008A10020004D08E03E2A00A0002C
:101AF20020004D08263E8600053087004830810AC6
:101B0200F0000530F1004430F2000530F3000430FB
:101B1200F400B42688314430F0000530F100403042
:101B2200F2000530F3000430F400B426883140306E
:101B3200F0000530F1003C30F2000530F3000430D3
:101B4200F400B42688313C30F0000530F100383022
:101B5200F2000530F3000430F400B4268831383046
:101B6200F0000530F1003430F2000530F3000430AB
:101B7200F400B42688313430F0000530F100303002
:101B8200F2000530F3000430F400B426883130301E
:101B9200F0000530F100DD30F2000430F301F40012
:101BA200B4264A1508005130F001F00A7327883133
:101BB20020004E0846060319E22D4E08C600C40155
:101BC2000800023044020318E82DC40A08004E0837
:101BD20045060319962E0330F000513097278831BD
:101BE20045080319102E083045020318102E28301C
:101BF200F0000430F1005130F2000330F301F40040
:101C0200B42688311E30510251080318E23EF0001A
:101C12004508090709073C3ECC2688314A144E087C
:101C2200C5000330D100D201D301450803190800D1
:101C3200083045020318080028002508A6002408D9
:101C4200A5002308A4002208A3002108A20020085E
:101C5200A10020004508F03E2800A0003A30F00024
:101C62000430F1003730F2000430F3000330F400A6
:101C7200B42688313730F0000430F1003430F200FD
:101C82000430F3000330F400B42688313430F0001D
:101C92000430F1003130F2000430F3000330F4007C
:101CA200B42688313130F0000430F1002E30F200D9
:101CB2000430F3000330F400B42688312E30F000F3
:101CC2000430F1002B30F2000430F3000330F40052
:101CD200B42688312B30F0000430F1002830F200B5
:101CE2000430F3000330F400B42688312830F000C9
:101CF2000430F1005130F2000330F301F400B42655
:101D020088310330F00020008F2ED208031DB22E3E
:101D120051081E3A031DB22E1B30F0004508090778
:101D220009073C3ECC264A1408004508031908005E
:101D3200083045020318080051080319A42E51085F
:101D42001E3A031D08002830F0000430F100513023
:101D5200F2000330F301F400B4268831D3080319EA
:101D6200862E1E308E2EF4037408FF3A03190800E3
:101D720072088600730887000108F5007008860063
:101D82007108870075088100F00A0319F10AF20A46
:101D92000319F30AB42EF10086000430870070089C
:101DA2008107710886003C300102031C080071089B
:101DB20086003C3081027108013E8600810A71086A
:101DC200013E86003C300102031C08007108013EFE
:101DD20086003C3081027108023E8600810A710849
:101DE200023E860004308108031D08007108033E8C
:101DF20086000430810A0800F10091007008930007
:101E020055301513951315158B139600AA309600AD
:101E120095148B171511080005302100B40A3402FD
:101E22000530031C1A2FB400B201B601A801A901A2
:101E32005B2F3202031C5B2F0530B2003308FF3EDA
:101E4200F200FC3E07390907603E86000330870036
:101E5200720807390907603E840003308500403F5D
:101E62000002F3000131413F003BF4000130F4363F
:101E7200F30CF436F30CF436F30C74022D30031920
:101E82007302031C5B2F01307402F43003197302D6
:101E920003185B2F7408A9007308A8007408F100E6
:101EA2007308F000F136F00CF136F00CF136F00C5C
:101EB2007008B60036080319622F2000A801A90194
:101EC20008002000A80A0319A90A013029022C30AF
:101ED20003192802031C0800CB08031D08000A305E
:101EE200CB000800F10086008701700881077108A5
:101EF20086003C300102031C0800710886003C3059
:101F020081027108013E8600810A7108013E860045
:101F12003C300102031C08007108013E86003C307F
:101F220081027108023E8600810A0800F1008600E3
:101F3200870170088102710886003C300102031C8F
:101F42000800710886003C3081077108013E860056
:101F520081037108013E86003C300102031C080027
:101F62007108013E86003C3081077108023E8600FE
:101F720081030800CE08031DC22FC7016D08C800E7
:101F820008006D08F000F101F01BF1037108803ABE
:101F9200803C031DCF2F70082A0057020318D72F49
:101FA20020006D082A00D7002000CA15200048082A
:101FB200803AF0006D08803AF0020318E22F6D08B3
:101FC200C8002100DC08031D08002000C708031D0B
:101FD200F92FC701C70A2A005D08DE005C08DD0090
:101FE2005B08DC005A08DB005908DA005808D900FF
:101FF200200048082A00D8002000CA150800003432
:102002007F347F347F347F347F347F347F347F3436
:102012007F347F347F347F347F347F347F347F3426
:102022007F347F347F347F347F347F347F347F3416
:102032007F347F347F347F347F347F347F347F3406
:102042007F347F347F347F347F347F347F347F34F6
:102052007F347F347F347F347F347F347F347F34E6
:102062007F347F347F347F347F347F347F347F34D6
:102072007F347F347F347F347F347F347F347F34C6
:102082007E347D347C347B347A347A3479347834D7
:1020920077347734763475347534743473347334F6
:1020A20072347134713470346F346F346E346D3411
:1020B2006D346C346B346B346A346A34693468342A
:1020C200683467346734663466346534643464343F
:1020D2006334633462346234613461346034603452
:1020E2005F345E345E345D345D345C345C345B3466
:1020F2005B345A345A345934593458345834573476
:102102005734563456345534553454345434533485
:1021120053345234523451345134503450344F3495
:102122004F344E344E344D344D344C344C344B34A5
:102132004B344A344A3449344934483448344734B5
:1021420047344634463445344534443444344334C5
:1021520043344234423441344134403440343F34D5
:102162003F343E343E343D343D343C343C343B34E5
:102172003B343A343A3439343834383437343734F7
:10218200363436343534353434343334333432340B
:1021920032343134303430342F342E342E342D3422
:1021A2002D342C342B342A342A342934283428343C
:1021B200273426342534253424342334223421345C
:1021C200213420341F341E341D341C341B341A3481
:1021D20019341834173415341434133412341034B7
:1021E2000F340D340C340A34083406340434023407
:1021F200003400340034003400340034003400343D
:102202008531122D8531192D8531202D8531272DCE
:1022120085312E2D8531352D85313C2D8531432D4E
:0822220085314A2D8531512D53
:0C2FF400640080010131890BFB2F0034C8
:103A00000034023404348634003482348434DE34A6
:103A100060340A340C348E3408348A348C348E3456
:103A20000034023404348634003482348434DE3486
:103A300060340A340C348E3408348A348C348E3436
:103A40000034023404348634003482348434DE3466
:103A500060340A340C348E3408348A348C348E3416
:103A60000034023404348634003482348434DE3446
:103A700060340A340C348E3408348A348C348E34F6
:103A80000034023404348634003482348434DE3426
:103A900060340A340C348E3408348A348C348E34D6
:103AA0000034023404348634003482348434DE3406
:103AB00060340A340C348E3408348A348C348E34B6
:103AC0000034023404348634003482348434DE34E6
:103AD00060340A340C348E3408348A348C348E3496
:103AE0000034023404348634003482348434DE34C6
:103AF00060340A340C348E3408348A348C348E3476
:103B00000034023404348634003482348434DE34A5
:103B100060340A340C348E3408348A348C348E3455
:103B20000034023404348634003482348434DE3485
:103B300060340A340C348E3408348A348C348E3435
:103B40000034023404348634003482348434DE3465
:103B500060340A340C348E3408348A348C348E3415
:103B60000034023404348634003482348434DE3445
:103B700060340A340C348E3408348A348C348E34F5
:103B80000034023404348634003482348434DE3425
:103B900060340A340C348E3408348A348C348E34D5
:103BA0000034023404348634003482348434DE3405
:103BB00060340A340C348E3408348A348C348E34B5
:103BC0000034023404348634003482348434DE34E5
:103BD00060340A340C348E3408348A348C348E3495
:103BE0000034023404348634003482348434DE34C5
:103BF00060340A340C348E3408348A348C348E3475
:103C00000034003401340034043400340934003406
:103C10001034003419340034243400343134003486
:103C20004034003451340034643400347934003486
:103C300090340034A9340034C4340034E134003406
:103C40000034013421340134443401346934013402
:103C500090340134B9340134E43401341134023481
:103C60004034023471340234A4340234D93402347E
:103C7000103403344934033484340334C1340334FA
:103C8000003404344134043484340434C9340434F6
:103C90001034053459340534A4340534F134053472
:103CA0004034063491340634E4340634393407346D
:103CB00090340734E934073444340834A1340834E8
:103CC0000034093461340934C434093429340A34E1
:103CD00090340A34F9340A3464340B34D1340B345C
:103CE00040340C34B1340C3424340D3499340D3454
:103CF00010340E3489340E3404340F3481340F34CC
:103D000000341034813410340434113489341134C3
:103D1000103412349934123424341334B13413343B
:103D200040341434D134143464341534F934153433
:103D30009034163429341734C434173461341834A9
:103D400000341934A134193444341A34E9341A349F
:103D500090341B3439341C34E4341C3491341D3415
:103D600040341E34F1341E34A4341F34593420340A
:103D700010342134C934213484342234413423347E
:103D800000342434C1342434843425344934263472
:103D900010342734D9342734A434283471342934E6
:103DA00040342A3411342B34E4342B34B9342C34D9
:103DB00090342D3469342E3444342F34213430344B
:103DC00000343134E1343134C4343234A93433343E
:103DD00090343434793435346434363451343734AF
:103DE000403438343134393424343A3419343B349F
:103DF00010343C3409343D3404343E3401343F340F
:103E000000344034013441340434423409344334FE
:103E1000103444341934453424344634313447346E
:103E2000403448345134493464344A3479344B345E
:103E300090344C34A9344D34C4344E34E1344F34CE
:103E400000345134213452344434533469345434BA
:103E500090345534B9345634E43457341134593429
:103E600040345A3471345B34A4345C34D9345D3416
:103E700010345F344934603484346134C134623482
:103E8000003464344134653484346634C93467346E
:103E90001034693459346A34A4346B34F1346C34DA
:103EA00040346E3491346F34E434703439347234C5
:103EB00090347334E934743444347634A134773430
:103EC0000034793461347A34C4347B3429347D3419
:103ED00090347E34F9347F3464348134D134823484
:103EE00040348434B134853424348734993488346C
:103EF00010348A3489348B3404348D3481348E34D4
:103F000000349034813491340434933489349434BB
:103F1000103496349934973424349934B1349A3423
:103F200040349C34D1349D3464349F34F934A0340B
:103F30009034A2342934A434C434A5346134A73471
:103F40000034A934A134AA344434AC34E934AD3457
:103F50009034AF343934B134E434B2349134B434BD
:103F60004034B634F134B734A434B9345934BB34A2
:103F70001034BD34C934BE348434C0344134C23406
:103F80000034C434C134C5348434C7344934C934EA
:103F90001034CB34D934CC34A434CE347134D0344E
:103FA0004034D2341134D434E434D534B934D73431
:103FB0009034D9346934DB344434DD342134DF3493
:103FC0000034E134E134E234C434E434A934E63476
:103FD0009034E8347934EA346434EC345134EE34D7
:103FE0004034F0343134F2342434F4341934F634B7
:103FF0001034F8340934FA340434FC340134FE3417
:020000040001F9
:04000E009C0FFC3F08
:10E000004200410052000000DC000000000001005E
:10E010004900050096002D000000000001004900A5
:10E02000050096002D0000002E0002002E000500C5
:10E0300000000000000000000000000000000000E0
:10E0400000000000000000000000000000000000D0
:10E0500000000000000000000000000000000000C0
:10E0600000000000000000000000000000000000B0
:10E0700000000000000000000000000000000000A0
:10E080000000000000000000000000000000000090
:10E090000000000000000000000000000000000080
:10E0A0000000000000000000000000000000000070
:10E0B0000000000000000000000000000000000060
:10E0C0000000000000000000000000000000000050
:10E0D0000000000000000000000000000000000040
:10E0E0000000000000000000000000000000000030
:10E0F0000000000000000000000000000000000020
:10E10000000000000000000000000000000000000F
:10E1100000000000000000000000000000000000FF
:10E1200000000000000000000000000000000000EF
:10E1300000000000000000000000000000000000DF
:10E1400000000000000000000000000000000000CF
:10E1500000000000000000000000000000000000BF
:10E1600000000000000000000000000000000000AF
:10E17000000000000000000000000000000000009F
:10E18000000000000000000000000000000000008F
:10E19000000000000000000000000000000000007F
:10E1A000000000000000000000000000000000006F
:10E1B000000000000000000000000000000000005F
:10E1C000000000000000000000000000000000004F
:10E1D000000000000000000000000000000000003F
:10E1E000000000000000000000000000000000002F
:10E1F000000000000000000000000000140000000B
:00000001FF
