:0400000081316C29B5
:10000800803121005A189D145915590822000C06F0
:1000180024398C06200093119D3085002100430867
:1000280020008E1A01388400003F2100C3004508D3
:100038002200951801388400003F2100C5004408BB
:100048002200151801388400003F2100C400C31E97
:100058003A2841353E39203E8400033085002C087B
:100068001A002D081A00C10AC00AC201481CD91278
:100078004718D912451B7728B11FD428B00F452837
:10008800B10AB20F4828B30AB31BD4284718D4289A
:100098002A3086002B3087002C0886022D0F870215
:1000A800871F592886098709860AB4300602003056
:1000B800073B031C68282C3006020130073B031C51
:1000C8006828D916471048143208143C031DD42850
:1000D800F030B200F030B3000F30B0000F30B10094
:1000E80047144810D42847104810B1012C08AA001A
:1000F8002D08AB0038080319AC28FD3EDE000A3E87
:10010800DF0037302E0200302F3B031CAC282808B4
:100118002E02B20029082F3BB300F0300318B200BA
:100128000318B3002808243C84002908313B8500C3
:1001380014303202B0000030333BB1000408300202
:100148000508313B0318AC28C330B000FE30B100BD
:10015800451ED428371435350E39603E84000330E7
:1001680085002C081A002D081A00B50AB40AB60131
:100178002408A0002508A1002608A2002708A3003B
:100188003A08B900A401A501A601A701BA013808D7
:100198000319D428023EDC00013EDD00023EDB00EC
:1001A8002C08AC0FD828AD0A03390B00DE28122919
:1001B8003F2957292300A61FA60A24080319F32854
:1001C8000C302602031CF328A60125081F39A03E7F
:1001D800840003308500003F9A00A50AA40321008B
:1001E800C60A5A1C08299D18F7281B0984009E3046
:1001F800850084350318850A1200A4071200A53D5E
:100208000001A63DA73DBA0ADA01DC1FDC0B090094
:1002180015309D0020309E005A1409002300A21FAB
:10022800A20A2000911E2B292300A201190885008B
:1002380020302002031C2B2923081F39C03E8400CC
:100248000330050685060506803FA30AA00A21009B
:100258005A1C35299D182E291C08803C031C003C7B
:10026800BC00DA01DD1FDD0B090019309D002030CC
:100278009E005A140900DE1FDE0B47294408450674
:10028800803A090DBE0D5A1C4D299D1849291C0894
:10029800BD00DA01DB1FDB0B09000D309D002030AB
:1002A8009E005A140900DF1FDF0B5F29440845062A
:1002B800803A090DBF0D5A1C65299D1861291C0833
:1002C800BB0025309D00A0309E005A14090009008B
:1002D8008801883127282100B808031D77292000C4
:1002E800B401B501DE2937080319DE2939080319D5
:1002F800DE2923082000E800210022082000E7006A
:10030800210021082000E600210020082000E50047
:10031800E535E60DE70DE80D210039082000E1007C
:10032800E201E301E4012100B90120006808F300BB
:100338006708F2006608F1006508F000F9218131CC
:100348007008E5007108E600E701E8016208F300BB
:100358006108F200F001F101F92181317008E10032
:100368007108E200E301E4016408D7006308D600DD
:100378006208D5006108D4006808F3006708F20035
:100388006608F1006508F0000930F701F601F5008C
:100398006230F400C42481317308DB007208DA008B
:1003A8007108D9007008D800482281315508B50075
:1003B8005408B400033020003502E8300319340231
:1003C8000318E929AA01AB010800AA0A0319AB0A14
:1003D80002302B02583003192A02031C0800CB08EC
:1003E800031D08000830CB0008001030D901DA01DD
:1003F800DB01DC01D501D601D701D801D400D935FC
:10040800DA0DDB0DDC0DD535D60DD70DD80DF31B68
:100418005514F035F10DF20DF30DD535D60DD70D78
:10042800D80DF31B5514F035F10DF20DF30D5C08E2
:10043800E0005B08DF005A08DE005908DD00DD3502
:10044800DE0DDF0DE00D5D1460085802031D362A2D
:100458005F085702031D362A5E085602031D362A16
:100468005D085502031C412A5D08D5025E08D63B8B
:100478005F08D73B6008D83B5914D40B032A5A08A5
:10048800F1005908F0000800DC01DD01DE01DF01A0
:10049800570856045504540403197E2AE001E00A5B
:1004A800D71B5B2AD435D50DD60DD70D532ADC358D
:1004B800DD0DDE0DDF0D57085B02031D6D2A5608A2
:1004C8005A02031D6D2A55085902031D6D2A540846
:1004D8005802031C782A5408D8025508D93B5608F4
:1004E800DA3B5708DB3B5C14D736D60CD50CD40C5A
:1004F800E00B5B2A5F08D7005E08D6005D08D500D0
:100508005C08D40008004208031DC20339083804F7
:100518000319922A2100B808031D662B20006730B2
:10052800C1018B132100AE00AF018B1708008B139C
:100538002100AE01AF018B17290828040319080010
:1005480020003908B3003808B2005030A200D0307B
:10055800A301A001A1012100C9000730CA0032305F
:10056800CB00F430CC01CD000130CE003C30CF01BF
:10057800D001D300D401D101D2015408D8005308C6
:10058800D7005408D6005308D5002000C830C10A47
:10059800C200080021003708031908002000CB0812
:1005A800031D080039083306031DDC2A3808320603
:1005B8000319F42A39083302031DE42A38083202E1
:1005C8000318E82AC830C2003908B3003808B20056
:1005D800210058082000A300210057082000A2008D
:1005E80032303902C83003193802031C032B193082
:1005F8004202031C012B1930C2003818C201210025
:100608002908F1002808F0003630F200F301B5237C
:10061800813171082000EB007008EA000630EB36E3
:10062800EA0C890B132B1030A2070318A30A23081E
:10063800803AE7006B08803A6702031D252B6A0899
:100648002202031C2C2B20006B08A3006A08A200BE
:1006580020003908E9003808E8003608E8023708B9
:10066800E93BC208031D3A2BE91F3F2BF430210058
:10067800C9000130432BD0302100C9000730CA001F
:1006880020006908FD006808FC00C930CA238131D0
:10069800381C552B2830F000F1016B08F3006A086C
:1006A8005B2B2830F000F1012308F3002208F20048
:1006B800C930702381318B1321005808AF005708C7
:1006C800AE00992A20004108003A03199B2A013AF2
:1006D8000319CE2A6F2B0800F7007108803AF4003E
:1006E8007308803A7402031D7B2B7208700203188A
:1006F800080077080E3E86008701403FF400413F1E
:10070800F5007308803AF6007508803A7602031DF2
:100718008F2B74087202770803189A2B0E3E8600F6
:1007280087017208C03F7308C13F08000E3E86006B
:100738008701403FF400413FF500803AF600710818
:10074800803A7602031DAA2B700874020318080069
:1007580077080E3E860087017008C03F7108C13FC8
:100768000800F401F501701CBD2B7208F40773082A
:10077800F53DF235F30DF136F00C71087004031DE8
:10078800B72B7508F1007408F0000800E6000C3E6D
:1007980086008701403FD400413FD50066080E3EE1
:1007A8008600403FD600413FD700803AD800550820
:1007B800803A5802031DE22B540856020318E62B10
:1007C800FD1F2F2C200066080E3E86008701403F43
:1007D800D400413FD50066080C3E8600403FD60055
:1007E800413FD700803AD8005508803A5802031D87
:1007F800FF2B540856020318032CFD1B2F2C200036
:100808006608023E86008701403FD400413FD5007C
:100818005408F0005508F100890D893B8909F20058
:10082800F3007C08F4007D08F500890D893B8909EF
:10083800F600F700C42481316608083E8600870167
:100848007008810741317108813D41317208813D4D
:1008580041317308813D20006608083E8600870103
:10086800403FD400413FD500423FD600433FD70028
:100878006608063E8600403FD800413FD900580828
:10088800DA005908DB000030DB1BFF30DC00DD003C
:100898006608043E8600403FDE00413FDF005E08F8
:1008A800F0005F08F100890D893B8909F200F30027
:1008B8007C08F4007D08F500890D893B8909F6005C
:1008C800F700C42481317008E0007108E100720863
:1008D800E2007308E300660886008701403FE400F1
:1008E800413FE5006408F0006508F100890D893B87
:1008F8008909F200F3007C08F4007D08F500890DF1
:10090800893B8909F600F700C42481317008E007A3
:100918007108E13D7208E23D7308E33D5A08E002C0
:100928005B08E13B5C08E23B5D08E33B6008D407F9
:100938006108D53D6208D63D6308D73D66080C3E80
:10094800860087015408C03F5508C13F5608C23F7A
:100958005708C33F66080E3E8600403FD400413F1B
:10096800D50066080C3E86005408C03F5508C13FB4
:100978006608063E86007C08C03F7D08C13F080027
:10098800F801F901FA01FB01701CD22C7408F80770
:100998007508F93D7608FA3D7708FB3DF435F50D05
:1009A800F60DF70DF336F20CF10CF00C7308720427
:1009B80071047004031DC82C7B08F3007A08F20048
:1009C8007908F1007808F0000800BE258431A926CE
:1009D8008431200027082604250424040319B22D95
:1009E8000130F300F401F501F601A4027408A53BF7
:1009F8007508A63B7608A73BB22D0130B801B901AE
:100A0800CF01CF0AA701A601A500F430A400080071
:100A1800B801B901CB08031D172D270826042504A2
:100A28002404031D252D4B08CD000330CF0064306E
:100A3800A400A501A601A701A736A60CA50CA40C25
:100A4800080021003E08FF3A031D08003F08FF3A4E
:100A5800031D08002000EC1B08000230CF00043002
:100A6800A701A6001E30A500B030A4000800CB08DE
:100A7800031D442D2708260425042404031D9C2D4A
:100A88002708260425042404031D4F2DCB08031D25
:100A98004F2D0430CB004B08CD000330CF0005307C
:100AA800A400A501A601A7010800CE01B801B9015B
:100AB80008000230CE00C430B8000930B900080080
:100AC8000230CE008830B8001330B9000800033077
:100AD800CE007030B8001730B90008000430CE00DE
:100AE8004030B8001F30B90008000530CE001C3077
:100AF800B8002530B90008000630CE000430B80030
:100B08002930B90008000730CE00E030B8002E3098
:100B1800B90008000730CE00BC30B8003430B90046
:100B28000800BD30CE01CE0AB8003430B900080044
:100B38004C08FF3E031C592D84000A300402031898
:100B4800592D87310435D93E82002708260425040B
:100B58002404031D08000430CF0008004F08003AA1
:100B68000319012D013A03190C2D033A03193B2DE2
:100B7800A92D0800A6268431E40014306402031865
:100B8800D62D6408143CE40021003D0820006407C9
:100B9800E50021003D08200065020318E32DFF3021
:100BA800E500E32DEC30E407640821003D02200055
:100BB800E50021003D020318E32D2000E501210096
:100BC800B808031DEA2D2000CC0108000C302000D5
:100BD80065020318F22D0A30CC000800293065029E
:100BE8000318F92DCC01CC0A08002B306502031834
:100BF8000A2E02304C02031C042E0230D400062EAA
:100C0800D401D40AD5015408CC0008005D3065022F
:100C18000318112E0230CC0008005F30650203185B
:100C2800202E03304C02031C1B2E03301C2E0230D6
:100C3800D600D701CC000800743065020318272EAF
:100C48000330CC000800763065020318362E0430D5
:100C58004C02031C312E0430322E0330D800D90147
:100C6800CC0008008830650203183D2E0430CC0003
:100C780008008A30650203184C2E05304C02031C0C
:100C8800472E0530482E0430DA00DB01CC0008007E
:100C98009D3065020318532E0530CC0008009F30A4
:100CA80065020318622E06304C02031C5D2E0630C6
:100CB8005E2E0530DC00DD01CC000800B73065028F
:100CC8000318692E0630CC000800B93065020318F5
:100CD800782E07304C02031C732E0730742E063012
:100CE800DE00DF01CC000800D030650203187F2E3B
:100CF8000730CC000800D230650203188E2E083069
:100D08004C02031C892E08308A2E0730E000E101CE
:100D1800CC000800EF3065020318952E0830CC008F
:100D28000800F130650209300318A42E4C02031C98
:100D38009F2E0930A02E0830E200E301CC00080005
:100D4800CC000800200053080800310830040319BB
:100D5800142F0130B0020030B13B142F21003808A5
:100D68000319080020000630BF0AB000B1010800CE
:100D780031083004031D08004C080A3A031DC82E28
:100D8800BF0A22000D130800FF302000BF00080032
:100D98004C0B08002C30BF0AB0000130B10008002D
:100DA8004C0BC82E00303102643003193002031C8A
:100DB800E62E21003D082000BE0021003D0820004D
:100DC800BD0008003E0821003D020318EE2E3D0834
:100DD8002000BE0021003D0820003D020318F82E27
:100DE80021003D082000BD0031083004031D080023
:100DF8000A303E02031CC82E1E303D020318C82EBE
:100E0800BF0A08003E083D07F100F201F20D720D1D
:100E1800F20CF10C71081F27843122000D17C82E1F
:100E28003F088400053004020318080087310435A0
:100E3800ED3E82000800F000530603190800700810
:100E4800D300CA17080032302100C20A4202031C2C
:100E5800342F3230C200C0012000B601B701AC2FD8
:100E680003304002031CAC2F1E304002031C3E2FEF
:100E78001E30C0004008FE3E2000E300210041086B
:100E8800FF3E2000E5000430E40163020318642FEC
:100E98006308E40065021F390907203E8600033015
:100EA800870065081F390907203E84000330850044
:100EB800403F0002E1000131413F003BE200882F42
:100EC8000430E302E407640865021F390907203E7D
:100ED80086000330870065081F390907203E840013
:100EE80003308500403F0002E1000131413F003BF3
:100EF800E20004306302031C882F0630620240308F
:100F080003196102031C642F6108D4006208D5002C
:100F1800D601D7016408F0000930F101F201F301AC
:100F2800F701F6002730F500C030F4008431C424FE
:100F380087317308DB007208DA007108D90070087D
:100F4800D8008231482287315508B7005408B600C6
:100F580021003808FC00FD012F087D02031DB62F73
:100F68002E087C020318C42F0130200037022C30D1
:100F780003193602031CC82F210040080319C82F83
:100F88002000AC01AD0108002000AC0A0319AD0A2D
:100F980001302D022C3003192C02031C0800CB0849
:100FA800031D08000730CB0008008531592D853115
:100FB8005D2D8531642D85316B2D8531722D8531FF
:100FC800792D8531802D8531872D85318E2D85317F
:100FD800952D8631B22E8631BC2E8631CC2E8631A7
:100FE800D42E8731062F640080010131890BF82F38
:080FF8000034080008000800A5
:10104E00203084000030850034308731F727883116
:10105E00A03084000030850039308731F727883181
:10106E00A03084000130850008308731F7278831A1
:10107E000130ED00200043288B136E208831332180
:10108E0088314A2188319E2288318B176400643062
:10109E0021004602031C4C286430C602022188310E
:1010AE004F218831C7238431E9248831E8238831E0
:1010BE0020004F08043A03194A080319692805301D
:1010CE00ED004C28ED0B4C28ED01ED0A4C28F030CC
:1010DE008B132100990098011130970022009D0179
:1010EE009E0104302100D90022008C001B3021000B
:1010FE008C00113023008C0024008C0127008C0101
:10110E00E03022008D00303021008D0023008D0153
:10111E0024008D01203027008D0022008E01EF303B
:10112E0021008E00CF3023008E0024008E01270078
:10113E008E012200970199019801033092008230AE
:10114E00910001309400A2309300A03021009E0047
:10115E0025309D00FF30DA01DA0ADC00DD00DB000D
:10116E000A30BC01BD01BB01A401A501A601A70166
:10117E00BA01A001A101A201A301B90123009F00A0
:10118E001F309B0003309C009D0104309E009D1774
:10119E001D169E16A601A401A701A501A201A0017C
:1011AE00A301A101200099013030980031302800B0
:1011BE009D0005309E002000910192019301940143
:1011CE00210091019201083093009401FF300B171A
:1011DE00C601AC01AD01DE00DF00BE01BF01C301DF
:1011EE00C501C401B201B301B001B101AA01AB0145
:1011FE00C701C801080022009D019E011B3021007D
:10120E008C00113023008C0024008C0127008C01EF
:10121E00303021008D0023008D0124008D012030FF
:10122E0027008D00EF3021008E00CF3023008E007E
:10123E0024008E0127008E0122009701980199014A
:10124E008230910003309200A2309300013094005E
:10125E002100C701C8010800B501B401B601A801FB
:10126E00A901B801B701C101C001C201AE01AF01B0
:10127E002000B801B901B601B701B401B501CB0127
:10128E00EC01EC030800CF01CE01CD01CC0108002A
:10129E0064302000C00A4002031C0800C0014C0844
:1012AE00F700F801B62188312C30A52188312100B4
:1012BE003D08F700F801B62188312C30A521883180
:1012CE0021003B08F700F801B62188312C30A5210A
:1012DE00883120003908F8003808F700B621883127
:1012EE002C30A521883120003708F8003608F70089
:1012FE00B62188312C30A521883120003508F80020
:10130E003408F700B62188312C30A5218831200011
:10131E006C08F700F801F71BF803B62188312C3062
:10132E00A5218831FE3096228831F700F801B621CA
:10133E0088310D30A52188310A30A529F0002030E2
:10134E00230024020318080027081F39A03E860038
:10135E000330870070088100A70AA40A080027300E
:10136E00F9017802103003197702031CDC291030C2
:10137E00F0002730F1007808F3007708F2005122D0
:10138E0088317008303EA52188311030F0002730AA
:10139E00F1007808F3007708F200762288317108A0
:1013AE00F8007008F700F901F90AF908031DE6299B
:1013BE0003307802E83003197702031C042AE83060
:1013CE00F0000330F1007808F3007708F2005122A4
:1013DE0088317008303EA5218831E830F0000330A6
:1013EE00F1007808F3007708F20076228831710850
:1013FE00F8007008F700F901F90AF908031D0E2A22
:10140E0000307802643003197702031C2A2A6430F4
:10141E00F000F1017808F3007708F20051228831CC
:10142E007008303EA52188316430F000F101780853
:10143E00F3007708F200762288317108F800700800
:10144E00F700F901F90AF908031D342A0030780271
:10145E000A3003197702031C4E2A0A30F000F101FC
:10146E007808F3007708F200512288317008303E78
:10147E00A52188310A30F000F1017808F3007708D1
:10148E00F200762288317108F8007008F7007708AC
:10149E00303EA529F401F501710870040319712A73
:1014AE00F601F60AF11B5E2AF035F10D582AF435D5
:1014BE00F50D71087302031D662A70087202031C73
:1014CE006D2A7008F2027108F33B7414F136F00CB9
:1014DE00F60B5E2A7508F1007408F000080071081A
:1014EE0070040319912AF401F40AF11B812AF035D4
:1014FE00F10D7B2A71087302031D872A7008720290
:10150E00031C8D2A7008F2027108F33BF136F00CC1
:10151E00F40B812A7308F1007208F0000800F00045
:10152E0023009100151395131514130808001E308F
:10153E00CA012100E0002030E101E201E301E401F3
:10154E00F1000430F2000730F3002330902388318D
:10155E002830F1000430F2001530F30038309023BB
:10156E0088314030F1000430F2001C30F3008F302F
:10157E0090238831A030F1000430F2000730F300E0
:10158E002A3090238831A830F1000430F200073061
:10159E00F300313090238831B030F1000430F20086
:1015AE000E30F3005430902388312030F100053096
:1015BE00F2000730F3001C30902388312730F10001
:1015CE000530F2000930F300863090238831303038
:1015DE00F1000530F2001C30F300623090238831A8
:1015EE005030F1000530F2000730F3007E309023CA
:1015FE0088315730F1000530F2008530F301F30ADF
:10160E00902388315830F1000530F2000730F30096
:10161E004D3090238831A030F1000530F2000430B7
:10162E00F300D73090238831A430F1000530F2005A
:10163E000430F300DF3090238831A830F1000530FC
:10164E00F2000430F300D330902388312030F100C3
:10165E000630F2000430F300AB3090238831243092
:10166E00F1000630F2002430F300AF3090238831C1
:10167E005030F1000630F2000230F300E5309023D6
:10168E0088315430F1000630F2001230F300E730AA
:10169E00902388315830F1000630F2000430F30008
:1016AE00DB30902388315C30F1000630F2000230DE
:1016BE00F300E330902388315330F100FE30F20115
:1016CE00F301F30A90238831A830F0000430F100C2
:1016DE00A030A5238831F600F61F812B2B002B0896
:1016EE00A3002A08A2002908A1002808A0002000B3
:1016FE004A1608007608803A7F3E031C08002B002D
:10170E002308AB002208AA002108A9002008A8007F
:10171E007E2BF500F3037308FF3A031908007508D2
:10172E0096228831F40071088600720887007408CA
:10173E008100F50AF10A0319F20A912BF400F1085F
:10174E0003190034F10371087407F20086000530A6
:10175E00870071087007F3008400053085000008CB
:10176E000102031CFF3471087007F2008600710835
:10177E007407F300840000080102031C0134A62B39
:10178E00FC2681316F218831873127278831CB089C
:10179E00031DD62B5227823187228831E52B01304B
:1017AE00210029026C30031928028B13031CE12B34
:1017BE006730E22B5D30AE00AF018B172100B70111
:1017CE000800973199278831003A0319F22BC32567
:1017DE00973154278831462588314A1C1D2C2030DC
:1017EE00F2000430F3000730F40023302525883151
:1017FE00003A031908002830F2000430F3001530C7
:10180E00F400383025258831003A0319080040309D
:10181E00F2000430F3001C30F4008F30252588319F
:10182E00003A0319080020004A100800CA1C462C72
:10183E00A030F2000430F3000730F4002A302525E2
:10184E008831003A03190800A830F2000430F30082
:10185E000730F400313025258831003A031908008D
:10186E00B030F2000430F3000E30F4005430252571
:10187E008831003A031908002000CA1008004A1DDA
:10188E006F2C2030F2000530F3000730F4001C30CE
:10189E0025258831003A031908002730F20005305B
:1018AE00F3000930F400863025258831003A0319FB
:1018BE0008003030F2000530F3001C30F4006230C6
:1018CE0025258831003A0319080020004A11080026
:1018DE00CA1D982C5030F2000530F3000730F4008A
:1018EE007E3025258831003A031908005730F20062
:1018FE000530F3008530F401F40A25258831003ACD
:10190E00031908005830F2000530F3000730F400D8
:10191E004D3025258831003A031908002000CA11E0
:10192E0008004A1EC12CA030F2000530F30004302E
:10193E00F400D73025258831003A03190800A43069
:10194E00F2000530F3000430F400DF302525883135
:10195E00003A03190800A830F2000530F3000430F5
:10196E00F400D33025258831003A031908002000F1
:10197E004A120800CA1EF62C2030F2000630F30080
:10198E000430F400AB3025258831003A03190800E5
:10199E002430F2000630F3002430F400AF30252559
:1019AE008831003A031908005030F2000630F30077
:1019BE000230F400E53025258831003A031908007D
:1019CE005430F2000630F3001230F400E7302525D3
:1019DE008831003A031908002000CA1208004A1F75
:1019EE00132D5830F2000630F3000430F400DB30D3
:1019FE0025258831003A031908005C30F2000630C4
:101A0E00F3000230F400E33025258831003A031943
:101A1E00080020004A130800CA1F232D5330F2007D
:101A2E00FE30F301F401F40A25258831003A03193A
:101A3E0008002000CA130800CA010800F500F408C7
:101A4E000319422DF4037208860073088700750887
:101A5E00962288310106031D392DF50AF20A031963
:101A6E00F30A262D72088600730887000108F0001D
:101A7E007508EC2688317408031D003401342000EB
:101A8E004D0803194E2D0A304D02031C502DC30173
:101A9E00080043084D06031908004D08C3002A002C
:101AAE002508A6002408A5002308A4002208A300E8
:101ABE002108A2002008A10020004D08E03E2A00C7
:101ACE00A00020004D08263E8600053087004830D5
:101ADE00810AF0000530F1004430F2000530F300C9
:101AEE000430F400A32688314430F0000530F100B4
:101AFE004030F2000530F3000430F400A3268831A4
:101B0E004030F0000530F1003C30F2000530F300BB
:101B1E000430F400A32688313C30F0000530F1008B
:101B2E003830F2000530F3000430F400A32688317B
:101B3E003830F0000530F1003430F2000530F3009B
:101B4E000430F400A32688313430F0000530F10063
:101B5E003030F2000530F3000430F400A326883153
:101B6E003030F0000530F100E130F2000430F301C6
:101B7E00F400A3264A1508005030F001F00AB827E9
:101B8E00883120004E0846060319D12D4E08C60096
:101B9E00C4010800023044020318D72DC40A0800FD
:101BAE004E0845060319852E0330F0005030DC2711
:101BBE00883145080319FF2D083045020318FF2D03
:101BCE002830F0000430F1005030F2000330F30101
:101BDE00F400A32688311E30500250080318E23E4E
:101BEE00F0004508090709073C3EBB2688314A1418
:101BFE004E08C5000330D000D101D20145080319AB
:101C0E000800083045020318080028002508A60021
:101C1E002408A5002308A4002208A3002108A2007E
:101C2E002008A10020004508F03E2800A0003A3010
:101C3E00F0000430F1003730F2000430F3000330CE
:101C4E00F400A32688313730F0000430F100343030
:101C5E00F2000430F3000330F400A3268831343050
:101C6E00F0000430F1003130F2000430F3000330A4
:101C7E00F400A32688313130F0000430F1002E300C
:101C8E00F2000430F3000330F400A32688312E3026
:101C9E00F0000430F1002B30F2000430F30003307A
:101CAE00F400A32688312B30F0000430F1002830E8
:101CBE00F2000430F3000330F400A32688312830FC
:101CCE00F0000430F1005030F2000330F301F40064
:101CDE00A32688310330F00020007E2ED108031D8C
:101CEE00A12E50081E3A031DA12E1B30F0004508F0
:101CFE00090709073C3EBB264A140800450803198C
:101D0E000800083045020318080050080319932EE6
:101D1E0050081E3A031D08002830F0000430F10070
:101D2E005030F2000330F301F400A3268831D208BC
:101D3E000319752E1E307D2EF4037408FF3A031915
:101D4E00080072088600730887000108F500700805
:101D5E0086007108870075088100F00A0319F10AE0
:101D6E00F20A0319F30AA32EF1008600043087004D
:101D7E0070088107710886003C300102031C0800C0
:101D8E00710886003C3081027108013E8600810A8E
:101D9E007108013E86003C300102031C08007108E8
:101DAE00013E86003C3081027108023E8600810AA7
:101DBE007108023E860004308108031D0800710878
:101DCE00033E86000430810A0800F100910070087D
:101DDE00930055301513951315158B139600AA30D5
:101DEE00960095148B17151108002100B808031DD5
:101DFE00072F2000AE01AF01BC01BB01BA010800E4
:101E0E003708031908003B082000AE070318AF0A75
:101E1E00023021003B020318182F20007F30BC0A2D
:101E2E00EC00FE3021003B02031C202F2000BC0AD8
:101E3E00EC0104302000BA0A3A02031C0800BC0868
:101E4E00031D452FBB012F08F1002E08F000F136BF
:101E5E00F00CF136F00C7008013E8400903003183F
:101E6E00013E85000008EC00803A133E031C4D2F06
:101E7E00CB08031D4D2F0230CB004D2F0A30BB0A6D
:101E8E003B02031C4D2FCB080319422FAE01AF01AD
:101E9E00BC01BA01080005302100B60A3602053031
:101EAE00031C5F2FB600B401B801A801A901A02F31
:101EBE003402031CA02F0530B4003508FF3EF2009B
:101ECE00FC3E07390907603E860003308700720822
:101EDE0007390907603E840003308500403F000249
:101EEE00F3000131413F003BF4000130F436F30CB6
:101EFE00F436F30CF436F30C74022D30031973021E
:101F0E00031CA02F01307402F4300319730203185E
:101F1E00A02F7408A9007308A8007408F1007308B4
:101F2E00F000F136F00CF136F00CF136F00C7008D2
:101F3E00B80038080319A72F2000A801A90108002E
:101F4E002000A80A0319A90A013029022C3003190E
:101F5E002802031C0800CB08031D08000A30CB0022
:101F6E000800F1008600870170088107710886005D
:101F7E003C300102031C0800710886003C308102CF
:101F8E007108013E8600810A7108013E86003C30D0
:101F9E000102031C08007108013E86003C308102DC
:101FAE007108023E8600810A0800F1008600870152
:101FBE0070088102710886003C300102031C080083
:101FCE00710886003C3081077108013E860081034E
:101FDE007108013E86003C300102031C08007108A6
:101FEE00013E86003C3081077108023E8600810367
:101FFE00080000347F347F347F347F347F347F3465
:10200E007F347F347F347F347F347F347F347F342A
:10201E007F347F347F347F347F347F347F347F341A
:10202E007F347F347F347F347F347F347F347F340A
:10203E007F347F347F347F347F347F347F347F34FA
:10204E007F347F347F347F347F347F347F347F34EA
:10205E007F347F347F347F347F347F347F347F34DA
:10206E007F347F347F347F347F347F347F347F34CA
:10207E007F347F347E347D347C347B347A347A34CE
:10208E0079347834773477347634753475347434EF
:10209E007334733472347134713470346F346F340A
:1020AE006E346D346D346C346B346B346A346A3424
:1020BE00693468346834673467346634663465343A
:1020CE00643464346334633462346234613461344E
:1020DE00603460345F345E345E345D345D345C3461
:1020EE005C345B345B345A345A3459345934583472
:1020FE005834573457345634563455345534543482
:10210E005434533453345234523451345134503491
:10211E0050344F344F344E344E344D344D344C34A1
:10212E004C344B344B344A344A34493449344834B1
:10213E0048344734473446344634453445344434C1
:10214E0044344334433442344234413441344034D1
:10215E0040343F343F343E343E343D343D343C34E1
:10216E003C343B343B343A343A34393438343834F2
:10217E003734373436343634353435343434333406
:10218E003334323432343134303430342F342E341C
:10219E002E342D342D342C342B342A342A34293435
:1021AE002834283427342634253425342434233453
:1021BE0022342134213420341F341E341D341C3477
:1021CE001B341A34193418341734153414341334A8
:1021DE00123410340F340D340C340A3408340634EF
:1021EE00043402340034003400340034003400343B
:0421FE000034003475
:102EA800CE08031D5B2FC7016C08C80008006C081A
:102EB800F000F101F01BF1037108803A803C031D1A
:102EC800682F70082A0057020318702F20006C081A
:102ED8002A00D7002000CA1520004808803AF000D0
:102EE8006C08803AF00203187B2F6C08C800210098
:102EF800E008031D08002000C708031D922FC70122
:102F0800C70A2A005D08DE005C08DD005B08DC00FB
:102F18005A08DB005908DA005808D9002000480888
:102F28002A00D8002000CA15080064302000C90A09
:102F38004902031C00343C30C9012100E00A600248
:102F4800031C0134E130E001F000F101F201F20A62
:102F5800C4279731A030F0000530F100F201F20AE1
:102F6800C427A830F0000530F100A030F200053089
:102F7800F3000430F4008E31A32620004A160134F1
:102F8800700886007108870072088107700886003B
:102F9800710887003C300102031C08007008860095
:102FA800710887003C3081027008013E86000030BD
:102FB800713D8700810A7008013E86000030713D2E
:102FC80087008108031D08007008023E8600003053
:102FD800713D8700810A7008023E86000030713D0D
:102FE80087008108031D08007008033E8600003032
:082FF800713D8700810A080009
:103A00000034023404348634003482348434DE34A6
:103A100060340A340C348E3408348A348C348E3456
:103A20000034023404348634003482348434DE3486
:103A300060340A340C348E3408348A348C348E3436
:103A40000034023404348634003482348434DE3466
:103A500060340A340C348E3408348A348C348E3416
:103A60000034023404348634003482348434DE3446
:103A700060340A340C348E3408348A348C348E34F6
:103A80000034023404348634003482348434DE3426
:103A900060340A340C348E3408348A348C348E34D6
:103AA0000034023404348634003482348434DE3406
:103AB00060340A340C348E3408348A348C348E34B6
:103AC0000034023404348634003482348434DE34E6
:103AD00060340A340C348E3408348A348C348E3496
:103AE0000034023404348634003482348434DE34C6
:103AF00060340A340C348E3408348A348C348E3476
:103B00000034023404348634003482348434DE34A5
:103B100060340A340C348E3408348A348C348E3455
:103B20000034023404348634003482348434DE3485
:103B300060340A340C348E3408348A348C348E3435
:103B40000034023404348634003482348434DE3465
:103B500060340A340C348E3408348A348C348E3415
:103B60000034023404348634003482348434DE3445
:103B700060340A340C348E3408348A348C348E34F5
:103B80000034023404348634003482348434DE3425
:103B900060340A340C348E3408348A348C348E34D5
:103BA0000034023404348634003482348434DE3405
:103BB00060340A340C348E3408348A348C348E34B5
:103BC0000034023404348634003482348434DE34E5
:103BD00060340A340C348E3408348A348C348E3495
:103BE0000034023404348634003482348434DE34C5
:103BF00060340A340C348E3408348A348C348E3475
:103C00000034003401340034043400340934003406
:103C10001034003419340034243400343134003486
:103C20004034003451340034643400347934003486
:103C300090340034A9340034C4340034E134003406
:103C40000034013421340134443401346934013402
:103C500090340134B9340134E43401341134023481
:103C60004034023471340234A4340234D93402347E
:103C7000103403344934033484340334C1340334FA
:103C8000003404344134043484340434C9340434F6
:103C90001034053459340534A4340534F134053472
:103CA0004034063491340634E4340634393407346D
:103CB00090340734E934073444340834A1340834E8
:103CC0000034093461340934C434093429340A34E1
:103CD00090340A34F9340A3464340B34D1340B345C
:103CE00040340C34B1340C3424340D3499340D3454
:103CF00010340E3489340E3404340F3481340F34CC
:103D000000341034813410340434113489341134C3
:103D1000103412349934123424341334B13413343B
:103D200040341434D134143464341534F934153433
:103D30009034163429341734C434173461341834A9
:103D400000341934A134193444341A34E9341A349F
:103D500090341B3439341C34E4341C3491341D3415
:103D600040341E34F1341E34A4341F34593420340A
:103D700010342134C934213484342234413423347E
:103D800000342434C1342434843425344934263472
:103D900010342734D9342734A434283471342934E6
:103DA00040342A3411342B34E4342B34B9342C34D9
:103DB00090342D3469342E3444342F34213430344B
:103DC00000343134E1343134C4343234A93433343E
:103DD00090343434793435346434363451343734AF
:103DE000403438343134393424343A3419343B349F
:103DF00010343C3409343D3404343E3401343F340F
:103E000000344034013441340434423409344334FE
:103E1000103444341934453424344634313447346E
:103E2000403448345134493464344A3479344B345E
:103E300090344C34A9344D34C4344E34E1344F34CE
:103E400000345134213452344434533469345434BA
:103E500090345534B9345634E43457341134593429
:103E600040345A3471345B34A4345C34D9345D3416
:103E700010345F344934603484346134C134623482
:103E8000003464344134653484346634C93467346E
:103E90001034693459346A34A4346B34F1346C34DA
:103EA00040346E3491346F34E434703439347234C5
:103EB00090347334E934743444347634A134773430
:103EC0000034793461347A34C4347B3429347D3419
:103ED00090347E34F9347F3464348134D134823484
:103EE00040348434B134853424348734993488346C
:103EF00010348A3489348B3404348D3481348E34D4
:103F000000349034813491340434933489349434BB
:103F1000103496349934973424349934B1349A3423
:103F200040349C34D1349D3464349F34F934A0340B
:103F30009034A2342934A434C434A5346134A73471
:103F40000034A934A134AA344434AC34E934AD3457
:103F50009034AF343934B134E434B2349134B434BD
:103F60004034B634F134B734A434B9345934BB34A2
:103F70001034BD34C934BE348434C0344134C23406
:103F80000034C434C134C5348434C7344934C934EA
:103F90001034CB34D934CC34A434CE347134D0344E
:103FA0004034D2341134D434E434D534B934D73431
:103FB0009034D9346934DB344434DD342134DF3493
:103FC0000034E134E134E234C434E434A934E63476
:103FD0009034E8347934EA346434EC345134EE34D7
:103FE0004034F0343134F2342434F4341934F634B7
:103FF0001034F8340934FA340434FC340134FE3417
:020000040001F9
:04000E009C0FFC3F08
:10E00000570049004E000000DC0000000000010045
:10E01000B4004F008F00FD00000000000100B400BC
:10E020004F008F00FD0000002E0001002E000000B8
:10E0300000000000000000000000000000000000E0
:10E0400000000000000000000000000000000000D0
:10E0500000000000000000000000000000000000C0
:10E0600000000000000000000000000000000000B0
:10E0700000000000000000000000000000000000A0
:10E080000000000000000000000000000000000090
:10E090000000000000000000000000000000000080
:10E0A0000000000000000000000000000000000070
:10E0B0000000000000000000000000000000000060
:10E0C0000000000000000000000000000000000050
:10E0D0000000000000000000000000000000000040
:10E0E0000000000000000000000000000000000030
:10E0F0000000000000000000000000000000000020
:10E10000000000000000000000000000000000000F
:10E1100000000000000000000000000000000000FF
:10E1200000000000000000000000000000000000EF
:10E1300000000000000000000000000000000000DF
:10E1400000000000000000000000000000000000CF
:10E1500000000000000000000000000000000000BF
:10E1600000000000000000000000000000000000AF
:10E17000000000000000000000000000000000009F
:10E18000000000000000000000000000000000008F
:10E19000000000000000000000000000000000007F
:10E1A000000000000000000000000000000000006F
:10E1B000000000000000000000000000000000005F
:10E1C000000000000000000000000000000000004F
:10E1D000000000000000000000000000000000003F
:10E1E000000000000000000000000000000000002F
:10E1F000000000000000000000000000140000000B
:00000001FF
