:100000008131622908000800803120007F08F0005B
:1000100021008C105B189D145A155A0822000C06FA
:1000200026398C06200093119D308500210045085B
:1000300020008E1A01388400003F2100C5004708C7
:100040002200951801388400003F2100C7004608AF
:100050002200151801388400003F2100C600C51E8B
:100060003E2843353E39203E8400033085002E086B
:100070001A002F081A00C30AC20AC401491CDA1266
:10008000471B69282100DA105A0822000C0626397D
:100090008C062100B31FC728B20F4F28B30AB40F34
:1000A0005228B50AB51BC72849142E08AC022F08E0
:1000B0002F0FAD02C8302C0200302D3B0318DA168A
:1000C0003408053C031DC7282E08AC002F08AD00DE
:1000D0004910DA145A0822000C0626398C06210031
:1000E000B3013A0803199F28FD3EDF000A3EE000F5
:1000F000283030020030313B031C9F282A08300290
:10010000B4002B08313BB500F0300318B4000318DD
:10011000B5002A08243C84002B08333B85000530B9
:100120003402B2000030353BB30004083202050847
:10013000333B03189F280408B2000508B300471E8C
:10014000C728391437350E39603E840003308500E6
:100150002E081A002F081A00B70AB60AB801240898
:10016000A0002508A1002608A2002708A3003C083B
:10017000BB00A401A501A601A701BC013A0803190F
:10018000C728023EDD00013EDE00023EDC002E08F4
:10019000AE0FCB28AF0A03390B00D128052932292D
:1001A0004A292300A61FA60A24080319E6280C30B2
:1001B0002602031CE628A60125081F39A03E84005C
:1001C00003308500003F9A00A50AA4032100C80A55
:1001D0005B1CFB289D18EA281B0984009E308500C3
:1001E00084350318850A1200A4071200A53D0001FA
:1001F000A63DA73DBC0ADB01DD1FDD0B0900153064
:100200009D0020309E005B1409002300A21FA20A5B
:100210002000911E1E292300A2011908850020300C
:100220002002031C1E2923081F39C03E840003300E
:10023000050685060506803FA30AA00A21005B1C6F
:1002400028299D1821291C08803C031C003CBE0065
:10025000DB01DE1FDE0B090019309D0020309E00FF
:100260005B140900DF1FDF0B3A2946084706803A76
:10027000090DC00D5B1C40299D183C291C08BF00BE
:10028000DB01DC1FDC0B09000D309D0020309E00DF
:100290005B140900E01FE00B522946084706803A2C
:1002A000090DC10D5B1C58299D1854291C08BD005F
:1002B00025309D00A0309E005B14090070082000CE
:1002C000FF00090088019C31BC2C92316C228131E5
:1002D000003A03196C296D2977298431F124813181
:1002E0008731FF2781319431B124813177298831D9
:1002F0002F2081312000481C7E297F29BB292030F6
:10030000F3000430F4000730F9007908F5002330D9
:10031000913181218131003A03198F2990295E2B77
:100320002830F3000430F4001530F9007908F500A6
:100330003830913181218131003A0319A029A12956
:100340005E2B4030F3000430F4001C30F9007908D3
:10035000F5008F30913181218131003A0319B129A3
:10036000B2295E2BFE30F90079082000C8055E2B0B
:100370005E2B5E2B5E2BC81CBE29BF29FB29A0303B
:10038000F3000430F4000730F9007908F5002A3052
:10039000913181218131003A0319CF29D0295E2B77
:1003A000A830F3000430F4000730F9007908F500B4
:1003B0003130913181218131003A0319E029E1295D
:1003C0005E2BB030F3000430F4000E30F9007908F1
:1003D000F5005430913181218131003A0319F1291E
:1003E000F2295E2BFD30F90079082000C8055E2B4C
:1003F0005E2B5E2B5E2B481DFE29FF293B2A2030F9
:10040000F3000530F4000730F9007908F5001C30DE
:10041000913181218131003A03190F2A102A5E2B74
:100420002730F3000530F4000930F9007908F500B1
:100430008630913181218131003A0319202A212A05
:100440005E2B3030F3000530F4001C30F9007908E1
:10045000F5006230913181218131003A0319312A4E
:10046000322A5E2BFB30F90079082000C8055E2B8C
:100470005E2B5E2B5E2BC81D3E2A3F2A7A2A503007
:10048000F3000530F4000730F9007908F5007E30FC
:10049000913181218131003A03194F2A502A5E2B74
:1004A0005730F3000530F400F5010314F50D8530E5
:1004B000913181218131003A03195F2A602A5E2B34
:1004C0005830F3000530F4000730F9007908F500E2
:1004D0004D30913181218131003A0319702A712AFE
:1004E0005E2BF730F90079082000C8055E2B5E2BE3
:1004F0005E2B5E2B481E7D2A7E2ABA2AA030F3008E
:100500000530F4000430F9007908F500D730913156
:1005100081218131003A03198E2A8F2A5E2BA43063
:10052000F3000530F4000430F9007908F500DF30FD
:10053000913181218131003A03199F2AA02A5E2B33
:10054000A830F3000530F4000430F9007908F50014
:10055000D330913181218131003A0319B02AB12A77
:100560005E2BEF30F90079082000C8055E2B5E2B6A
:100570005E2B5E2BC81EBD2ABE2A0C2B2030F3003A
:100580000630F4000430F9007908F500AB30913101
:1005900081218131003A0319CE2ACF2A5E2B2430E3
:1005A000F3000630F4002430F9007908F500AF308C
:1005B000913181218131003A0319DF2AE02A5E2B33
:1005C0005030F3000630F4000230F9007908F500ED
:1005D000E530913181218131003A0319F02AF12A65
:1005E0005E2B5430F3000630F4001230F900790825
:1005F000F500E730913181218131003A0319012B57
:10060000022B5E2BDF30F90079082000C8055E2B35
:100610005E2B5E2B5E2B5E2B481F0F2B102B3A2B75
:100620005830F3000630F4000430F9007908F50082
:10063000DB30913181218131003A0319202B212BAC
:100640005E2B5C30F3000630F4000230F9007908CC
:10065000F500E330913181218131003A0319312BCA
:10066000322B5E2BBF30F90079082000C8055E2BC5
:100670005E2B5E2BC81F3D2B3E2B552B5030F300BD
:100680000030F400F5010314F50DFE3091318121A5
:100690008131003A03194D2B4E2B5E2B7F30F90030
:1006A00079082000C8055E2B5E2BC8015E2B5E2BEF
:1006B0005E2B5E2B5E2B5E2B5E2B5E2B08009C312F
:1006C00008248331F10071082000E1001430610238
:1006D00003186B2B6C2B872B6103FF3A143EF10040
:1006E0007108E10021003F0820006107F100710856
:1006F000E20021003F08200062020318802B812BBA
:100700009F2BFF30F1007108E2009F2B9F2B6108A7
:10071000EC3EF1007108E1006103FF3A21003F0760
:10072000F10071082000E200620821003F02031876
:100730009A2B9B2B9F2B2000E2019F2B9F2B2100AC
:10074000BA08031DA42BA52BA72BFD01F02C0C3000
:10075000200062020318AD2BAE2BB32B0A30F10040
:100760007108FD00F02C293062020318B82BB92B58
:10077000BD2BFD010314FD0DF02C2B30620203187C
:10078000C22BC32BD72B02307D02031CC82BC92BD5
:10079000CE2B0230D1000030D200D22B0130D1005C
:1007A0000030D2005108F1007108FD00F02C5D30DE
:1007B00062020318DC2BDD2BE22B0230F100710802
:1007C000FD00F02C5F3062020318E72BE82BFC2BB6
:1007D00003307D02031CED2BEE2BF32B0330D300F3
:1007E0000030D400F72B0230D3000030D40053087F
:1007F000F1007108FD00F02C743062020318012C26
:10080000022C072C0330F1007108FD00F02C76302B
:10081000620203180C2C0D2C212C04307D02031CC9
:10082000122C132C182C0430D5000030D6001C2CB0
:100830000330D5000030D6005508F1007108FD00E6
:10084000F02C883062020318262C272C2C2C043024
:10085000F1007108FD00F02C8A3062020318312C7F
:10086000322C462C05307D02031C372C382C3D2CB5
:100870000530D7000030D800412C0430D7000030BC
:10088000D8005708F1007108FD00F02C9D3062027D
:1008900003184B2C4C2C512C0530F1007108FD0035
:1008A000F02C9F3062020318562C572C6B2C06300C
:1008B0007D02031C5C2C5D2C622C0630D9000030BC
:1008C000DA00662C0530D9000030DA005908F10052
:1008D0007108FD00F02CB73062020318702C712CE7
:1008E000762C0630F1007108FD00F02CB930620260
:1008F00003187B2C7C2C902C07307D02031C812C50
:10090000822C872C0730DB000030DC008B2C06307B
:10091000DB000030DC005B08F1007108FD00F02C0A
:10092000D03062020318952C962C9B2C0730F100D6
:100930007108FD00F02CD23062020318A02CA12C0B
:10094000B52C08307D02031CA62CA72CAC2C08303B
:10095000DD000030DE00B02C0730DD000030DE00AE
:100960005D08F1007108FD00F02CEF306202031801
:10097000BA2CBB2CC02C0830F1007108FD00F02C03
:10098000F13062020318C52CC62CDA2C09307D0226
:10099000031CCB2CCC2CD12C0930DF000030E00024
:1009A000D52C0830DF000030E0005F08F10071084E
:1009B000FD00F02C0930F1007108FD00F02CF02C46
:1009C000F02CF02CF02CF02CF02CF02CF02CF02C47
:1009D000F02CF02CF02CF02CF02CF02CF02CF02C37
:1009E0000800F1010314F10D4D309131B92184312A
:1009F00020004B0844060319FE2CFF2C052D4B0844
:100A0000F7007708C400C2017B2E023042020318AF
:100A10000A2D0B2D102D0130F7007708C2077B2E11
:100A20004B0843060319152D162D1B2E0330F70016
:100A30007708F1004D3091311321843120004308B3
:100A4000031D232D682D083043020318282D292D5E
:100A5000682D2830F1000430F2004D30F3000030F2
:100A6000F4000330F7007708F5009C317C248431D2
:100A70001E3020004D0203183E2D3F2D512D4D08F4
:100A8000F7007708F1004308F8000130F835FF3E21
:100A9000031D462D7835FC3E403E9331962384312C
:100AA000652D20004D08E23EF7007708F10043086D
:100AB000F8000130F835FF3E031D5A2D7835FC3E15
:100AC000403E933196238431652D20004814682DD3
:100AD0004B08F7007708C3000330F7007708CD0014
:100AE000CE01CF014308031D762D7B2E0830430233
:100AF00003187B2D7C2D7B2E28002508F700770816
:100B0000A6002408F7007708A5002308F700770857
:100B1000A4002208F7007708A3002108F70077084F
:100B2000A2002008F7007708A10020004308F03E4B
:100B3000F70077082800A0003A30F1000430F200F6
:100B40003730F3000430F4000330F7007708F50085
:100B50009C317C2484313730F1000430F200343091
:100B6000F3000430F4000330F7007708F5009C31FF
:100B70007C2484313430F1000430F2003130F30051
:100B80000430F4000330F7007708F5009C317C2432
:100B900084313130F1000430F2002E30F3000430A3
:100BA000F4000330F7007708F5009C317C24843191
:100BB0002E30F1000430F2002B30F3000430F4004A
:100BC0000330F7007708F5009C317C2484312B300A
:100BD000F1000430F2002830F3000430F400033058
:100BE000F7007708F5009C317C2484312830F1002F
:100BF0000430F2004D30F3000030F4000330F70011
:100C00007708F5009C317C2484310330F7007708A5
:100C1000F10020004308F8000130F835FF3E031DC5
:100C20000D2E7835FC3E403E9331962384312000D2
:100C300048147B2E7B2E4308031D1F2E7B2E08306D
:100C400043020318242E252E7B2E4D08031D292E2A
:100C5000302E4D081E3A031D2E2E2F2E7B2E302EA9
:100C60002830F1000430F2004D30F3000030F40081
:100C70000330F7007708F5009C317C248431200094
:100C8000CF08031D442E452E622ECE08031D492E8B
:100C90004A2E622E4D081E3A031D4F2E502E622EF4
:100CA0001B30F7007708F1004308F8000130F835F1
:100CB000FF3E031D572E7835FC3E403E9331962370
:100CC0008431752E1E30F7007708F10020004308AC
:100CD000F8000130F835FF3E031D6A2E7835FC3EE2
:100CE000403E933196238431752E200048147B2E8C
:100CF0007B2E7B2E7B2E080020004008031D812EBA
:100D0000842E0130C002842E370836040319892E40
:100D10008A2E902E2100BA08031D8F2E902EE92FC7
:100D20002000BF018B132100B001B1018B17F32FFD
:100D3000F32FE92F8B132100B001B1018B17A02EE7
:100D40002B082A040319A52EA62EF32F20003708FE
:100D5000B101B1073608B001B0075030A200003031
:100D6000A300A001A101D0302100CA000730CB00B0
:100D70003230CC000030CD00F430CE000130CF0056
:100D8000D001D1013C30D4000030D500D201D301D4
:100D90005508D901D9075408D801D8075508D701F3
:100DA000D7075408D601D60701302000E6006608B0
:100DB000BF07C830E6006608C000F32FF32F2100FC
:100DC0003908031DE42EC62F2000C908031DE92E93
:100DD000EA2EC62F37083106031DF02E36083006DE
:100DE0000319F32EF42E132F37083102031DFA2EA8
:100DF000360830020318FD2EFE2E032FC830E60001
:100E00006608C000032F3708B101B1073608B001EA
:100E1000B007210059082000A301A30721005808AA
:100E20002000A201A20732303702C830031936026F
:100E3000031C1B2F1C2F2E2F19304002031C212FA7
:100E4000222F272F1930E6006608C000272F361CF6
:100E50002A2F2B2F2E2FC0012E2F2E2F21002B08B3
:100E6000F201F2072A08F101F1073630F3000030F1
:100E7000F4009C31DC24863171082000E600720801
:100E8000E7000630E736E60C890B422F6608EA00D9
:100E90006708EB000030A0070030A13D1030A23DF4
:100EA0000030A33D2308803AE6006B08803A6602D2
:100EB000031D5C2F6A082202031C5F2F602F672F1F
:100EC00020006B08A301A3076A08A201A207200063
:100ED0003409E6003509E700E60A0319E70A36088F
:100EE0006607E8003708673DE900C008031D792F51
:100EF0007A2F7F2FE91F7D2F7E2F852F7F2FF430B4
:100F00002100CA000130CB008B2FD0302100CA0055
:100F10000730CB008B2F20006908D201D207680868
:100F2000D101D107CA308C31632486312000361CB0
:100F30009A2F9B2FAA2F2830F1000030F2006B0867
:100F4000F401F4076A08F301F307CA30933145232B
:100F50008631BB2F2830F1000030F200200023083A
:100F6000F401F4072208F301F307CA309331452353
:100F70008631BB2FBB2F8B1321005908B101B1075C
:100F80005808B001B0078B17F32FF32F2000490842
:100F9000031DCB2FF32F013021002B026C300319DE
:100FA0002A02031CD42FD52FDD2F8B136730B000FE
:100FB0000030B1008B17F32FF32F8B135D30B0008F
:100FC0000030B1008B17F32FF32FF32FF32FF32FF4
:100FD000F32F20003F08003A03199A2E013A031913
:100FE000DF2EF32FF32F08008831EC288831FC28FE
:100FF0008931142989312429893181290134080052
:10100000080022009D019E01193021008C00113042
:1010100023008C0024008C0127008C01303021003B
:101020008D0023008D0124008D01203027008D00CC
:10103000EF3021008E00CF3023008E0024008E017F
:1010400027008E01220097019801990182309100BA
:1010500003309200A2309300013094000800200079
:101060004A08031D34283A280A304A02031C39284A
:101070003A283C28C101DE2841084A0603194128C4
:101080004228DE284A08F7007708C1002A00250810
:10109000F7007708A6002408F7007708A5002308C2
:1010A000F7007708A4002208F7007708A3002108BA
:1010B000F7007708A2002008F7007708A1002000B9
:1010C0004A08E03EF70077082A00A0000130F70048
:1010D00020004A08FF3E273E86000530870077083B
:1010E00081074830F1000530F2004430F30005304C
:1010F000F4000430F7007708F5009C317C24883137
:101100004430F1000530F2004030F3000530F400C7
:101110000430F7007708F5009C317C24883140309A
:10112000F1000530F2003C30F3000530F4000430EB
:10113000F7007708F5009C317C2488313C30F100C1
:101140000530F2003830F3000530F4000430F700C9
:101150007708F5009C317C2488313830F100053067
:10116000F2003430F3000530F4000430F700770863
:10117000F5009C317C2488313430F1000530F200D8
:101180003030F3000530F4000430F7007708F50044
:101190009C317C2488313030F1000530F200E2309F
:1011A000F3000030F4000430F7007708F5009C31BC
:1011B0007C24883120004815DE28DE280800200025
:1011C0002F082E040319E528E62899290130AE02DC
:1011D0000030AF3B9929992921003A08031DF128D5
:1011E000A3290130F30073082000BD070630AE00CC
:1011F0000030AF00A329A3292F082E04031D0129C5
:101200000229A3297D080A3A031D072908290D2967
:101210000130F3007308BD07A329FF30F300730802
:10122000BD00A329A329A3297D08013A031D19297B
:101230001A29A3290130F3007308BD072C30AE0032
:101240000130AF00A329A3297D08013A03192929F8
:101250002A292F29FF30F3007308BD00A32900308D
:101260002F02643003192E02031C3729382945291F
:1012700021003F08F30073082000BC0021003F0854
:10128000F30073082000BB00A3293C0821003F02A3
:1012900003184B294C2951293F08F30073082000FB
:1012A000BC0021003F0820003B020318582959299F
:1012B000602921003F08F30073082000BB0060296B
:1012C0002F082E04031D65296629A3290A303C0234
:1012D000031C6B296C2973291E303B02031C7129E6
:1012E000722978297329FF30F3007308BD00A32900
:1012F0000130F3007308BD07A329A329A329A3295B
:10130000A3293C083B07F300F401F40D0130FF0072
:10131000740DF40CF30CFF0B882973089C31222404
:101320008831FF30F30073082000BD00A329A329F2
:10133000A3293D088400053004020318A32987313E
:101340000435F43E820008002100BA08031DA929D3
:10135000AA29AE292000B201B3014A2A2100390886
:10136000031DB3294A2A3B08031DB7294A2A20082E
:101370002000DF00210021082000E00021002208D9
:101380002000E100210023082000E2000130DF35C9
:10139000E00DE10DE20D890BC7296208E600610846
:1013A000E5006008E4005F08E30021003B0820003E
:1013B000DF00E001E101E2016208EA006108E90002
:1013C0006008E8005F08E7002100BB012000660814
:1013D000F4006508F3006408F2006308F100963138
:1013E0002A26893171082000E3007208E400E50133
:1013F000E6016708DF006808E0006908E1006A08A4
:10140000E2001030DF35E00DE10DE20D890B022A1C
:101410006208F4006108F3006008F2005F08F10060
:1014200096312A26893171082000E7007208E80009
:10143000E901EA016A08D4006908D3006808D2000B
:101440006708D1006608F4006508F3006408F2003C
:101450006308F1000030F8000030F7000930F600B2
:101460006230F50091314A21893174082000D8009A
:101470007308D7007208D6007108D5009331EA23AB
:10148000893120005208B301B3075108B201B207F5
:101490004A2A4A2A033020003302E8300319320274
:1014A0000318532A542A572AA801A901722A013085
:1014B000A8070030A93D023029025830031928023C
:1014C000031C632A642A722A652AC908031D692A33
:1014D0006A2A722A0830DF005F08C900722A722A5D
:1014E000722A722A0800FB0127307A021030031991
:1014F0007902031C7C2A7D2AA62A1030F1002730AD
:10150000F2007A08F401F4077908F301F307923145
:10151000B0228A317108303E9C315E248A3110300D
:10152000F1002730F2007A08F401F4077908F3019A
:10153000F30792312E228A317208FA01FA077108F4
:10154000F901F907FB010314FB0DA62AFB08031D93
:10155000AA2AAB2AB52A03307A02E83003197902A5
:10156000031CB32AB42ADE2AB52AE830F10003307E
:10157000F2007A08F401F4077908F301F3079231D5
:10158000B0228A317108303E9C315E248A31E830C5
:10159000F1000330F2007A08F401F4077908F3014E
:1015A000F30792312E228A317208FA01FA07710884
:1015B000F901F907FB010314FB0DDE2AFB08031DEB
:1015C000E22AE32AED2A00307A0264300319790214
:1015D000031CEB2AEC2A162BED2A6430F1000030B4
:1015E000F2007A08F401F4077908F301F307923165
:1015F000B0228A317108303E9C315E248A316430D9
:10160000F1000030F2007A08F401F4077908F301E0
:10161000F30792312E228A317208FA01FA07710813
:10162000F901F907FB010314FB0D162BFB08031D41
:101630001A2B1B2B252B00307A020A300319790252
:10164000031C232B242B4B2B252B0A30F1000030BD
:10165000F2007A08F401F4077908F301F3079231F4
:10166000B0228A317108303E9C315E248A310A30C2
:10167000F1000030F2007A08F401F4077908F30170
:10168000F30792312E228A317208FA01FA077108A3
:10169000F901F9074B2B7908303E9C315E248A31E1
:1016A000080001302000DF005F082100C40732304D
:1016B0004402031C5C2B5D2B652B32302000DF00C5
:1016C0005F082100C400C2011F2C03304202031C2A
:1016D0006A2B6B2B1F2C1E304202031C702B712BAC
:1016E000782B1E302000DF005F082100C200782B1D
:1016F0004208FE3E2000DF005F08E50021004308AD
:10170000FF3E2000DF005F08E700E60104306502CD
:1017100003188B2B8C2BB12B6508DF005F08E600CC
:1017200067081F390907203E8600033087006603DB
:10173000FF3A67071F390907203E84000330850000
:10174000003FDF00013FE000DF09E009DF0A031985
:10175000E00A403F5F07E300413F603DE400EC2BBF
:10176000B12B0430E5020430DF005F08E6076708AC
:101770001F390907203E8600033087006603FF3AC1
:1017800067071F390907203E840003308500003FAA
:10179000DF00013FE000DF09E009DF0A0319E00A8A
:1017A000403F5F07E300413F603DE40004306502D5
:1017B0000318DB2BDC2BDE2BEC2BEC2B063064022E
:1017C000403003196302031CE62BE72BB12BEC2BF3
:1017D000EC2BB12BB12BEC2B6308D1006408D200A9
:1017E000D301D4016608DF00E001E101E2016208F3
:1017F000F4006108F3006008F2005F08F1000030B7
:10180000F8000930F7002730F600C030F5009131BC
:101810004A218B3174082000D8007308D700720861
:10182000D6007108D5009331EA238B31200052088D
:10183000B501B5075108B401B4071F2C1F2C2100B6
:101840003A082000DF00E00121003108200060029A
:10185000031D2E2C2100300820005F020318312CBC
:10186000322C412C013035022C3003193402031C78
:101870003A2C3B2C452C21004208031D402C452CC2
:10188000412C2000AA01AB01622C01302000AA07E4
:101890000030AB3D01302B022C3003192A02031C0F
:1018A000522C532C622C542CC908031D582C592C33
:1018B000622C0730C900DF005F08C900622C622C6F
:1018C000622C622C08002000E50065080C3E8600B2
:1018D0008701403FD300413FD40065080E3E86009B
:1018E0008701403FD500413FD6005608803AD700D7
:1018F0005408803A5702031D7F2C530855020318E1
:10190000822C832C892C2000D21F872C882CDC2C45
:10191000892C200065080E3E86008701403FD300D9
:10192000413FD40065080C3E86008701403FD5004A
:10193000413FD6005608803AD7005408803A5702F3
:10194000031DA42C530855020318A72CA82CAE2C59
:101950002000D21BAC2CAD2CDC2CAE2C200065085A
:10196000023E86008701403FD300413FD400530828
:10197000F1005408F200890D893B8909F300F40055
:101980005108F5005208F600890D893B8909F700D6
:10199000F80091314A218C3120006508083E86000C
:1019A00087017108810741317208813D4131730817
:1019B000813D41317408813D6508083E86008701FC
:1019C000403FD300413FD400423FD500433FD600C3
:1019D0006508063E86008701403FD700413FD8009A
:1019E0005708D9005808DA000030DA1BFF30DB0056
:1019F000DC00D909DA09DB09DC09D90A0319DA0A9A
:101A00000319DB0A0319DC0A650886008701403FD9
:101A1000DD00413FDE005D08F1005E08F200890D47
:101A2000893B8909F300F4005108F5005208F600DB
:101A3000890D893B8909F700F80091314A218C31E1
:101A400071082000DF007208E0007308E1007408EC
:101A5000E2006508043E86008701403FE300413F05
:101A6000E4006308F1006408F200890D893B8909EC
:101A7000F300F4005108F5005208F600890D893B87
:101A80008909F700F80091314A218C317108200052
:101A9000DF077208E03D7308E13D7408E23D5F082E
:101AA000D9076008DA3D6108DB3D6208DC3D590872
:101AB000D3075A08D43D5B08D53D5C08D63D650880
:101AC0000C3E860087015308C03F5408C13F5508AB
:101AD000C23F5608C33F65080E3E86008701403F5F
:101AE000D300413FD40065080C3E860087015308AF
:101AF000C03F5408C13F6508063E86008701510873
:101B0000C03F5208C13F842D080083315F238D31CF
:101B10008831DF208D312000270826042504240485
:101B20000319932D942D9F2E0130F5000030F600FF
:101B30000030F7000030F8007508A4027608A53BD5
:101B40007708A63B7808A73B9F2E9F2EB601B701CA
:101B5000CC010314CC0D0030A7000030A6000130EA
:101B6000A500F430A400AA2EB601B701C908031DD0
:101B7000BA2DBB2DC42D2708260425042404031DDB
:101B8000C22DC32DD52DC42D4908F5007508CA00F6
:101B90000330F5007508CC000030A7000030A60027
:101BA0000030A5003230A400AA2E21004008FF3AE0
:101BB000031DDB2DDC2DAA2E4108FF3A031DE12D6C
:101BC000E22DAA2E2000ED1BE62DE72DAA2E0230D5
:101BD000F5007508CC000030A7000030A6001730D3
:101BE000A5007030A400AA2EAA2EAA2EC908031D93
:101BF000FA2DFB2D042E2708260425042404031D9A
:101C0000022E032E812E042E2708260425042404E8
:101C1000031D0B2E0C2E162EC908031D102E112E7F
:101C2000162E0430F5007508C900162E4908F50077
:101C30007508CA000330F5007508CC000030A70015
:101C40000030A6000030A5000530A400AA2E812E89
:101C5000CB01B601B701AA2ECB01B601B701AA2E5E
:101C60000230F5007508CB00C430B6000930B7006B
:101C7000AA2E0230F5007508CB008830B60013306C
:101C8000B700AA2E0330F5007508CB007030B600FF
:101C90001730B700AA2E0430F5007508CB0040308D
:101CA000B6001F30B700AA2E0530F5007508CB002E
:101CB0001C30B6002530B700AA2E0630F500750896
:101CC000CB000430B6002930B700AA2E0730F5004B
:101CD0007508CB00E030B6002E30B700AA2E0730D2
:101CE000F5007508CB00BC30B6003430B700AA2E22
:101CF000CB010314CB0DBD30B6003430B700AA2E93
:101D0000AA2E7D08FF3E031C282E84000A30040200
:101D10000318282E98310435003E8200AA2EAA2EE0
:101D20002708260425042404031D972E982EAA2E86
:101D30000430F5007508CC00AA2EAA2EAA2E4C0855
:101D4000003A0319A62D013A0319B42D033A0319D9
:101D5000F62D902E08002000C8011E30F7007708ED
:101D60002100E100E201E301E401E5012030F2009D
:101D70000430F3000730F7007708F40023309C317B
:101D80009C248E312830F2000430F3001530F70027
:101D90007708F40038309C319C248E314030F200BA
:101DA0000430F3001C30F7007708F4008F309C31CA
:101DB0009C248E31A030F2000430F3000730F7008D
:101DC0007708F4002A309C319C248E31A830F20030
:101DD0000430F3000730F7007708F40031309C310D
:101DE0009C248E31B030F2000430F3000E30F70046
:101DF0007708F40054309C319C248E312030F2005E
:101E00000530F3000730F7007708F4001C309C31F0
:101E10009C248E312730F2000530F3000930F700A2
:101E20007708F40086309C319C248E313030F200EB
:101E30000530F3001C30F7007708F40062309C3165
:101E40009C248E315030F2000530F3000730F7004B
:101E50007708F4007E309C319C248E315730F2009C
:101E60000530F300F4010314F40D85309C319C24FB
:101E70008E315830F2000530F3000730F700770854
:101E8000F4004D309C319C248E31A030F20005309E
:101E9000F3000430F7007708F400D7309C319C241D
:101EA0008E31A430F2000530F3000430F7007708DB
:101EB000F400DF309C319C248E31A830F2000530D4
:101EC000F3000430F7007708F400D3309C319C24F1
:101ED0008E312030F2000630F3000430F70077082E
:101EE000F400AB309C319C248E312430F20006305B
:101EF000F3002430F7007708F400AF309C319C24C5
:101F00008E315030F2000630F3000230F7007708CF
:101F1000F400E5309C319C248E315430F2000630C0
:101F2000F3001230F7007708F400E7309C319C246E
:101F30008E315830F2000630F3000430F700770895
:101F4000F400DB309C319C248E315C30F200063092
:101F5000F3000230F7007708F400E3309C319C2452
:101F60008E315030F2000030F300F4010314F40D10
:101F7000FE309C319C248E31A830F7007708F100A8
:101F80000430F8007808F200A0309131F2218E314F
:101F9000F9007908FA00FA1FCE2FCF2FE32F2B007C
:101FA0002B08F7007708A3002A08F7007708A2009B
:101FB0002908F7007708A1002808F7007708A00093
:101FC00020004816FF2F7A08803A7F3E031CE92F35
:101FD000EA2FFF2F2B002308F7007708AB00220819
:101FE000F7007708AA002108F7007708A900200861
:101FF000F7007708A80020004816FF2FFF2F0800E1
:1020000000347F347F347F347F347F347F347F34B7
:102010007F347F347F347F347F347F347F347F3428
:102020007F347F347F347F347F347F347F347F3418
:102030007F347F347F347F347F347F347F347F3408
:102040007F347F347F347F347F347F347F347F34F8
:102050007F347F347F347F347F347F347F347F34E8
:102060007F347F347F347F347F347F347F347F34D8
:102070007F347F347F347F347F347F347F347F34C8
:102080007F347E347D347C347B347A347A347934D2
:1020900078347734773476347534753474347334F3
:1020A000733472347134713470346F346F346E340D
:1020B0006D346D346C346B346B346A346A34693427
:1020C000683468346734673466346634653464343D
:1020D0006434633463346234623461346134603450
:1020E00060345F345E345E345D345D345C345C3463
:1020F0005B345B345A345A34593459345834583474
:102100005734573456345634553455345434543483
:102110005334533452345234513451345034503493
:102120004F344F344E344E344D344D344C344C34A3
:102130004B344B344A344A344934493448344834B3
:1021400047344734463446344534453444344434C3
:1021500043344334423442344134413440344034D3
:102160003F343F343E343E343D343D343C343C34E3
:102170003B343B343A343A343934383438343734F5
:102180003734363436343534353434343334333408
:10219000323432343134303430342F342E342E341F
:1021A0002D342D342C342B342A342A342934283439
:1021B0002834273426342534253424342334223457
:1021C0002134213420341F341E341D341C341B347C
:1021D0001A341934183417341534143413341234AF
:1021E00010340F340D340C340A34083406340434FB
:1021F000023400340034003400340034003400343D
:102200000034F20072082300910071089300151346
:10221000951315158B1355309600AA30960095141A
:102220008B1715110800F3007308860087017108E9
:1022300081027308860087013C300102031C2129BA
:10224000222949293C30F200730886008701720870
:1022500081077308013E86008701013081027308FF
:10226000013E860087013C300102031C38293929D0
:1022700049293C30F2007308013E8600870172084C
:1022800081077308023E86008701013081024929D7
:10229000492908000030FC000030FB000030FA0043
:1022A0000030F9005329711C5629572960297508F7
:1022B000F9077608FA3D7708FB3D7808FC3D602970
:1022C0000130F535F60DF70DF80D890B6129013058
:1022D000F436F30CF20CF10C890B682974087304C2
:1022E00072047104031D75297629532977297C0806
:1022F000F4007B08F3007A08F2007908F1008029E5
:102300000800F700A9290130F50273088600740857
:10231000870077089C31182491310106031D91290B
:1023200092299B290130F6007608F7070130F30760
:102330000030F43DA929730886007408870001085D
:10234000F6007608F1007708913101219131AF292B
:10235000A929F508031DAD29AE298329AF297508E0
:10236000031DB329B6290030B829B8290130B8298E
:102370000800F3007108F2007308860087017208F4
:1023800081077308860087013C300102031CC929BC
:10239000CA29F1297308860087013C308102013087
:1023A000F2007308013E86008701720881077308F6
:1023B000013E860087013C300102031CE029E1292F
:1023C000F1297308013E860087013C30810201300B
:1023D000F2007308023E8600870172088107F12926
:1023E000F1290800F500252A0130F202720875076C
:1023F000F300730886000530870072087107F40047
:102400007408840005308500000801020318092AB9
:102410000A2A0D2AFF302D2A2D2A72087107F3008F
:10242000730886000530870072087507F400740889
:10243000840005308500000801020318202A212AA3
:10244000252A01302D2A2D2A252AF208031D292AA2
:102450002A2AF4292B2A00302D2A08007208710438
:102460000319332A342A642AF6010314F60D422A8A
:102470000130F135F20D890B392A0130F50075086C
:10248000F607422AF21F452A462A382A482A482AAD
:1024900072087402031D4E2A71087302031C512A2C
:1024A000522A572A7108F3027208F43B572A013066
:1024B000F236F10C890B582A0130F602031D612A0D
:1024C000622A482A642A642A7408F201F20773080F
:1024D000F101F1076B2A08000130F70077082000AE
:1024E000C70764304702031C762A772AAD2AC70142
:1024F0000130F70077082100E1073C306102031C3E
:10250000822A832AAA2AE101E230F1000030F20097
:10251000F3010314F30D94314D249231A030F100F6
:102520000530F200F3010314F30D94314D24923180
:10253000A830F1000530F200A030F3000530F400BF
:102540000430F7007708F5009C317C24923120009C
:102550004816AA2A0130AF2AAF2A0030AF2A080055
:10256000F601F701720871040319B72AB82AEE2A96
:10257000F8010314F80DC62A0130F135F20D890B6C
:10258000BD2A0130F5007508F807C62AF21FC92ACE
:10259000CA2ABC2ACC2ACC2A0130F635F70D890B81
:1025A000CD2A72087402031DD72A71087302031C16
:1025B000DA2ADB2AE12A7108F3027208F43B761466
:1025C000E12A0130F236F10C890BE22A0130F802DF
:1025D000031DEB2AEC2ACC2AEE2AEE2A7708F20118
:1025E000F2077608F101F107F52A08008B139731FD
:1025F000542792318831002092319C314624923107
:102600009C310C2492318E31AB269231072B8B17E3
:102610006400643021004802031C0F2B102B072B91
:102620006430C80288310120923180310220923119
:102630009531A12592319C31312492318D318525FE
:10264000923181316521923120004C08043A031DFA
:102650002A2B2B2B302B4808031D2F2B352B302BEF
:102660000530EC006C08EE00072B0130EE02031D74
:102670003A2B3B2B072BEE010314EE0D072B072BF8
:10268000072B072B072B81316229F8007208803A4B
:10269000F5007408803A7502031D502B730871020F
:1026A0000318532B542B952B78080E3E8600870178
:1026B000403FF500413FF6007408803AF700760885
:1026C000803A7702031D662B750873020318692B85
:1026D0006A2B732B78080E3E860087017308C03F73
:1026E0007408C13F952B78080E3E86008701403F55
:1026F000F500413FF6007608803AF7007208803A0C
:102700007702031D852B710875020318882B892B0E
:10271000952B78080E3E860087017108C03F72082D
:10272000C13F952B952B952B952B0800F300710835
:10273000F20073088600043087007208810773086E
:102740008600043087003C300102031CA82BA92B13
:10275000E92B73088600043087003C308102013089
:10276000F2007308013E860004308700720881077A
:102770007308013E8600043087003C300102031CD0
:10278000C22BC32BE92B7308013E8600043087005F
:102790003C3081020130F2007308023E86000430B2
:1027A0008700720881077308023E860004308700A4
:1027B0008108031DDC2BDD2BE92B0130F2007308AF
:1027C000033E86000430870072088107E92BE92B5D
:1027D000E92B080000302000DD000030DC00003074
:1027E000DB000030DA00540853045204510403198A
:1027F000FA2BFB2B432CDE010314DE0D0B2C0130D6
:10280000D135D20DD30DD40D890B002C0130D90058
:102810005908DE070B2CD41F0E2C0F2CFF2B112C6C
:10282000112C0130DA35DB0DDC0DDD0D890B122C9E
:1028300054085802031D262C53085702031D262C4A
:1028400052085602031D262C51085502031C292C40
:102850002A2C342C5108D5025208D63B5308D73BBA
:102860005408D83B5A14342C0130D436D30CD20C33
:10287000D10C890B352C0130DE02031D402C412C7C
:10288000112C432C432C5D08D4005C08D3005B085A
:10289000D2005A08D1004C2C08007308F4007108CB
:1028A0008600720887007408810771088600720824
:1028B00087003C300102031C5E2C5F2CB02C710899
:1028C0008600720887003C3081020130F4007108F4
:1028D000013EF5000030723DF6007508860076086E
:1028E0008700740881077108013EF4000030723DD2
:1028F000F50074088600750887008108031D812C87
:10290000822CB02C0130F4007108023EF50000303A
:10291000723DF60075088600760887007408810706
:102920007108023EF4000030723DF5007408860024
:10293000750887008108031D9E2C9F2CB02C013048
:10294000F4007108033EF5000030723DF600750892
:1029500086007608870074088107B02CB02CB02C54
:1029600008002000CB08031DB62CB72CBD2CC501D8
:102970006D08F1007108C600192D6D08F100F20113
:10298000F11BF2037208803A803C031DCA2C7108C7
:102990002A0057020318CD2CCE2CD62C20006D080F
:1029A000F10071082A00D7002000C8152000460851
:1029B000803AF1006D08803AF1020318E02CE12C16
:1029C000E62C6D08F1007108C600E62C2100E10834
:1029D000031DEB2CEC2C192D2000C508031DF12C38
:1029E000F22C0F2DC5010314C50D2A005D08F1005E
:1029F0007108DE005C08F1007108DD005B08F10081
:102A00007108DC005A08F1007108DB005908F10078
:102A10007108DA005808F1007108D9000F2D200064
:102A20004608F10071082A00D8002000C815192DA9
:102A3000192D08002100BA08031D1F2D202D272D58
:102A40002000AC01AD01BA01B901B801A02D2100EF
:102A50003908031D2C2DA02D3D08F100F20171084D
:102A60002000AC077208AD3D023021003D02031C7E
:102A70003A2D3B2D422DFE303D02031C402D412DB1
:102A8000472D422D0130F10071082000BA070130B6
:102A9000F10071082000B80704303802031C512DE2
:102AA000522DA02DBA08031D562D572D812DB90189
:102AB0002D08F2002C08F1000230F236F10C890BDF
:102AC0005D2D7108013E840090300318013E8500A1
:102AD0000008F3007308ED006D08803A183E031CEF
:102AE000722D732D992D742DC908031D782D792D04
:102AF000992D0230F1007108C900992D992D992D59
:102B0000992D0130F1007108B9070A303902031C10
:102B10008A2D8B2D992D8C2DC908031D902D912D5B
:102B2000992D0230F1007108C900992D992D992D28
:102B3000992DAC01AD01BA01B801A02DA02DA02D99
:102B4000080001302000D1005108BE0764303E0269
:102B5000031CAB2DAC2D292EBE017D08D100D20166
:102B60005108F9005208FA008A31732295312C304D
:102B70009C315E24953121003F082000D100D20114
:102B80005108F9005208FA008A31732295312C302D
:102B90009C315E24953121003D082000D100D201F6
:102BA0005108F9005208FA008A31732295312C300D
:102BB0009C315E24953120003708FA01FA07360867
:102BC000F901F9078A31732295312C309C315E244A
:102BD000953120003508FA01FA073408F901F907A0
:102BE0008A31732295312C309C315E24953120003E
:102BF0003308FA01FA073208F901F9078A3173221A
:102C000095312C309C315E24953120006D08F900FF
:102C1000FA01F91BFA038A31732295312C309C3169
:102C20005E249531FE309C31182495312000D1006E
:102C3000D2015108F9005208FA008A317322953105
:102C40000D309C315E2495310A309C315E249531E3
:102C5000292E080000302000DD000030DC000030AC
:102C6000DB000030DA000030D5000030D400003046
:102C7000D3000030D2000030D9000030D80000303E
:102C8000D7000030D6001030F5007508D100482E6E
:102C90000130DA35DB0DDC0DDD0D890B492E0130FD
:102CA000D635D70DD80DD90D890B502EF41F592EBE
:102CB0005A2E5C2E56145C2E0130F135F20DF30DB8
:102CC000F40D890B5D2E0130D635D70DD80DD90DF9
:102CD000890B642EF41F6D2E6E2E702E5614702EDE
:102CE0000130F135F20DF30DF40D890B712E5A08F8
:102CF000F5005B08F6005C08F7005D08F80001309D
:102D0000F535F60DF70DF80D890B802E01307504A1
:102D1000D20000307604D30000307704D4000030B5
:102D20007804D50055085902031DA02E54085802F6
:102D3000031DA02E53085702031DA02E5208560251
:102D4000031CA32EA42EAE2E5208D6025308D73B46
:102D50005408D83B5508D93B5A14AE2E0130D10245
:102D6000031DB32EB42E482EB52E5B08F201F207D8
:102D70005A08F101F107BC2E08000130F10071087A
:102D80002100B80705303802031CC72EC82ED12EEB
:102D90000530F1007108B800B601BA01AA01AB0113
:102DA0002F2F05303602031CD62ED72E2F2F05309D
:102DB000F1007108B6003708FF3EF1007108F50018
:102DC000750807390907603E8600033087007508DB
:102DD000FC3E07390907603E840003308500003F50
:102DE000F100013FF200F109F209F10A0319F20AB8
:102DF000403F7107F300413F723DF4000330F43669
:102E0000F30C890BFF2E7308F6007408F7000130ED
:102E100077022D3003197602031C0F2F102F2F2F4E
:102E200001307702F430031976020318182F192F96
:102E30002F2F7708AB01AB077608AA01AA077708FE
:102E4000F2007608F1000330F236F10C890B242FE2
:102E50007108F3007308BA002F2F2F2F2F2F3A0875
:102E6000031D332F362FA801A901532F0130A807C6
:102E70000030A93D013029022C3003192802031C1F
:102E8000422F432F532F442F2000C908031D492FE1
:102E90004A2F532F0A30C900F1007108C900532F7F
:102EA000532F532F532F08008B13F030210099001C
:102EB00098011130970022009D019E010430F1001D
:102EC00071082100DA00043022008C001930210042
:102ED0008C00113023008C0024008C0127008C0111
:102EE000E03022008D00303021008D0023008D0164
:102EF00024008D01203027008D0022008E01EF304C
:102F000021008E00CF3023008E0024008E01270088
:102F10008E012200970199019801033092008230BE
:102F2000910001309400A2309300A03021009E0057
:102F300025309D00DB010314DB0DFF30F10071082B
:102F4000DD00FF30F1007108DE00FF30F100710894
:102F5000DC00BE01BF01BD010030A7000030A600AB
:102F60000030A5000030A400BC010030A3000030F8
:102F7000A2000030A1000030A000BB010A302300F5
:102F80009F001F309B0003309C009D0104309E0079
:102F90009D171D169E16A601A401A701A501A20159
:102FA000A001A301A1012000990130309800313027
:102FB00028009D0005309E002000910192019301A0
:102FC00094012100910192010830930094010B17A4
:102FD000C801AE01AF01FF30F1007108DF00FF3022
:102FE000F1007108E000C001C101C501C701C601BF
:102FF000B401B501B201B301AC01AD01C9010800D2
:103000008E312C2E8E31302E8E31392E8E31422E35
:103010008E314B2E8E31542E8E315D2E8E31662E9A
:083020008E316F2E8E31782EE7
:10381000200050080B2C08002000CC01CB01CA016D
:10382000FD010800640080010131890B132C003474
:10383000F100710823009100151395131514130856
:10384000212C0800F2002000500872060319292CD0
:103850002A2C302C7208F1007108D000C817302CC7
:10386000080095311A259C318931A4219C318B3176
:1038700051239C319631BD269C31803103209C31EF
:1038800086317C269C312100B90108002100B70156
:10389000B601B801AA01AB01BA01B901C301C20165
:1038A000C401B001B1012000B601B701B401B501F6
:1038B000B201B301C901ED01ED030800F2002030AF
:1038C00023002402031C652C662C682C7B2C7B2C8B
:1038D0007208F10027081F39A03E860003308700D8
:1038E000710881000130F1007108A7070130F10073
:1038F0007108A4077B2C0800922C730886007408BA
:1039000087000108F60071088600720887007608B3
:1039100081000130F1070030F23D0130F307003043
:10392000F43D922C0130F5027508FF3A031D992CE5
:103930009A2C7D2C9B2C0800F600B22C76089C312A
:1039400018249C31F50072088600730887007508FA
:1039500081000130F5007508F6070130F2070030EC
:10396000F33DB22C0130F4027408FF3A031DB92C68
:10397000BA2C9E2CBB2C0800FD01203084000030A6
:10398000850031309C3112249C31A03084000030FD
:1039900085003A309C3112249C31A03084000130E3
:1039A000850008309C3112249C318731FE279C31E0
:1039B000EE0020009231F62AF501F601DF2C711C91
:1039C000E22CE32CE72C7308F5077408F63D013070
:1039D000F335F40D890BE82C0130F236F10C890B2C
:1039E000ED2C72087104031DF62CF72CDF2CF82C3B
:1039F0007608F201F2077508F101F107FF2C0800C3
:103A00000034023404348634003482348434DE34A6
:103A100060340A340C348E3408348A348C348E3456
:103A20000034023404348634003482348434DE3486
:103A300060340A340C348E3408348A348C348E3436
:103A40000034023404348634003482348434DE3466
:103A500060340A340C348E3408348A348C348E3416
:103A60000034023404348634003482348434DE3446
:103A700060340A340C348E3408348A348C348E34F6
:103A80000034023404348634003482348434DE3426
:103A900060340A340C348E3408348A348C348E34D6
:103AA0000034023404348634003482348434DE3406
:103AB00060340A340C348E3408348A348C348E34B6
:103AC0000034023404348634003482348434DE34E6
:103AD00060340A340C348E3408348A348C348E3496
:103AE0000034023404348634003482348434DE34C6
:103AF00060340A340C348E3408348A348C348E3476
:103B00000034023404348634003482348434DE34A5
:103B100060340A340C348E3408348A348C348E3455
:103B20000034023404348634003482348434DE3485
:103B300060340A340C348E3408348A348C348E3435
:103B40000034023404348634003482348434DE3465
:103B500060340A340C348E3408348A348C348E3415
:103B60000034023404348634003482348434DE3445
:103B700060340A340C348E3408348A348C348E34F5
:103B80000034023404348634003482348434DE3425
:103B900060340A340C348E3408348A348C348E34D5
:103BA0000034023404348634003482348434DE3405
:103BB00060340A340C348E3408348A348C348E34B5
:103BC0000034023404348634003482348434DE34E5
:103BD00060340A340C348E3408348A348C348E3495
:103BE0000034023404348634003482348434DE34C5
:103BF00060340A340C348E3408348A348C348E3475
:103C00000034003401340034043400340934003406
:103C10001034003419340034243400343134003486
:103C20004034003451340034643400347934003486
:103C300090340034A9340034C4340034E134003406
:103C40000034013421340134443401346934013402
:103C500090340134B9340134E43401341134023481
:103C60004034023471340234A4340234D93402347E
:103C7000103403344934033484340334C1340334FA
:103C8000003404344134043484340434C9340434F6
:103C90001034053459340534A4340534F134053472
:103CA0004034063491340634E4340634393407346D
:103CB00090340734E934073444340834A1340834E8
:103CC0000034093461340934C434093429340A34E1
:103CD00090340A34F9340A3464340B34D1340B345C
:103CE00040340C34B1340C3424340D3499340D3454
:103CF00010340E3489340E3404340F3481340F34CC
:103D000000341034813410340434113489341134C3
:103D1000103412349934123424341334B13413343B
:103D200040341434D134143464341534F934153433
:103D30009034163429341734C434173461341834A9
:103D400000341934A134193444341A34E9341A349F
:103D500090341B3439341C34E4341C3491341D3415
:103D600040341E34F1341E34A4341F34593420340A
:103D700010342134C934213484342234413423347E
:103D800000342434C1342434843425344934263472
:103D900010342734D9342734A434283471342934E6
:103DA00040342A3411342B34E4342B34B9342C34D9
:103DB00090342D3469342E3444342F34213430344B
:103DC00000343134E1343134C4343234A93433343E
:103DD00090343434793435346434363451343734AF
:103DE000403438343134393424343A3419343B349F
:103DF00010343C3409343D3404343E3401343F340F
:103E000000344034013441340434423409344334FE
:103E1000103444341934453424344634313447346E
:103E2000403448345134493464344A3479344B345E
:103E300090344C34A9344D34C4344E34E1344F34CE
:103E400000345134213452344434533469345434BA
:103E500090345534B9345634E43457341134593429
:103E600040345A3471345B34A4345C34D9345D3416
:103E700010345F344934603484346134C134623482
:103E8000003464344134653484346634C93467346E
:103E90001034693459346A34A4346B34F1346C34DA
:103EA00040346E3491346F34E434703439347234C5
:103EB00090347334E934743444347634A134773430
:103EC0000034793461347A34C4347B3429347D3419
:103ED00090347E34F9347F3464348134D134823484
:103EE00040348434B134853424348734993488346C
:103EF00010348A3489348B3404348D3481348E34D4
:103F000000349034813491340434933489349434BB
:103F1000103496349934973424349934B1349A3423
:103F200040349C34D1349D3464349F34F934A0340B
:103F30009034A2342934A434C434A5346134A73471
:103F40000034A934A134AA344434AC34E934AD3457
:103F50009034AF343934B134E434B2349134B434BD
:103F60004034B634F134B734A434B9345934BB34A2
:103F70001034BD34C934BE348434C0344134C23406
:103F80000034C434C134C5348434C7344934C934EA
:103F90001034CB34D934CC34A434CE347134D0344E
:103FA0004034D2341134D434E434D534B934D73431
:103FB0009034D9346934DB344434DD342134DF3493
:103FC0000034E134E134E234C434E434A934E63476
:103FD0009034E8347934EA346434EC345134EE34D7
:103FE0004034F0343134F2342434F4341934F634B7
:103FF0001034F8340934FA340434FC340134FE3417
:020000040001F9
:04000E009C0FFC3F08
:10E00000570049004E000000DC0000000000010045
:10E01000B4004F008F00FD00000000000100B400BC
:10E020004F008F00FD0000002E0000002E000200B7
:10E0300000000000000000000000000000000000E0
:10E0400000000000000000000000000000000000D0
:10E0500000000000000000000000000000000000C0
:10E0600000000000000000000000000000000000B0
:10E0700000000000000000000000000000000000A0
:10E080000000000000000000000000000000000090
:10E090000000000000000000000000000000000080
:10E0A0000000000000000000000000000000000070
:10E0B0000000000000000000000000000000000060
:10E0C0000000000000000000000000000000000050
:10E0D0000000000000000000000000000000000040
:10E0E0000000000000000000000000000000000030
:10E0F0000000000000000000000000000000000020
:10E10000000000000000000000000000000000000F
:10E1100000000000000000000000000000000000FF
:10E1200000000000000000000000000000000000EF
:10E1300000000000000000000000000000000000DF
:10E1400000000000000000000000000000000000CF
:10E1500000000000000000000000000000000000BF
:10E1600000000000000000000000000000000000AF
:10E17000000000000000000000000000000000009F
:10E18000000000000000000000000000000000008F
:10E19000000000000000000000000000000000007F
:10E1A000000000000000000000000000000000006F
:10E1B000000000000000000000000000000000005F
:10E1C000000000000000000000000000000000004F
:10E1D000000000000000000000000000000000003F
:10E1E000000000000000000000000000000000002F
:10E1F000000000000000000000000000140000000B
:00000001FF
